S01400004C414D535F53414D5F4535342E7372656396
S113000030000120E1020000DD020000DD020000FA
S1130010DD020000DD020000DD020000000000003F
S1130020000000000000000000000000DD020000ED
S1130030DD02000000000000DD020000DD0200001F
S1130040DD020000DD020000DD020000DD02000030
S1130050DD020000DD020000DD020000DD02000020
S1130060DD020000DD020000DD020000DD02000010
S1130070DD020000DD020000DD020000DD02000000
S1130080DD020000DD020000DD020000DD020000F0
S1130090DD020000DD020000DD020000DD020000E0
S11300A0DD020000DD020000DD020000DD020000D0
S11300B0DD020000DD020000DD020000DD020000C0
S11300C0DD020000DD020000DD020000DD020000B0
S11300D0DD020000DD020000DD020000DD020000A0
S11300E0DD020000DD02000000000000000000004E
S11300F000000000E9030000DD020000DD02000052
S1130100DD020000DD020000DD020000DD0200006F
S1130110DD020000DD020000DD020000DD0200005F
S1130120DD020000DD020000DD020000DD0200004F
S1130130DD020000DD020000DD020000DD0200003F
S1130140DD020000DD020000DD020000DD0200002F
S1130150DD020000DD020000DD020000DD0200001F
S1130160DD020000DD020000DD020000DD0200000F
S1130170DD020000DD020000DD020000DD020000FF
S1130180DD020000DD020000DD020000DD020000EF
S1130190DD020000DD020000DD020000DD020000DF
S11301A0DD020000DD020000DD020000DD020000CF
S11301B0DD020000DD020000DD020000DD020000BF
S11301C0DD020000DD020000DD020000DD020000AF
S11301D0DD020000DD020000DD020000DD0200009F
S11301E0DD020000DD020000DD020000DD0200008F
S11301F0DD020000DD020000DD020000DD0200007F
S1130200DD020000DD020000DD020000DD0200006E
S1130210DD020000DD020000DD020000DD0200005E
S1130220DD020000DD020000DD020000DD0200004E
S1130230DD020000DD020000DD020000DD0200003E
S1130240DD020000DD020000DD020000DD0200002E
S1130250DD020000DD020000DD020000DD0200001E
S1130260DD02000010B5054C237833B9044B13B1FB
S11302700448AFF300800123237010BD0000002068
S113028000000000A00400000C4B43B10C480D49D1
S113029010B5AFF300800C48036823B910BD0A48B9
S11302A0036833B97047094B002BF7D0BDE8104001
S11302B01847064B002BF5D0184700BF000000007C
S11302C0A004000004000020A004000000000000BE
S11302D008B5014B984708BD79030000FEE700000C
S11302E008B51C4B1C4A9A4210D01C4B194A9A421E
S11302F00CD2013B9B1A23F0030304331344164925
S113030051F8040B42F8040B9A42F9D1144B154AE4
S11303109A420AD2013B9B1A23F003030433134489
S1130320002142F8041B9342FBD10F4B0F4A22F0E9
S11303307F029A60D3F8882042F47002C3F88820C0
S1130340BFF34F8FBFF36F8F094B9847094B984703
S1130350FEE700BF00000020A00400000000002011
S11303602C0000200000002000ED00E00000000050
S1130370390400002D04000008B5014B984708BD5E
S11303808503000008B5084A13889BB21380074B05
S11303909847074B9847074B9847074B984740F6B1
S11303A0FF70064B984708BD00400041D103000090
S11303B0E5030000C5030000E7030000C1030000DB
S11303C0704700000122014B5A7170470008004039
S11303D0034BDA6902F47C52DA6101221A74704721
S11303E0001400407047704700B583B00D4B9B78F4
S11303F0DBB20193019B13F0020F06D00A4B1B687A
S11304001BB1084A5068984709E0019B13F0010F9B
S113041005D0054B5B6813B1024A5068984703B096
S11304205DF804FB000002411C00002008B5014BEC
S11304309847FEE7D102000070B50D4E0D4CA41B89
S1130440A4100025A54209D10B4E0C4C00F018F85D
S1130450A41BA4100025A54205D170BD56F8253073
S113046098470135EEE756F8253098470135F2E70D
S11304708C0400008C0400008C0400009004000034
S1130480F8B500BFF8BC08BC9E467047890200005E
S1130490F8B500BFF8BC08BC9E4670476502000072
S9030000FC
