:1000000000470120F1020000ED020000F11900009C
:10001000ED020000ED020000ED0200000000000013
:10002000000000000000000000000000ED020000E1
:10003000ED02000000000000ED020000ED020000F3
:10004000ED020000ED020000ED020000ED020000F4
:10005000ED020000ED020000ED020000ED020000E4
:10006000ED020000ED020000ED020000ED020000D4
:10007000ED020000ED020000ED020000ED020000C4
:10008000ED020000ED020000ED020000ED020000B4
:10009000ED020000ED020000ED020000ED020000A4
:1000A000ED020000ED020000ED020000ED02000094
:1000B000ED020000ED020000ED020000ED02000084
:1000C000ED020000ED020000ED020000ED02000074
:1000D000ED020000ED020000ED020000ED02000064
:1000E000ED020000ED020000000000000000000032
:1000F00000000000310A0000ED020000ED020000E7
:10010000ED020000ED020000ED020000ED02000033
:10011000ED020000ED020000ED020000ED02000023
:10012000ED020000ED020000ED020000ED02000013
:10013000ED020000ED020000ED020000ED02000003
:10014000ED020000ED020000ED020000ED020000F3
:10015000ED020000ED020000ED020000ED020000E3
:10016000ED020000ED020000ED020000ED020000D3
:10017000ED020000ED020000ED020000ED020000C3
:10018000ED020000ED020000ED020000ED020000B3
:10019000ED020000ED020000ED020000ED020000A3
:1001A000ED020000ED020000ED020000ED02000093
:1001B000ED020000ED020000ED020000ED02000083
:1001C000ED020000ED020000ED020000ED02000073
:1001D000ED020000ED020000ED020000ED02000063
:1001E000ED020000ED020000ED020000ED02000053
:1001F000ED020000ED020000ED020000ED02000043
:10020000ED020000ED020000ED020000ED02000032
:10021000ED020000ED020000ED020000ED02000022
:10022000ED020000ED020000ED020000ED02000012
:10023000ED020000ED020000ED020000ED02000002
:10024000ED020000ED020000ED020000ED020000F2
:10025000ED020000ED020000ED020000ED020000E2
:10026000ED02000010B5054C237833B9044B13B1EF
:100270000448AFF300800123237010BD4004002028
:1002800000000000BC5300000C4B43B10C480D496A
:1002900010B5AFF300800C48036823B910BD0A48BD
:1002A000036833B97047094B002BF7D0BDE8104005
:1002B0001847064B002BF5D0184700BF0000000080
:1002C000BC53000044040020BC53000000000000A8
:1002D00008B5034B9847034B9847034B984708BD15
:1002E000F505000069210000FD1A0000FEE700008E
:1002F00008B51C4B1C4A9A4210D01C4B194A9A4212
:100300000CD2013B9B1A23F0030304331344164918
:1003100051F8040B42F8040B9A42F9D1144B154AD8
:100320009A420AD2013B9B1A23F00303043313447D
:10033000002142F8041B9342FBD10F4B0F4A22F0DD
:100340007F029A60D3F8882042F47002C3F88820B4
:10035000BFF34F8FBFF36F8F094B9847094B9847F7
:10036000FEE700BF00000020BC5300003C0400205A
:10037000004700204004002000ED00E000000000E5
:10038000B12C0000051A0000104B93F8D92002F0A0
:10039000FE0242F0010283F8D92093F8BC2002F05B
:1003A0000F0242F0300283F8BC2093F8D82002F00C
:1003B000FE0242F0010283F8D82093F8BC2002F03C
:1003C000F00242F0030283F8BC2070470080004135
:1003D000064B4022C3F8DC204322C3F88C20044A99
:1003E000936943F400739361704700BF001C0040A1
:1003F0000008004008B5054B98470022044905480D
:10040000054B9847054B984708BD00BFD103000036
:1004100000200141980600206108000089030000C7
:10042000F0B45E4B4FF4001098604FF080429A6237
:100430005B4C9C62586193F8551001F0FB0183F806
:10044000551093F8551001F0FE0141F0010183F8B9
:10045000551093F83A1001F00F0141F0800183F834
:100460003A104FF480159D609A624E4E9E625D6117
:1004700093F8541001F0FB0183F8541093F85410D2
:1004800001F0FE0141F0010183F8541093F83A1095
:1004900001F0F00141F0080183F83A104FF4802197
:1004A000C3F88810C3F8A8203F4FC3F8A870C3F85A
:1004B000941093F8D21001F0FB0183F8D21093F856
:1004C000D21001F0FE0141F0010183F8D21093F83F
:1004D000B91001F0F00141F0080183F8B9104FF4B0
:1004E0000021C3F88810C3F8A8200437C3F8A87007
:1004F000C3F8941093F8D31001F0FB0183F8D310E4
:1005000093F8D31001F0FE0141F0010183F8D310FC
:1005100093F8B91001F00F0141F0800183F8B91090
:10052000C3F88850C3F8A820C3F8A860C3F8945053
:1005300093F8D41001F0FB0183F8D41093F8D41091
:1005400001F0FE0141F0010183F8D41093F8BA10D4
:1005500001F0F00141F0080183F8BA10C3F88800F7
:10056000C3F8A820C3F8A840C3F8940093F8D52096
:1005700002F0FB0283F8D52093F8D52002F0FE02AA
:1005800042F0010283F8D52093F8BA2002F00F025E
:1005900042F0800283F8BA20F0BC7047008000412E
:1005A000200000C0100000C0040000C0054A13690C
:1005B00043F480331361044B4022C3F83821C3F85D
:1005C0008C20704700080040001C004008B5054B17
:1005D00098474FF08C410448044B9847044B984788
:1005E00008BD00BFAD050000A80600205D070000A3
:1005F0002104000008B52A4B98472A4B4FF480226B
:10060000C3F81421C3F808214FF08042C3F8282111
:10061000254AC3F8282193F8522102F0FE0283F8FC
:1006200052214FF48012C3F884212049C3F8A81145
:100630001F4AC3F8A82193F8D42102F0FB0283F8E3
:10064000D42193F8D42102F0FE0283F8D4214FF490
:100650000012C3F88421C3F8A811164AC3F8A821D0
:1006600093F8D52102F0FB0283F8D52193F8D52128
:1006700002F0FE0283F8D5210F4B98470F4B9847A5
:100680000F4B98470F4B98470F4B98470F4B984786
:100690000F4B98470F4B98470F4B984708BD00BF2B
:1006A0009109000000800041040000C000000240E9
:1006B000100002C0200002C0E1120000F50300009B
:1006C000CD050000411B0000191B00005D1B000050
:1006D000D510000095100000F110000010B5044B7B
:1006E0001C68044B984701462046034B984710BDB1
:1006F0005C040020690900008909000070B50D46FE
:100700001646044660B1081C18BF01203422054972
:10071000054B98472368324629462046984770BDC6
:100720000020F3E7444A00002509000070B50D469B
:100730001646044660B1081C18BF01203D22054939
:10074000054B98476368324629462046984770BD56
:100750000020F3E7444A00002509000038B50C46A4
:10076000054658B1081C18BF012031220449054B29
:10077000984721462846044B984738BD0020F4E7A7
:10078000584A000025090000750A00002DE9F843C9
:100790000F469046044628B331B3101C18BF012001
:1007A000F1221249124B98470834124D2046A847AF
:1007B0000028FBD0013F0026DFF840900D4D17F8D0
:1007C000011F2046C8472046A8470028FBD0013615
:1007D0004645F4D3084D2046A8470028FBD03046B4
:1007E000BDE8F8830020DBE70020D9E7744A000069
:1007F000250900008B0C0000950C00007D0C00000A
:100800002DE9F8430F4690460446E0B1E9B1101CCB
:1008100018BF01204FF486720D490E4B9847013FD7
:10082000002608340C4DDFF834902046A8470028F5
:10083000FBD02046C84707F8010F01364645F4D3E0
:100840003046BDE8F8830020E4E70020E2E700BF7F
:10085000744A0000250900009F0C0000830C000072
:1008600038B50D46044698B1081C18BF0120342243
:100870000849094B9847294604F10800074B984757
:10088000034618B9064A6260064A2260184638BD17
:100890000020ECE7744A0000250900003D0C000030
:1008A000010800008D07000010B5044653220649D8
:1008B000003018BF0120054B984704F10800044B95
:1008C0009847002010BD00BF744A000025090000B1
:1008D000690C000038B50C46054648B1081C18BF25
:1008E000012069220349044B98472560002038BD48
:1008F0000020F6E7744A00002509000010B5044600
:10090000D7220549003018BF0120044B984704F155
:100910000800034B984710BD744A000025090000E9
:100920009F0C000000B900BE704700000346064A55
:10093000126822B1044A10680344136070470349E7
:10094000014A1160F6E700BF600400200047012063
:100950004FF0FF3070474FF400534B60002070475A
:100960000120704700207047C0EB0010C300023325
:100970000348A0FB03235B08642000FB03F07047DF
:10098000ABAAAAAA000000000139FDD8704700BF39
:1009900008B5084A13889BB21380074B9847074B4A
:1009A0009847074B9847074B984740F6FF70064B10
:1009B000984708BD00400041FD090000110A0000F1
:1009C000F10900002D0A0000CD09000010F0010F10
:1009D00008D0054A054B1A62194643F6FD724B686A
:1009E0001342FCD1704700BF01010100001C004010
:1009F0000122014B5A71704700080040034BDA692D
:100A000002F47C52DA6101221A747047001400402B
:100A1000044A054B9A611A46136913F0020FFBD082
:100A2000704700BF0626000300100040704700001A
:100A300000B583B00D4B9B78DBB20193019B13F0A3
:100A4000020F06D00A4B1B681BB1084A5068984732
:100A500009E0019B13F0010F05D0054B5B6813B152
:100A6000024A5068984703B05DF804FB0000024159
:100A7000C006002038B50C46054640B3081C18BF18
:100A80000120D8221349144B98472C6094F82F303A
:100A900043F0010384F82F3094F82F3013F0010F46
:100AA000FAD10E2384F82E300F2384F82930A38E38
:100AB0009BB26FEA53236FEA4323A386E38E9BB274
:100AC0006FEA93236FEA8323E386002038BD00207A
:100AD000D7E700BF904A00002509000070B489B034
:100AE00006466C460D4D0FCD0FC495E80F0084E807
:100AF0000F00009BB3420DD0314601AB012053F8EB
:100B0000042B8A4207D001300828F8D1002009B010
:100B100070BC70470020C0B2F9E700BFA84A0000CF
:100B200010B50446414B984700285CD002285CD0A1
:100B300040F247223E4900203E4B98470021E3699E
:100B400013F0010F22D14B005A183B4B03EBC203A9
:100B50005A6A02F01C02E36913F0030FFBD1236809
:100B600013F0020F0BD0236823F002032360E36924
:100B700013F0030FFBD1E36913F0020FFBD142F036
:100B800001022260E36913F0030FFBD1E36913F064
:100B9000010FFBD10A464B000B44274901EBC3016F
:100BA000486A2060E36913F0030FFBD153009918E2
:100BB000214B03EBC1039B6A6360E36913F01F0FD2
:100BC000FBD1530099181C4B03EBC103DB6AA360F4
:100BD00010F4C04F0BD153009918174B03EBC1030E
:100BE0001B8EA38111E00021A9E70121A7E7124B89
:100BF00003EBC103188EA18960F30C01A18193F866
:100C00003210A38961F34F33A3810B4B5100881835
:100C100003EBC00090F83300A0730A4403EBC20357
:100C200093F8343084F83030002010BDDD0A000025
:100C3000104B000025090000A84A000038B50C46FA
:100C40000546BB220549003018BF0120044B9847D8
:100C50002C602046034B984738BD00BF104B000066
:100C600025090000210B00000268136843F002030D
:100C70001360D36913F0030FFBD1704703689962C7
:100C800070470368986AC0B270470368187E00F026
:100C9000010070470368187EC0F340007047036886
:100CA000187EC0F380007047044A531EFF320021B3
:100CB00003F8011F9342FBD1704700BF640400207A
:100CC000034B00221A705A705A601A72704700BFA4
:100CD000E04600202DE9F04182B00A4C04F5C058EE
:100CE0000025094F094E63882278A1880091294682
:100CF0003846B047013506344445F4D102B0BDE86A
:100D0000F08100BFE02E00202C4B0000612E00007F
:100D10002DE9F04184B00D4C04F5205800250C4F0E
:100D20000C4E23892278E1880391A1880291A17851
:100D300001916178009129463846B04701350A345F
:100D40004445EED104B0BDE8F08100BFD8060020D4
:100D5000504B0000612E000008B50248024B984736
:100D600008BD00BF904B0000492F000008B50248A5
:100D7000024B984708BD00BFA04B0000492F000060
:100D80002DE9F041214B93F8001193F8016193F89C
:100D9000020193F8034193F80451D3F88021053AF6
:100DA000C3F880214B0003F0060306F00102134351
:100DB000053BDBB2012B06D9154B196811F00F0F5B
:100DC0001DD0BDE8F081DFF848C0DCF80070114BA1
:100DD0007A0002EB070E4FEA4E0E03EB0E0889086D
:100DE00003F80E10C00100EB5600A8F80200791CB1
:100DF000CCF8001004EB0524A8F80440DCE74FF41D
:100E000080620548054B9847DBE700BF640400207B
:100E1000DC2E0020E02E0020B04B0000612E0000F0
:100E2000F8B5344890F8013190F8004104F00F040F
:100E300044EA0314E4B290F802E190F80351D0F8C8
:100E40008031543BC0F8803100F2011300F253109E
:100E5000002213F8011F4A408342FAD1944204D081
:100E6000254A136801331360F8BDEE09234B1F6850
:100E70002C0204F4FE4444EA0E0407EB87032049E5
:100E800001EB43011B4D05F5807005F5A8750E704B
:100E9000027990F805E0530843EACE138B808379FA
:100EA00090F807C04FEA530E4EEACC1EA1F806E0B8
:100EB00090F808E0120102F0100242EA1E124A7095
:100EC0001B0103F010030EF00F0E43EA0E038B70AC
:100ED0000C810A310530A842D9D107F11002074B25
:100EE0001A604FF48063044909680648064CA0471D
:100EF000F8BD00BF64040020D4060020DC2E0020D2
:100F0000D8060020CC4B0000612E00002DE9F04FE8
:100F100089B02748274B9847274E96F8003103930E
:100F200096F801B196F802A196F803910023049374
:100F300005930693079306F2131504AC06F2031605
:100F4000DFF898801D4F15F8012941462046B84723
:100F50000134B542F7D11A4FB847174C039B194AD1
:100F60004FF480712046184EB0472046174DA847D1
:100F7000B847CDF800B05346154A4FF4807120466B
:100F8000B0472046A847B8474B46124A4FF48071F5
:100F90002046B0472046A847B84704AB0E4A4FF456
:100FA00080712046B0472046A84709B0BDE8F08FC1
:100FB000004C0000492F0000640400207D31000037
:100FC000A90C0000104C000015310000612E00003B
:100FD0002C4C00004C4C0000684C0000084C0000F9
:100FE00008B51048104B9847104B93F80021012A80
:100FF00010D08AB10E4B0F49022A18BF19460B4B6D
:1010000093F8013102EB032292B23AB10A480B4B3A
:10101000984708BD0A49F2E70A49F0E70A48074B32
:10102000984708BD004C0000492F000064040020D0
:101030009C4C0000944C0000C04C0000612E00004D
:101040008C4C0000844C0000A44C000038B50B48C8
:101050000B4B98470B4C94F8011194F8003103EBBB
:1010600001210948094DA84794F8031194F8023169
:1010700003EB01210648A84738BD00BF004C000023
:10108000492F000064040020EC4C0000612E000099
:10109000104D00000E4B93F8C92002F0FE0242F002
:1010A000010283F8C92093F8B42002F00F0242F045
:1010B000400283F8B4204FF40071C3F8841093F811
:1010C000C92042F0040283F8C920C3F89410704785
:1010D00000800041044AD36943F02003D3614022D9
:1010E000024BC3F8F820704700080040001C004085
:1010F000284B1B6913F0010F1FD1264A136913F007
:10110000030FFBD1234B1B6813F0020F0DD0214AB4
:10111000136823F002031360136913F0030FFBD16C
:101120001C4A136913F0020FFBD10122194B1A60FC
:101130001A46136913F0030FFBD1164A136913F013
:10114000010FFBD1144A134B1A601A46136913F0AE
:10115000030FFBD10F4B00225A71FF221A71032299
:101160001A733C229A831A46136913F0C00FFBD1FD
:101170000022084BDA831A46136913F0C00FFBD123
:10118000044A136843F002031360136913F0030F5A
:10119000FBD170470014004210030012194B1B6969
:1011A00013F0010F17D1174A136913F0030FFBD186
:1011B000144B1B6813F0020F0DD0124A136823F072
:1011C00002031360136913F0030FFBD10D4A136977
:1011D00013F0020FFBD10B4A136913F0010FFBD17F
:1011E0002422084BDA831A46136913F0C00FFBD18F
:1011F000044A136843F002031360136913F0030FEA
:10120000FBD1704700140042194B1B6913F0010F0A
:1012100017D1174A136913F0030FFBD1144B1B6846
:1012200013F0020F0DD0124A136823F0020313606B
:10123000136913F0030FFBD10D4A136913F0020F6A
:10124000FBD10B4A136913F0010FFBD10022084BAD
:10125000DA831A46136913F0C00FFBD1044A1368EE
:1012600043F002031360136913F0030FFBD17047BF
:1012700000140042104B93F8442002F0FE0242F0AA
:10128000010283F8442093F8322002F0F00242F089
:10129000030283F8322093F8452002F0FE0242F068
:1012A000010283F8452093F8322002F00F0242F049
:1012B000300283F83220704700800041064B402204
:1012C000C3F89C204322C3F88C20044A536943F49A
:1012D00080535361704700BF001C0040000800406D
:1012E00010B5074B9847074C002207492046074B8B
:1012F00098472046064B9847064B984710BD00BFBD
:10130000BD120000EC4600200030004061080000E3
:10131000A90800007512000030B583B004460D46E0
:1013200001A90548054B98472A4621460198044BD8
:10133000984703B030BD00BFEC460020D508000040
:10134000FD06000030B583B025250D4B1D700D4CFA
:101350000023C4F880310C4B98470095A5230B4A15
:101360004FF4807120460A4DA84781B22046094BB0
:1013700098470120084B9847084B984703B030BD69
:10138000D006002064040020A90C0000344D0000A9
:101390001531000019130000DD060000590D000092
:1013A00030B583B040250D4B1D700D4C0023C4F8A3
:1013B00080310C4B98470095A5230B4A4FF4807160
:1013C00020460A4DA84781B22046094B9847022083
:1013D000084B9847084B984703B030BDD006002013
:1013E00064040020A90C0000344D000015310000F9
:1013F00019130000DD0600006D0D000030B583B04C
:1014000020250C4B1D700C4C0023C4F880310B4A76
:1014100013600B4B98470095A5230A4A4FF480713F
:101420002046094DA84781B22046084B984703B093
:1014300030BD00BFD006002064040020DC2E002058
:10144000A90C0000344D00001531000019130000F4
:1014500030B585B000238DF80F308DF80E30222284
:101460008DF80D20194A1360194A13608225194A14
:101470001570194CC4F88031184B98470523019317
:101480000095A523164A4FF480712046154DA847B4
:1014900081B22046144CA04701210DF10F00A04756
:1014A00001210DF10E00A04701210DF10E00A04712
:1014B00001210DF10E00A04701210DF10E00A04702
:1014C00001210DF10D00A04705B030BDDC2E00203C
:1014D000D4060020D006002064040020A90C0000DF
:1014E0003C4D0000153100001913000030B583B0E9
:1014F0000D4B984721250D4B1D700D4C0023C4F852
:1015000080310C4A13600C4B98470095A5230B4A79
:101510004FF4807120460A4DA84781B22046094BFE
:10152000984703B030BD00BF9D110000D0060020D9
:1015300064040020DC2E0020A90C0000344D0000C3
:10154000153100001913000030B583B050250C4B45
:101550001D700C4C0023C4F880310B4B98470B4B8B
:1015600098470095A5230A4A4FF480712046094DFB
:10157000A84781B22046084B984703B030BD00BF52
:10158000D006002064040020A90C0000C10C00005B
:10159000344D0000153100001913000030B583B040
:1015A00052250C4B1D700C4C0023C4F880310B4BA2
:1015B00098470B4B98470095A5230A4A4FF4807132
:1015C0002046094DA84781B22046084B984703B0F2
:1015D00030BD00BFD006002064040020A90C00002C
:1015E000C10C0000344D000015310000191300003B
:1015F00030B583B059250C4B1D700C4C0023C4F83A
:1016000080310B4B98470B4B98470095A5230A4A0E
:101610004FF480712046094DA84781B22046084BFF
:10162000984703B030BD00BFD006002064040020FE
:10163000A90C0000C10C0000344D00001531000061
:101640001913000000B583B069460748074B984757
:1016500001220DF107010098054B98479DF80700FE
:1016600003B05DF804FB00BFEC460020D508000085
:101670002D07000038B5694D694C2846A047002861
:10168000FBD0684BD3F88041062C5BD8DFE804F030
:10169000040F1A2533414F00634B9847634B187072
:1016A000604AD2F880310133C2F8803138BD5E4BD8
:1016B00098475E4B58705B4AD2F880310133C2F8CC
:1016C000803138BD584B9847584B5860554AD2F82E
:1016D00080310133C2F8803138BD534B9847534AAB
:1016E000536843EA002353604E4AD2F880310133F5
:1016F000C2F8803138BD4C4B98474C4A536843EA96
:1017000000435360474AD2F880310133C2F8803138
:1017100038BD454B9847454A536843EA00635360D8
:10172000404AD2F880310133C2F8803138BD3E4B97
:1017300098473E4B18723B4AD2F880310133C2F8C9
:10174000803138BD073C384B9847364B234483F8EB
:101750000001374B197882290DD0324BD3F8802104
:101760000132C3F88021314B5B6823F040430733DB
:101770009A422CD038BD1CB900090A28FAD101E0E0
:10178000012C1AD0274BD3F880210132C3F88021D5
:10179000264B5B6823F0404307339A42EAD1254B3E
:1017A0009847254B1B68B3F5806FE3D3234B9847CD
:1017B000234B9847234B984726E000090528E1D0A2
:1017C000184AD2F88031013BC2F8803138BD502927
:1017D00018D008D959291ED08229E0D0522910D119
:1017E000194B984710E02039012909D8174B984721
:1017F000114B1B68B3F5806FBCD3154B984703E0C2
:1018000038BD38BD134B9847064B0022C3F88021E2
:1018100083F8842138BD104B9847F5E7EC4600204B
:10182000FD0800006404002045160000E04600208A
:10183000D0060020210E0000DC2E0020091200003E
:1018400045130000110D0000E10F0000810D0000A4
:10185000D50C00000D0F00004D10000070B582B0D7
:101860000023ADF80630414C414E424D01E0424B61
:10187000984794F88431002BF9D1314628463F4BE4
:1018800098470DF106013E483E4B984788B1BDF898
:1018900006103D48394B9847BDF80630013B0A2BEE
:1018A00060D8DFE803F00C11171D2329323B444DAB
:1018B0005600364B1B685868354B9847D9E7354872
:1018C000354B984702B070BD3448334B9847344B82
:1018D0009847CEE73348304B9847334B9847C8E793
:1018E00032482D4B9847324B9847C2E731482A4B34
:1018F0009847314B9847BCE73048274B9847304BC7
:101900009847012384F88431B3E72E48224B984747
:101910002D4B9847012384F88431AAE72B481E4BAE
:1019200098472B4B9847012384F88431A1E7294835
:10193000194B9847284B9847012384F8843198E73E
:101940002648154B9847264B9847012384F8843145
:101950008FE72448104B9847234B9847012384F87E
:10196000843186E721480C4B984782E764040020C5
:1019700000000020444D000075160000612E00009C
:10198000484D0000792F00004C4D00006C020020F3
:10199000C12A0000684D0000492F0000844D00005E
:1019A0009D1100009C4D000009120000B44D000084
:1019B00045130000D04D0000A1130000EC4D0000C5
:1019C000FD1300000C4E000051140000344E0000C6
:1019D000ED1400005C4E000049150000784E000038
:1019E0009D150000944E0000F1150000B44E00005B
:1019F00008B50248024B9847FEE700BFC84E0000FA
:101A0000492F000080B582B0224B98472248234BD3
:101A10009847234B98470020224B9847224F234E4C
:101A2000234D04E0234B1B685868234B984702ACB6
:101A3000002344F8043D39463046A84721461F4854
:101A40001F4B98470028EDD001991E48A847019BDD
:101A5000013B032B19D8DFE803F0020F1215BFF387
:101A60004F8F1949CA6802F4E062184B1343CB60E8
:101A7000BFF34F8F00BFFDE7154B9847D7E7154BD6
:101A80009847D4E7144B9847D1E71448034B98473D
:101A9000CDE700BFD1020000F44E0000492F000046
:101AA000851E0000111C000038010020444D00007C
:101AB000612E00006C020020C12A0000CC51000001
:101AC000792F00004C4D000000ED00E00400FA0505
:101AD000FD1F0000E51C00005D180000304F0000F5
:101AE00010B4054B04249C76FF241C719860D960C7
:101AF0005A635DF8044B7047EC05002008B50349B4
:101B00000A4604310248034B984708BD9001002063
:101B1000A8060020E11A0000084A92F8473003F0B6
:101B2000FE0343F0010382F8473092F8333003F0AC
:101B30000F0343F0400382F83330704700800041C8
:101B4000044A536943F4004353614022024BC3F8F3
:101B5000A420704700080040001C0040294B1B696E
:101B600013F0010F1FD1274A136913F0030FFBD1A4
:101B7000244B1B6813F0020F0DD0224A136823F088
:101B800002031360136913F0030FFBD11D4A13699D
:101B900013F0020FFBD101221A4B1A601A46136987
:101BA00013F0030FFBD1174A136913F0010FFBD198
:101BB000154A144B1A601A46136913F0030FFBD130
:101BC000104B00225A71FF221A7103221A7340F639
:101BD000E1029A831A46136913F0C00FFBD140F259
:101BE0007712084BDA831A46136913F0C00FFBD142
:101BF000044A136843F002031360136913F0030FE0
:101C0000FBD17047003C00401004001200000000AF
:101C100070B52B4B98472B4C00222B4BA0472B4DDC
:101C200000222B4BA84700222A4B2B4EB04720A363
:101C3000D3E90023A84720A3D3E90023A047274BDB
:101C4000984780B2264B1B6913F0010F17D1244A25
:101C5000136913F0030FFBD1214B1B6813F0020F24
:101C60000DD01F4A136823F002031360136913F0A9
:101C7000030FFBD11A4A136913F0020FFBD1184A64
:101C8000136913F0010FFBD1154BD8831A46136962
:101C900013F0C00FFBD1124A136843F00203136024
:101CA000136913F0030FFBD170BD00BFAFF30080C9
:101CB0000000000000C2A1400000000000ACA740EE
:101CC0002D2400004D27000000806640F92400000C
:101CD00000409F4000407F40952100001D290000EA
:101CE000003C0040F0B583B00023019300931D4EEB
:101CF0001D4D1E4C04E01E4B1B6858681D4B984739
:101D000031462846A04701A91B481C4B984700288C
:101D1000F1D001991A48A047019B012B05D0022B55
:101D200008D01848184B9847EAE71848164B9847C8
:101D300003B0F0BD1648A0470F4F694638460F4B19
:101D4000984700993846A0470099B42903D911480B
:101D50000D4B9847D4E71048A04700980F4B984781
:101D6000CEE700BF98010020444D0000612E000026
:101D70006C020020C12A0000CC510000792F000025
:101D80004C4D0000B44E0000492F0000684D00008B
:101D9000444F0000584F0000944F0000111C0000F9
:101DA00070B504460B4AD36A13F0040FFBD10A4EF8
:101DB00033681A5D094D2A7021460948094B984736
:101DC00032682B78B3FA83F35B0913550648074B47
:101DD000984770BD00400041E8010020F84600200F
:101DE000B44F0000612E0000D84F0000492F0000C2
:101DF00008B50B4AD36A13F0040FFBD1084BDB6A1A
:101E000013F4706F08D0074B5B681868B0F15A3054
:101E100018BF4FF0FF3008BD0348044B9847FEE75A
:101E200000400041E80100200C500000492F000054
:101E30002DE9F843C9B10E46451E0024DFF8408065
:101E40000C4FDFF8389003E00134A4B2A6420CD066
:101E500015F8011F4046B84714F0070FF4D1002CC5
:101E6000F2D04846044B9847EEE70448024B9847A7
:101E7000BDE8F883612E0000492F0000A451000046
:101E80004850000008B5194B9847D0B91848194B6D
:101E90009847194BD96ADA6AC2F30242C1F30321A7
:101EA0001648174B98472020164B9847164B1B682F
:101EB00093F820309BB94FF48022144BC3F81421BF
:101EC00008BD13480B4B98470B4AD36A13F0040F15
:101ED000FBD10D4B5B684FF05A321A60D9E74FF4D3
:101EE00080220A4BC3F8182108BD00BFF11D000075
:101EF00050500000492F000000400041B050000049
:101F0000612E0000A11D0000E801002000800041BA
:101F10007450000008B50A4B1A68013A0948431E7C
:101F2000633012F8011F03F8011F8342F9D16421C5
:101F30000548064B984764210248054B984708BD61
:101F4000E80100202806002044510000612E000016
:101F5000311E000030B583B00023019302AC44F879
:101F6000083D1A481A4B984721461A481A4B984779
:101F7000009BB3F5805F24D21848154DA84701A9EE
:101F80001448154B9847164C22680199009BD15470
:101F9000009A01991348A8472268013A1248431E43
:101FA000633012F8011F03F8011F8342F9D1642145
:101FB0000E48074B984764210B480D4B984703B0D8
:101FC00030BD0C480C4B9847F9E700BF6C5100003E
:101FD000612E0000CC510000792F0000A8510000B4
:101FE000E8010020BC5100002806002044510000F8
:101FF000311E000080510000492F000070B582B0F2
:10200000002301931B4E1C4D1C4C31462846A04713
:1020100001A91B481B4B984750B101991A48A0478A
:10202000019B013B032B21D8DFE803F008151A1DA3
:10203000164B1B685868164B9847EEE7BFF34F8F57
:102040001449CA6802F4E062134B1343CB60BFF338
:102050004F8F00BFFDE71148114B984702B070BD8C
:10206000104B9847D1E7104B9847CEE70F480C4BE1
:102070009847CAE7F0010020444D0000612E00009F
:10208000CC510000792F00004C4D00006C02002064
:10209000C12A000000ED00E00400FA05684D0000D0
:1020A000492F0000151F0000551F0000B44E00000E
:1020B00040B908B50B4611461846044B984740EA0C
:1020C000E07008BD4FF0FF30704700BF21210000D5
:1020D0000138022808D808B50B4611461846044BAB
:1020E000984740EAE07008BD4FF0FF30704700BFEE
:1020F0004521000070B50646064D2B680021986802
:10210000054CA0472B6800215868A047034B1E6070
:1021100070BD00BF6C020020A92F00008C060020BB
:1021200008B5064B1B6833B10A46014692B2184601
:10213000034B984708BD002008BD00BF8C06002057
:102140002D07000008B5064B1B6833B10A4601464F
:1021500092B21846034B984708BD002008BD00BF47
:102160008C060020FD06000010B5044C2046044BF0
:1021700098472046034B984710BD00BF98060020A3
:10218000A9080000F520000081F0004102E000BF36
:1021900083F0004330B54FEA41044FEA430594EA27
:1021A000050F08BF90EA020F1FBF54EA000C55EA62
:1021B000020C7FEA645C7FEA655C00F0E2804FEA33
:1021C0005454D4EB5555B8BF6D420CDD2C4480EA15
:1021D000020281EA030382EA000083EA010180EA45
:1021E000020281EA0303362D88BF30BD11F0004F93
:1021F0004FEA01314FF4801C4CEA113102D04042C9
:1022000061EB410113F0004F4FEA03334CEA133303
:1022100002D0524263EB430394EA050F00F0A7801B
:10222000A4F10104D5F1200E0DDB02FA0EFC22FA16
:1022300005F2801841F1000103FA0EF2801843FA0A
:1022400005F359410EE0A5F120050EF1200E012AFB
:1022500003FA0EFC28BF4CF0020C43FA05F3C01839
:1022600051EBE37101F0004507D54FF0000EDCF1B2
:10227000000C7EEB00006EEB0101B1F5801F1BD35B
:10228000B1F5001F0CD349085FEA30004FEA3C0C5F
:1022900004F101044FEA445212F5800F80F09A8055
:1022A000BCF1004F08BF5FEA500C50F1000041EB59
:1022B000045141EA050130BD5FEA4C0C404141EB5D
:1022C000010111F4801FA4F10104E9D191F0000F84
:1022D00004BF01460020B1FA81F308BF2033A3F107
:1022E0000B03B3F120020CDA0C3208DD02F1140CFE
:1022F000C2F10C0201FA0CF021FA02F10CE002F139
:102300001402D8BFC2F1200C01FA02F120FA0CFC31
:10231000DCBF41EA0C019040E41AA2BF01EB04517A
:10232000294330BD6FEA04041F3C1CDA0C340EDC78
:1023300004F11404C4F1200220FA04F001FA02F3BB
:1023400040EA030021FA04F345EA030130BDC4F179
:102350000C04C4F1200220FA02F001FA04F340EA6E
:102360000300294630BD21FA04F0294630BD94F01F
:10237000000F83F4801306BF81F480110134013D06
:102380004EE77FEA645C18BF7FEA655C29D094EA77
:10239000050F08BF90EA020F05D054EA000C04BFF5
:1023A0001946104630BD91EA030F1EBF00210020E0
:1023B00030BD5FEA545C05D14000494128BF41F07F
:1023C000004130BD14F580043CBF01F5801130BDE3
:1023D00001F0004545F0FE4141F470014FF000006E
:1023E00030BD7FEA645C1ABF194610467FEA655C1F
:1023F0001CBF0B46024650EA013406BF52EA0335C1
:1024000091EA030F41F4002130BD00BF90F0000FAE
:1024100004BF0021704730B54FF4806404F13204EA
:102420004FF000054FF0000150E700BF90F0000FA3
:1024300004BF0021704730B54FF4806404F13204CA
:1024400010F0004548BF40424FF000013EE700BF9A
:1024500042004FEAE2014FEA31014FEA02701FBF2A
:1024600012F07F4393F07F4F81F06051704792F0FC
:10247000000F14BF93F07F4F704730B54FF4607476
:1024800001F0004521F0004120E700BF50EA0102C1
:1024900008BF704730B54FF000050AE050EA01026E
:1024A00008BF704730B511F0004502D5404261EBDE
:1024B00041014FF4806404F132045FEA915C3FF41F
:1024C000DCAE4FF003025FEADC0C18BF03325FEAB8
:1024D000DC0C18BF033202EBDC02C2F1200300FA6D
:1024E00003FC20FA02F001FA03FE40EA0E0021FA92
:1024F00002F11444C1E600BF70B54FF0FF0C4CF47C
:10250000E06C1CEA11541DBF1CEA135594EA0C0F31
:1025100095EA0C0F00F0DEF82C4481EA030621EA6C
:102520004C5123EA4C5350EA013518BF52EA0335A7
:1025300041F4801143F4801338D0A0FB02CE4FF059
:102540000005E1FB02E506F00042E0FB03E54FF089
:102550000006E1FB03569CF0000F18BF4EF0010E81
:10256000A4F1FF04B6F5007F64F5407404D25FEA7D
:102570004E0E6D4146EB060642EAC62141EA555130
:102580004FEAC52040EA5E504FEACE2EB4F1FD0C72
:1025900088BFBCF5E06F1ED8BEF1004F08BF5FEAF0
:1025A000500E50F1000041EB045170BD06F00046A2
:1025B00046EA010140EA020081EA0301B4EB5C044F
:1025C000C2BFD4EB0C0541EA045170BD41F4801147
:1025D0004FF0000E013C00F3AB8014F1360FDEBF6C
:1025E000002001F0004170BDC4F10004203C35DA48
:1025F0000C341BDC04F11404C4F1200500FA05F3CB
:1026000020FA04F001FA05F240EA020001F000426B
:1026100021F0004110EBD37021FA04F642EB0601E1
:102620005EEA430E08BF20EAD37070BDC4F10C040B
:10263000C4F1200500FA04F320FA05F001FA04F2CF
:1026400040EA020001F0004110EBD37041F10001BB
:102650005EEA430E08BF20EAD37070BDC4F12005C6
:1026600000FA05F24EEA020E20FA04F301FA05F22E
:1026700043EA020321FA04F001F0004121FA04F2D6
:1026800020EA020000EBD3705EEA430E08BF20EAA6
:10269000D37070BD94F0000F0FD101F000464000E0
:1026A00041EB010111F4801F08BF013CF7D041EA62
:1026B000060195F0000F18BF704703F00046520066
:1026C00043EB030313F4801F08BF013DF7D043EA37
:1026D0000603704794EA0C0F0CEA135518BF95EAED
:1026E0000C0F0CD050EA410618BF52EA4306D1D174
:1026F00081EA030101F000414FF0000070BD50EA93
:10270000410606BF1046194652EA430619D094EA1C
:102710000C0F02D150EA013613D195EA0C0F05D106
:1027200052EA03361CBF104619460AD181EA03015A
:1027300001F0004141F0FE4141F470014FF0000012
:1027400070BD41F0FE4141F4780170BD70B54FF0AD
:10275000FF0C4CF4E06C1CEA11541DBF1CEA13552D
:1027600094EA0C0F95EA0C0F00F0A7F8A4EB05040F
:1027700081EA030E52EA03354FEA013100F0888006
:102780004FEA03334FF0805545EA131343EA1263CF
:102790004FEA022245EA111545EA10654FEA002684
:1027A0000EF000419D4208BF964244F1FD0404F53D
:1027B000407402D25B084FEA3202B61A65EB030599
:1027C0005B084FEA32024FF480104FF4002CB6EB56
:1027D000020E75EB030E22BFB61A754640EA0C00D6
:1027E0005B084FEA3202B6EB020E75EB030E22BF16
:1027F000B61A754640EA5C005B084FEA3202B6EB57
:10280000020E75EB030E22BFB61A754640EA9C0015
:102810005B084FEA3202B6EB020E75EB030E22BFE5
:10282000B61A754640EADC0055EA060E18D04FEAA3
:10283000051545EA16754FEA06164FEAC30343EA43
:1028400052734FEAC2025FEA1C1CC0D111F4801F10
:102850000BD141EA00014FF000004FF0004CB6E709
:1028600011F4801F04BF01430020B4F1FD0C88BFA8
:10287000BCF5E06F3FF6AFAEB5EB030C04BFB6EBB3
:10288000020C5FEA500C50F1000041EB045170BDA6
:102890000EF0004E4EEA113114EB5C04C2BFD4EBD3
:1028A0000C0541EA045170BD41F480114FF0000E57
:1028B000013C90E645EA060E8DE60CEA135594EAD3
:1028C0000C0F08BF95EA0C0F3FF43BAF94EA0C0FD6
:1028D0000AD150EA01347FF434AF95EA0C0F7FF44B
:1028E00025AF104619462CE795EA0C0F06D152EA9F
:1028F00003353FF4FDAE1046194622E750EA410683
:1029000018BF52EA43067FF4C5AE50EA41047FF493
:102910000DAF52EA43057FF4EBAE12E74A0011D245
:1029200012F5001211D20DD56FF47873B3EB625229
:102930000ED44FEAC12343F0004343EA505323FA35
:1029400002F070474FF00000704750EA013002D1AA
:102950004FF0FF3070474FF0000070478A892DE933
:10296000F041054610070C465AD44B68002B05DC95
:102970000B6C002B02DC0020BDE8F081E66A002E23
:10298000F9D0002312F480522F682B6033D0606D91
:10299000A3895A0705D56368C01A636B0BB1236C12
:1029A000C01A00230246E66A216A2846B047431C43
:1029B000A38906D129681D294BD82B4ACA40D607BE
:1029C00047D500226260D9042269226004D5421CE6
:1029D00001D12B6803B96065616B2F600029CAD0F3
:1029E00004F14403994202D0284600F08DF90020FA
:1029F0006063BDE8F081216A01232846B047411C8D
:102A0000C6D12B68002BC3D01D2B01D0162B01D1B2
:102A10002F60B0E7A38943F04003A381BDE8F081B4
:102A20000F69002FA7D093070E6808BF4B690F608E
:102A300018BF0023A6EB07088B60B8F1000F9ADDE2
:102A400043463A46216AA66A2846B047002807DC72
:102A5000A38943F04003A3814FF0FF30BDE8F0812C
:102A60000744A8EB0008E8E70100402038B50B69EF
:102A700005460C46DBB118B183690BB900F072F85A
:102A80000C4B9C4209D16C68B4F90C307BB12146E7
:102A90002846BDE83840FFF761BF074B9C4201D193
:102AA000AC68F1E7054B9C4208BFEC68ECE70020FE
:102AB00038BD00BFF051000010520000D05100009E
:102AC000014620B9044B0549186800F0D3B8044BFF
:102AD0001868FFF7CBBF00BF305200006D2A00001E
:102AE0006C020020014900F0C5B800BF6D2A00004B
:102AF000002310B504460360436083608181436610
:102B0000C281036143618361194608225C3000F091
:102B1000F3F8054B6362054BA362054BE362054B7B
:102B20002462236310BD00BFC5310000E7310000FF
:102B30001F3200004332000070B54A1E682555431D
:102B40000E4605F1740100F02DF9044640B1002154
:102B500080E842000C30A06005F1680200F0CCF87B
:102B6000204670BD836910B5044633BB8364C364DB
:102B70000365124B124A1B688262984204BF01230C
:102B8000836100F01FF86060204600F01BF8A06031
:102B9000204600F017F80022E06004216068FFF78B
:102BA000A7FF01220921A068FFF7A2FF022212213C
:102BB000E068FFF79DFF0123A36110BD30520000C4
:102BC000E52A0000F8B51C4B1E68B369074613B927
:102BD0003046FFF7C7FF4836B4687368013B03D53A
:102BE000336833B13668F7E7B4F90C506DB1683427
:102BF000F4E704213846FFF79FFF30600028F1D149
:102C00000C233B6004462046F8BD4FF6FF73E3817A
:102C10000123A38165662560A56065602561656106
:102C2000A5610822294604F15C0000F065F865639F
:102C3000A563A564E564E6E7305200002DE9F041A4
:102C4000884600F14804002614B93046BDE8F081FA
:102C5000A5686768013F01D52468F5E7AB89012BBA
:102C600006D9B5F90E30013302D02846C0470643D5
:102C70006835EFE72DE9F8438046894600F14804BE
:102C8000002614B93046BDE8F883A5686768013F9F
:102C900001D52468F5E7AB89012B07D9B5F90E30CA
:102CA000013303D029464046C84706436835EEE75E
:102CB00070B50D4E0D4CA41BA4100025A54209D1E2
:102CC0000B4E0C4C02F06AFBA41BA4100025A5427D
:102CD00005D170BD56F8253098470135EEE756F816
:102CE000253098470135F2E7A8530000A8530000AB
:102CF000A8530000AC53000002440346934200D1A5
:102D0000704703F8011BF9E738B50546002945D09F
:102D100051F8043C0C1F002BB8BFE41800F0F6FB80
:102D20001F4A1368104633B9636014602846BDE833
:102D3000384000F0ECBBA3420CD9216862189342E2
:102D400004BF1A685B68636004BF521822600460A5
:102D5000ECE713465A680AB1A242FAD91968581822
:102D6000A0420BD120680144581882421960DDD17D
:102D7000106852685A6001441960D7E702D90C23E1
:102D80002B60D3E7206821188A4204BF116852687B
:102D9000626004BF091821605C60C7E738BD00BFEE
:102DA0009006002070B5CD1C25F0030508350C2DCC
:102DB00038BF0C25002D064601DBA94203D90C23A0
:102DC0003360002070BD00F0A1FB234A1468214647
:102DD00091B9224C23681BB9304600F0BDF8206041
:102DE0002946304600F0B8F8431C26D10C23336046
:102DF000304600F08CFBE4E70B685B1B1AD40B2B0E
:102E00000FD90B60CD50CC18304600F080FB04F198
:102E10000B00231D20F00700C31A1BD05A42E250BA
:102E200070BD8C420DBF63684B686360136018BF50
:102E30000C46E9E70C464968CAE7C41C24F00304C1
:102E4000A04205D0211A304600F086F80130CDD0DE
:102E50002560D9E770BD00BF9006002094060020D1
:102E60000FB40A4B13B51C6824B1A36913B92046EB
:102E7000FFF778FE05AB049AA1680193204600F0A5
:102E8000BFFC02B0BDE8104004B070476C020020E7
:102E900070B50E46054618B183690BB9FFF762FE9F
:102EA000AB69AC6813B92846FFF75CFE234B9C4224
:102EB00017D16C68A3891B071DD52369DBB1013EBF
:102EC000A36816F8011F013BA360E9B9002B2EDAB5
:102ED00022460A21284600F0B9F9013011D00A2013
:102EE00070BD174B9C4201D1AC68E3E7154B9C4287
:102EF00008BFEC68DEE72146284600F00BFA002800
:102F0000DDD04FF0FF3070BD002B04DAA269934290
:102F100006DB0A2904D023685A1C22601970CFE707
:102F20002246284600F092F90130C9D1E9E723682A
:102F30000A205A1C2260187070BD00BFF0510000BA
:102F400010520000D0510000024B01461868FFF7F4
:102F50009FBF00BF6C02002038B5064C0023054619
:102F600008462360FDF7E2FC431C02D1236803B14D
:102F70002B6038BDFC4600200FB40A4B13B51C680B
:102F800024B1A36913B92046FFF7ECFD05AB049A01
:102F900061680193204601F033F802B0BDE81040AB
:102FA00004B070476C02002000294FF480630CBF0E
:102FB0000222002200F000B82DE9F7431D46514BD4
:102FC0001E6804460F46904626B1B36913B93046D1
:102FD000FFF7C8FD4C4B9C4252D17468B8F1020F08
:102FE00006D0B8F1010F00F28980002DC0F2868072
:102FF00021463046FFF73AFD616B41B104F14403CD
:10300000994202D03046FFF77FFE0023636300231E
:10301000A3616360A3891B0603D521693046FFF7CE
:1030200073FEA38923F44A6323F00303B8F1020F6C
:10303000A3815DD001AB6A462146304600F0FAF923
:10304000A3891843A0812DBB009D284600F056FAA5
:10305000074600284ED1DDF80090A9453CD14FF03D
:10306000FF30A38943F00203A3810023A36004F18E
:103070004703236023610123636103B0BDE8F0834C
:10308000224B9C4201D1B468A8E7214B9C4208BF67
:10309000F468A3E7002FD8D0B36913B93046FFF71F
:1030A00061FDB8F1010F08BFA389276004BF43F099
:1030B0000103A381A389276113F0080065611BD078
:1030C00013F0010018BF6D424FF000031DBFA36055
:1030D000A5611846A560D0E7484600F00FFA0746FC
:1030E0000028BCD0A38943F08003A3814D46D3E7D9
:1030F0000020B6E7A946F5E7A060BEE74FF0FF3035
:10310000BBE700BF6C020020F0510000105200002D
:10311000D05100000CB430B5174B0C1E9DB01D688B
:1031200008DA8B232B604FF0FF301DB0BDE8304034
:1031300002B070474FF40273ADF8143014BF04F1BD
:10314000FF332346049307934FF6FF7302900690D4
:10315000ADF81630209A21AB02A92846019300F061
:1031600033FA431CBCBF8B232B60002CDDD0029BA9
:1031700000221A70D9E700BF6C0200200EB400B51F
:103180009CB04FF402711DABADF814100290069084
:103190006FF000410A48049107914FF6FF7153F810
:1031A000042BADF816100068019302A900F00CFA88
:1031B000029B00221A701CB05DF804EB03B070474C
:1031C0006C02002010B50C46B1F90E1001F098F811
:1031D0000028ABBF636DA3891B1823F48053ACBFD9
:1031E0006365A38110BD2DE9F0411F468B89DB0586
:1031F00005460C46164605D502230022B1F90E10ED
:1032000000F006F9A389B4F90E1023F48053A381CA
:1032100032463B462846BDE8F04100F069B810B59B
:103220000C46B1F90E1000F0F3F8431CA38915BF4A
:10323000606523F4805343F48053A38118BFA381B6
:1032400010BDB1F90E1000F0D3B80000F8B50E466D
:103250001446054618B183690BB9FFF783FC214B6F
:103260009C422AD16C68A369A360A3891A072ED552
:10327000236963B323692068C01A6369F6B2984270
:10328000374604DB21462846FFF7F0FB28BBA3683E
:10329000013BA36023685A1C22601E7063690130E1
:1032A000984204D0A389DB0719D50A2E17D12146ED
:1032B0002846FFF7DBFB90B10FE00B4B9C4201D19E
:1032C000AC68D0E7094B9C4208BFEC68CBE72146CD
:1032D000284600F01FF80028CCD04FF0FF373846C2
:1032E000F8BD00BFF051000010520000D0510000A6
:1032F00038B5074C054608461146002222601A469A
:10330000FEF7E6FE431C02D1236803B12B6038BDF3
:10331000FC460020324B70B51D6806460C4625B1B0
:10332000AB6913B92846FFF71DFC2E4B9C420FD109
:103330006C68B4F90C309AB215072CD4D00611D4AD
:103340000922326043F04003A3814FF0FF3070BD8B
:10335000254B9C4201D1AC68EBE7244B9C4208BF53
:10336000EC68E6E7510712D5616B41B104F1440303
:10337000994202D03046FFF7C7FC00236363A3895C
:1033800023F02403A3810023636023692360A389BE
:1033900043F00803A38123694BB9A38903F4207385
:1033A000B3F5007F03D02146304600F067F8A289CC
:1033B00012F001030CD00023A36063695B42A36198
:1033C000236953B9B4F90C3013F08000BAD170BD41
:1033D000920758BF6369A360F2E70020F7E700BFD8
:1033E0006C020020F051000010520000D05100008B
:1033F00038B5064C0023054608462360FDF7A8FAB9
:10340000431C02D1236803B12B6038BDFC46002069
:1034100038B5074C054608461146002222601A4678
:10342000FDF7A0FA431C02D1236803B12B6038BD1D
:10343000FC46002070B50E46B1F90E10002990B080
:1034400014461D4607DA00232B60B3891A0610D4F0
:103450004FF480630EE001AA01F0F8F90028F2DBD6
:10346000029A02F47042A2F500535A425A412A606D
:10347000EEE740230020236010B070BD8B8973B548
:103480009D0706460C4607D504F1470323602361D8
:103490000123636102B070BD01AB6A46FFF7CAFF4A
:1034A000009905463046FFF77DFC48B9B4F90C3069
:1034B0009A05EFD423F0030343F00203A381E3E76B
:1034C0000D4BB362A389206043F08003A381009B6E
:1034D0006361019B20615BB1B4F90E10304601F0CD
:1034E000C7F928B1A38923F0030343F00103A381A3
:1034F000A3891D43A581CDE7E52A0000024B0146C3
:103500001868FFF74FBC00BF6C020020704770477F
:103510002DE9F0478E689E4282460C4691469846B9
:1035200035D88A8912F4906F31D0256809696F1AED
:103530006569022305EB450595FBF3F508F10103E9
:103540003B449D4238BF1D46530531D52946FFF700
:1035500029FC064650B90C23CAF80030A38943F071
:103560004003A3814FF0FF30BDE8F0873A46216960
:1035700001F006FAA38923F4906343F08003A3814A
:10358000266165613E44ED1B2660A56046464645C2
:1035900028BF464632464946206801F0FCF9A36838
:1035A0009B1BA36023681E4426600020BDE8F087B3
:1035B0002A4601F00AFA06460028E1D12169504660
:1035C000FFF7A2FBC7E700002DE9F04F9DB0804652
:1035D00003938B891C060D4616460FD50B696BB9F4
:1035E0004021FFF7DFFB2860286128B90C23C8F8C9
:1035F00000304FF0FF30C5E040236B61002309939A
:1036000020238DF8293030238DF82A304FF0010B1C
:1036100037463C4614F8013B002B3CD1B7EB060A79
:103620000BD05346324629464046FFF771FF013022
:1036300000F0A380099B534409933B78002B00F0D2
:103640009C8000234FF0FF3204930793059206936A
:103650008DF853301A9305222178504801F040F933
:10366000671C049BD8B9D90644BF20228DF853208B
:103670001A0744BF2B228DF8532022782A2A16D00D
:10368000079A00210A20274601343B78303B092B5A
:1036900051D9C9B111E0252BC0D02746B9E73F4A1F
:1036A000801A0BFA00F0184304903C46D3E7039AC3
:1036B000111D12680391002A01DB079204E05242B7
:1036C00043F00203079204933B782E2B0ED17B78B4
:1036D0002A2B07F1010132D1039B1A1D1B680392AB
:1036E000002BB8BF4FF0FF33023705932C4C3978CD
:1036F0000322204601F0F4F838B14023001B03FAFE
:1037000000F0049B034304930137397825488DF872
:10371000281006227E1C01F0E3F8002835D0224B49
:10372000FBB9039B073323F0070308330393099B7B
:103730004B4409936CE700FB02320121A3E700230D
:10374000059318460A240F4601313A78303A092A7F
:1037500003D9002BCAD00590C8E704FB0020012341
:10376000F1E703AB00932A46104B04A94046AFF3A0
:103770000080B0F1FF3F8146D9D1AB895B063FF5B0
:1037800038AF09981DB0BDE8F08F03AB00932A460F
:10379000064B04A9404600F0BFF9EAE734520000A6
:1037A0003A5200003E5200000000000011350000B7
:1037B0009368013B002B10B4936008DA9469A3422C
:1037C00002DBCBB20A2B02D110BCFFF73FBD13685E
:1037D000581C10601970C8B210BC7047F8B5064686
:1037E0000F461446D518AC4201D1002007E03A46F6
:1037F00014F8011B3046FFF7DBFF431CF3D1F8BD83
:103800002DE9F04F9DB00C4617460393064618B1BC
:1038100083690BB9FFF7A6F97C4B9C4257D17468BA
:10382000A38918075DD52369002B5AD0002309937B
:1038300020238DF8293030238DF82A304FF0010BEA
:10384000B846454615F8013B002B55D1B8EB070AA1
:103850000BD053463A4621463046FFF7BFFF0130B2
:1038600000F0C480099B5344099398F80030002B62
:1038700000F0BC8000234FF0FF32049307930592C1
:1038800006938DF853301A9305222978604801F089
:1038900027F805F10108049B002831D1D90644BF5F
:1038A00020228DF853201A0744BF2B228DF8532075
:1038B0002A782A2A2CD0079A00210A20A846013506
:1038C00098F80030303B092B6DD971B326E0514B8D
:1038D0009C4201D1B468A3E74F4B9C4208BFF468F7
:1038E0009EE721463046FFF715FD00289ED04FF099
:1038F000FF301DB0BDE8F08F252BA7D0A846A0E76C
:10390000434A801A0BFA00F0184304904546BBE77F
:10391000039A111D12680391002A01DB079204E04B
:10392000524243F002030792049398F800302E2B82
:1039300010D198F801302A2B08F1010137D1039BEF
:103940001A1D1B680392002BB8BF4FF0FF3308F11C
:1039500002080593314D98F800100322284600F024
:10396000BFFF40B14023401B03FA00F0049B034318
:10397000049308F1010898F8001029488DF82810E0
:10398000062208F1010700F0ABFF002834D0254BD8
:1039900003BB039B073323F0070308330393099BFF
:1039A0004B4409934CE700FB0232012186E70023D8
:1039B000059318460A258846013198F80020303AC8
:1039C000092A03D9002BC5D00590C3E705FB0020C9
:1039D0000123F0E703AB00932246134B04A93046C2
:1039E000AFF30080B0F1FF3F8146D8D1A3895B06D9
:1039F0003FF57DAF09987CE703AB009322460A4B65
:103A000004A9304600F088F8ECE700BFF051000050
:103A10003452000010520000D05100003A52000011
:103A20003E52000000000000DD3700002DE9F047A5
:103A300091461F468A680B69DDF820809342B8BF23
:103A40001346C9F8003091F8432006460C4612B1DF
:103A50000133C9F800302368990642BFD9F8003015
:103A60000233C9F80030256815F0060507D104F1C6
:103A7000190AE368D9F800209B1A9D4229DB94F8C3
:103A800043302268003318BF012392062ED404F17C
:103A9000430239463046C047013021D02368E568EB
:103AA000D9F8002003F00603042B08BFAD1AA36861
:103AB00022690CBF25EAE57500259342C4BF9B1A15
:103AC000ED184FF000091A344D451BD10020BDE818
:103AD000F0870123524639463046C047013003D1B2
:103AE0004FF0FF30BDE8F0870135C2E7E1185A1CFE
:103AF000302081F84300224494F8451082F84310A6
:103B00000233C4E70123224639463046C04701301C
:103B1000E6D009F10109D7E72DE9F04317460A7EFF
:103B200085B06E2A984606460C460C9B01F1430E62
:103B300000F0BC801AD8632A2ED00AD8002A00F0E0
:103B4000C880582A00F08A8004F1420584F8422097
:103B50002AE0642A01D0692AF6D121681A6811F096
:103B6000800F23D0111D1960136827E0732A00F01D
:103B7000B48008D86F2A2AD0702AE5D10A6842F0AA
:103B800020020A6003E0752A21D0782ADCD178224D
:103B900084F845206E4964E01A6801F14205111D60
:103BA0001960136884F842300123A3E011F0400F3C
:103BB00002F104011960D7D0B2F90030002B03DA0A
:103BC0002D225B4284F8432062490A2217E02068D4
:103BD000196810F0800F03D0081D18600B6806E00C
:103BE00010F0400F01F104001860F7D00B8859491C
:103BF0006F2A14BF0A220822002084F84300656857
:103C0000A560002DC0F29C80206820F00400206098
:103C1000002B3FD1002D40F095807546082A0BD12E
:103C20002368DA0708D5236962689A42DEBF302329
:103C300005F8013C05F1FF35AEEB05032361CDF836
:103C400000803B4603AA21463046FFF7EFFE0130D5
:103C500055D14FF0FF3005B0BDE8F08381F8452025
:103C60003C492268186812F0800F00F104051D60BD
:103C700001D0036802E05506FBD50388D00744BF96
:103C800042F0200222601BB9226822F0200222604A
:103C90001022B1E77546B3FBF2F002FB1033CB5CA8
:103CA00005F8013D03460028F5D1B7E708681A6812
:103CB000496910F0800F04D0101D18601368196056
:103CC00007E010F0400F02F1040018601368F6D00E
:103CD0001980002323617546B1E71A68111D196028
:103CE000156862680021284600F0FAFD08B1401B03
:103CF000606063682361002384F843309FE7236991
:103D00002A4639463046C0470130A2D023689B0777
:103D100007D5002504F11909E368039A9B1A9D420F
:103D200005DBE068039B9842B8BF184693E7012380
:103D30004A4639463046C04701308AD00135EBE764
:103D4000002BA7D10B7884F8423004F1420565E7D7
:103D500056520000455200002DE9F04FADF5257D8B
:103D60000DF10C080193002346934793A04BA293B7
:103D7000DFF884929F4BCDF8208106460C46A39332
:103D800092460A279AF80030002B00F02F8100F0AD
:103D900083FD9AF800B05844437813F0080343D1E8
:103DA000BBF1250F0AF1010540F09980459343933B
:103DB0009AF801302A2B03D1102343930AF102050C
:103DC0002978A1F13002092AAA4605F1010541D955
:103DD0000322894800F084FD38B1A0EB09030120DB
:103DE0009840439B18434390AA469AF80030672BAB
:103DF0000AF101054AD8652B80F0B780472B2FD8F0
:103E0000452B80F0B280002B00F08280252B66D0FD
:103E100003234993449745E04799013147916168ED
:103E200001330139616023606368002B0BDD00F012
:103E300033FD23681978084441780D07ECD40AF162
:103E40000105AA469EE7A39B2146304698470028D5
:103E5000EDD0F4E7459B07FB0313303B4593AFE7F9
:103E60005B2B61D00CD8582BD2D1439A42F400720C
:103E70004392102244926F2BB4BF0323042310E01B
:103E8000632B5CD0642BC3D14497F4E7702B42D0F2
:103E90001DD86E2B59D043D8692BB9D10023449338
:103EA000032349936368002B61DD439B59066FD55B
:103EB000499B022B7CDC01AB224643A9304600F033
:103EC000C7F8012800F092800228BAD11DE0752BB6
:103ED000DAD0782BC9D0732B9AD10223E1E763683B
:103EE000002B0CDD23681A7893457FD1013362687B
:103EF0002360479B013A013362604793A1E7A39B8C
:103F00002146304698470028ECD04698002863D1D7
:103F10004FF0FF3066E0439A42F020024392A4E75C
:103F2000082344930423BCE72946404600F08EFA58
:103F3000439B43F04003439305460123B1E7439B72
:103F400043F0400343930023ABE7439AD0063FF589
:103F500078AF12F0010F019A479B02F10401019121
:103F6000126814BF138013606BE7052399E7A39BC6
:103F7000214630469847002897D0C6E7479A013235
:103F800047926268013A002A62600ADD01332360C9
:103F900000F082FC23681A78104442781207EDD4AE
:103FA00086E7A39B2146304698470028F0D0ACE72F
:103FB000042B06DC01AB224643A9304600F0ACF8E6
:103FC0007FE70E4B002B3FF43CAF01AB224643A9E9
:103FD0003046AFF3008074E7A38913F0400F18BF99
:103FE0004FF0FF300DF5257DBDE8F08F4698F9E7DD
:103FF00069470000394300003A5200000000000009
:104000002DE9F0410C4616461F46054618B1836956
:104010000BB9FEF7A7FD0B4B9C4208D16C683B46E1
:10402000324621462846BDE8F041FFF795BE064BD3
:104030009C4201D1AC68F2E7044B9C4208BFEC689B
:10404000EDE700BFF051000010520000D051000019
:104050002DE9F04115468A6880460C4632B98A69D6
:10406000002A0CBF01224FF0FF328A602268D1067D
:104070005FBF1A68111D196017680026A369DBB1BC
:10408000012B07D12B6862691B78D35CA3B9002E82
:1040900032D106E0022B07D0002E2DD1A369012BCF
:1040A0002AD10120BDE8F08100F0F6FB2B681B78D7
:1040B000184443781B07EFD42368DA065EBF2B68E9
:1040C0001B783B702A686B6802F101022A60A268C3
:1040D00003F1FF3302F1FF326B6006F1010658BFB6
:1040E0000137A26042B1002BC8DCD4F880312946E8
:1040F000404698470028C1D0236813F0100305D12B
:10410000E2680132E260A26902B13B7023691E4499
:1041100026610020BDE8F0812DE9F04F9A46744BEE
:104120000C468346164693E8070087B003ABA768A2
:1041300083E807006F4BA1696F4A032918BF1A462D
:104140007B1EB3F5AE7F84BF40F25D13A36023688E
:10415000009243F4506388BF6FF4AE7504F11C09FC
:1041600023608CBF7F1900274B464FF00008019356
:10417000316803AB022253F82800097800F0B0FB45
:10418000019B28B3B8F1010F56D162682AB9082201
:104190006260226842F400722260226822F4A06207
:1041A0002260A268511EA16092B13268511C316038
:1041B00012781A705D1C7368013B002B736006DC7B
:1041C000D4F88031314658469847002876D12B469E
:1041D00008F10108B8F1030FC9D162680AB90A22CF
:1041E00062606268454960690193891A00F02EF99E
:1041F000019B4FF000081D46A368002B38D03168A2
:1042000060690A78805C002832D0302A226821D187
:1042100010051FD508F1010817B10133013FA36054
:104220007368013B002B73601BDD3368013333601F
:10423000A368013BA360DFE7B8F1020FB1D12268A8
:1042400002F4C061B1F5007FC2D11021616042F477
:104250008072A5E722F4106222600B782B70013582
:10426000DEE7D4F880313146584698470028DFD041
:104270002368D9050CD54D4508D915F8011CD4F88B
:104280007C313246584698476F1E3D464D452CD0EE
:10429000226812F010021ED12A706368009E4946FF
:1042A0005846B0472268DAF8003012F0200F08D0E4
:1042B0001A1DCAF800201B68186009E04FF00008BA
:1042C000D6E7D207F4D51A1DCAF800201B6818805B
:1042D000E3680133E360A5EB0905A844256945447B
:1042E0002561002007B0BDE8F08F0120FAE700BF8C
:1042F00068520000CD460000AD4500008452000029
:1043000038B5074C054608461146002222601A4679
:10431000FDF7CEFE431C02D1236803B12B6038BDEC
:10432000FC460020838903F00903092B01D1FEF725
:10433000C7BB002070470000F8B50C46054618B111
:1043400083690BB9FEF70EFC3B4B9C420AD16C68AB
:10435000B4F90C200023636093B29E060CD54FF095
:10436000FF30F8BD354B9C4201D1AC68F0E7344BCF
:104370009C4208BFEC68EBE7580748D4D90605D43F
:10438000092342F040022B60A281E8E71A070BD50F
:1043900021462846FEF76AFB0028E0D1A389A060E9
:1043A00023F00803A381A061A38943F00403A38140
:1043B00023691BB921462846FFF760F8B4F90C7051
:1043C000BEB2B3070FD00123A3811E4B1E4918684C
:1043D00006F00906FEF732FC092EA78103D121461B
:1043E0002846FEF7BBFA22692260666A6369216A81
:1043F0002846B047002860601CDCA38917BF002254
:1044000043F0200343F040036260A381A7E7616BA0
:104410000029CDD004F14403994202D02846FEF78A
:1044200073FC236C636000206063002BC0D0E36BDF
:104430002360F8BD0020F8BDF051000010520000CC
:10444000D0510000305200002543000070B50B78B9
:104450005E2B13BF4A1C8A1C4B78002108BF012128
:10446000441E00F1FF0504F8011FA542FBD113B95A
:10447000013A104670BD81F00104C45411460D7814
:104480002D2D01F1010206D05D2DF2D00DB90A46A5
:10449000EFE72B46F1E74E785D2EFAD0B342F8DC19
:1044A000023101339E42C454FBDCE8E72DE9F84FAA
:1044B0008046894692461F468B465D460A9815F807
:1044C000014B00F0E5F92044467816F008060BD1C0
:1044D0002D2C0BD12C7801260BF1020567B1102F82
:1044E00014D1302C0AD011E0AB46E6E72B2C04BFE8
:1044F0002C780BF10205F1E7302C27D12B7803F053
:10450000DF03582B4BD16C7810270235002E0CBFDF
:104510006FF000414FF000410022B1FBF7FE104662
:1045200007FB1E1CA4F13003092B11D81C46A7421F
:104530001DDD531C07D0864516D301D1A44513DBDE
:1045400000FB0740012215F8014BEBE70A27DDE7E6
:10455000A4F14103192B01D8373CE8E7A4F161032A
:10456000192B04D8573CE2E74FF0FF32EBE7531C1E
:1045700008D12223C8F800300846BAF1000F07D14D
:10458000BDE8F88F06B14042BAF1000F0CD022B15D
:10459000013DCAF80050BDE8F88F4D46F9E73024D8
:1045A000002FB3D10827B1E7BDE8F88F37B5064C27
:1045B000064D2468246A002C08BF2C460094FFF79F
:1045C00075FF03B030BD00BF6C020020D002002098
:1045D0002DE9F0478046894692461E460F463D46E5
:1045E000089815F8014B00F053F92044437813F074
:1045F00008030AD12D2C0AD12C780123BD1C5EB1F1
:10460000102E13D1302C09D010E02F46E7E72B2CC9
:1046100004BF2C78BD1CF2E7302C25D12A7802F09B
:10462000DF02582A4AD16C78102602354FF0FF314C
:104630000027B1FBF6F106FB01FE6FEA0E0E3846CD
:10464000A4F13002092A11D81446A6421DDD002F1C
:1046500018DB814216D301D1A64513DB00FB0640CF
:10466000012715F8014BEBE70A26DFE7A4F1410229
:10467000192A01D8373CE8E7A4F16102192A04D8C5
:10468000573CE2E74FF0FF37EBE7002F09DA222330
:10469000C8F800304FF0FF30BAF1000F07D1BDE885
:1046A000F08703B14042BAF1000F0CD027B1013DB1
:1046B000CAF80050BDE8F0874D46F9E73024002ED7
:1046C000B4D10826B2E7BDE8F087000037B5064C44
:1046D000064D2468246A002C08BF2C460094FFF77E
:1046E00077FF03B030BD00BF6C020020D002002075
:1046F0002DE9F0410C46496B04F1440399421ED167
:104700004FF48061FEF74EFB18B94FF0FF30BDE863
:10471000F0814FF48063A36394F84630606380F8BF
:10472000FF3394F8453080F8FE3394F8443080F835
:10473000FD3300F2FD3020600020BDE8F081A66B63
:1047400077003A4600F041F905460028DDD000EB3D
:10475000060801463246404600F012F9C4F80080CF
:104760006563A763E8E700004B1C70B506460D467D
:10477000144603D14FF0FF35284670BD18B1836948
:104780000BB9FEF7EFF92E4B9C422CD17468B4F9AB
:104790000C3023F02003A3819BB2590713D4DA060F
:1047A000E8D51B070BD521463046FEF75FF90028F8
:1047B000E0D1A389A06023F00803A381A061A389AD
:1047C00043F00403A381636B6268EDB2E3B1A36BB2
:1047D0009A4212DA23685A1E226003F8015C636869
:1047E00001336360C8E7174B9C4201D1B468CEE740
:1047F000154B9C4208BFF468C9E721463046FFF7D5
:1048000077FF0028E6D0B5E72169236851B19942C6
:1048100008D213F8011C8D4204D1013B0132236000
:104820006260A9E7E36304F1440363630323A363C2
:104830002346226403F8465F23600123D1E700BFCB
:10484000F051000010520000D051000038B5074C64
:1048500000230546084611462360FCF77CF8431CFC
:1048600002D1236803B12B6038BD00BFFC46002095
:1048700038B5064C0023054608462360FCF770F85F
:10488000431C02D1236803B12B6038BDFC460020D5
:10489000D0F8EC0070470000044B054A1B681B6A07
:1048A000002B08BF1346D3F8EC0070476C020020C1
:1048B000D002002082B001B901A942B14BB11378F6
:1048C0000B601278101C18BF012002B07047104610
:1048D000FBE76FF00100F8E70000000000000000B7
:1048E00001F0FF01102A2BDB10F0070F08D010F8A1
:1048F000013B013A8B422DD010F0070F42B3F6D1A5
:10490000F0B441EA012141EA014122F007047FF0BD
:1049100000070023F0E80256083C85EA010586EA14
:10492000010685FA47F5A3FA87F586FA47F6A5FA50
:1049300087F68EB9EED1F0BC01F0FF0102F007025C
:1049400032B110F8013B013A83EA010313B1F8D107
:104950000020704701387047002D06BF35460338E8
:10496000073815F0010F07D1013015F4807F02BF21
:10497000013015F4C03F0130F0BC0138704700BF72
:1049800010B5431E0A44914200D110BD11F8014BED
:1049900003F8014FF7E7884210B501EB020303D893
:1049A000421E99420CD110BD9842F9D28118D21AF8
:1049B000D34200D110BD13F8014D01F8014DF7E7C6
:1049C00011F8014B02F8014FEBE7F8B50746144622
:1049D0000E4621B91146BDE8F840FEF7E3B922B909
:1049E000FEF792F925462846F8BD00F021F88442EA
:1049F0000FD921463846FEF7D5F905460028F2D0F2
:104A000031462246FFF7BCFF31463846FEF77CF9B7
:104A1000E9E73546E7E749B1FF2A85BF8A23036006
:104A20000A704FF0FF3098BF01207047084670476A
:104A300051F8040C0028A0F10400BCBF0B58C018AA
:104A4000704700002E2E2F68616C2F7372632F68E1
:104A5000616C5F696F2E63002E2E2F68616C2F735F
:104A600072632F68616C5F6D63695F73796E632E2B
:104A7000630000002E2E2F68616C2F7372632F6805
:104A8000616C5F75736172745F73796E632E63001E
:104A90002E2E2F68706C2F736468632F68706C5FA4
:104AA000736468632E6300000030004000340040EF
:104AB0000020014100400141000000430004004388
:104AC00000080043000C00430000000004001040F8
:104AD0000000030002007000ADD8000000000000DC
:104AE00002000000040010400000030002007000FB
:104AF000ADD8000000000000000000000000000031
:104B000000000000000000000000000000000000A5
:104B10002E2E2F68706C2F736572636F6D2F687007
:104B20006C5F736572636F6D2E6300007B22535B55
:104B3000253034755D223A7B2251223A25752C228C
:104B400041223A25752C22442225757D7D0D0A00CF
:104B50007B22435B253034755D223A7B2253223A17
:104B600025752C225341223A25752C224131223AB7
:104B700025752C224132223A25752C224431223AC5
:104B800025752C224432223A25757D7D0D0A0000C0
:104B90004C694441522073746F707065640D00005D
:104BA0004C694441522072657365740D0000000029
:104BB0006761746865726564202530642F253064F0
:104BC000207363616E732E2E2E0D0A002530642033
:104BD000696E76616C6964207363616E73202D2D3C
:104BE000206761746865726564202530642F253004
:104BF00064207363616E732E2E2E0D0A0000000078
:104C0000444F4E450D000000253032580000000092
:104C1000203A2052504C69444152204D6F64656CDB
:104C20002049443A2025750D0A000000203A20460C
:104C300069726D776172652056657273696F6E3A3D
:104C40002025752E25750D0A00000000203A204809
:104C5000617264776172652056657273696F6E3A2E
:104C60002025750D0A000000203A20536572696105
:104C70006C204E756D6265723A20307825730D0A8E
:104C800000000000474F4F44000000005741524EC3
:104C9000494E47004552524F52000000554E4B4E70
:104CA0004F574E00203A204C6944415220486561DC
:104CB0006C7468206973202573210D0A00000000C0
:104CC000203A204C69444152204865616C74682048
:104CD0006973202573210D0A203A204572726F7284
:104CE00020636F64653A2025750D0A00203A205331
:104CF00074616E64617264205363616E2053616DF0
:104D0000706C65726174653A2025750D0A000000AB
:104D1000203A2045787072657373205363616E206A
:104D200053616D706C65726174653A2025750D0A6A
:104D30000000000025632563000000002563256353
:104D40002563000025730000256878000D0A53656F
:104D50006C6563746564206F7074696F6E2069732D
:104D60002025640D0A0000000D0A52657475726EEC
:104D7000696E6720746F206D61696E206D656E7558
:104D80000D0000000D0A5374617274696E67204C47
:104D900069444152206D6F746F720D000D0A537497
:104DA0006F7070696E67204C69444152206D6F745A
:104DB0006F720D000D0A52657175657374696E67C7
:104DC000204C694441522073746F700D0000000044
:104DD0000D0A52657175657374696E67204C69447C
:104DE00041522072657365740D0000000D0A526512
:104DF0007175657374696E67204C69444152207304
:104E000074617274207363616E0D00000D0A526547
:104E10007175657374696E67204C694441522073E3
:104E20007461727420657870726573732073636146
:104E30006E0D00000D0A52657175657374696E67B9
:104E4000204C6944415220737461727420666F7201
:104E50006365207363616E0D000000000D0A5265EA
:104E60007472696576696E67204C694441522069A5
:104E70006E666F0D000000000D0A52657472696560
:104E800076696E67204C69444152206865616C7494
:104E9000680D00000D0A52657472696576696E6767
:104EA000204C694441522073616D706C657261746D
:104EB00065730D000D0A496E76616C6964206F7030
:104EC00074696F6E0D0000000D0A2121212121213E
:104ED000212120496E20486172644661756C745FBF
:104EE00048616E646C6572202121212121212121DC
:104EF0000D0000000D0A0D0A3D3D3D3D3D3D3D3D8F
:104F00004C69444152204175746F6D617465642031
:104F10004D617070696E672053797374656D2028D8
:104F20004C414D53293D3D3D3D3D3D3D3D0D000036
:104F30000D0A496E76616C6964206F7074696F6EDA
:104F4000200D00000D0A456E74657220616E676C5D
:104F500065203E3E200000000D0A4552524F523A55
:104F600020496E76616C696420616E676C652E20E5
:104F7000416E676C65206D75737420626520626593
:104F8000747765656E203020616E64203138300D95
:104F9000000000000D0A53657474696E6720736524
:104FA00072766F20616E676C6520746F20253064A7
:104FB0000D0A00000D0A446174612061742074655B
:104FC000737420616464726573732025642069734F
:104FD000203D2025640D0A000D0A496E7665727425
:104FE0006564207468652064617461206174207454
:104FF000657374206164647265737320616E6420EC
:105000007772697474656E0D000000000D0A506CB3
:105010006561736520636F6E66696775726520539D
:10502000424C4B206675736520746F20616C6C6F09
:105030006361746520536D617274454550524F4DE4
:1050400020617265610D000025303264200000008F
:105050000D0A536D617274454550524F4D20636F78
:105060006E7461696E732076616C6964206461742A
:1050700061200D000D0A53746F72696E67207369A9
:10508000676E617475726520746F20536D61727400
:10509000454550524F4D20616464726573732030F2
:1050A00078303020746F20307830330D00000000ED
:1050B0000D0A467573652076616C75657320666FA1
:1050C000722053424C4B203D2025642C2050535AD3
:1050D000203D2025642E205365652074686520746A
:1050E00061626C652027536D617274454550524F63
:1050F0004D205669727475616C20090953697A658F
:1051000020696E2042797465732720696E20746867
:10511000652044617461736865657420746F2063F1
:10512000616C63756C61746520746F74616C20616F
:105130007661696C61626C65206279746573200DBB
:105140000A0000000D0A454550524F4D204461743D
:1051500061206174206669727374202564206C6F0D
:10516000636174696F6E733A200D0A000D0A456E13
:105170007465722061646472657373203E3E200022
:105180000D0A4552524F523A20416464726573735E
:1051900020696E76616C69642E2054727920616793
:1051A00061696E200D0000000D0A456E7465722065
:1051B00064617461203E3E20000000000D0A5772B9
:1051C000697474656E202564206174202564000074
:1051D00000000000000000000000000000000000CF
:1051E00000000000000000000000000000000000BF
:1051F00000000000000000000000000000000000AF
:10520000000000000000000000000000000000009E
:10521000000000000000000000000000000000008E
:10522000000000000000000000000000000000007E
:1052300070020020232D302B2000686C4C00656626
:1052400067454647003031323334353637383941D7
:1052500042434445460030313233343536373839ED
:105260006162636465660000865200008952000036
:105270008C520000412D46612D6638393031323371
:10528000343536375D002B2D003030007858004320
:1052900000504F534958002E00002020202020208D
:1052A00020202028282828282020202020202020D6
:1052B00020202020202020202020881010101010D6
:1052C0001010101010101010101004040404040426
:1052D0000404040410101010101010414141414109
:1052E000410101010101010101010101010101016E
:1052F00001010101011010101010104242424242FF
:10530000420202020202020202020202020202023D
:105310000202020202101010102000000000000023
:10532000000000000000000000000000000000007D
:10533000000000000000000000000000000000006D
:10534000000000000000000000000000000000005D
:10535000000000000000000000000000000000004D
:10536000000000000000000000000000000000003D
:10537000000000000000000000000000000000002D
:10538000000000000000000000000000000000001D
:10539000000000000000000000000000F8B500BFA1
:1053A000F8BC08BC9E46704789020000F8B500BFF3
:0C53B000F8BC08BC9E4670476502000077
:1053BC000D0A2A2A2A2A2A2A2A2A20456E7465725C
:1053CC002063686F696365202A2A2A2A2A2A2A2AD6
:1053DC00200D0A20312E204261636B20746F206DEA
:1053EC0061696E206D656E750D0A20322E20537426
:1053FC00617274206D6F746F720D0A20332E2053FE
:10540C00746F70206D6F746F720D0A20342E2053E0
:10541C00656E642073746F7020636F6D6D616E6464
:10542C000D0A20352E2053656E64207265736574E9
:10543C0020636F6D6D616E640D0A20362E205365EE
:10544C006E64207363616E20636F6D6D616E640DAD
:10545C000A20372E2053656E642065787072657350
:10546C0073207363616E20636F6D6D616E640D0AE2
:10547C0020382E2053656E6420666F72636520732E
:10548C0063616E20636F6D6D616E640D0A20392E41
:10549C002053656E64206765745F696E666F206368
:1054AC006F6D6D616E640D0A20412E2053656E6424
:1054BC00206765745F6865616C746820636F6D6DDF
:1054CC00616E640D0A20422E2053656E6420676560
:1054DC00745F73616D706C657261746520636F6D60
:1054EC006D616E640D0A00000D0A2A2A2A2A2A2AE6
:1054FC002A2A20456E7465722063686F6963652083
:10550C002A2A2A2A2A2A2A2A200D0A20312E205217
:10551C0065736574206465766963650D0A20322EA7
:10552C0020454550524F4D0D0A20332E20536572A5
:10553C00766F0D0A20342E204C694441520D0A001E
:10554C00FFFF0100FFFF00000D0A2A2A2A2A2A2A3F
:10555C002A2A20456E7465722063686F6963652022
:10556C002A2A2A2A2A2A2A2A200D0A20312E2042C7
:10557C0061636B20746F206D61696E206D656E7553
:10558C000D0A20322E2053657420736572766F20BD
:10559C00616E676C650D0A00000000440000004459
:1055AC000D0A2A2A2A2A2A2A2A2A20456E7465726A
:1055BC002063686F696365202A2A2A2A2A2A2A2AE4
:1055CC00200D0A20312E2052657365742064657697
:1055DC006963650D0A20322E204261636B20746F63
:1055EC00206D61696E206D656E750D0A20322E205E
:1055FC005265616420536D617274454550524F4D34
:10560C000D0A20332E20577269746520536D617218
:10561C0074454550524F4D0D0A0000007002002099
:10562C0000000000F051000010520000D0510000AA
:10563C00000000000000000000000000000000005E
:10564C00000000000000000000000000000000004E
:10565C00000000000000000000000000000000003E
:10566C00000000000000000000000000000000002E
:10567C00000000000000000000000000000000001E
:10568C0043000000000000000000000000000000CB
:10569C0000000000000000000000000000000000FE
:1056AC0043000000000000000000000000000000AB
:1056BC0000000000000000000000000000000000DE
:1056CC00430000000000000000000000000000008B
:1056DC0000000000000000000000000000000000BE
:1056EC00430000000000000000000000000000006B
:1056FC00000000000000000000000000000000009E
:10570C00430000000000000000000000000000004A
:10571C00000000000000000000000000000000007D
:10572C00430000000000000000000000000000002A
:10573C00000000000000000000000000000000005D
:10574C00430000000000000000000000000000000A
:10575C00000000000000000000000000000000003D
:10576C00174A0000B54800000000000099520000E4
:10577C009752000039520000395200003952000093
:10578C0039520000395200003952000039520000E1
:10579C003952000039520000FFFFFFFFFFFFFFFFEF
:1057AC00FFFFFFFFFFFF0000010041534349490089
:1057BC0000000000000000000000000000000000DD
:1057CC000000000000000000000041534349490064
:1057DC0000000000000000000000000000000000BD
:0C57EC00000000000000000000000000B1
:00000001FF
