S01900006C616D732D78706C61696E65642D70726F2E737265635E
S113000098450120D5020000D102000059360000B5
S1130010D1020000D1020000D10200000000000063
S1130020000000000000000000000000D1020000F9
S1130030D102000000000000D1020000C937000016
S1130040D1020000D1020000D1020000D102000060
S1130050D1020000D1020000D1020000D102000050
S1130060D1020000D1020000D1020000892C00005E
S1130070D1020000D1020000D1020000D102000030
S1130080D1020000D1020000D1020000D102000020
S1130090D1020000D1020000D1020000D102000010
S11300A0D1020000D1020000D1020000D102000000
S11300B0D1020000D1020000D1020000D1020000F0
S11300C0D1020000D1020000D1020000D1020000E0
S11300D0D1020000D1020000D1020000D1020000D0
S11300E0D1020000D1020000000000000000000066
S11300F0000000007D2B0000D1020000D1020000AE
S1130100D1020000D1020000D1020000D10200009F
S1130110D1020000D1020000D1020000D10200008F
S1130120D1020000D1020000D1020000D10200007F
S1130130D1020000D1020000D1020000D10200006F
S1130140D1020000D1020000D1020000D10200005F
S1130150D1020000D1020000D1020000D10200004F
S1130160D1020000D1020000D1020000D10200003F
S1130170D1020000D1020000D1020000D10200002F
S1130180D1020000D1020000D1020000D10200001F
S1130190D1020000D1020000D1020000D10200000F
S11301A0D1020000D1020000D1020000D1020000FF
S11301B0D1020000D1020000D1020000D1020000EF
S11301C0D1020000D1020000D1020000D1020000DF
S11301D0D1020000D1020000D1020000D1020000CF
S11301E0D1020000D1020000D1020000D1020000BF
S11301F0D1020000D1020000D1020000D1020000AF
S1130200D1020000D1020000D1020000D10200009E
S1130210D1020000D1020000D1020000D10200008E
S1130220D1020000D1020000D1020000D10200007E
S1130230D1020000D1020000D1020000D10200006E
S1130240D1020000D1020000D1020000D10200005E
S1130250D1020000D1020000D1020000D10200004E
S1130260D102000010B5054C237833B9044B13B107
S11302700448AFF300800123237010BD6002002006
S11302800000000010C100000C4B43B10C480D49A4
S113029010B5AFF300800C48036823B910BD0A48B9
S11302A0036833B97047094B002BF7D0BDE8104001
S11302B01847064B002BF5D0184700BF000000007C
S11302C010C100006402002010C100000000000002
S11302D0FEE7000008B5174B174A9A4210D0174B97
S11302E0144A9A420CD2013B9B1A23F003030433B1
S11302F01344114951F8040B42F8040B9A42F9D102
S11303000F4B104A9A420AD2013B9B1A23F0030373
S113031004331344002142F8041B9342FBD10A4ADC
S11303200A4B23F07F039360094B9847094B984786
S1130330FEE700BF0000002010C1000060020020A2
S1130340944500206002002000ED00E00000000061
S1130350F9800000E542000010B504460A4B9847B6
S113036001280FD020B102280CBF0220012010BDAB
S11303702046064B984700F00300002814BF0020D5
S1130380022010BD032010BD8D530000D55900007C
S113039038B504460D46044B9847400001382860A0
S11303A02046024B984738BDF95900005903000014
S11303B010B504460A4B9847032806D12046084B3B
S11303C09847032801D1012010BD38B92046054BB8
S11303D09847002814BF0420002010BD012010BD40
S11303E0590300001D5A000008B5054B984720B179
S11303F002280CBF0320012008BD002008BD00BF57
S1130400590300002DE9F04F83B083468846144613
S11304101D4601A9174B98472E19019B01339E4293
S113042001D9F3201FE00DB3134FDFF85090DFF82C
S113043050A00FE001214046C84798B9D04700308A
S113044018BF012000E0022090B9013408F50078BB
S1130450A64208D0012221465846B8470028E9D0D0
S11304600228F0D0FF2003B0BDE8F08F0020FAE7A7
S1130470FF20F8E791030000955A00006D5B00002F
S1130480B95B00002DE9F04F83B0834688461446DB
S11304901D4601A9174B98472E19019B01339E4213
S11304A001D9F3201FE00DB3134FDFF85090DFF8AC
S11304B050A00FE001214046C84798B9D04700300A
S11304C018BF012000E0022090B9013408F500783B
S11304D0A64208D0012221465846B8470028E9D050
S11304E00228F0D0FF2003B0BDE8F08F0020FAE727
S11304F0FF20F8E791030000295C0000C95C0000BC
S1130500155D000010B582B0144603291AD8DFE83F
S113051001F012070F0201231360002002B010BD86
S113052001A9094B9847019B013323600020F5E79B
S113053000201070F2E7054B984700280CBF0020FC
S1130540E320EBE7F320E9E79103000059030000FF
S1130550104B93F8D92002F0FE0242F0010283F816
S1130560D92093F8BC2002F00F0242F0300283F845
S1130570BC2093F8D82002F0FE0242F0010283F876
S1130580D82093F8BC2002F0F00242F0030283F872
S1130590BC20704700800041064B4022C3F8DC2099
S11305A04322C3F88C20044A936943F40073936193
S11305B0704700BF001C00400008004008B5054B10
S11305C09847002204490548054B9847054B98472E
S11305D008BD00BF990500000020014168410020CA
S11305E0D529000051050000F0B4724B4FF40011FE
S11305F099604FF080429A626F4D9D62596193F801
S1130600550000F0FB0083F8550093F8550000F006
S1130610FE0040F0010083F8550093F83A0000F022
S11306200F0040F0800083F83A004FF48010986087
S11306309A62624E9E62586193F8544004F0FB043F
S113064083F8544093F8544004F0FE0444F0010449
S113065083F8544093F83A4004F0F00444F008045A
S113066083F83A404FF48024C3F88840C3F8A820A4
S1130670534FC3F8A870C3F8944093F8D24004F0E1
S1130680FB0483F8D24093F8D24004F0FE0444F013
S1130690010483F8D24093F8B94004F0F00444F024
S11306A0080483F8B9404FF40024C3F88840C3F821
S11306B0A8200437C3F8A870C3F8944093F8D34033
S11306C004F0FB0483F8D34093F8D34004F0FE0411
S11306D044F0010483F8D34093F8B94004F00F04C4
S11306E044F0800483F8B940C3F88800C3F8A82014
S11306F0C3F8A860C3F8940093F8D44004F0FB0452
S113070083F8D44093F8D44004F0FE0444F0010488
S113071083F8D44093F8BA4004F0F00444F0080499
S113072083F8BA40C3F88810C3F8A820C3F8A850C7
S1130730C3F8941093F8D52002F0FB0283F8D52077
S113074093F8D52002F0FE0242F0010283F8D5208E
S113075093F8BA2002F00F0242F0800283F8BA2024
S1130760C3F884011748C3F8A801174AC3F8A8219D
S113077093F8D42102F0FB0283F8D42193F8D42116
S113078002F0FE0283F8D421C3F88411C3F8A8014F
S11307900E4AC3F8A82193F8D52102F0FB0283F88E
S11307A0D52193F8D52102F0FE0283F8D521F0BCBF
S11307B0704700BF00800041200000C0100000C04E
S11307C0040000C000000240100002C0200002C06B
S11307D0054A136943F480331361044B4022C3F880
S11307E03821C3F88C20704700080040001C0040EA
S11307F008B5054B98474FF08C410448044B984783
S1130800044B984708BD00BFD10700007841002081
S113081069260000E9050000184B4FF48022C3F854
S11308201421C3F808214FF08042C3F82821144A48
S1130830C3F8282193F8522102F0FE0283F85221D2
S11308404FF000625A615A600E4A9A620E4A9A62E6
S113085093F85B2002F0FE0283F85B2040225A6189
S11308609A6002F180429A624FF040429A6293F891
S1130870462002F0FE0283F84620704700800041C3
S1130880040000C000000240000802C008B5084B84
S11308909847084B9847084B9847084B9847084B8C
S11308A09847084B9847084B9847084B984708BD0A
S11308B0DD2A00001908000095090000453A0000EF
S11308C0BD050000F10700007D5D000069380000EF
S11308D0074AD36A13F0040FFBD1064B1A68135C62
S11308E005490B70B3FA83F35B091354704700BFD7
S11308F0004000410000002090410020094AD36AD2
S113090013F0040FFBD1074BDB6A13F4706F00D1B3
S1130910FEE7054B5B681868B0F15A3018BF4FF01A
S1130920FF307047004000410000002008B5104B24
S1130930984748B10F4AD36A13F0040FFBD10E4B0A
S11309405B684FF05A321A6020200C4B98470A4BD0
S11309501B6893F820302BB94FF48022084BC3F85E
S1130960142108BD4FF48022054BC3F8182108BD9B
S1130970FD0800000040004100000020D1080000F4
S113098000800041024A536943F400735361704785
S11309900008004008B5034B984703490348044B3B
S11309A0984708BD8509000000240040F841002054
S11309B08925000000B583B069460F480F4B98475E
S11309C09DF805009DF804301B0443EA40539DF84C
S11309D0000003439DF8020043EAC0239DF8010090
S11309E043EA4013BDF80600A0F2BC7043EA40603D
S11309F003B05DF804FB00BFF8410020CD250000E2
S1130A00013812282FD8DFE800F0300A0C0E10123B
S1130A101416181A1C1E20222426282A2C001448D6
S1130A207047144870471448704714487047144876
S1130A307047144870471448704714487047144866
S1130A407047144870471448704714487047144856
S1130A507047144870471448704714487047144846
S1130A60704714487047144870471448704700BFD3
S1130A707CB0000090B00000ACB00000C0B000003A
S1130A80D4B00000F0B000002CB1000054B100005C
S1130A907CB10000A4B10000C8B10000E4B10000C2
S1130AA004B2000034B2000078B20000B8B2000012
S1130AB0E4B2000004B3000020B3000048B000001A
S1130AC0022806D0042806D00128044818BF0020B4
S1130AD07047034870470348704700BF28B30000BD
S1130AE040B3000058B300003AB101388A1811F835
S1130AF0013B00F8013F9142F9D1704722B18218BD
S1130B0000F8011B8242FBD17047CA7E8B7E43EA08
S1130B1002230278032A01D018467047487D0A7DD3
S1130B2042EA002243EA0243F6E770B401F1090401
S1130B30036963B34569681E00222E2601E00B2A6F
S1130B400ED0013210F8013F202BF8D0052B08BF3E
S1130B50E523092A04BF2670013423700134EEE72B
S1130B60EB7A0B72EA7FAB7F1B0443EA02632A7FB2
S1130B7013436A7F43EA02230B606A7E2B7E43EAB7
S1130B8002238B80EA7DAB7D43EA0223CB800023E2
S1130B90237070BC70470168E9B110B40C78202C44
S1130BA011D93A2C20D00A4612F8013F202B0CD937
S1130BB03A2BF9D14B1C9A4210D1302C11D102316D
S1130BC00160002005E023460A463A2B18BF0020A6
S1130BD0F0D010BC70474FF0FF3070474FF0FF303B
S1130BE0F7E74FF0FF30F4E70A46E3E72DE9F8436F
S1130BF0037913B90020BDE8F8830446056B00F1BE
S1130C00340701232A4639464078134EB047D0B9F9
S1130C1000232371636AEB1AE269934216D2E678E1
S1130C20012E16D94FF00109DFF82C80E3691D4429
S1130C304B462A4639466078C047013E012EF5D11D
S1130C400020BDE8F8830120BDE8F8830020BDE85A
S1130C50F8830020BDE8F88385040000F8B5036B31
S1130C608B4215D004460D460A4B9847064608B1F8
S1130C703046F8BD01232A4604F134016078064F5A
S1130C80B84700281CBF01264FF0FF352563EFE766
S1130C900026EDE7ED0B00000504000010B5044646
S1130CA0002303714FF0FF3303631D4B984708B1D2
S1130CB0032010BD94F8332294F8323243EA02231D
S1130CC01BB2184A934201D0022010BD94F86D2043
S1130CD094F86C301B0443EA026394F86A201343CB
S1130CE094F86B2043EA022323F07F430E4A934295
S1130CF013D094F8893094F88800000440EA036023
S1130D0094F88630184394F8873040EA032020F0A2
S1130D107F40801A18BF012010BD002010BD00BF05
S1130D205D0C000055AAFFFF46415400B0B108B560
S1130D300368ABB1197809B9092008BDD98882883C
S1130D40914201D0092008BD5878064B984700F01D
S1130D50010000280CBF0020092008BD09207047AD
S1130D60092008BDE90300002DE9F04385B00646DB
S1130D7017460023036008469B4B9847051EC0F2A4
S1130D80A2819A4B53F82540002C00F0A0813460D6
S1130D9023787BB16078964B984710F0010F09D106
S1130DA0002F00F0968100F0040000280CBF002002
S1130DB00A2089E100232370E8B260708D4B9847C4
S1130DC010F0010F01D003207EE127B110F0040FD1
S1130DD001D00A2078E100212046874B984703463A
S1130DE0012806D00026032B00F07581A3B30D2043
S1130DF06AE123466D4604F140006946002705E098
S1130E003A4641F8042B1033834212D093F8F6216A
S1130E10002AF5D093F8FD6193F8FC21120442EA0C
S1130E20066293F8FA61324393F8FB6142EA0622C0
S1130E30E7E704AF4FF00208DFF8BC9106E0314663
S1130E402046C847034638B1AF42CCD055F8046BAE
S1130E50002EF4D14346F7E794F8402094F83F304D
S1130E6043EA02231BB2B3F5007F01D00D202BE12E
S1130E7094F84B3094F84A2052EA03220DD194F8A6
S1130E805B3094F85A20120442EA036294F8583012
S1130E901A4394F8593042EA0322E26194F8441068
S1130EA0E1704B1EDBB2012B01D90D200CE194F84B
S1130EB04170A7700FB90D2006E17B1E3B4201D0A3
S1130EC00D2001E194F8463094F8450040EA0320EF
S1130ED0208110F00F0F40F0008194F8485094F8EE
S1130EE0473053EA05230DD194F8575094F85630FF
S1130EF01B0443EA056394F854502B4394F855506B
S1130F0043EA052394F843E094F8425055EA0E2549
S1130F1000F0E58002FB01FC05EB101101EB0C0E67
S1130F207345C0F0DE80A3EB0E03B3FBF7F3002B95
S1130F3000F0D98040F6F5718B4294BF0121022163
S1130F404FF6F577BB4200F2D8800233A3612662E4
S1130F50354465620EEB0607E762032929D10028B0
S1130F6040F0C38094F8630094F86210090441EAE5
S1130F70006194F86000014394F8610041EA0021A3
S1130F80A1629B0003F2FF13B2EB532FC0F0AF80BA
S1130F904FF0FF332361E3608023637194F865208D
S1130FA094F8643043EA02231BB2012B26D00321B8
S1130FB077E0002800F09D806544A56202290FBFF8
S1130FC05B0003EB430003F0010303EB500303F264
S1130FD0FF13B2EB532FC0F08E804FF0FF33236129
S1130FE0E360802363715CE0970B00007C020020C7
S1130FF0E9030000B10300009D0C0000711C2046B1
S1131000424B9847002856D10023637194F8332249
S113101094F8323243EA02231BB23D4A93424CD144
S113102094F8372094F836301B0443EA026394F8AA
S11310303420134394F8352043EA0223354A93427B
S11310403DD194F81B2294F81A321B0443EA02633C
S113105094F81822134394F8192243EA02232E4ADF
S113106093422ED194F81F2294F81E321B0443EAB3
S1131070026394F81C22134394F81D2243EA0223CA
S1131080236194F8232294F822321B0443EA026376
S113109094F82022134394F8212243EA0223E360C4
S11310A0032121701D4A938801339BB29380E3800E
S11310B00020606108E00321F3E70321F1E7032145
S11310C0EFE70321EDE70B2005B0BDE8F0830C202A
S11310D0FAE70020F8E70120F6E70D20F4E70D20F9
S11310E0F2E70D20F0E70D20EEE70D20ECE70D20F0
S11310F0EAE70D20E8E70D20E6E70233A361266264
S1131100354465620EEB0601E16228E75D0C0000E0
S113111055AAFFFF52526141727241617C02002064
S113112038B504462D4B9847034650B92378032B12
S113113009D0002211466078294B9847031C18BF38
S11311400123184638BD6379012BF2D104F134052B
S11311504FF4007200212846224B9847552384F807
S11311603232AA2384F83332522384F8343084F898
S11311703530612384F83630412284F837207221D7
S113118084F8181284F8191284F81A2284F81B328D
S1131190236984F81C32C3F3072284F81D221A0C35
S11311A084F81E221B0E84F81F32E36884F8203270
S11311B0C3F3072284F821221A0C84F822221B0E7E
S11311C084F82332226A013222630123294660789B
S11311D0054DA84700236371ABE700BFED0B00008A
S11311E005050000FD0A000085040000023983693A
S11311F0023B99423DBF8378C06A01FB0300002093
S113120070470000012969D9F8B58369994267D20A
S11312100C4606460378022B2ED0032B40D0012B1C
S113122001D00120F8BD01EB5105416A01EB5521C4
S11312302C4B984710B14FF0FF30F8BD6F1CC5F32D
S11312400805354495F83450716A01EB572130464E
S1131250244B984710B14FF0FF30F8BDC7F3080096
S1131260304490F8340045EA002014F0010F14BF14
S11312700009C0F30B00F8BD416A01EB1421194BBE
S1131280984710B14FF0FF30F8BD600000F4FF70D4
S1131290304490F8353090F8340040EA0320F8BD2B
S11312A0416A01EBD4110F4B984710B14FF0FF3056
S11312B0F8BDA00000F4FE7000F134023244D1788D
S11312C093781B0443EA0163304490F834001843D4
S11312D0537840EA032020F07040F8BD01207047A5
S11312E00120F8BD5D0C00002DE9F0410546C180E8
S11312F08468012C46D00E4603689A69944202D34E
S11313000220BDE8F08164B91A78032A05D01A894D
S113131096420ED30220BDE8F0819A6A002AF6D0E4
S113132014469F783F01BE421AD3F61BDFF8708043
S113133006E0986AEC60C0B90220BDE8F0811E4660
S113134021462868C0470446B0F1FF3F1DD001285C
S11313501ED92B689B6998421DD2F31BBE42EED264
S1131360214628680D4B9847E4E700EB16102861E6
S11313702B68343306F00F0603EB46166E6100202B
S1131380BDE8F0810220BDE8F0810120BDE8F081D4
S11313900220BDE8F0810220BDE8F081ED110000DB
S11313A00512000038B50446C1880C4B9847054621
S11313B008B1284638BD21692068094B984705467D
S11313C00028F6D1202200216069064B9847636902
S11313D0E5221A70236801221A71EAE7E912000073
S11313E05D0C0000FD0A00002DE9F843012940F2DC
S11313F08B808369994201D3022786E016460C4606
S113140005460378022B4CD0032B5ED0012B01D070
S113141002277AE001EB5108416A01EB58213E4B67
S113142098470746002870D108F10109C8F3080855
S113143014F0010F1CD0A84498F8343003F00F03C3
S113144043EA061388F8343001232B71696A01EBEF
S113145059212846304B9847002859D1C9F3080927
S1131460C6F30712A94489F8342001232B714CE0F8
S1131470A84488F8346001232B71696A01EB59216F
S11314802846254B9847002844D1C9F3080905EBA1
S1131490090393F8343023F00F03C6F303221A43ED
S11314A0E0E7416A01EB14211B4B9847074660BBF8
S11314B0630003F4FF732B4483F83460C6F30722FC
S11314C083F8352001232B711FE0416A01EBD4110D
S11314D0114B98470746C0B9A10001F4FE7101F110
S11314E034032B44DA781206294402F07042324362
S11314F081F83420C2F307215970110C9970120E2F
S1131500DA7001232B7100E002273846BDE8F88326
S11315100746FAE70746F8E75D0C00002DE9F041BD
S11315200546884641B9C6689EB183699E4228BF74
S1131530012634462A4F1AE0294B984703460128CE
S113154043D9B0F1FF3F45D0AA69904242D3464601
S1131550EFE70126EDE721462846B847034670B178
S1131560B0F1FF3F36D0012834D0B44231D0013439
S1131570AB699C42EFD3012E29D90224EBE76FF02B
S1131580704221462846174B98470346B8B9B8F12C
S1131590000F0CD1EC602B69B3F1FF3F1DD0013B70
S11315A02B616B7943F001036B71234612E02246F1
S11315B0414628460B4B984703460028EAD0012BA6
S11315C00CBF4FF0FF33012304E0012302E00023AA
S11315D000E000231846BDE8F0812346FAE700BF87
S11315E005120000E91300002DE9F047C488013416
S11315F0A3B213B90420BDE8F087036913B904202A
S1131600BDE8F0870E46054614F00F0710D10133EC
S11316100361C16831B903681B899C4208D3042063
S1131620BDE8F08700688378013B13EA141808D0FA
S1131630EC802B68343303EB47136B610020BDE867
S1131640F087304B98478146012848D9B0F1FF3FD5
S113165048D028688369994539D316B90420BDE870
S1131660F087E968284B9847814610B90720BDE800
S1131670F087012839D0B0F1FF3F39D02868234BD7
S11316809847002837D128684FF40072002134307D
S11316901F4B98472E68494630461E4B9847306387
S11316A04FF0010A194E2B689A7890450BD283F8B3
S11316B004A02868B04708BB2A68136B013313637E
S11316C008F10108EFE71A6BA2EB08021A63C5F8E8
S11316D00C90494628680F4B98472861A8E70220D8
S11316E0BDE8F0870120BDE8F0870220BDE8F0875F
S11316F00120BDE8F0870120BDE8F0870120BDE8A6
S1131700F08700BF051200001D150000ED0B00005E
S1131710FD0A0000ED1100002DE9F84F05460C46C6
S11317200B782F2B0AD05C2B08D003685B6983608D
S113173023781F2B06D9DFF8388285E00134002393
S1131740AB60F5E700212846834B98478146002388
S11317506B61E0E02E233B7073782E2B13D17B70EA
S1131760B3782E2B02D14FF00609D4E003242F2B9B
S113177000F0BA805C2B00F0B780202B00F2C98007
S113178034442423B2E00224F1E74CF0030C803B00
S1131790724AD35C85E0002B40F0BB80A3F1610268
S11317A0D2B2192A00F291804CF0010C203BDBB23A
S11317B08BE03A78E52A04BF05223A70B9F1080FA4
S11317C004BF4FEA8C0C5FFA8CFC0CF00302012A74
S11317D008BF43F010030CF00C0CBCF1040F08BF5D
S11317E043F00803FB7282E059462846C04781460D
S11317F0002840F0938029692868B0478146002872
S113180040F08C8069690B78002B00F0978091F888
S11318100BA01AF0080FE7D1AF6901F10B0C3A469F
S11318200B4613F801EB12F8010B8645DCD19C45FD
S1131830F7D1FB7A13F0040F6DD11AF0100F50D0CA
S11318402868474B9847A860264614F8013B2F2B7D
S1131850FAD05C2BF8D0AF690B2220213846414BDB
S1131860984733782E2B3FF475AF06F1FF3E0020E6
S113187004464FF0080984464FF00B0B4FF02A0A38
S113188001341EF8013F202B3BD92F2B3CD05C2B7D
S11318903AD02E2B55D081453BD913F0800F7FF4DD
S11318A074AF222B3FF45FAF52462F4993423FF46B
S11318B072AF11F8012F002AF8D1A3F14102D2B27C
S11318C0192A3FF66BAF4CF0020C3B540130D7E7BA
S11318D003F00403002B14BF4FF004094FF0050973
S11318E019E04FF0050916E034442023FB7200216F
S11318F02846194B9847814680B91C4E4FF0000B7F
S113190079E73444042301E03444002300287FF4BD
S113191050AF4FF006094846BDE8F88FAB69DB7A53
S1131920B9F1040FF7D113F0200FD1D00022AA602F
S11319306A6113F0040F87D09146ECE7AB69DB7A58
S1131940F1E7B9F1080FE4D14FEA8C0C5FFA8CFC93
S11319504846D94694E700BFE9120000C8B4000025
S11319600B0B0000FD0A000079B500005D0C0000BF
S1131970E91500002DE9F843044689460021124B7D
S113198098470346D0B90025104E4FF00108104F78
S113199007E001354D4514D041462046B84703467B
S11319A060B921692068B047034638B96269127882
S11319B0E52AEED0002AECD00025EDE7042B08BF81
S11319C007231846BDE8F883E91200005D0C000007
S11319D0E915000038B5054601210D4B984704462A
S11319E008B1204638BD296928680A4B984704463F
S11319F00028F6D1202200216869074B98470B2262
S1131A00A9696869054B98472B6801221A71E8E7B0
S1131A10751900005D0C0000FD0A0000E90A0000D1
S1131A202DE9F041044688464FF0040E164D002778
S1131A30164E04E039462046B0478646F0B921697F
S1131A40B1B12068A8478646C0B963691A789AB1CB
S1131A50DB7A03F03F03E52AECD00F2BEAD023F026
S1131A602003082B14BF002301234345E2D107E0E0
S1131A70BEF1000F04D001E04FF0040E00232361F7
S1131A807046BDE8F08100BF5D0C0000E915000060
S1131A90012930D92DE9F84304460E468369994259
S1131AA003D302221046BDE8F883174F4FF0000914
S1131AB0DFF8588003E02E46A369AB42F2D93146E1
S1131AC02046B8470546C8B1012819D0B0F1FF3FF8
S1131AD018D04A4631462046C04702460028E1D184
S1131AE02369B3F1FF3FE6D001332361637943F007
S1131AF001036371DFE70222104670470022D1E739
S1131B000222CFE70122CDE705120000E91300000D
S1131B1010B584B001900091144604A840F8041D47
S1131B20134B9847002818DB124B53F820300BB1A5
S1131B3000221A70019BABB100221A70019B0D4A5E
S1131B4042F8203063B1012C01D0002006E00022CD
S1131B50694601A8084B984700E00B2004B010BD6B
S1131B600020FBE70023034A42F820301846F5E73B
S1131B70970B00007C020020690D00002DE9F0475E
S1131B808EB00191002800F0AC8004461546002375
S1131B90036002F01E0201A906A85C4B98470646A2
S1131BA0002840F09F8005F01F0803AB0C930199B7
S1131BB006A8574B98470B9F0346002839D1002F9E
S1131BC000F0948015F01C0F48D1FB7A13F0100F2D
S1131BD040F0998015F0020F03D013F0010F40F08C
S1131BE0908015F0080F01D048F02008069B1B6B6D
S1131BF0E361276284F806804FF0000884F80780C8
S1131C00069D39462846434B98472061FA7FBB7F9F
S1131C101B0443EA02633A7F13437A7F43EA0223B5
S1131C20E360C4F80880C4F818802560EB88A380BA
S1131C3058E015F01C0F04D0042806D048F008081A
S1131C400B9F002BD6D01E464CE006A8324B98477B
S1131C5048F008080B9F40B1064643E0FB7A13F0B6
S1131C60110F4AD115F0040F49D118F0080FBDD057
S1131C702A4B9847C1B2B973C0F30722FA73C0F371
S1131C8007433B74000E7874B975FA753B76787621
S1131C900025FD723D777D77BD77FD77DDF81890DF
S1131CA0394648461B4B9847BD76FD763D757D7594
S1131CB0012389F804300546002895D0D9F830A0CE
S1131CC001464846164B984708B106460AE006986E
S1131CD0013DC5605146134B9847002884D0064601
S1131CE000E0092630460EB0BDE8F08715F01C0F61
S1131CF001D10623A5E70623A0E70726F2E7082675
S1131D00F0E70726EEE70426ECE700BF690D0000C4
S1131D10191700000B0B0000D5190000B5090000CD
S1131D20911A00005D0C00002DE9F04F83B00546C8
S1131D308846144699460023C9F800304F4B98470B
S1131D40019048B9EB79002B40F09680AB7913F001
S1131D50010F05D107230193019803B0BDE8F08F6B
S1131D60EE68AB68F61AA64228BF2646002E40D17C
S1131D70F2E76969424B98474BE00223EB71019308
S1131D80EAE70123EB710193E6E70223EB71019388
S1131D90E2E70123EB710193DEE74FF40072343183
S1131DA008EB4020374B98475FE0AC61AC68C4F364
S1131DB00804C4F50074B44228BF3446A9692868ED
S1131DC0314B9847002853D1A968C1F30801343135
S1131DD02B682246194440462A4B9847A044AB68D6
S1131DE02344AB60D9F800302344C9F80030361BD3
S1131DF0B2D0AA68C2F30803002BD7D1286883782D
S1131E00013B03EA522313F0FF0708D1002AB0D1A3
S1131E1028690128B1D9B0F1FF3FB2D06861D5F883
S1131E2000A069695046194B984704460028ACD075
S1131E303C445FEA562BB8D09AF8023007EB0B0209
S1131E409A4288BFA3EB070B5FFA8BF32246414605
S1131E509AF801000E4FB84700289AD129680B79E7
S1131E601BB1086B001B834597D84FEA4B24B5E799
S1131E700123EB7101936FE701936DE72D0D0000D2
S1131E8005120000E90A00005D0C0000ED110000DD
S1131E90050400002DE9F04F83B004468946164638
S1131EA098460023C8F80030694B9847019048B918
S1131EB0E379002B40F0C980A37913F0020F05D118
S1131EC007230193019803B0BDE8F08FA368F342A0
S1131ED00DD2002E63D10AE000215E4B98470346E1
S1131EE003E061695B4B98470346002B69D1A36803
S1131EF0E268934288BFE360A37943F02003A371AF
S1131F00E0E70223E3710193DCE70123E37101932A
S1131F10D8E7514B9847002861D00123E37101931E
S1131F20D0E70223E3710193CCE70123E37101932A
S1131F30C8E74FF4007209EB41213430474B98470E
S1131F40236800221A716EE0A268E3689A426DD297
S1131F50A561A568C5F30805C5F50075B54228BF98
S1131F603546A16920683E4B9847002869D1A0688E
S1131F70C0F30800343023682A4649461844374BD6
S1131F809847236801221A71A944A3682B44A360CB
S1131F90D8F800302B44C8F80030761BA7D0A268CC
S1131FA0C2F30803002BD4D120688378013B03EAF1
S1131FB0522313F0FF070DD1002A92D12369002B7D
S1131FC08AD0012B9DD0B3F1FF3F9ED0636122697B
S1131FD002B923612068026BA3699A4299D0D4F8AC
S1131FE000A0616950461F4B98470546002898D0C9
S1131FF03D445FEA562BA7D09AF8023007EB0B0258
S11320009A4288BFA3EB070B5FFA8BF32A46494633
S11320109AF80100144FB847002886D12068016B54
S1132020491B8B4585D84FEA4B25ADE750460A4BF3
S1132030984710B923681D638AE70123E37101936C
S113204040E70123E37101933CE701933AE700BFC2
S11320502D0D00001D150000ED0B0000E90A000025
S11320605D0C0000ED1100008504000038B5044645
S1132070204B9847034618B9A27912F0200F01D1DA
S1132080184638BDE16920681B4B98470346002871
S1132090F6D1256AEB7A43F02003EB72E3682B77E1
S11320A0A3891B0A6B77E389AB77E37BEB7723691F
S11320B0AB76C3F30722EA761B0C2B751B0A6B75F0
S11320C00E4B9847A875C0F30723EB75030C2B76CA
S11320D0000E68760023AB74EB74A37923F020031D
S11320E0A371236801221A712068054B984703469F
S11320F0C6E700BF2D0D00005D0C0000B50900000F
S11321002111000010B50446074B9847034608B157
S1132110184610BD2046054B984703460028F7D1C2
S113212000222260F4E700BF6D2000002D0D0000A6
S11321302DE9F84304460D46474B984707460028C7
S113214040F08680E379002B40F08180E368AB4265
S113215005D2A27902F00202002A08BF1D46A36834
S11321600022A260002D73D02068867876026BB1BD
S1132170013B6A1EB2FBF6F2B3FBF6F18A4205D3C9
S113218072421340A360ED1A616902E0216949B10A
S1132190616100294AD0B54231D9DFF8C090DFF837
S11321A0C48022E02D4B98470146012804D0B0F1A9
S11321B0FF3F04D02061EBE70227E77148E00127E5
S11321C0E77145E02068C0470146B1F1FF3F23D0E5
S11321D0012924D923689B69994220D26161A368AB
S11321E03344A360AD1BAE4209D2A37913F0020FAE
S11321F0E8D02068C84701460028E6D13546A368E0
S11322002B44A360C5F308037BB12068144B9847A3
S113221040B90227E7711BE00127E77118E00227A4
S1132220E77115E000EB552100E00021A368C3F33A
S113223008021AB1A269914218BFA161E2689342EF
S113224006D9E360A37943F02003A37100E01F469D
S11322503846BDE8F88300BF2D0D00001D150000B1
S1132260ED1100000512000010B586B001910028A0
S11322702CD00446002201A905A81A4B984703460E
S113228010B10022226022E0059B236002ABA3610F
S113229001992046144B98470346E8B9616939B15E
S11322A0CB7A13F0100F0FD00598104B9847A0600D
S11322B0059BDB88A380002120460D4B98470346ED
S11322C0042807D01BB1DCE70523DAE70923184605
S11322D006B010BD0523D4E7042814BF0346052324
S11322E0CFE700BF690D0000191700000B0B0000B9
S11322F0E912000070B584B004460E46144B9847AA
S1132300054650B966B101ABA36100212046114BCB
S1132310984704280AD058B10546284604B070BD31
S1132320002120460C4B98470546F6E7002323611D
S113233031462046094B984700212046084B9847D0
S1132340042801D00546E8E700232361E5E700BF40
S11323502D0D0000211A0000E91200002B0B0000D3
S1132360E915000070B596B016A941F8540D012284
S11323700EA82E4B9847034610B1184616B070BDF0
S113238003AB149301990EA8294B984703460028E0
S1132390F3D1149BDB7A13F0200F3CD1139900295D
S11323A041D0CC7A14F0010F3BD10E9D2846214B2D
S11323B09847064658B90EA81F4B9847034600286D
S11323C0DBD106BB0E981D4B98470346D5E714F0A6
S11323D0100FF0D06B699E421FD020220EA906A8D0
S11323E0174B98470896022106A8164B98470346B0
S11323F00028C2D1002106A8134B9847034670B1A8
S11324000428D8D0B9E731460E98104B98470346B4
S11324100028B2D1D6E70623AFE70723ADE70723A9
S1132420ABE70723A9E70623A7E700BF690D000070
S1132430191700000B0B0000A51300002111000068
S1132440E90A0000E9120000211A0000911A0000B4
S1132450EFF31083036072B6BFF35F8F7047BFF36F
S11324605F8F036883F310887047000010F0030F38
S113247010D101390B291ED8DFE801F00608060A3D
S1132480060A06060A060A060D4870470D487047F4
S11324900D48704701390B290FD8DFE801F0060811
S11324A0060A060A06060A060A0605487047074889
S11324B0704705487047002070470020704700BFF0
S11324C080DE2800803B2600008D270000EA2400DF
S11324D02DE9F8430C46904686692749274AB7B246
S11324E007F00303002B0CBF0B4613469C4202D398
S11324F0E41A0136F3E70125DFF8889029463046CF
S1132500C847844203D3241A0135EDB2F6E71C4BC5
S11325109C4298BF012109D90121194BA4F5A83483
S1132520A4F5C0740131C9B29C42F7D8B4F5616F07
S113253038BF002207D30022A4F561640132D2B26D
S1132540B4F5616FF8D23B2C98BF002305D9002362
S11325503C3C0133DBB23B2CFAD8A8F8067088F86F
S1132560055088F8041088F8022088F8013088F8AB
S113257000400020BDE8F8830085E2018033E101DA
S11325807F5101006D24000038B50D4604464FF418
S1132590E0720B49003018BF01200A4B98472368AA
S11325A0AB4208D04BB925602046074B984740F210
S11325B0B273A36138BD002038BD6FF0110038BD7F
S11325C0CCB50000992A0000C12B000038B50D4697
S11325D0044640F23B220849003018BF0120074B53
S11325E098472046064B98472A4601462046054B05
S11325F09847002038BD00BFCCB50000992A0000E0
S1132600592C0000D124000070B50D46164604462E
S113261060B1081C18BF012034220549054B9847B6
S11326202368324629462046984770BD0020F3E7C8
S1132630E8B50000992A000070B50D461646044618
S113264060B1081C18BF01203D220549054B98477D
S11326506368324629462046984770BD0020F3E758
S1132660E8B50000992A000038B50C46054658B173
S1132670081C18BF012031220449054B9847214604
S11326802846044B984738BD0020F4E7FCB5000009
S1132690992A0000092E0000F0B583B00D461646B5
S11326A01F46044644220849003018BF0120074B46
S11326B098479DF8203000933B46324629462046F1
S11326C0034CA04703B0F0BDFCB50000992A0000FC
S11326D0712E000038B50D4604464D2205490030E0
S11326E018BF0120044B984729462046034B9847BE
S11326F038BD00BFFCB50000992A0000852F0000FA
S113270038B50D46044656220549003018BF01204D
S1132710044B984729462046034B984738BD00BFD1
S1132720FCB50000992A0000892F000010B504466A
S113273060220549003018BF0120044B9847204609
S1132740034B984710BD00BFFCB50000992A000058
S1132750932F000010B5044669220549003018BFC4
S11327600120044B98472046034B984710BD00BFF7
S1132770FCB50000992A00009D2F000070B50D469D
S11327801646044672220649003018BF0120054B44
S11327909847324629462046034B984770BD00BFF0
S11327A0FCB50000992A0000DD2F000010B5044696
S11327B07B220549003018BF0120044B984720466E
S11327C0034B984710BD00BFFCB50000992A0000D8
S11327D03130000038B50C46054658B1081C18BF06
S11327E0012084220449054B984721462846044B7E
S11327F0984738BD0020F4E7FCB50000992A000092
S11328005D300000F0B583B00D4616461F46044601
S113281090220A49003018BF0120094B98479DF8BF
S113282024300193BDF8203000933B4632462946BC
S11328302046044CA04703B0F0BD00BFFCB5000027
S1132840992A0000C130000070B50C4616460546B2
S113285060B1081C18BF0120B5220549054B9847F3
S1132860324621462846044B984770BD0020F3E7C2
S1132870FCB50000992A00003533000070B50C4601
S11328801646054660B1081C18BF0120BE22054942
S1132890054B9847324621462846044B984770BD5D
S11328A00020F3E7FCB50000992A0000B9330000CA
S11328B010B50446C7220549003018BF0120044B57
S11328C098472046034B984710BD00BFFCB5000055
S11328D0992A00003D34000010B50446D022054971
S11328E0003018BF0120044B98472046034B9847FB
S11328F010BD00BFFCB50000992A0000653400003B
S11329002DE9F8430F469046044628B331B3101C12
S113291018BF0120F1221249124B98470834124D76
S11329202046A8470028FBD0013F0026DFF840904E
S11329300D4D17F8011F2046C8472046A847002818
S1132940FBD001364645F4D3084D2046A84700285D
S1132950FBD03046BDE8F8830020DBE70020D9E750
S113296018B60000992A00003B36000045360000E6
S11329702D3600002DE9F8430F4690460446E0B199
S1132980E9B1101C18BF01204FF486720D490E4B9B
S11329909847013F002608340C4DDFF83490204658
S11329A0A8470028FBD02046C84707F8010F013686
S11329B04645F4D33046BDE8F8830020E4E7002020
S11329C0E2E700BF18B60000992A00004F36000065
S11329D03336000038B50D46044698B1081C18BFBC
S11329E0012034220849094B9847294604F108007C
S11329F0074B9847034618B9064A6260064A2260A4
S1132A00184638BD0020ECE718B60000992A0000EB
S1132A10ED350000752900000129000010B50446B9
S1132A2053220649003018BF0120054B984704F192
S1132A300800044B9847002010BD00BF18B60000E2
S1132A40992A00001936000038B50C46054648B1ED
S1132A50081C18BF012069220349044B98472560CC
S1132A60002038BD0020F6E718B60000992A0000BF
S1132A7010B50446D7220549003018BF0120044B85
S1132A80984704F10800034B984710BD18B600009E
S1132A90992A00004F36000000B900BE70470000BC
S1132AA00346064A126822B1044A106803441360BC
S1132AB070470349014A1160F6E700BF8402002011
S1132AC0984501204FF0FF3070474FF400534B609E
S1132AD000207047012070470020704708B5084A5D
S1132AE013889BB21380074B9847074B9847074BB3
S1132AF09847074B984740F6FF70064B984708BD28
S1132B0000400041492B00005D2B00003D2B0000DC
S1132B10792B0000192B000010F0010F08D0054A92
S1132B20054B1A62194643F6FD724B681342FCD1F9
S1132B30704700BF01010100001C00400122014B4D
S1132B405A71704700080040034BDA6902F47C5262
S1132B50DA6101221A74704700140040044A054BDC
S1132B609A611A46136913F0020FFBD0704700BF35
S1132B7006260003001000407047000000B583B033
S1132B800D4B9B78DBB20193019B13F0020F06D02F
S1132B900A4B1B681BB1084A5068984709E0019B1F
S1132BA013F0010F05D0054B5B6813B1024A50685E
S1132BB0984703B05DF804FB000002415044002034
S1132BC010B5044600283ED00068003018BF01202C
S1132BD02F221E491E4B98471E4B1C60226848F248
S1132BE0030113690B42FCD1138813F0020F0FD0B9
S1132BF0138823F002031B041B0C138048F2030107
S1132C0013690B42FCD12268136913F0020FFBD144
S1132C10226813889BB243F001031380136913F0F5
S1132C20010FFBD123681A6912F0010FFBD14FF495
S1132C3001421A8048F203011A690A42FCD123684E
S1132C400020186610BD0020C2E700BF34B60000A3
S1132C50992A00008802002010B5044670B100686B
S1132C60003018BF012099220549064B9847226875
S1132C70136913F0080FFBD1906910BD0020F2E72F
S1132C8034B60000992A000010B50F4B1C68226866
S1132C90918953899BB20B4013F4807F03D113F4C1
S1132CA0804F08D110BD63682046984723684FF4CD
S1132CB080729A8110BDA3682046984723684FF418
S1132CC080429A81EEE700BF8802002010B50446D6
S1132CD034220649003018BF0120054B984794F868
S1132CE02F3043F0020384F82F3010BD4CB600009F
S1132CF0992A00002DE9F041884615461F460446EE
S1132D00061C18BF012699223C4930463C4B984783
S1132D10290201F47C5141EA080115F4807F04D0B2
S1132D2015F4006F16D041F0010115F4804F94F8AA
S1132D30043214BF43F0100303F0EF0384F80432A9
S1132D40A7608BB2E38105F4805240F27F2740F202
S1132D505D200DE015F4005F14BF41F0030141F064
S1132D600201E2E73B4216D1238E13F0010F1FD17B
S1132D70638E9BB2002AF5D00342F5D02046214B46
S1132D809847638E9BB26FEA93236FEA832363862B
S1132D900020BDE8F08120461A4B9847638E9BB211
S1132DA06FEA93236FEA832363860020BDE8F081F2
S1132DB011F0200F04D1238E9BB243F0010323862C
S1132DC015F4005F02D10120BDE8F0817F220B4998
S1132DD030460B4B9847626A4FF0FF3312F4801F62
S1132DE008D1626A013BF9D12046064B984700207E
S1132DF0BDE8F0810120BDE8F08100BF4CB60000C1
S1132E00992A0000CD2C000038B50C46054640B385
S1132E10081C18BF0120D8221349144B98472C6072
S1132E2094F82F3043F0010384F82F3094F82F30B6
S1132E3013F0010FFAD10E2384F82E300F2384F8F7
S1132E402930A38E9BB26FEA53236FEA4323A386F0
S1132E50E38E9BB26FEA93236FEA8323E386002019
S1132E6038BD0020D7E700BF4CB60000992A000007
S1132E70F8B515461C469DF818700646D8B100688A
S1132E80003018BF01204FF480723A493A4B9847FA
S1132E90336897B193F8282042F0040283F828207D
S1132EA0DA8F12F4004F0FD0012C53D0042C59D0D8
S1132EB06FF00C00F8BD0020E5E793F8282002F03D
S1132EC0FB0283F82820EBE79A8D12F0040F09D057
S1132ED05A6A12F0030FFBD19A8D22F004021204F5
S1132EE0120C9A85596CC1F307412448244A0029DD
S1132EF018BF0246998D21F020010904090C998517
S1132F00B2FBF5F2520893F8281011F0040F02D026
S1132F10002A08BF0122998DC9B241EA022189B26F
S1132F209985998D21F0C0010904090C920802F0D9
S1132F30C0020A439A859A8D92B242F001029A85A0
S1132F409A8D12F0020FFBD09A8D92B242F00402D5
S1132F509A85A9E793F8282002F0FD0283F8282037
S1132F600020F8BD93F8282042F0020283F82820BC
S1132F700020F8BD4CB60000992A0000808D5B004B
S1132F80001BB7000020704700290CBF042000205C
S1132F9070470368186CC0F34050704700B583B0A5
S1132FA040F249120B49003018BF01200A4B9847E0
S1132FB000230193019A41F287339A4206D81A46B4
S1132FC0019B01330193019B9342F9D903B05DF84E
S1132FD004FB00BF4CB60000992A000070B50D46F2
S1132FE01646044678B10068003018BF01204FF43B
S1132FF0AB720C490C4B98472068436A13F0010FDD
S113300003D0002070BD0020F1E7838923F0010381
S11330101B041B0C83810021C18033462A46034CC8
S1133020A04770BD4CB60000992A0000F52C0000A2
S113303010B5044658B10068003018BF01204FF4A1
S1133040B5720449044B98472368186910BD0020E1
S1133050F5E700BF4CB60000992A000038B50C46CD
S1133060054660B10068003018BF012040F27712B5
S11330701149124B98472D68022103230BE00020CD
S1133080F4E7100C2070100A6070A2700334013B46
S1133090DBB20139C9B21A1D55F82220032BF0D036
S11330A0100E2070100C6070100AA070E2700434CE
S11330B011F0800FEBD038BD4CB60000992A000007
S11330C02DE9F0410D4690461F46BDF818600446B0
S11330D0002832D00068003018BF012040F293125B
S11330E02049214B98472068436A13F0010F2FD1E0
S11330F0436A13F0020F2ED105F40043002B14BFD2
S11331000023102315F4803F04D115F4003F16D09A
S113311043F022039BB28381C7F309038380C680F3
S113312000220023C4E902232782668243462A46FA
S113313020210E4CA047BDE8F0810020CEE715F415
S1133140002FE7D115F4801F08D043F02203E1E7F4
S11331500020BDE8F0810020BDE8F0810020BDE83A
S1133160F08100BF4CB60000992A0000F52C000045
S11331702DE9F8430F46054600284DD0006800307D
S113318018BF01204FF4E87239493A4B98472C682C
S11331902A8AD5E90201B5F8128002FB08F84FEA41
S11331A0E879B8EB000869EB0109B9F1000F08BF31
S11331B0B8F1040F45D202F0030692B20023DFF8FF
S11331C0BC80C047134343D0042E2DD0236A721E03
S11331D0022A9CBFDBB23B60F6B20027D5E902238A
S11331E0B6185F41C5E902672A8A688AA2FB0023F0
S11331F09F4208BF964221D3638E03F07003BBB98C
S1133200238E13F0020FF7D0238E9BB243F00203F8
S113321023860120BDE8F8830020B3E72046164B3F
S113322098470020BDE8F883236A3B600426D3E76F
S11332302046114B98470020BDE8F8830120BDE8E3
S1133240F88392B200230D4EB0471343ECD1042609
S1133250638E03F07003002BE0D1238E13F0200F54
S1133260F6D0238E9BB243F020032386ACE700BF45
S11332704CB60000992A0000CD2C0000DD7A000035
S1133280F8B50E46054600283DD00068003018BF4A
S1133290012040F20F222349234B98472C682A8AA5
S11332A00023D5E90201214FB84713430CD1638EA3
S11332B003F070034BBB238E13F0100FF7D0238E53
S11332C09BB243F0100323862662D5E9022304321D
S11332D043F10003C5E90223288A6E8AA0FB060194
S11332E08B4208BF82421AD3638E03F070038BB9FA
S11332F0238E13F0020FF7D0238E9BB243F0020308
S113330023860120F8BD0020C3E72046084B9847D8
S11333100020F8BD2046064B98470020F8BD012048
S1133320F8BD00BF4CB60000992A0000DD7A000009
S1133330CD2C00002DE9F0410E469046074600B31F
S11333400068003018BF0120184D40F23E22294683
S1133350174CA04740F23F22294618F1000018BF3D
S11333600120A0474FF410722946301C18BF0120D9
S1133370A0473D8A08FB05F5A5B10424DFF8348095
S113338004E00020E0E726442D1B0BD031463846EC
S1133390C047AC42F7D93B8A93FBF4F204FB1234E6
S11333A0E4B2F0E70120BDE8F08100BF4CB60000B4
S11333B0992A0000713100002DE9F0410E46904633
S11333C0074600B30068003018BF0120184D40F2D2
S11333D05A222946174CA04740F25B22294618F18D
S11333E0000018BF0120A0474FF417722946301C73
S11333F018BF0120A0473D8A08FB05F5A5B10424A8
S1133400DFF8348004E00020E0E726442D1B0BD0D5
S113341031683846C047AC42F7D93B8A93FBF4F293
S113342004FB1234E4B2F0E70120BDE8F08100BFF0
S11334304CB60000992A00008132000008B550B152
S11334400068003018BF012040F271220349044B88
S11334509847012008BD0020F6E700BF4CB60000E5
S1133460992A000008B550B10068003018BF012047
S11334704FF41F720349044B9847012008BD0020F4
S1133480F6E700BF4CB60000992A000070B489B07A
S113349006466C460D4D0FCD0FC495E80F0084E829
S11334A00F00009BB3420DD0314601AB012053F80D
S11334B0042B8A4207D001300828F8D1002009B033
S11334C070BC70470020C0B2F9E700BF64B60000CA
S11334D010B50446414B984700285CD002285CD0C4
S11334E040F247223E4900203E4B98470021E369C1
S11334F013F0010F22D14B005A183B4B03EBC203CC
S11335005A6A02F01C02E36913F0030FFBD123682B
S113351013F0020F0BD0236823F002032360E36946
S113352013F0030FFBD1E36913F0020FFBD142F058
S113353001022260E36913F0030FFBD1E36913F086
S1133540010FFBD10A464B000B44274901EBC30191
S1133550486A2060E36913F0030FFBD15300991804
S1133560214B03EBC1039B6A6360E36913F01F0FF4
S1133570FBD1530099181C4B03EBC103DB6AA36016
S113358010F4C04F0BD153009918174B03EBC10330
S11335901B8EA38111E00021A9E70121A7E7124BAB
S11335A003EBC103188EA18960F30C01A18193F888
S11335B03210A38961F34F33A3810B4B5100881858
S11335C003EBC00090F83300A0730A4403EBC2037A
S11335D093F8343084F83030002010BD8D3400006E
S11335E0CCB60000992A000064B6000038B50C4639
S11335F00546BB220549003018BF0120044B9847FB
S11336002C602046034B984738BD00BFCCB6000061
S1133610992A0000D13400000268136843F00203C1
S11336201360D36913F0030FFBD1704703689962E9
S113363070470368986AC0B270470368187E00F048
S1133640010070470368187EC0F3400070470368A8
S1133650187EC0F3800070471EF0040F0CBFEFF318
S11336600880EFF30980714600F000B82DE9F04FAF
S113367087B00591344EB36B0093726B0192B76AB5
S11336800468D0F804B0D0F808A0D0F80C90D0F8B2
S113369010804569029583690393C06904902B489F
S11336A02B4DA8472B48A84721462B482B4CA04715
S11336B059462B48A04751462A48A04749462A481C
S11336C0A04741462948A04702992948A0470399A1
S11336D02848A04704992848A0472848A8472848CC
S11336E0A84739462748A0472748A847F9B227489A
S11336F0A0472748A847C7F307212648A0472648DC
S1133700A847C7F307412548A047C7F3C011244879
S1133710A04701992348A047C7F3C0312248A047D6
S113372000992248A0472248A847F16A2148A047A7
S1133730316B2148A047F16B2048A0472048A84797
S113374005992048A047FEE700ED00E0E8B6000038
S1133750D9830000F8B600000CB70000F182000025
S113376024B700003CB7000054B700006CB7000059
S113377084B700009CB70000B4B70000CCB70000C9
S1133780DCB7000008B8000020B8000044B800000E
S113379060B8000084B80000A0B80000C8B80000F9
S11337A0E4B8000018B9000030B9000064B90000A2
S11337B07CB90000A0B90000B8B90000D0B900007D
S11337C0E8B90000F4B900001A4A13680133136021
S11337D0194B1B681BB1184A1368013B1360174B44
S11337E01B78DBB2012B07D013B1022B13D0704727
S11337F04022134B9A6170470E4B1A68114BA3FB7E
S113380002135B094FF4FA7101FB132383B94022BD
S11338100B4BDA617047074B1A680B4BA3FB02137F
S11338205B09642101FB132313B94022044BDA61C1
S1133830704700BF6C440020704400207444002092
S113384000800041D34D62101F85EB5108B5034938
S11338500A4604310248034B984708BD84000020FF
S113386078410020715300003B4AD36943F02003A0
S1133870D3614022394BC3F8F820394B93F8C9205F
S113388002F0FE0242F0010283F8C92093F8B4204A
S113389002F00F0242F0400283F8B4204FF40071AA
S11338A0C3F8841093F8C92042F0040283F8C920B5
S11338B0C3F894102B4B1B6913F0010F1FD1294A35
S11338C0136913F0030FFBD1264B1B6813F0020F8F
S11338D00DD0244A136823F002031360136913F014
S11338E0030FFBD11F4A136913F0020FFBD101220E
S11338F01C4B1A601A46136913F0030FFBD1194AC3
S1133900136913F0010FFBD1174A164B1A601A46BC
S1133910136913F0030FFBD1124B00225A71FF22DB
S11339201A7103221A733C229A831A46136913F0FC
S1133930C00FFBD100220B4BDA831A46136913F034
S1133940C00FFBD1074A136843F0020313601369E5
S113395013F0030FFBD1704700080040001C004027
S1133960008000410014004210030012194B1B692F
S113397013F0010F17D1174A136913F0030FFBD18A
S1133980144B1B6813F0020F0DD0124A136823F076
S113399002031360136913F0030FFBD10D4A13697B
S11339A013F0020FFBD10B4A136913F0010FFBD183
S11339B02422084BDA831A46136913F0C00FFBD193
S11339C0044A136843F002031360136913F0030FEE
S11339D0FBD1704700140042194B1B6913F0010F0F
S11339E017D1174A136913F0030FFBD1144B1B684B
S11339F013F0020F0DD0124A136823F00203136070
S1133A00136913F0030FFBD10D4A136913F0020F6E
S1133A10FBD10B4A136913F0010FFBD10022084BB1
S1133A20DA831A46136913F0C00FFBD1044A1368F2
S1133A3043F002031360136913F0030FFBD17047C3
S1133A400014004210B51B4B4022C3F89C204322B3
S1133A50C3F88C20184A536943F480535361174CBC
S1133A60002217492046174B98472046164B984783
S1133A70164B93F8442002F0FE0242F0010283F850
S1133A80442093F8322002F0F00242F0030283F85B
S1133A90322093F8452002F0FE0242F0010283F83E
S1133AA0452093F8322002F00F0242F0300283F8EE
S1133AB0322010BD001C004000080040604400207B
S1133AC000300040D52900001D2A0000008000417C
S1133AD030B583B004460D4601A90548054B984707
S1133AE02A4621460198044B984703B030BD00BFD5
S1133AF060440020492A00000926000000B583B074
S1133B0069460748074B984701220DF107010098C1
S1133B10054B98479DF8070003B05DF804FB00BF10
S1133B2060440020492A000039260000044A531E3C
S1133B30FF32002103F8011F9342FBD1704700BFFD
S1133B404C3B002030B583B000220E4B1A600E4B64
S1133B5098470E4C25230093A5230D4A4FF48071FA
S1133B6020460C4DA84781B20B4B198020460B4BC5
S1133B70984764220A4B1A601A461368002BFCD13A
S1133B8003B030BD1C0300202D3B00004C3B002043
S1133B9014BA00007585000018030020D13A000013
S1133BA07044002030B583B04025104B1D700022B6
S1133BB00F4B1A600F4B98470F4C0095A5230F4AE3
S1133BC04FF4807120460E4DA84781B20D4B1980E9
S1133BD020460D4B98474FF461720C4B1A601A46FD
S1133BE01368002BFCD103B030BD00BF21030020BB
S1133BF01C0300202D3B00004C3B002014BA0000A5
S1133C007585000018030020D13A0000704400209C
S1133C1030B583B020250D4B1D7000230C4A136072
S1133C200C4A13600C4B98470C4C0095A5230C4A86
S1133C304FF4807120460B4DA84781B20A4B19807E
S1133C4020460A4B984703B030BD00BF2103002033
S1133C501C030020280300202D3B00004C3B0020C7
S1133C6014BA00007585000018030020D13A000042
S1133C7030B587B08DF80F0000238DF8173080F031
S1133C8022008DF8160082251A4A15701A4A13600C
S1133C901A4A13601A4A13601A4B98471A4C0523A0
S1133CA001930095A523194A4FF480712046184DBD
S1133CB0A84781B2174B19802046174CA047012111
S1133CC00DF10F00A04701210DF11700A0470121BC
S1133CD00DF11700A04701210DF11700A0470121A4
S1133CE00DF11700A04701210DF11600A04707B000
S1133CF030BD00BF2103002024030020280300203E
S1133D001C0300202D3B00004C3B00201CBA00008B
S1133D107585000018030020D13A000030B583B047
S1133D2021250D4B1D7000230C4A13600C4A1360AF
S1133D300C4B98470C4C0095A5230C4A4FF480710A
S1133D4020460B4DA84781B20A4B198020460A4BE6
S1133D50984703B030BD00BF210300201C0300209E
S1133D60280300202D3B00004C3B002014BA000027
S1133D707585000018030020D13A000030B583B0E7
S1133D8050250C4B1D7000220B4B1A600B4B9847AF
S1133D900B4C0095A5230B4A4FF4807120460A4D25
S1133DA0A84781B2094B19802046094B984703B0B4
S1133DB030BD00BF210300201C0300202D3B000068
S1133DC04C3B002014BA0000758500001803002045
S1133DD0D13A000030B583B052250C4B1D7000223F
S1133DE00B4B1A600B4B98470B4C0095A5230B4AC1
S1133DF04FF4807120460A4DA84781B2094B1980BF
S1133E002046094B984703B030BD00BF2103002072
S1133E101C0300202D3B00004C3B002014BA000082
S1133E207585000018030020D13A000030B583B036
S1133E3059250C4B1D7000220B4B1A600B4B9847F5
S1133E400B4C0095A5230B4A4FF4807120460A4D74
S1133E50A84781B2094B19802046094B984703B003
S1133E6030BD00BF210300201C0300202D3B0000B7
S1133E704C3B002014BA0000758500001803002094
S1133E80D13A000070B586B00023ADF81030CBB243
S1133E90354A13708DF814300A028DF815200A047F
S1133EA08DF816200A068DF8172070390F2955D879
S1133EB0DFE801F0083854543F46545454545454E1
S1133EC00854544D04249DF810209DF811104A40C4
S1133ED082F02102534063408DF80F308426234B37
S1133EE01E700022224B1A60224B9847224D0194E7
S1133EF00096A523214A4FF480712846204EB047EE
S1133F0081B2204B198028461F4DA847042105A8DB
S1133F10A847042C24D801210DF10F001A4B98470F
S1133F2006B070BD8DF81000000A8DF8110006244B
S1133F30C9E78DF81000000A8DF811000624C2E7C5
S1133F408DF81000000A8DF811000624BBE78DF8E7
S1133F501000000A8DF811000624B4E70024B2E72B
S1133F60022104A8A847D6E720030020210300204B
S1133F701C0300202D3B00004C3B00201CBA000019
S1133F807585000018030020D13A0000F0B5544BA9
S1133F905A781E7806F00F0646EA0216F6B29C78A6
S1133FA05FFA84FEDF78FFB2DD78EDB24D494E4B07
S1133FB01B790A68D21A0A609BB2022B12D9033BFE
S1133FC098B2033002230022454CE15C4A4001339D
S1133FD08342FAD1964207D0444A136801331360EE
S1133FE00020F0BD0022F5E73C0204F4FE4444EA5C
S1133FF00E04ED093C4B1B7A842B35D0852B5AD00B
S1134000822B01D00120F0BD394B03F1A00504211E
S1134010334A1C81565C481C105CC00140EA5600BF
S113402098808F1CD65DC81C105CC00140EA560005
S1134030D880505C01F1040E12F80E60000100F00B
S1134040100006F00F0630435870D05D12F80E6071
S1134050000100F0100040EA161098700A33053190
S1134060AB42D6D10120F0BD214E06F1A00306F5E6
S1134070F07604201A491D705C8011F800E0471C9A
S1134080CA5D920942EA8E02DA80CA5D871C11F881
S113409007E0120102F47C7242EA1E129A80CF5D9C
S11340A0C21C8A5C42EA07221A810A330430B342F2
S11340B0E1D10120F0BD0E4F07F5F07307F5347719
S11340C0042207481D70865C511C415C41EA0621AC
S11340D099805C8006330232BB42F3D10120F0BDEB
S11340E0900200201C030020403B002024030020F9
S11340F04C3C00202DE9F04FADF5057D274B93F89E
S113410000B05FFA8BFB93F801A05FFA8AFA93F888
S113411002905FFA89F993F803805FFA88F8002126
S1134120809181918291839100914FF4FE7201A854
S11341301B4B98470424194F1A4E1B4D3A5D84AB10
S1134140181931461438A8470134132CF6D15A46AD
S113415016496846144DA847154C69462046154B28
S1134160984753464A4614496846A8476946204634
S1134170124EB047424612496846A847694620464F
S1134180B04780AA0F496846A84769462046B04709
S113419020460DF5057DBDE8F08F00BF900200209C
S11341A08981000024BA0000DD8500002CBA0000DB
S11341B01C3F0020DD86000048BA0000AB860000EA
S11341C06CBA000088BA0000034B1A7818785B7840
S11341D000EB032080B27047900200203C490B782A
S11341E048788A78C978120442EA0022134343EAE1
S11341F00163703B0F2B69D8DFE803F0353D686835
S11342004C5B68686868686860686808314B5B681C
S113421033F0404326D02DE9F04182B02E4D0024E6
S1134220DFF8AC802D4F2B4E231D18F80330DBB282
S11342308DF80730B8479DF807301844437803F0E9
S11342400303022B9DF807300CBF203BDBB205F8BB
S1134250013F0134736823F04043A342E4D802B021
S1134260BDE8F08170471A4A1379527943EA022370
S11342701B4A1380704716490B7948798A79C979A2
S1134280120442EA0022134343EA01631B0A144A5C
S1134290136070470E490B7948798A79C9791204F9
S11342A042EA0022134343EA01631B0A0C4A1360E7
S11342B07047074B1A790A4B1A707047044A1379EE
S11342C0527943EA0223064A13807047704700BFBD
S11342D090020020403B00202F0300204981000071
S11342E03003002008B50E4B98470E4B42F6DF62B0
S11342F05A60E0210C4A82F82310002199600722B9
S11343001A600A4B19700A480A4B984740220A4B14
S11343105A6100200021094B9847094CA047FDE74A
S1134320395F000010E000E000ED00E0744400207C
S1134330A0BA0000F182000000800041715E00001C
S1134340A144000010B54E484E4B9847002800F099
S113435092804D4B1C68062C5CD8DFE804F00412F4
S1134360202A37445100494B9847494B1870A528D7
S113437001D0002010BD444A1368013313600020AB
S113438010BD424B9847424B58705A283E4A136816
S113439014BF03F1FF3301331360002010BD3B4B06
S11343A098473B4B5860384A136801331360002028
S11343B010BD364B9847364A536843EA0020506094
S11343C0314A136801331360002010BD2F4B984706
S11343D02F4A536843EA004050602B4A1368013364
S11343E01360002010BD294B9847294A536843EABB
S11343F000605060244A136801331360002010BD2C
S1134400224B9847224B18721F4A136801331360DA
S1134410002010BD073C1D4B98471E4B18551E4BE2
S11344201B78822B0DD0184B1A6801321A60184B76
S11344305B6823F0404307339A421ED016D800200D
S113444010BD34B9134B1B781B090A2BEBD0002089
S113445010BD012CE7D10F4B5B781B09052BE2D073
S1134460094A1368013B1360002010BD01200B4B67
S11344709847002010BD002010BD012010BD00BFD2
S113448060440020712A00001C030020FD3A000053
S1134490403B00209002002021030020014900003D
S11344A02DE9F04F83B000200021804B9847002075
S11344B07F4B98477F4B1870002840F08B80002278
S11344C07D497E487E4B98477E4B1870002840F00B
S11344D085807D4F7D4D7E4E01A8B8472A682B6AA2
S11344E02C695C4014405C4001A8B04714F0006F94
S11344F0F2D00122774B1A7042F21072764B1A6096
S11345001A461368002BFCD17448754B9847754BB9
S11345109847072201467448744B9847694B1870B2
S113452000285FD1724A73497348744B9847744B9F
S11345309847744B9847744B9847744CA04700288D
S1134540FCD0734B9847002850D1724B98476F4C5E
S1134550A0470028FCD0704B984702466F49664834
S1134560664B9847664B98477F2101206C4B9847D0
S1134570664CA0470028FCD06A4B98476A4A6B49AE
S11345805D485E4B98475E4B984770210120644B11
S113459098475E4CA0470028FCD0624B9847624B7A
S11345A01F88554D624C0FCC28606960AA60EB608F
S11345B020682861A288A379AA82AB751620504B83
S11345C098473E46002F30D00025DFF854814F4CE9
S11345D0544F11E00220574B984770E70320554B86
S11345E0984776E70420534B98479BE7514B9847ED
S11345F0ABE70135B54218D07F21A8B2C047A04728
S11346000028FCD0B847484A4B493B483B4B9847A5
S11346103B4B9847731EAB42EBDD484B1A88364B35
S11346201A800120364B9847E3E7454B1868324B14
S113463018600320324B984771210120384B98476A
S1134640324CA0470028FCD0364B9847364B1A68AA
S11346503C492948294B9847294B98477421012004
S11346602F4B9847294CA0470028FCD02D4B984746
S11346702D4B1A6834492048204B9847204CA047BA
S11346800020324B9847A047314B9847314B98470D
S11346904FF000084FF000092F4BC3E90089DFF801
S11346A00CB0DFF834A0194C6DE000BF715E00005F
S11346B0B1030000B841002060B900001C42002092
S11346C0111B00001842002051240000008000410A
S11346D05F2400007444002070440020B4BA000039
S11346E0D9830000454B0000944100207D1B00004D
S11346F078440020B8BA000090440020DD85000012
S1134700294F0000A53B0000D53D000045430000B3
S1134710C94100007D3D0000F5400000CCBA000016
S1134720853E0000DD41000030030020D0BA0000C7
S1134730E8BA00000149000000BB000008BB00000B
S1134740F0BC00000CBB00002CBB0000D14B0000EF
S1134750CD4F00006D39000088440020254B984758
S11347600022254B1A60254D0022254BD5E9000176
S1134770244EB04780468946C5E900890022224B71
S1134780224DA847E8B140464946D8473223CAF8E3
S11347900030DAF80030002BFBD100201C4B984786
S11347A0154D1C4E154F2B687F2BD7D8A0470028DA
S11347B0FCD0B0470028F6D0D7E90001164B984743
S11347C0F1E7164B9847164B98471648164B9847EF
S11347D0164B187010B10620154B98470022154946
S11347E01046154B98470022144B1A7003B0BDE8CD
S11347F0F08F00BF714F0000280300208844002080
S11348000000D03F8971000000806640E579000017
S1134810713C00008D3F0000894C0000D939000034
S1134820453B00009441002005210000184200206F
S11348300149000060B90000111B0000744400200D
S1134840F0B400260E4F31460024002502E0013664
S1134850802E12D0C6EBC6031B01FA18F954C2E924
S113486002450B461046C21882F8301082F85010E8
S113487011740133202BF6D1E9E7F0BC704700BF77
S1134880400300202DE9F04F83B0019092469B46EF
S1134890164BD3F80080164D0024A5F15007154E91
S11348A0DFF8589003E001347035A04518D3C4EB09
S11348B0C40107EB011152465B46D1E90201B0473E
S11348C00028F0D029460198C8470028EBD10A49AE
S11348D0C4EBC40212018B5C0133DBB28B5401E0E4
S11348E04FF0FF34204603B0BDE8F08F28030020CA
S11348F090030020BD79000040030020C986000019
S113490010B504466748684B98470222674B1A70F3
S1134910674B9847082C00F28280DFE804F0050911
S11349202C3844505C68740062485F4B98477CE0C4
S113493061485D4B9847614B5A6822F04042073208
S11349405F4B19685F48604B9847604B1B780A2B94
S11349506BD85F4B98470122544B1A705D4B1B7800
S1134960502B00F08F8072D8212B00F0888069D8FA
S1134970202B7DD010BD58484B4B9847574B187887
S1134980574B9847014657484F4B98474DE0564878
S1134990454B9847554B1878554B98470146514815
S11349A0494B984741E053483F4B98474F4B187841
S11349B04F4B984701464B48434B984735E04E4888
S11349C0394B9847494B1878494B98470146454815
S11349D03D4B984729E04948334B9847434B187857
S11349E0434B984701463F48374B98471DE044489E
S11349F02D4B98473D4B18783D4B98470146394815
S1134A00314B984711E03F48274B9847374B18786C
S1134A10374B9847014633482B4B984705E02146CE
S1134A203948294B9847012C8FD0384B9847384840
S1134A30384B98472D4B1870002237491046374B96
S1134A409847FEE7252B0DD0402B0ED010BD592BD7
S1134A501ED002D8522B18D010BD822B0BD0842B21
S1134A6019D010BD124B984710BD2D4B984710BD5F
S1134A702C4B984710BD00202B4B984710BD2B4B57
S1134A80984710BD2A4B984710BD2A4B984710BD34
S1134A90294B984710BD294B19780120284B98477A
S1134AA010BD00BF50BB0000D98300007444002037
S1134AB0453B000060BB000074BB0000403B00208D
S1134AC01C0300208CBB0000F18200001C4100206C
S1134AD04148000021030020D4BB0000B84100205D
S1134AE0C10A0000F4BB000000BC00001842002012
S1134AF0010A000018BC000030BC000048BC0000E3
S1134B0060BC000084BC0000A8BC0000D9390000CF
S1134B10784400206523000060B90000111B0000E8
S1134B20A53B0000113C0000713C00001D3D00004D
S1134B307D3D0000D53D00002D3E000020030020F7
S1134B40853E0000F0B58BB0174901A8174B984774
S1134B50174B1870D0B90025164C174F144E214628
S1134B6001A8B8473070A8B9637A9BB1637B8DF80C
S1134B702430A37B8DF82530E37B8DF8263009A8FB
S1134B800E4B98478542B8BF0546E8E707200C4B13
S1134B909847E0E70B4C6A1C0B4920460B4B98479F
S1134BA020460BB0F0BD00BF60B9000069220000D0
S1134BB018420020DC410020F5220000ED7D0000B9
S1134BC00149000078440020B8B40000DD850000ED
S1134BD0F0B40A4C0A4D04F1300726460FCE286083
S1134BE06960AA60EB6034461035BE42F5D103CC4F
S1134BF0286069603720F0BC704700BFBCBC00006F
S1134C00904400202DE9F04F85B0824690469946A5
S1134C10BDF83850134E10461946B0478346124F1C
S1134C202846B84702460B4600201049104CA047BE
S1134C30CDE902015846B84702460B46404649466C
S1134C400C4FB847DDE902230B4FB847B04700903B
S1134C502B465A4609495046094CA04705B0BDE8C1
S1134C60F08F00BF9D7A0000017400000000244012
S1134C703560000085710000ED740000F4BC000094
S1134C80DD85000000000000914B1B7A822B40F070
S1134C9019812DE9F04F8BB0CDE902018D4C2089AB
S1134CA08D4B984700228D4B8D4DA847CDE90401CB
S1134CB0A24604F1A00309938A4D8B4C8B4EDFF876
S1134CC04C9220E0C7EBC70704EB071006230093C0
S1134CD0DDE906233030B0472B6801332B6088E0D0
S1134CE0C7EBC70704EB071006230093DDE906238F
S1134CF03030B0472B6801332B600AF10A0A099B54
S1134D009A4500F0DC802B68D800C21A04EB02122A
S1134D10DDE90278C2E902781046022300933A469C
S1134D2043461030B047D3469AF8017007F00F009D
S1134D30694B984700224FF07F53DFF8A481C047A6
S1134D4084468E463B0918BF01F1004EDDE9042379
S1134D5060467146664FB847074688460022654B51
S1134D60C84738B10022634B38464146624FB847C2
S1134D70074688462868C0EBC00004EB00101923DE
S1134D8000933A4643465030B0472868C0EBC00011
S1134D9004EB0010DDE902235030584988470746E8
S1134DA0BBF80400564B9847CDE9060146A3D3E966
S1134DB00023C847E8B12B689F4283D0C7EBC707DD
S1134DC004EB07173037002138464E4B984702460C
S1134DD00B46DDE90601DFF81881C04700224A4B83
S1134DE0DFF8FC80C0470623009302460B46384692
S1134DF0B0472B68D800C21A04EB0212DDE902782E
S1134E00C2E902781046022300933A464346103022
S1134E10B0479BF80270C7F3C0002F4B98478446F5
S1134E208E463B0918BF01F1004EDDE904236046BC
S1134E3071462F4FB8472B68C3EBC30304EB03172A
S1134E401923009302460B4607F15000B047286827
S1134E50C0EBC00004EB0010DDE902235030274909
S1134E6088470746BBF80600254B9847CDE906015D
S1134E7015A3D3E90023C84700283FF43EAF2B68AD
S1134E809F423FF42DAFC7EBC70704EB071730373A
S1134E90002138461B4B984702460B46DDE90601C4
S1134EA0DFF84C80C0470022174BDFF83480C0473E
S1134EB00623009302460B463846B0471DE70BB065
S1134EC0BDE8F08F704700BFFCA9F1D24D62503F9E
S1134ED0403B00204C3C0020217400000000903F27
S1134EE0ED7400002803002040030020054C00005E
S1134EF089710000008076408571000085480000BB
S1134F0001740000519300000000E03F0D7A00009E
S1134F10044B03F58071002203F8012F8B42FBD16F
S1134F20704700BF8F44002038B50446094B024641
S1134F3009490A480A4DA8470A4B187030B9054B6D
S1134F401B689C4202D00520074B9847074B9847A3
S1134F5038BD00BFF441002090440020944100205B
S1134F60951E00001842002001490000114F000066
S1134F702DE9F04182B00E4C04F560580D4F0E4EF1
S1134F800E4DA4F12003009304F120032246394678
S1134F903046A8470A4B984770344445F1D1094B31
S1134FA098470022084B1A7002B0BDE8F08100BF98
S1134FB07003002000BD000090440020DD85000047
S1134FC0294F0000414800001C4100202DE9F04F0A
S1134FD0ADF5077D4FF40072002106A8644B984795
S1134FE0002105916348644B9847644B1870E0B9FD
S1134FF005AB4FF4007206A95E48614CA0475F4BB5
S11350001870B0B900215B485B4B98475B4B187034
S113501098B9059C002C45D00DF1170386AA1019E8
S1135020A0F201200022154610E00820554B9847B5
S1135030DEE70820534B9847E4E7524B9847E8E7EC
S1135040954238BF15460022834205D013F8011F4C
S11350500A29F5D00132F7E70295EB1C03937BD0C4
S11350600025494EDFF82881484B1F88DDF80C9055
S11350703046C047375201354D45F9D3424D284695
S1135080434B98474219434B19889B78415393707B
S1135090002C41D00DF117064FF0000BDA463A4DC3
S11350A03B4F26E0029403230393D9E7029BB3EB1F
S11350B00B080AD00024384BB3F800902846B847B0
S11350C025F8009001344445F8D12846B8474219E0
S11350D0324B19889B78415393700AF1010A0122DB
S11350E0019928462E4B98470BF1010B059B53451C
S11350F012D00136019633780D2BD7D0232BECD167
S11351002846B847214B1B882B522846B847254BC5
S113511098474FF0000BE0E7039A5AB100241A4D68
S11351201B4F1A4B1E8890462846B8472E5201340E
S11351304445F9D1144C2046154DA8470219154B86
S113514019889B78015393702046A847154B9847BC
S11351500DF5077DBDE8F08F0B4C20460C4B9847AE
S113516002190C4B19889B780153937092E700BF86
S11351708981000094410020312100001842002060
S1135180291D000001490000904400200CBD0000CE
S1135190ED8600009CB8000010BD000014BD0000A6
S11351A0FD860000294F000010B582B0074804684E
S11351B0637B226801798068A47F003418BF0124CE
S11351C00094034CA04702B010BD00BF2041002052
S11351D09926000008B10420704730B583B03A4BDB
S11351E0DB68002B41D0B3F90030B3F1FF3F3CD072
S11351F0DDB201A8354B98476B093549DB01CA1864
S1135200C958136A14695C400C405C4001A8314BD6
S1135210984705F01F03012202FA03F3234208BF53
S11352200022294BDB685B889A4204D00422264B77
S11352309A76022039E0244B9B7E042B05D0012B67
S113524008D0032B17D103202FE001221E4B9A769E
S113525002202AE01C4B02229A761F4A1A6101227C
S11352605A77002283F82E2005E0174B9B7E033BE0
S1135270DBB2012B1BD9144B1B791BB3124B188EB9
S1135280B0FA80F0400940F22C421449144B98477C
S11352900D4C0023237104F110032360114B984734
S11352A0A07E022814BF0020012003B030BD064BAD
S11352B002229A76084A1A6101225A77002283F858
S11352C02E20D8E70120DEE72041002051240000F1
S11352D0008000415F240000801A0600B4BD000075
S11352E0992A0000A95100002DE9F04106460F4615
S11352F014469846069D40F276321049281C18BF81
S113530001200F4B9847600240EAC86040EA0770EA
S113531040EAC6702A78024341F23431094B986856
S1135320094B9847044610B92046BDE8F081054B67
S11353309868064B98472870F6E700BFB4BD000094
S1135340992A0000204100207D270000AD2700009D
S113535008B5054B1B7903B108BD0021024B9868C1
S1135360024B9847F8E700BF20410020D5260000F3
S113537010B4054B04249C76FF241C719860D960FA
S11353805A6310BC704700BF204100202DE9F04350
S113539095B0AA4B98470446012805D0A84B9847D6
S11353A0204615B0BDE8F08314AF082307F8453D47
S11353B0A44E33684FF0010883F80B8000251D7359
S11353C01D81B068A04B984700972B4606222946BA
S11353D040469E4FB8472A464FF48041B0689C4BE4
S11353E0984730B9974B1B6803249C72944B984799
S11353F0D6E74FF4D57245F20851B068944B9847FC
S1135400002840F0A4804FF00008002244F2055127
S11354108C4B98688E4B9847002840F0A680894BA7
S11354201B68DB7A13F0010F40F0C980002245F2BB
S11354300311844B9868864B98470028D2D0814D3D
S11354402E68A868834B9847000C30812B68DA7A61
S113545012F0010F3ED01A89120441F60931A868EE
S11354607B4B98470028BDD029680E31A8687A4B39
S113547098472A68517C794B01F0070053F8205073
S11354804FF47A7000FB05F0C1F3C30103EB810311
S1135490DB6903FB00F31360937B9B0940F0E2801C
S11354A0917D507D137D9B0243EA800343EAA1135F
S11354B0107ED17D490041EAE011C3F30B030133AF
S11354C001F0070102318B40D17C01F00F018B40C8
S11354D09B0A53605B4B1A681289120443F207114A
S11354E098685B4B984700283FF47CAF554B1B688A
S11354F0DA7A12F0010F40F0C280524B1B68DB7A5B
S113550013F0040F00F05281092500274F4EA5F136
S1135510090303AA134400933B462A4639463846F6
S1135520B04701350D2DF2D19DF80D309DF80C904A
S113553009EB03299DF80E3009EB03499DF80F3060
S113554009EB03694E464FF00008404FEDE0B068A8
S1135550404B9847B0F1FF3F00F02782C0F30B00A7
S1135560B0F5D57F7FF43EAF4FE7364B9868394BA3
S1135570984710F0E04F3FF452AF41F28935314E75
S1135580334FDFF8D09000F4FC1244F20551B068B8
S1135590B84700283FF426AFB068C847002802DBAC
S11355A0013DF0D11EE710F0006F04D1254B1B68BC
S11355B00422DA723AE7234B1B680522DA72B8F147
S11355C0000F274B14BF98464FF4FC1840F63506DD
S11355D01C4D1F4FDFF87C90002241F23711A86860
S11355E0B84758B1424644F22951A868B84728B18F
S11355F0A868C847002806DB013EEDD1114B1B68A3
S11356000022DA72EEE610F0804F05D00D4B1A68D6
S1135610D37A43F00803D3720A4B1B68DB7A13F086
S1135620010F3FF403AF002245F60231054B9868A1
S1135630074B984700287FF4F9AED3E6D551000014
S1135640515300002041002055270000E95200007A
S11356507D270000AD270000D527000018BD0000FD
S113566000801F40D17D907D537D1B0443EA0023BD
S11356700B43C3F3150301335B0253602AE71A8912
S1135680120441F237119A4B98689A4B98470028B4
S11356903FF4A8AE01230193009308230022964906
S11356A093488068954DA84700283FF49BAE01229B
S11356B004A98F4B9868924B984700283FF492AE08
S11356C08B4B98688F4B984700283FF48BAE9DF81E
S11356D0103003F00F03012B0CD033B1022B0ED08A
S11356E0834B1B6810221A7307E7814B1B68102237
S11356F01A7302E77E4B1B681A221A73FDE69DF8A3
S11357001230DB097A4B1B6814BF302220221A7333
S1135710F3E69DF81130002B3FF464AE02331E44CF
S113572009F580739E423FF65DAE002504AB2B4421
S113573000934346AA1941464046B8470135032D14
S1135740F4D19DF81030FF2B3FF44CAE222BE0D166
S11357509DF81230002BDCD106F1060935464FF0D6
S11357600008694FAB1B04AA1344009343462A461E
S113577041464046B8470135A945F3D19DF8153057
S1135780322B28BF32235A4A1068604A03F00701BB
S113579052F821504FF47A7101FB05F1C3F3C303AE
S11357A002EB8303DB6903FB01F30360504B1979BC
S11357B09868574B9847032826D94D4B1B68DB7ACA
S11357C013F0040F4ED14A4B1B68DA7A12F0010F22
S11357D018D01A89120441F23711454B9868454B89
S11357E0984700283FF4FEAD022241F20611404BD7
S11357F09868404B984700283FF4F4AD3C4B1B6835
S113580004225A73434B9847394B9868424B984744
S113581080B1374B1B68DB7A13F0040F43D1344B50
S11358201B68DA7A12F0010F02D01B7B102B77D899
S1135830384B98472E4B1B68DB7A13F0010F0AD0C4
S11358404FF4007241F21011294B9868294B984784
S113585000283FF4C7AD264B1B6800229A722F4BD9
S113586098479DE504AB0093002308221946184687
S1135870254DA84700283FF4B5AD9DF91030002B05
S1135880A1DA14AB022203F8402D0093012307226E
S113589000211846A84700283FF4A4AD144B1B6808
S11358A004225A738FE704AB009300231322194692
S11358B01846154DA84700283FF494AD9DF81030C4
S11358C013F0010FABD014AB022203F8402D009368
S11358D00123132200211846A84700283FF482AD73
S11358E0034B1B6801229A771A6852001A6096E7E4
S11358F0204100207D270000331108000528000006
S113590049280000B1280000E952000018BD000039
S113591001270000A95100002D2700005153000069
S113592040252A46002104A8214B984701230193CE
S113593000932B461F4A204920488068204DA847E1
S113594000283FF44FAD012204A91C4B98681D4B5D
S1135950984700283FF446AD184B98681A4B98476F
S113596000283FF43FAD154B9868184B984710F04A
S1135970800F7FF437AD9DF8203003F00F030F2B19
S11359803FF456AF9DF82D309DF82C2053EA0223A6
S11359907FF428AD094DA8680D4B98472B68012268
S11359A09A771A6852001A6042E74FF000082CE513
S11359B08981000001FFFF800611080020410020BA
S11359C00528000049280000B1280000AD27000088
S11359D05527000008B5054B984708B1002008BDBD
S11359E0034B9847034B1B68D87A08BDD551000078
S11359F0515300002041002008B5054B984708B1D9
S1135A00002008BD034B9847034B1B68586808BD2A
S1135A10D55100005153000020410020194B5B6B0D
S1135A20002B2BD070B582B0850033F92030B3F150
S1135A30FF3F25D0DEB201A8134B984773091349E1
S1135A40DB01CA18C958136A14695C400C405C40F5
S1135A5001A80F4B984706F01F03012202FA03F333
S1135A60234214BF10460020064B5B6B1D446B8819
S1135A70984214BF0020012002B070BD002070477E
S1135A800020F9E72041002051240000008000415B
S1135A905F2400002DE9F04782B08A469146294BE5
S1135AA09847804618B1404602B0BDE8F087264DBD
S1135AB0264C274E274F23681A89120441F20D11F0
S1135AC0A068B04730B1A068B84710F4807F18D1FF
S1135AD0013DF0D1204B98474FF00508E3E71B4BFD
S1135AE098681C4B98471D4B03402BB9174BA3F8E0
S1135AF03090A3F83890D6E7174B98474FF0050835
S1135B00D1E7174B1749B9F1010F98BF19460F4B4D
S1135B101B68DB7A13F0080F01D14FEA4A2A0B4BBA
S1135B20986801230193CDF800904FF40073524616
S1135B300D4CA0470028D2D1074B98474FF00508D9
S1135B40B1E700BFD5510000410D03002041002002
S1135B507D270000AD27000051530000000058E4E9
S1135B6011110800121110000528000070B5064636
S1135B700C460D4D288E40F2A7520C49A04234BF6A
S1135B80002001200A4B984722463146A868094B59
S1135B90984718B900222A86052070BD024A138E40
S1135BA01C1B1486002070BD20410020B4BD0000E1
S1135BB0992A00004928000010B50446164B98683D
S1135BC0164B984708B9052010BD94B10022124B1A
S1135BD01A86114B1B8F012B11D0002243F20C119A
S1135BE00D4B98680E4B984768B10E4B98470020B0
S1135BF010BD094B1B8E002BEBD0002010BD094BB0
S1135C009847002010BD002243F20C11024B986803
S1135C10034B9847E9E700BF20410020B12800006A
S1135C207D27000051530000F0B583B007460E46AF
S1135C3015461C4B9847044610B1204603B0F0BDEE
S1135C403846194B9847D0B9184B1949012D98BFBC
S1135C501946184B1B68DB7A13F0080F08BF76024D
S1135C60144B98680123019300954FF40073324656
S1135C70114EB04738B9114B98470524DDE70F4B57
S1135C8098470724D9E70B4B98680D4B98470D4B61
S1135C9003401BB9074B1D861D87CEE7074B98476A
S1135CA00524CAE7D55100001D5A000018910800C8
S1135CB019911000204100200528000051530000D4
S1135CC0AD270000000058E470B506460C460D4DA3
S1135CD0288E40F2FA520C49A04234BF0020012021
S1135CE00A4B984722463146A868094B984718B989
