S01900006C616D732D78706C61696E65642D70726F2E737265635E
S113000040170120D5020000D1020000ED380000A5
S1130010D1020000D1020000D10200000000000063
S1130020000000000000000000000000D1020000F9
S1130030D102000000000000D1020000D102000043
S1130040D1020000D1020000D1020000D102000060
S1130050D1020000D1020000D1020000D102000050
S1130060D1020000D1020000D10200001D2F0000C7
S1130070D1020000D1020000D1020000D102000030
S1130080D1020000D1020000D1020000D102000020
S1130090D1020000D1020000D1020000D102000010
S11300A0D1020000D1020000D1020000D102000000
S11300B0D1020000D1020000D1020000D1020000F0
S11300C0D1020000D1020000D1020000D1020000E0
S11300D0D1020000D1020000D1020000D1020000D0
S11300E0D1020000D1020000000000000000000066
S11300F000000000112E0000D1020000D102000017
S1130100D1020000D1020000D1020000D10200009F
S1130110D1020000D1020000D1020000D10200008F
S1130120D1020000D1020000D1020000D10200007F
S1130130D1020000D1020000D1020000D10200006F
S1130140D1020000D1020000D1020000D10200005F
S1130150D1020000D1020000D1020000D10200004F
S1130160D1020000D1020000D1020000D10200003F
S1130170D1020000D1020000D1020000D10200002F
S1130180D1020000D1020000D1020000D10200001F
S1130190D1020000D1020000D1020000D10200000F
S11301A0D1020000D1020000D1020000D1020000FF
S11301B0D1020000D1020000D1020000D1020000EF
S11301C0D1020000D1020000D1020000D1020000DF
S11301D0D1020000D1020000D1020000D1020000CF
S11301E0D1020000D1020000D1020000D1020000BF
S11301F0D1020000D1020000D1020000D1020000AF
S1130200D1020000D1020000D1020000D10200009E
S1130210D1020000D1020000D1020000D10200008E
S1130220D1020000D1020000D1020000D10200007E
S1130230D1020000D1020000D1020000D10200006E
S1130240D1020000D1020000D1020000D10200005E
S1130250D1020000D1020000D1020000D10200004E
S1130260D102000010B5054C237833B9044B13B107
S11302700448AFF300800123237010BD80060020E2
S11302800000000050E100000C4B43B10C480D4944
S113029010B5AFF300800C48036823B910BD0A48B9
S11302A0036833B97047094B002BF7D0BDE8104001
S11302B01847064B002BF5D0184700BF000000007C
S11302C050E100008406002050E10000000000001E
S11302D0FEE7000008B5174B174A9A4210D0174B97
S11302E0144A9A420CD2013B9B1A23F003030433B1
S11302F01344114951F8040B42F8040B9A42F9D102
S11303000F4B104A9A420AD2013B9B1A23F0030373
S113031004331344002142F8041B9342FBD10A4ADC
S11303200A4B23F07F039360094B9847094B984786
S1130330FEE700BF0000002050E100007C06002022
S11303403C1700208006002000ED00E000000000C3
S1130350A58C0000294D000010B504460A4B9847AF
S113036001280FD020B102280CBF0220012010BDAB
S11303702046064B984700F00300002814BF0020D5
S1130380022010BD032010BD455C00008D620000FA
S113039038B504460D46044B9847400001382860A0
S11303A02046024B984738BDB16200005903000053
S11303B010B504460A4B9847032806D12046084B3B
S11303C09847032801D1012010BD38B92046054BB8
S11303D09847002814BF0420002010BD012010BD40
S11303E059030000D562000008B5054B984720B1B9
S11303F002280CBF0320012008BD002008BD00BF57
S1130400590300002DE9F04F83B083468846144613
S11304101D4601A9174B98472E19019B01339E4293
S113042001D9F3201FE00DB3134FDFF85090DFF82C
S113043050A00FE001214046C84798B9D04700308A
S113044018BF012000E0022090B9013408F50078BB
S1130450A64208D0012221465846B8470028E9D0D0
S11304600228F0D0FF2003B0BDE8F08F0020FAE7A7
S1130470FF20F8E7910300004D63000025640000AD
S1130480716400002DE9F04F83B08346884614461A
S11304901D4601A9174B98472E19019B01339E4213
S11304A001D9F3201FE00DB3134FDFF85090DFF8AC
S11304B050A00FE001214046C84798B9D04700300A
S11304C018BF012000E0022090B9013408F500783B
S11304D0A64208D0012221465846B8470028E9D050
S11304E00228F0D0FF2003B0BDE8F08F0020FAE727
S11304F0FF20F8E791030000E1640000816500003B
S1130500CD65000010B582B0144603291AD8DFE87F
S113051001F012070F0201231360002002B010BD86
S113052001A9094B9847019B013323600020F5E79B
S113053000201070F2E7054B984700280CBF0020FC
S1130540E320EBE7F320E9E79103000059030000FF
S1130550104B93F8D92002F0FE0242F0010283F816
S1130560D92093F8BC2002F00F0242F0300283F845
S1130570BC2093F8D82002F0FE0242F0010283F876
S1130580D82093F8BC2002F0F00242F0030283F872
S1130590BC20704700800041064B4022C3F8DC2099
S11305A04322C3F88C20044A936943F40073936193
S11305B0704700BF001C00400008004008B5054B10
S11305C09847002204490548054B9847054B98472E
S11305D008BD00BF9905000000200141D01600208D
S11305E0412C000051050000F0B4724B4FF400118F
S11305F099604FF080429A626F4D9D62596193F801
S1130600550000F0FB0083F8550093F8550000F006
S1130610FE0040F0010083F8550093F83A0000F022
S11306200F0040F0800083F83A004FF48010986087
S11306309A62624E9E62586193F8544004F0FB043F
S113064083F8544093F8544004F0FE0444F0010449
S113065083F8544093F83A4004F0F00444F008045A
S113066083F83A404FF48024C3F88840C3F8A820A4
S1130670534FC3F8A870C3F8944093F8D24004F0E1
S1130680FB0483F8D24093F8D24004F0FE0444F013
S1130690010483F8D24093F8B94004F0F00444F024
S11306A0080483F8B9404FF40024C3F88840C3F821
S11306B0A8200437C3F8A870C3F8944093F8D34033
S11306C004F0FB0483F8D34093F8D34004F0FE0411
S11306D044F0010483F8D34093F8B94004F00F04C4
S11306E044F0800483F8B940C3F88800C3F8A82014
S11306F0C3F8A860C3F8940093F8D44004F0FB0452
S113070083F8D44093F8D44004F0FE0444F0010488
S113071083F8D44093F8BA4004F0F00444F0080499
S113072083F8BA40C3F88810C3F8A820C3F8A850C7
S1130730C3F8941093F8D52002F0FB0283F8D52077
S113074093F8D52002F0FE0242F0010283F8D5208E
S113075093F8BA2002F00F0242F0800283F8BA2024
S1130760C3F884011748C3F8A801174AC3F8A8219D
S113077093F8D42102F0FB0283F8D42193F8D42116
S113078002F0FE0283F8D421C3F88411C3F8A8014F
S11307900E4AC3F8A82193F8D52102F0FB0283F88E
S11307A0D52193F8D52102F0FE0283F8D521F0BCBF
S11307B0704700BF00800041200000C0100000C04E
S11307C0040000C000000240100002C0200002C06B
S11307D0054A136943F480331361044B4022C3F880
S11307E03821C3F88C20704700080040001C0040EA
S11307F008B5054B98474FF08C410448044B984783
S1130800044B984708BD00BFD1070000E016002044
S1130810D5280000E9050000184B4FF48022C3F8E6
S11308201421C3F808214FF08042C3F82821144A48
S1130830C3F8282193F8522102F0FE0283F85221D2
S11308404FF000625A615A600E4A9A620E4A9A62E6
S113085093F85B2002F0FE0283F85B2040225A6189
S11308609A6002F180429A624FF040429A6293F891
S1130870462002F0FE0283F84620704700800041C3
S1130880040000C000000240000802C008B5084B84
S11308909847084B9847084B9847084B9847084B8C
S11308A09847084B9847084B9847084B984708BD0A
S11308B0712D000019080000F10B0000613D0000DB
S11308C0BD050000F107000035660000853B00000F
S11308D070B504460B4AD36A13F0040FFBD10A4ED9
S11308E033681A5D094D2A7021460948094B984717
S11308F032682B78B3FA83F35B0913550648074B28
S1130900984770BD0040004100000020F816002008
S113091084C500009D8E0000A8C50000858F0000DE
S113092008B50B4AD36A13F0040FFBD1084BDB6AFA
S113093013F4706F08D0074B5B681868B0F15A3035
S113094018BF4FF0FF3008BD0348044B9847FEE73B
S11309500040004100000020DCC50000858F00003D
S11309602DE9F843C9B10E46451E0024DFF8408046
S11309700C4FDFF8389003E00134A4B2A6420CD047
S113098015F8011F4046B84714F0070FF4D1002CA6
S1130990F2D04846044B9847EEE70448024B984788
S11309A0BDE8F8839D8E0000858F000078C70000A5
S11309B018C6000008B5194B9847D0B91848194B08
S11309C09847194BD96ADA6AC2F30242C1F3032188
S11309D01648174B98472020164B9847164B1B6810
S11309E093F820309BB94FF48022144BC3F81421A0
S11309F008BD13480B4B98470B4AD36A13F0040FF6
S1130A00FBD10D4B5B684FF05A321A60D9E74FF4B3
S1130A1080220A4BC3F8182108BD00BF2109000039
S1130A2020C60000858F00000040004180C6000001
S1130A309D8E0000D10800000000002000800041CD
S1130A4044C6000008B50A4B1A68013A0948431E17
S1130A50633012F8011F03F8011F8342F9D16421A6
S1130A600548064B984764210248054B984708BD42
S1130A70000000209C06002014C700009D8E00008A
S1130A806109000030B583B00023019302AC44F83F
S1130A90083D1A481A4B984721461A481A4B98475A
S1130AA0009BB3F5805F24D21848154DA84701A9CF
S1130AB01448154B9847164C22680199009BD15451
S1130AC0009A01991348A8472268013A1248431E24
S1130AD0633012F8011F03F8011F8342F9D1642126
S1130AE00E48074B984764210B480D4B984703B0B9
S1130AF030BD0C480C4B9847F9E700BF3CC70000D9
S1130B009D8E000050C70000B58F00007CC7000018
S1130B100000002090C700009C06002014C70000BD
S1130B206109000054C70000858F000070B582B0D1
S1130B30002301931B4E1C4D1C4C31462846A047F4
S1130B4001A91B481B4B984750B101991A48A0476B
S1130B50019B013B032B21D8DFE803F008151A1D84
S1130B60164B1B685868164B9847EEE7BFF34F8F38
S1130B701449CA6802F4E062134B1343CB60BFF319
S1130B804F8F00BFFDE71148114B984702B070BD6D
S1130B90104B9847D1E7104B9847CEE70F480C4BC2
S1130BA09847CAE708000020A4C700009D8E0000F3
S1130BB050C70000B58F0000A8C70000AC04002097
S1130BC0B58A000000ED00E00400FA05C4C7000087
S1130BD0858F0000450A0000850A0000E0C7000078
S1130BE0024A536943F4007353617047000800409C
S1130BF008B5034B984703490348044B984708BD7D
S1130C00E10B000000240040FC160020C127000076
S1130C1000B583B069460F480F4B98479DF805000F
S1130C209DF804301B0443EA40539DF8000003433D
S1130C309DF8020043EAC0239DF8010043EA4013F3
S1130C40BDF80600A0F2BC7043EA406003B05DF852
S1130C5004FB00BFFC1600200528000010B500208E
S1130C600A4B984701460A480A4CA04700220A4901
S1130C700A480B4B984701460A48A04700200A4BF4
S1130C80984701460948A04710BD00BFB1030000C2
S1130C90F4C700009D8E000020D50000000700204E
S1130CA0351E00000CC80000E903000020C8000045
S1130CB02DE9F04182B006468846174600201C4BB9
S1130CC0984701461B481C4DA8471C4C00221C4950
S1130CD020461C4B984701461B48A8470A22314628
S1130CE004F50D70194B984790B904F50D7401ABD8
S1130CF03A4641462046164DA8472046154B98478C
S1130D0050B9019B9F4207D11348144B984703E005
S1130D1001461348084B984712480E4B9847002247
S1130D2007491046074B984702B0BDE8F08100BF61
S1130D30B1030000F4C700009D8E000000070020EE
S1130D4020D50000351E00000CC80000A11E0000C4
S1130D50B92100002924000034C80000858F000058
S1130D6040C8000034090020013812282FD8DFE8D9
S1130D7000F0300A0C0E10121416181A1C1E202231
S1130D802426282A2C001448704714487047144815
S1130D907047144870471448704714487047144803
S1130DA070471448704714487047144870471448F3
S1130DB070471448704714487047144870471448E3
S1130DC070471448704714487047144870471448D3
S1130DD070471448704700BF9CC80000B0C80000AA
S1130DE0CCC80000E0C80000F4C8000010C900002E
S1130DF04CC9000074C900009CC90000C4C90000AB
S1130E00E8C9000004CA000024CA000054CA000053
S1130E1098CA0000D8CA000004CB000024CB00000C
S1130E2040CB000068C80000022806D0042806D081
S1130E300128044818BF002070470348704703483E
S1130E40704700BFBCCB0000D4CB0000ECCB00004B
S1130E503AB101388A1811F8013B00F8013F914278
S1130E60F9D1704722B1821800F8011B8242FBD1EC
S1130E707047CA7E8B7E43EA02230278032A01D09C
S1130E8018467047487D0A7D42EA002243EA02433D
S1130E90F6E770B401F10904036963B34569681E98
S1130EA000222E2601E00B2A0ED0013210F8013F59
S1130EB0202BF8D0052B08BFE523092A04BF267090
S1130EC0013423700134EEE7EB7A0B72EA7FAB7FD7
S1130ED01B0443EA02632A7F13436A7F43EA022323
S1130EE00B606A7E2B7E43EA02238B80EA7DAB7D16
S1130EF043EA0223CB800023237070BC704701684F
S1130F00E9B110B40C78202C11D93A2C20D00A461F
S1130F1012F8013F202B0CD93A2BF9D14B1C9A42E1
S1130F2010D1302C11D102310160002005E023469C
S1130F300A463A2B18BF0020F0D010BC70474FF07F
S1130F40FF3070474FF0FF30F7E74FF0FF30F4E722
S1130F500A46E3E72DE9F843037913B90020BDE815
S1130F60F8830446056B00F1340701232A46394609
S1130F704078134EB047D0B900232371636AEB1A4B
S1130F80E269934216D2E678012E16D94FF0010990
S1130F90DFF82C80E3691D444B462A4639466078C5
S1130FA0C047013E012EF5D10020BDE8F8830120A1
S1130FB0BDE8F8830020BDE8F8830020BDE8F8838D
S1130FC085040000F8B5036B8B4215D004460D462A
S1130FD00A4B9847064608B13046F8BD01232A4615
S1130FE004F134016078064FB84700281CBF01267D
S1130FF04FF0FF352563EFE70026EDE7550F0000BE
S11310000504000010B50446002303714FF0FF33BC
S113101003631D4B984708B1032010BD94F8332295
S113102094F8323243EA02231BB2184A934201D0A5
S1131030022010BD94F86D2094F86C301B0443EA30
S1131040026394F86A20134394F86B2043EA022362
S113105023F07F430E4A934213D094F8893094F8D6
S11310608800000440EA036094F88630184394F83A
S1131070873040EA032020F07F40801A18BF012007
S113108010BD002010BD00BFC50F000055AAFFFF12
S113109046415400B0B108B50368ABB1197809B939
S11310A0092008BDD9888288914201D0092008BD51
S11310B05878064B984700F0010000280CBF002028
S11310C0092008BD09207047092008BDE903000074
S11310D02DE9F04385B00646174600230360084611
S11310E09B4B9847051EC0F2A2819A4B53F82540AA
S11310F0002C00F0A081346023787BB16078964B9B
S1131100984710F0010F09D1002F00F0968100F0EC
S1131110040000280CBF00200A2089E1002323706A
S1131120E8B260708D4B984710F0010F01D0032096
S11311307EE127B110F0040F01D00A2078E10021EC
S11311402046874B98470346012806D00026032BE8
S113115000F07581A3B30D206AE123466D4604F1C6
S113116040006946002705E03A4641F8042B103355
S1131170834212D093F8F621002AF5D093F8FD614A
S113118093F8FC21120442EA066293F8FA613243AE
S113119093F8FB6142EA0622E7E704AF4FF0020846
S11311A0DFF8BC9106E031462046C847034638B113
S11311B0AF42CCD055F8046B002EF4D14346F7E788
S11311C094F8402094F83F3043EA02231BB2B3F56D
S11311D0007F01D00D202BE194F84B3094F84A2085
S11311E052EA03220DD194F85B3094F85A20120489
S11311F042EA036294F858301A4394F8593042EAA8
S11312000322E26194F84410E1704B1EDBB2012B1F
S113121001D90D200CE194F84170A7700FB90D208D
S113122006E17B1E3B4201D00D2001E194F84630DB
S113123094F8450040EA0320208110F00F0F40F09D
S1131240008194F8485094F8473053EA05230DD1AF
S113125094F8575094F856301B0443EA056394F805
S113126054502B4394F8555043EA052394F843E033
S113127094F8425055EA0E2500F0E58002FB01FC8B
S113128005EB101101EB0C0E7345C0F0DE80A3EBEF
S11312900E03B3FBF7F3002B00F0D98040F6F57191
S11312A08B4294BF012102214FF6F577BB4200F235
S11312B0D8800233A3612662354465620EEB0607CB
S11312C0E762032929D1002840F0C38094F8630021
S11312D094F86210090441EA006194F86000014343
S11312E094F8610041EA0021A1629B0003F2FF131C
S11312F0B2EB532FC0F0AF804FF0FF332361E360B4
S11313008023637194F8652094F8643043EA0223DF
S11313101BB2012B26D0032177E0002800F09D802A
S11313206544A56202290FBF5B0003EB430003F091
S1131330010303EB500303F2FF13B2EB532FC0F08E
S11313408E804FF0FF332361E360802363715CE0A0
S1131350FF0E000090090020E9030000B103000023
S113136005100000711C2046424B9847002856D1B6
S11313700023637194F8332294F8323243EA02234F
S11313801BB23D4A93424CD194F8372094F836303E
S11313901B0443EA026394F83420134394F8352081
S11313A043EA0223354A93423DD194F81B2294F830
S11313B01A321B0443EA026394F81822134394F884
S11313C0192243EA02232E4A93422ED194F81F2273
S11313D094F81E321B0443EA026394F81C2213435C
S11313E094F81D2243EA0223236194F8232294F8FB
S11313F022321B0443EA026394F82022134394F834
S1131400212243EA0223E360032121701D4A9388C9
S113141001339BB29380E3800020606108E00321E4
S1131420F3E70321F1E70321EFE70321EDE70B20C5
S113143005B0BDE8F0830C20FAE70020F8E70120AE
S1131440F6E70D20F4E70D20F2E70D20F0E70D207C
S1131450EEE70D20ECE70D20EAE70D20E8E70D208C
S1131460E6E70233A3612662354465620EEB0601AA
S1131470E16228E7C50F000055AAFFFF52526141FF
S1131480727241619009002038B504462D4B98478B
S1131490034650B92378032B09D000221146607803
S11314A0294B9847031C18BF0123184638BD63799C
S11314B0012BF2D104F134054FF4007200212846C7
S11314C0224B9847552384F83232AA2384F83332C6
S11314D0522384F8343084F83530612384F836306C
S11314E0412284F83720722184F8181284F81912E2
S11314F084F81A2284F81B32236984F81C32C3F35B
S1131500072284F81D221A0C84F81E221B0E84F86C
S11315101F32E36884F82032C3F3072284F82122BF
S11315201A0C84F822221B0E84F82332226A013218
S11315302263012329466078054DA847002363717F
S1131540ABE700BF550F000005050000650E000065
S11315508504000002398369023B99423DBF8378C8
S1131560C06A01FB0300002070470000012969D90B
S1131570F8B58369994267D20C4606460378022B74
S11315802ED0032B40D0012B01D00120F8BD01EB5C
S11315905105416A01EB55212C4B984710B14FF08E
S11315A0FF30F8BD6F1CC5F30805354495F8345079
S11315B0716A01EB57213046244B984710B14FF024
S11315C0FF30F8BDC7F30800304490F8340045EA12
S11315D0002014F0010F14BF0009C0F30B00F8BD84
S11315E0416A01EB1421194B984710B14FF0FF30B9
S11315F0F8BD600000F4FF70304490F8353090F886
S1131600340040EA0320F8BD416A01EBD4110F4BCA
S1131610984710B14FF0FF30F8BDA00000F4FE7001
S113162000F134023244D17893781B0443EA016315
S1131630304490F834001843537840EA032020F0F3
S11316407040F8BD012070470120F8BDC50F0000AF
S11316502DE9F0410546C1808468012C46D00E4630
S113166003689A69944202D30220BDE8F08164B908
S11316701A78032A05D01A8996420ED30220BDE8AF
S1131680F0819A6A002AF6D014469F783F01BE4240
S11316901AD3F61BDFF8708006E0986AEC60C0B9D4
S11316A00220BDE8F0811E4621462868C047044652
S11316B0B0F1FF3F1DD001281ED92B689B699842C9
S11316C01DD2F31BBE42EED2214628680D4B98472B
S11316D0E4E700EB161028612B68343306F00F069C
S11316E003EB46166E610020BDE8F0810220BDE8E0
S11316F0F0810120BDE8F0810220BDE8F0810220E4
S1131700BDE8F081551500006D1500002DE9F84382
S1131710012940F28B808369994201D3022786E034
S113172016460C4605460378022B4CD0032B5ED09C
S1131730012B01D002277AE001EB5108416A01EB49
S113174058213E4B98470746002870D108F10109FB
S1131750C8F3080814F0010F1CD0A84498F83430DA
S113176003F00F0343EA061388F8343001232B7186
S1131770696A01EB59212846304B9847002859D112
S1131780C9F30809C6F30712A94489F834200123D0
S11317902B714CE0A84488F8346001232B71696AEA
S11317A001EB59212846254B9847002844D1C9F319
S11317B0080905EB090393F8343023F00F03C6F34B
S11317C003221A43E0E7416A01EB14211B4B9847BB
S11317D0074660BB630003F4FF732B4483F8346053
S11317E0C6F3072283F8352001232B711FE0416AD9
S11317F001EBD411114B98470746C0B9A10001F47D
S1131800FE7101F134032B44DA781206294402F004
S11318107042324381F83420C2F307215970110C0D
S11318209970120EDA7001232B7100E002273846FA
S1131830BDE8F8830746FAE70746F8E7C50F000056
S11318402DE9F0410546884641B9C6689EB18369D1
S11318509E4228BF012634462A4F1AE0294B984756
S11318600346012843D9B0F1FF3F45D0AA6990420D
S113187042D34646EFE70126EDE721462846B8471E
S1131880034670B1B0F1FF3F36D0012834D0B442E2
S113189031D00134AB699C42EFD3012E29D9022403
S11318A0EBE76FF0704221462846174B98470346F2
S11318B0B8B9B8F1000F0CD1EC602B69B3F1FF3F5C
S11318C01DD0013B2B616B7943F001036B712346FF
S11318D012E02246414628460B4B9847034600280F
S11318E0EAD0012B0CBF4FF0FF33012304E00123A6
S11318F002E0002300E000231846BDE8F0812346FF
S1131900FAE700BF6D1500000D1700002DE9F04740
S1131910C4880134A3B213B90420BDE8F087036975
S113192013B90420BDE8F0870E46054614F00F07EE
S113193010D101330361C16831B903681B899C422A
S113194008D30420BDE8F08700688378013B13EADC
S1131950141808D0EC802B68343303EB47136B6105
S11319600020BDE8F087304B98478146012848D9CC
S1131970B0F1FF3F48D028688369994539D316B937
S11319800420BDE8F087E968284B9847814610B9E0
S11319900720BDE8F087012839D0B0F1FF3F39D0E6
S11319A02868234B9847002837D128684FF40072E1
S11319B0002134301F4B98472E68494630461E4B51
S11319C0984730634FF0010A194E2B689A78904576
S11319D00BD283F804A02868B04708BB2A68136BAD
S11319E00133136308F10108EFE71A6BA2EB080255
S11319F01A63C5F80C90494628680F4B984728612C
S1131A00A8E70220BDE8F0870120BDE8F0870220A6
S1131A10BDE8F0870120BDE8F0870120BDE8F0872C
S1131A200120BDE8F08700BF6D15000041180000DB
S1131A30550F0000650E0000551500002DE9F84F04
S1131A4005460C460B782F2B0AD05C2B08D0036874
S1131A505B69836023781F2B06D9DFF8388285E021
S1131A6001340023AB60F5E700212846834B9847F7
S1131A70814600236B61E0E02E233B7073782E2BAC
S1131A8013D17B70B3782E2B02D14FF00609D4E02A
S1131A9003242F2B00F0BA805C2B00F0B780202B9E
S1131AA000F2C98034442423B2E00224F1E74CF06C
S1131AB0030C803B724AD35C85E0002B40F0BB8072
S1131AC0A3F16102D2B2192A00F291804CF0010C08
S1131AD0203BDBB28BE03A78E52A04BF05223A705A
S1131AE0B9F1080F04BF4FEA8C0C5FFA8CFC0CF0C0
S1131AF00302012A08BF43F010030CF00C0CBCF1E4
S1131B00040F08BF43F00803FB7282E059462846DD
S1131B10C0478146002840F0938029692868B0476F
S1131B208146002840F08C8069690B78002B00F016
S1131B30978091F80BA01AF0080FE7D1AF6901F173
S1131B400B0C3A460B4613F801EB12F8010B8645D1
S1131B50DCD19C45F7D1FB7A13F0040F6DD11AF058
S1131B60100F50D02868474B9847A860264614F8B1
S1131B70013B2F2BFAD05C2BF8D0AF690B2220212C
S1131B803846414B984733782E2B3FF475AF06F116
S1131B90FF3E002004464FF0080984464FF00B0B2B
S1131BA04FF02A0A01341EF8013F202B3BD92F2B7A
S1131BB03CD05C2B3AD02E2B55D081453BD913F029
S1131BC0800F7FF474AF222B3FF45FAF52462F494E
S1131BD093423FF472AF11F8012F002AF8D1A3F118
S1131BE04102D2B2192A3FF66BAF4CF0020C3B54BF
S1131BF00130D7E703F00403002B14BF4FF00409AE
S1131C004FF0050919E04FF0050916E0344420238C
S1131C10FB7200212846194B9847814680B91C4E17
S1131C204FF0000B79E73444042301E034440023EB
S1131C3000287FF450AF4FF006094846BDE8F88FFE
S1131C40AB69DB7AB9F1040FF7D113F0200FD1D0CF
S1131C500022AA606A6113F0040F87D09146ECE772
S1131C60AB69DB7AF1E7B9F1080FE4D14FEA8C0CE8
S1131C705FFA8CFC4846D94694E700BF5116000031
S1131C8004CC0000730E0000650E0000B5CC00000B
S1131C90C50F00000D1900002DE9F84304468946DC
S1131CA00021124B98470346D0B90025104E4FF03F
S1131CB00108104F07E001354D4514D04146204638
S1131CC0B847034660B921692068B047034638B96C
S1131CD062691278E52AEED0002AECD00025EDE7FF
S1131CE0042B08BF07231846BDE8F88351160000EB
S1131CF0C50F00000D19000038B5054601210D4B34
S1131D009847044608B1204638BD296928680A4B1B
S1131D10984704460028F6D1202200216869074B21
S1131D2098470B22A9696869054B98472B680122DB
S1131D301A71E8E7991C0000C50F0000650E000049
S1131D40510E00002DE9F041044688464FF0040E80
S1131D50164D0027164E04E039462046B047864605
S1131D60F0B92169B1B12068A8478646C0B9636952
S1131D701A789AB1DB7A03F03F03E52AECD00F2BF3
S1131D80EAD023F02003082B14BF0023012343458A
S1131D90E2D107E0BEF1000F04D001E04FF0040EE1
S1131DA0002323617046BDE8F08100BFC50F000029
S1131DB00D190000012930D92DE9F84304460E46D7
S1131DC08369994203D302221046BDE8F883174F72
S1131DD04FF00009DFF8588003E02E46A369AB42B8
S1131DE0F2D931462046B8470546C8B1012819D072
S1131DF0B0F1FF3F18D04A4631462046C04702465C
S1131E000028E1D12369B3F1FF3FE6D00133236118
S1131E10637943F001036371DFE7022210467047E0
S1131E200022D1E70222CFE70122CDE76D150000A1
S1131E300D17000010B584B001900091144604A859
S1131E4040F8041D134B9847002818DB124B53F835
S1131E5020300BB100221A70019BABB100221A7022
S1131E60019B0D4A42F8203063B1012C01D00020BF
S1131E7006E00022694601A8084B984700E00B20C1
S1131E8004B010BD0020FBE70023034A42F82030D1
S1131E901846F5E7FF0E000090090020D11000005D
S1131EA02DE9F0478EB00191002800F0AC80044683
S1131EB015460023036002F01E0201A906A85C4B2C
S1131EC098470646002840F09F8005F01F0803ABA2
S1131ED00C93019906A8574B98470B9F034600287B
S1131EE039D1002F00F0948015F01C0F48D1FB7AF3
S1131EF013F0100F40F0998015F0020F03D013F087
S1131F00010F40F0908015F0080F01D048F0200830
S1131F10069B1B6BE361276284F806804FF0000880
S1131F2084F80780069D39462846434B984720612C
S1131F30FA7FBB7F1B0443EA02633A7F13437A7F31
S1131F4043EA0223E360C4F80880C4F818802560DB
S1131F50EB88A38058E015F01C0F04D0042806D0A9
S1131F6048F008080B9F002BD6D01E464CE006A86C
S1131F70324B984748F008080B9F40B1064643E0AF
S1131F80FB7A13F0110F4AD115F0040F49D118F060
S1131F90080FBDD02A4B9847C1B2B973C0F30722CA
S1131FA0FA73C0F307433B74000E7874B975FA757D
S1131FB03B7678760025FD723D777D77BD77FD779A
S1131FC0DDF81890394648461B4B9847BD76FD7698
S1131FD03D757D75012389F804300546002895D0A8
S1131FE0D9F830A001464846164B984708B1064632
S1131FF00AE00698013DC5605146134B98470028F6
S113200084D0064600E0092630460EB0BDE8F087CD
S113201015F01C0F01D10623A5E70623A0E7072628
S1132020F2E70826F0E70726EEE70426ECE700BF10
S1132030D11000003D1A0000730E0000F91C0000CE
S1132040110C0000B51D0000C50F00002DE9F04F74
S113205083B005468846144699460023C9F80030E3
S11320604F4B9847019048B9EB79002B40F096808C
S1132070AB7913F0010F05D107230193019803B045
S1132080BDE8F08FEE68AB68F61AA64228BF264674
S1132090002E40D1F2E76969424B98474BE0022396
S11320A0EB710193EAE70123EB710193E6E7022365
S11320B0EB710193E2E70123EB710193DEE74FF447
S11320C00072343108EB4020374B98475FE0AC6135
S11320D0AC68C4F30804C4F50074B44228BF3446A1
S11320E0A9692868314B9847002853D1A968C1F3DE
S11320F0080134312B682246194440462A4B98473C
S1132100A044AB682344AB60D9F800302344C9F839
S11321100030361BB2D0AA68C2F30803002BD7D113
S113212028688378013B03EA522313F0FF0708D1A0
S1132130002AB0D128690128B1D9B0F1FF3FB2D04B
S11321406861D5F800A069695046194B9847044660
S11321500028ACD03C445FEA562BB8D09AF8023041
S113216007EB0B029A4288BFA3EB070B5FFA8BF3D2
S1132170224641469AF801000E4FB84700289AD1EA
S113218029680B791BB1086B001B834597D84FEA6C
S11321904B24B5E70123EB7101936FE701936DE7DE
S11321A0951000006D150000510E0000C50F0000D1
S11321B055150000050400002DE9F04F83B00446D6
S11321C08946164698460023C8F80030694B98475C
S11321D0019048B9E379002B40F0C980A37913F04A
S11321E0020F05D107230193019803B0BDE8F08FD6
S11321F0A368F3420DD2002E63D10AE000215E4BA6
S11322009847034603E061695B4B98470346002BFC
S113221069D1A368E268934288BFE360A37943F07D
S11322202003A371E0E70223E3710193DCE70123B8
S1132230E3710193D8E7514B9847002861D00123FB
S1132240E3710193D0E70223E3710193CCE7012307
S1132250E3710193C8E74FF4007209EB4121343074
S1132260474B9847236800221A716EE0A268E3681E
S11322709A426DD2A561A568C5F30805C5F5007538
S1132280B54228BF3546A16920683E4B98470028CF
S113229069D1A068C0F30800343023682A4649464F
S11322A01844374B9847236801221A71A944A3683C
S11322B02B44A360D8F800302B44C8F80030761BB8
S11322C0A7D0A268C2F30803002BD4D12068837876
S11322D0013B03EA522313F0FF070DD1002A92D1E8
S11322E02369002B8AD0012B9DD0B3F1FF3F9ED0F0
S11322F06361226902B923612068026BA3699A426F
S113230099D0D4F800A0616950461F4B9847054600
S1132310002898D03D445FEA562BA7D09AF80230A3
S113232007EB0B029A4288BFA3EB070B5FFA8BF310
S11323302A4649469AF80100144FB847002886D126
S11323402068016B491B8B4585D84FEA4B25ADE7C7
S113235050460A4B984710B923681D638AE7012346
S1132360E371019340E70123E37101933CE7019397
S11323703AE700BF9510000041180000550F000017
S1132380510E0000C50F0000551500008504000023
S113239038B50446204B9847034618B9A27912F081
S11323A0200F01D1184638BDE16920681B4B9847BE
S11323B003460028F6D1256AEB7A43F02003EB723A
S11323C0E3682B77A3891B0A6B77E389AB77E37BFD
S11323D0EB772369AB76C3F30722EA761B0C2B75E4
S11323E01B0A6B750E4B9847A875C0F30723EB7552
S11323F0030C2B76000E68760023AB74EB74A37980
S113240023F02003A371236801221A712068054B6D
S113241098470346C6E700BF95100000C50F0000AB
S1132420110C00008914000010B50446074B9847AE
S1132430034608B1184610BD2046054B984703468D
S11324400028F7D100222260F4E700BF91230000A6
S1132450951000002DE9F84304460D46474B984774
S11324600746002840F08680E379002B40F0818005
S1132470E368AB4205D2A27902F00202002A08BF47
S11324801D46A3680022A260002D73D020688678C0
S113249076026BB1013B6A1EB2FBF6F2B3FBF6F1B6
S11324A08A4205D372421340A360ED1A616902E0C7
S11324B0216949B1616100294AD0B54231D9DFF8B7
S11324C0C090DFF8C48022E02D4B984701460128D4
S11324D004D0B0F1FF3F04D02061EBE70227E7719D
S11324E048E00127E77145E02068C0470146B1F1A3
S11324F0FF3F23D0012924D923689B69994220D224
S11325006161A3683344A360AD1BAE4209D2A379D1
S113251013F0020FE8D02068C84701460028E6D12E
S11325203546A3682B44A360C5F308037BB1206838
S1132530144B984740B90227E7711BE00127E77164
S113254018E00227E77115E000EB552100E00021B7
S1132550A368C3F308021AB1A269914218BFA1612A
S1132560E268934206D9E360A37943F02003A371A0
S113257000E01F463846BDE8F88300BF9510000010
S113258041180000551500006D15000010B586B007
S1132590019100282CD00446002201A905A81A4B59
S11325A09847034610B10022226022E0059B236075
S11325B002ABA36101992046144B98470346E8B93E
S11325C0616939B1CB7A13F0100F0FD00598104B15
S11325D09847A060059BDB88A380002120460D4B13
S11325E098470346042807D01BB1DCE70523DAE744
S11325F00923184606B010BD0523D4E7042814BFE8
S113260003460523CFE700BFD11000003D1A0000A8
S1132610730E00005116000070B584B004460E46D7
S1132620144B9847054650B966B101ABA36100212C
S11326302046114B984704280AD058B1054628462D
S113264004B070BD002120460C4B98470546F6E7C0
S11326500023236131462046094B98470021204638
S1132660084B9847042801D00546E8E70023236176
S1132670E5E700BF95100000451D0000511600005D
S1132680930E00000D190000EFF31083036072B67F
S1132690BFF35F8F7047BFF35F8F036883F31088C6
S11326A07047000010F0030F10D101390B291ED818
S11326B0DFE801F00608060A060A06060A060A0604
S11326C00D4870470D4870470D48704701390B2974
S11326D00FD8DFE801F00608060A060A06060A060D
S11326E00A060548704707487047054870470020A8
S11326F070470020704700BF80DE2800803B260022
S1132700008D270000EA24002DE9F8430C4690468A
S113271086692749274AB7B207F00303002B0CBF89
S11327200B4613469C4202D3E41A0136F3E7012513
S1132730DFF8889029463046C847844203D3241AD8
S11327400135EDB2F6E71C4B9C4298BF012109D933
S11327500121194BA4F5A834A4F5C0740131C9B200
S11327609C42F7D8B4F5616F38BF002207D300222A
S1132770A4F561640132D2B2B4F5616FF8D23B2C96
S113278098BF002305D900233C3C0133DBB23B2C2A
S1132790FAD8A8F8067088F8055088F8041088F864
S11327A0022088F8013088F800400020BDE8F88352
S11327B00085E2018033E1017F510100A52600007C
S11327C038B50D4604464FF4E0720B49003018BF8B
S11327D001200A4B98472368AB4208D04BB92560C7
S11327E02046074B984740F2B273A36138BD0020DE
S11327F038BD6FF0110038BD08CD0000052D000074
S1132800552E000038B50D46044640F23B220849D7
S1132810003018BF0120074B98472046064B9847C5
S11328202A4601462046054B9847002038BD00BF84
S113283008CD0000052D0000ED2E00000927000042
S113284008B5024B1860024B984708BD9809002050
S1132850652D000010B5044B1C68044B98470146D5
S11328602046034B984710BD98090020492D0000CD
S1132870692D000070B50D461646044660B1081C6B
S113288018BF012034220549054B98472368324676
S113289029462046984770BD0020F3E724CD000068
S11328A0052D000070B50D461646044660B1081C9F
S11328B018BF01203D220549054B984763683246FD
S11328C029462046984770BD0020F3E724CD000038
S11328D0052D000038B50C46054658B1081C18BF34
S11328E0012031220449054B984721462846044BD0
S11328F0984738BD0020F4E738CD0000052D0000CE
S11329009D300000F0B583B00D4616461F460446C0
S113291044220849003018BF0120074B98479DF80E
S1132920203000933B46324629462046034CA047BC
S113293003B0F0BD38CD0000052D000005310000C6
S113294038B50D4604464D220549003018BF012014
S1132950044B984729462046034B984738BD00BF8F
S113296038CD0000052D00001932000038B50D46A1
S1132970044656220549003018BF0120044B9847ED
S113298029462046034B984738BD00BF38CD000088
S1132990052D00001D32000010B5044660220549D3
S11329A0003018BF0120044B98472046034B98473A
S11329B010BD00BF38CD0000052D000027320000F7
S11329C010B5044669220549003018BF0120044BA4
S11329D098472046034B984710BD00BF38CD0000F0
S11329E0052D00003132000070B50D461646044630
S11329F072220649003018BF0120054B9847324621
S1132A0029462046034B984770BD00BF38CD0000CF
S1132A10052D00007132000010B504467B220549E3
S1132A20003018BF0120044B98472046034B9847B9
S1132A3010BD00BF38CD0000052D0000C5320000D8
S1132A4038B50C46054658B1081C18BF012084222D
S1132A500449054B984721462846044B984738BDFE
S1132A600020F4E738CD0000052D0000F13200000D
S1132A70F0B583B00D4616461F46044690220A4917
S1132A80003018BF0120094B98479DF8243001936A
S1132A90BDF8203000933B46324629462046044C7C
S1132AA0A04703B0F0BD00BF38CD0000052D0000E5
S1132AB05533000070B50C461646054660B1081C37
S1132AC018BF0120B5220549054B984732462146D7
S1132AD02846044B984770BD0020F3E738CD00002A
S1132AE0052D0000C935000070B50C461646054694
S1132AF060B1081C18BF0120BE220549054B984748
S1132B00324621462846044B984770BD0020F3E71F
S1132B1038CD0000052D00004D36000010B50446E8
S1132B20C7220549003018BF0120044B98472046AE
S1132B30034B984710BD00BF38CD0000052D0000A1
S1132B40D136000010B50446D0220549003018BF24
S1132B500120044B98472046034B984710BD00BF03
S1132B6038CD0000052D0000F93600002DE9F843AA
S1132B700F469046044628B331B3101C18BF0120F9
S1132B80F1221249124B98470834124D2046A847A7
S1132B900028FBD0013F0026DFF840900D4D17F8C8
S1132BA0011F2046C8472046A8470028FBD001360D
S1132BB04645F4D3084D2046A8470028FBD03046AC
S1132BC0BDE8F8830020DBE70020D9E754CD0000FE
S1132BD0052D0000CF380000D9380000C1380000AE
S1132BE02DE9F8430F4690460446E0B1E9B1101CC4
S1132BF018BF01204FF486720D490E4B9847013FD0
S1132C00002608340C4DDFF834902046A8470028ED
S1132C10FBD02046C84707F8010F01364645F4D3D8
S1132C203046BDE8F8830020E4E70020E2E700BF77
S1132C3054CD0000052D0000E3380000C738000023
S1132C4038B50D46044698B1081C18BF012034223B
S1132C500849094B9847294604F10800074B98474F
S1132C60034618B9064A6260064A2260184638BD0F
S1132C700020ECE754CD0000052D00008138000051
S1132C80E12B00006D2B000010B5044653220649C9
S1132C90003018BF0120054B984704F10800044B8D
S1132CA09847002010BD00BF54CD0000052D000042
S1132CB0AD38000038B50C46054648B1081C18BFAD
S1132CC0012069220349044B98472560002038BD40
S1132CD00020F6E754CD0000052D000010B5044691
S1132CE0D7220549003018BF0120044B984704F14E
S1132CF00800034B984710BD54CD0000052D00007B
S1132D00E338000000B900BE704700000346064ADD
S1132D10126822B1044A10680344136070470349DF
S1132D20014A1160F6E700BF9C090020401701200A
S1132D304FF0FF3070474FF400534B600020704752
S1132D400120704700207047C0EB0010C30002331D
S1132D500348A0FB03235B08642000FB03F07047D7
S1132D60ABAAAAAA704700000139FDD8704700BF7A
S1132D7008B5084A13889BB21380074B9847074B42
S1132D809847074B9847074B984740F6FF70064B08
S1132D90984708BD00400041DD2D0000F12D0000E2
S1132DA0D12D00000D2E0000AD2D000010F0010FFC
S1132DB008D0054A054B1A62194643F6FD724B6862
S1132DC01342FCD1704700BF01010100001C004008
S1132DD00122014B5A71704700080040034BDA6925
S1132DE002F47C52DA6101221A7470470014004024
S1132DF0044A054B9A611A46136913F0020FFBD07B
S1132E00704700BF06260003001000407047000012
S1132E1000B583B00D4B9B78DBB20193019B13F09B
S1132E20020F06D00A4B1B681BB1084A506898472A
S1132E3009E0019B13F0010F05D0054B5B6813B14A
S1132E40024A5068984703B05DF804FB0000024151
S1132E501C17002010B5044600283ED0006800303E
S1132E6018BF01202F221E491E4B98471E4B1C6081
S1132E70226848F2030113690B42FCD1138813F052
S1132E80020F0FD0138823F002031B041B0C1380C2
S1132E9048F2030113690B42FCD12268136913F051
S1132EA0020FFBD1226813889BB243F00103138005
S1132EB0136913F0010FFBD123681A6912F0010F93
S1132EC0FBD14FF401421A8048F203011A690A4205
S1132ED0FCD123680020186610BD0020C2E700BFA3
S1132EE070CD0000052D0000A009002010B5044697
S1132EF070B10068003018BF012099220549064BC3
S1132F0098472268136913F0080FFBD1906910BD2C
S1132F100020F2E770CD0000052D000010B50F4B26
S1132F201C682268918953899BB20B4013F4807FFB
S1132F3003D113F4804F08D110BD6368204698472D
S1132F4023684FF480729A8110BDA3682046984785
S1132F5023684FF480429A81EEE700BFA009002065
S1132F6010B5044634220649003018BF0120054B31
S1132F70984794F82F3043F0020384F82F3010BDA3
S1132F8088CD0000052D00002DE9F0418846154646
S1132F901F460446061C18BF012699223C493046A8
S1132FA03C4B9847290201F47C5141EA080115F48D
S1132FB0807F04D015F4006F16D041F0010115F4A0
S1132FC0804F94F8043214BF43F0100303F0EF036E
S1132FD084F80432A7608BB2E38105F4805240F296
S1132FE07F2740F25D200DE015F4005F14BF41F02F
S1132FF0030141F00201E2E73B4216D1238E13F0B4
S1133000010F1FD1638E9BB2002AF5D00342F5D085
S11330102046214B9847638E9BB26FEA93236FEA55
S1133020832363860020BDE8F08120461A4B98472D
S1133030638E9BB26FEA93236FEA83236386002037
S1133040BDE8F08111F0200F04D1238E9BB243F030
S11330500103238615F4005F02D10120BDE8F0814D
S11330607F220B4930460B4B9847626A4FF0FF337F
S113307012F4801F08D1626A013BF9D12046064B45
S113308098470020BDE8F0810120BDE8F08100BF31
S113309088CD0000052D0000612F000038B50C46D6
S11330A0054640B3081C18BF0120D8221349144B0D
S11330B098472C6094F82F3043F0010384F82F30A4
S11330C094F82F3013F0010FFAD10E2384F82E3028
S11330D00F2384F82930A38E9BB26FEA53236FEA3F
S11330E04323A386E38E9BB26FEA93236FEA832381
S11330F0E386002038BD0020D7E700BF88CD00005C
S1133100052D0000F8B515461C469DF818700646B6
S1133110D8B10068003018BF01204FF480723A49DA
S11331203A4B9847336897B193F8282042F0040249
S113313083F82820DA8F12F4004F0FD0012C53D0DB
S1133140042C59D06FF00C00F8BD0020E5E793F88B
S1133150282002F0FB0283F82820EBE79A8D12F076
S1133160040F09D05A6A12F0030FFBD19A8D22F092
S113317004021204120C9A85596CC1F307412448C5
S1133180244A002918BF0246998D21F02001090420
S1133190090C9985B2FBF5F2520893F8281011F046
S11331A0040F02D0002A08BF0122998DC9B241EA56
S11331B0022189B29985998D21F0C0010904090C75
S11331C0920802F0C0020A439A859A8D92B242F0A4
S11331D001029A859A8D12F0020FFBD09A8D92B259
S11331E042F004029A85A9E793F8282002F0FD0230
S11331F083F828200020F8BD93F8282042F002022A
S113320083F828200020F8BD88CD0000052D00009B
S1133210808D5B00001BB7000020704700290CBFA5
S11332200420002070470368186CC0F340507047B6
S113323000B583B040F249120B49003018BF012099
S11332400A4B984700230193019A41F287339A422B
S113325006D81A46019B01330193019B9342F9D985
S113326003B05DF804FB00BF88CD0000052D00000D
S113327070B50D461646044678B10068003018BF94
S113328001204FF4AB720C490C4B98472068436AF9
S113329013F0010F03D0002070BD0020F1E78389F3
S11332A023F001031B041B0C83810021C1803346DE
S11332B02A46034CA04770BD88CD0000052D0000B0
S11332C0892F000010B5044658B10068003018BFBB
S11332D001204FF4B5720449044B984723681869D8
S11332E010BD0020F5E700BF88CD0000052D0000CB
S11332F038B50C46054660B10068003018BF01209F
S113330040F277121149124B98472D68022103238A
S11333100BE00020F4E7100C2070100A6070A2701B
S11333200334013BDBB20139C9B21A1D55F822201E
S1133330032BF0D0100E2070100C6070100AA070D7
S1133340E270043411F0800FEBD038BD88CD00005A
S1133350052D00002DE9F0410D4690461F46BDF8AD
S113336018600446002832D00068003018BF0120DD
S113337040F293122049214B98472068436A13F086
S1133380010F2FD1436A13F0020F2ED105F400432D
S1133390002B14BF0023102315F4803F04D115F42F
S11333A0003F16D043F022039BB28381C7F3090385
S11333B08380C68000220023C4E902232782668218
S11333C043462A4620210E4CA047BDE8F081002048
S11333D0CEE715F4002FE7D115F4801F08D043F091
S11333E02203E1E70020BDE8F0810020BDE8F08180
S11333F00020BDE8F08100BF88CD0000052D00004D
S1133400892F00002DE9F8430F46054600284DD0CA
S11334100068003018BF01204FF4E87239493A4B74
S113342098472C682A8AD5E90201B5F8128002FB74
S113343008F84FEAE879B8EB000869EB0109B9F13B
S1133440000F08BFB8F1040F45D202F0030692B290
S11334500023DFF8BC80C047134343D0042E2DD093
S1133460236A721E022A9CBFDBB23B60F6B20027BD
S1133470D5E90223B6185F41C5E902672A8A688A3A
S1133480A2FB00239F4208BF964221D3638E03F020
S11334907003BBB9238E13F0020FF7D0238E9BB2B7
S11334A043F0020323860120BDE8F8830020B3E73C
S11334B02046164B98470020BDE8F883236A3B60FA
S11334C00426D3E72046114B98470020BDE8F88333
S11334D00120BDE8F88392B200230D4EB047134398
S11334E0ECD10426638E03F07003002BE0D1238E0D
S11334F013F0200FF6D0238E9BB243F020032386D3
S1133500ACE700BF88CD0000052D0000612F00004E
S113351039860000F8B50E46054600283DD00068FF
S1133520003018BF012040F20F222349234B984753
S11335302C682A8A0023D5E90201214FB847134396
S11335400CD1638E03F070034BBB238E13F0100F6A
S1133550F7D0238E9BB243F0100323862662D5E96D
S11335600223043243F10003C5E90223288A6E8A48
S1133570A0FB06018B4208BF82421AD3638E03F07C
S113358070038BB9238E13F0020FF7D0238E9BB2F6
S113359043F0020323860120F8BD0020C3E7204640
S11335A0084B98470020F8BD2046064B984700205A
S11335B0F8BD0120F8BD00BF88CD0000052D000036
S11335C039860000612F00002DE9F0410E46904637
S11335D0074600B30068003018BF0120184D40F2C0
S11335E03E222946174CA04740F23F22294618F1B3
S11335F0000018BF0120A0474FF410722946301C68
S113360018BF0120A0473D8A08FB05F5A5B1042495
S1133610DFF8348004E00020E0E726442D1B0BD0C3
S113362031463846C047AC42F7D93B8A93FBF4F2A3
S113363004FB1234E4B2F0E70120BDE8F08100BFDE
S113364088CD0000052D0000053400002DE9F0416F
S11336500E469046074600B30068003018BF0120AC
S1133660184D40F25A222946174CA04740F25B22DB
S1133670294618F1000018BF0120A0474FF4177223
S11336802946301C18BF0120A0473D8A08FB05F5D8
S1133690A5B10424DFF8348004E00020E0E72644E8
S11336A02D1B0BD031683846C047AC42F7D93B8A52
S11336B093FBF4F204FB1234E4B2F0E70120BDE81A
S11336C0F08100BF88CD0000052D000015350000F5
S11336D008B550B10068003018BF012040F27122D3
S11336E00349044B9847012008BD0020F6E700BFBA
S11336F088CD0000052D000008B550B100680030E9
S113370018BF01204FF41F720349044B984701204E
S113371008BD0020F6E700BF88CD0000052D00009D
S113372070B489B006466C460D4D0FCD0FC495E8B4
S11337300F0084E80F00009BB3420DD0314601AB6B
S1133740012053F8042B8A4207D001300828F8D10D
S1133750002009B070BC70470020C0B2F9E700BF78
S1133760A0CD000010B50446414B984700285CD01A
S113377002285CD040F247223E4900203E4B984745
S11337800021E36913F0010F22D14B005A183B4B7F
S113379003EBC2035A6A02F01C02E36913F0030F3D
S11337A0FBD1236813F0020F0BD0236823F002032C
S11337B02360E36913F0030FFBD1E36913F0020FF5
S11337C0FBD142F001022260E36913F0030FFBD145
S11337D0E36913F0010FFBD10A464B000B44274960
S11337E001EBC301486A2060E36913F0030FFBD1C6
S11337F053009918214B03EBC1039B6A6360E3698F
S113380013F01F0FFBD1530099181C4B03EBC1039A
S1133810DB6AA36010F4C04F0BD153009918174B07
S113382003EBC1031B8EA38111E00021A9E7012151
S1133830A7E7124B03EBC103188EA18960F30C01B7
S1133840A18193F83210A38961F34F33A3810B4B09
S11338505100881803EBC00090F83300A0730A44A9
S113386003EBC20393F8343084F83030002010BDE9
S11338702137000008CE0000052D0000A0CD000077
S113388038B50C460546BB220549003018BF012057
S1133890044B98472C602046034B984738BD00BF23
S11338A008CE0000052D000065370000026813688B
S11338B043F002031360D36913F0030FFBD1704785
S11338C00368996270470368986AC0B270470368D6
S11338D0187E00F0010070470368187EC0F34000B2
S11338E070470368187EC0F3800070471EF0040F11
S11338F00CBFEFF30880EFF30980714600F000B8C5
S11339002DE9F04F87B00591384EB36B0093726B7D
S11339100192B76A0468D0F804B0D0F808A0D0F8CF
S11339200C90D0F810804569029583690393C069AF
S113393004902F482F4DA8472F48A84721462F48C9
S11339402F4CA04759462F48A04751462E48A04720
S113395049462E48A04741462D48A04702992D4884
S1133960A04703992C48A04704992C48A0472C4809
S1133970A8472C48A84739462B48A0472B48A847B6
S1133980F9B22B48A0472B48A847C7F307212A4878
S1133990A0472A48A847C7F307412948A047C7F3C7
S11339A0C0112848A04701992748A047C7F3C03150
S11339B02648A04700992648A0472648A847F16A08
S11339C02548A047316B2548A047F16B2448A04700
S11339D02448A84705992448A047244F4026642535
S11339E0234CFE612846A047FBE700BF00ED00E042
S11339F024CE0000858F000034CE000048CE0000A5
S1133A009D8E000060CE000078CE000090CE0000B5
S1133A10A8CE0000C0CE0000D8CE0000F0CE00003A
S1133A2008CF000018CF000044CF00005CCF000096
S1133A3080CF00009CCF0000C0CF0000DCCF00008E
S1133A4004D0000020D0000054D000006CD000004E
S1133A50A0D00000B8D00000DCD00000F4D00000FA
S1133A600CD1000024D1000030D1000000800041BE
S1133A705528000008B503490A4604310248034B9F
S1133A80984708BD84000020E0160020295C00004F
S1133A902DE9F041ADF5C16D0024ADF806464FF4B3
S1133AA08062214681A8264DA8474FF40072214622
S1133AB001A8A847234E244D244C04E0244B1B6842
S1133AC05868244B984731462846A0470DF20661B2
S1133AD02148224B98470028F0D0BDF8061620480C
S1133AE0A047BDF80636022B0AD0032B22D0012BA7
S1133AF0E9D11C481C4B98470DF5C16DBDE8F08118
S1133B001A48A04781A92846DFF85080C047184FBB
S1133B1081A93846A0471748A04701A92846C047AD
S1133B2001A93846A0474FF4007201A981A8124B9D
S1133B309847C8E711480C4B9847114B9847C2E780
S1133B40358D00008C000020A4C700009D8E00006D
S1133B50AC040020B58A000050D10000B58F0000ED
S1133B60A8C70000C4C70000858F000054D100001E
S1133B7070CB00006CD10000B10C00008CD10000AF
S1133B805D0C00003B4AD36943F02003D36140221B
S1133B90394BC3F8F820394B93F8C92002F0FE02E0
S1133BA042F0010283F8C92093F8B42002F00F0216
S1133BB042F0400283F8B4204FF40071C3F884103B
S1133BC093F8C92042F0040283F8C920C3F8941082
S1133BD02B4B1B6913F0010F1FD1294A136913F0F2
S1133BE0030FFBD1264B1B6813F0020F0DD0244AA0
S1133BF0136823F002031360136913F0030FFBD15E
S1133C001F4A136913F0020FFBD101221C4B1A60E7
S1133C101A46136913F0030FFBD1194A136913F001
S1133C20010FFBD1174A164B1A601A46136913F099
S1133C30030FFBD1124B00225A71FF221A71032287
S1133C401A733C229A831A46136913F0C00FFBD1EE
S1133C5000220B4BDA831A46136913F0C00FFBD111
S1133C60074A136843F002031360136913F0030F48
S1133C70FBD1704700080040001C00400080004158
S1133C800014004210030012194B1B6913F0010FBA
S1133C9017D1174A136913F0030FFBD1144B1B6898
S1133CA013F0020F0DD0124A136823F002031360BD
S1133CB0136913F0030FFBD10D4A136913F0020FBC
S1133CC0FBD10B4A136913F0010FFBD12422084BDB
S1133CD0DA831A46136913F0C00FFBD1044A136840
S1133CE043F002031360136913F0030FFBD1704711
S1133CF000140042194B1B6913F0010F17D1174A26
S1133D00136913F0030FFBD1144B1B6813F0020F5C
S1133D100DD0124A136823F002031360136913F0E1
S1133D20030FFBD10D4A136913F0020FFBD10B4AA9
S1133D30136913F0010FFBD10022084BDA831A46F2
S1133D40136913F0C00FFBD1044A136843F0020354
S1133D501360136913F0030FFBD170470014004282
S1133D6010B51B4B4022C3F89C204322C3F88C207F
S1133D70184A536943F480535361174C002217497E
S1133D802046174B98472046164B9847164B93F8F6
S1133D90442002F0FE0242F0010283F8442093F82A
S1133DA0322002F0F00242F0030283F8322093F84A
S1133DB0452002F0FE0242F0010283F8452093F808
S1133DC0322002F00F0242F0300283F8322010BD9C
S1133DD0001C0040000800402C1700200030004068
S1133DE0412C0000892C00000080004130B583B0D4
S1133DF004460D4601A90548054B98472A46214625
S1133E000198044B984703B030BD00BF2C17002025
S1133E10B52C00007528000000B583B0694607483A
S1133E20074B984701220DF107010098054B98476D
S1133E309DF8070003B05DF804FB00BF2C170020B9
S1133E40B52C0000A528000038B55F4D5F4C28460E
S1133E50A0470028FBD05E4B1C68062C54D8DFE832
S1133E6004F004101D26323E4A005A4B98475A4B20
S1133E701870A52800D038BD554A13680133136063
S1133E8038BD544B9847544B58705A28504A1368BD
S1133E9014BF03F1FF330133136038BD4D4B984712
S1133EA04D4B58604A4A13680133136038BD494B7F
S1133EB09847494A536843EA00235360444A1368C5
S1133EC00133136038BD434B9847434A536843EA70
S1133ED0004353603E4A13680133136038BD3D4BC1
S1133EE098473D4A536843EA00635360384A13686D
S1133EF00133136038BD374B9847374B1872344A37
S1133F0013680133136038BD073C324B9847334B79
S1133F101855334B1978822914D02D4B1A68013265
S1133F201A602D4B5B6823F0404307339A42A2D1B9
S1133F30592946D031D8502937D052292CD1294B70
S1133F40984738E02CB9254B1B781B090A2B92D1D2
S1133F5001E0012C16D01E4B1A6801321A601E4B68
S1133F605B6823F0404307339A4284D11E4B984741
S1133F701E4B1B68092B7FF67EAF1D4B98471D4BCC
S1133F80984718E0154B5B781B09052BE3D0104AC2
S1133F901368013B136038BD38BD8229E6D08429FB
S1133FA002D1154B984706E038BD144B984701469B
S1133FB01348144B98470023054A1360124A1370A0
S1133FC038BD124B9847F6E72C170020DD2C000073
S1133FD0300A0020193E0000240D0020A40900200E
S1133FE0340A0020194B0000DD4800003C0A002080
S1133FF0F53C000049440000AD4B0000454A000078
S113400070CB00009D8E0000400A00207D4B000014
S113401070B582B00023ADF80630164E164D174C1D
S113402031462846A0470DF106011548154B98471F
S113403060B1BDF806101448A047BDF80630013B36
S1134040032B0DD8DFE803F01008120A0F4B1B688E
S113405058680F4B9847E3E7012008E0032006E087
S11340600C480D4B9847DBE7002000E0022002B02B
S113407070BD00BFEC000020A4C700009D8E0000AE
S113408050D10000B58F0000A8C70000AC04002088
S1134090B58A0000E0C70000858F000030B583B00A
S11340A00023ADF806303A4C3A4D01E03A4B9847BC
S11340B02378002BFAD129463848394B98470DF11B
S11340C006013848384B984778B1BDF80610374890
S11340D0334B9847BDF80630013B062B54D8DFE834
S11340E003F00A0F1925313D4700314B1B6858680E
S11340F0304B9847DCE73048304B984703B030BD2D
S11341002F482E4B9847002170202E4B98470123AF
S11341102370CDE72C48294B98472C4B98470146F0
S11341207120284B984701232370C1E72848234B6B
S11341309847264B984701467420224B9847012301
S11341402370B5E723481D4B9847204B98470146F9
S113415075201C4B984701232370A9E71E48174B71
S1134160984700217C20174B9847012323709FE731
S11341701A48124B9847154B984701467F20114B1C
S113418098470123237093E715480C4B98478FE712
S1134190400A002048010020493E0000A4C7000056
S11341A09D8E000050D10000B58F0000A8C700000C
S11341B0AC040020B58A0000A4D10000858F000063
S11341C0C0D10000C9470000F0D100001140000038
S11341D024D2000050D2000078D20000B0D20000F7
S11341E0E0C7000070B582B00023ADF80630144E6D
S11341F0144D154C31462846A0470DF106011348CD
S1134200134B984778B1BDF806101248A047BDF883
S11342100630022B0DD0032B10D0012B0CD00E48EE
S11342200E4B9847E6E70E4B1B6858680D4B9847B2
S1134230E0E7012002B070BD0020FBE70220F9E7AF
S1134240EC000020A4C700009D8E000050D10000A7
S1134250B58F0000A8C70000E0C70000858F0000EC
S1134260AC040020B58A000030B583B00023ADF85B
S113427006304C4C4C4D01E04C4B98472378002BB6
S1134280FAD129464A484B4B98470DF106014A4852
S11342904A4B984730B3BDF806104948454B9847F8
S11342A0BDF80630013B0C2B78D801A252F823F05C
S11342B0F1420000FB4200000743000013430000EA
S11342C023430000334300004343000057430000EE
S11342D067430000774300008743000097430000D2
S11342E07D420000374B1B685868374B9847C5E739
S11342F03648374B984703B030BD3648344B98475F
S1134300354B9847BAE73548314B9847344B984773
S1134310B4E734482E4B9847334B98470123237016
S1134320ACE732482A4B9847314B98470123237016
S1134330A4E73048264B98472F4B98470123237016
S11343409CE72E48224B98472D4B98472D4B984776
S11343500123237092E72C481D4B98472B4B984719
S1134360012323708AE72A48194B9847294B984719
S11343700123237082E72848154B9847274B984719
S1134380012323707AE72648114B9847254B984719
S11343900123237072E7244B98476FE723480C4BA3
S11343A098476BE7400A002018020020493E0000AD
S11343B0A4C700009D8E000050D10000B58F0000FE
S11343C0A8C70000AC040020B58A0000C4C70000E0
S11343D0858F0000D4D20000893C0000ECD200009C
S11343E0F53C000004D300004944000020D3000041
S11343F0A94400003CD30000194500005CD3000030
S1134400E54100008545000050D20000314600001F
S113441084D300009D460000A0D3000001470000A3
S1134420BCD30000654700009D400000E0C70000C9
S1134430044A531EFF32002103F8011F9342FBD1AB
S1134440704700BF300D002030B583B025250D4BDB
S11344501D7000220C4B1A600C4B98470C4C0095B5
S1134460A5230C4A4FF4807120460B4DA84781B216
S11344700A4B198020460A4B98476420094B9847F9
S113448003B030BD340A0020300A0020314400005B
S1134490300D0020DCD30000519100002C0A0020D4
S11344A0ED3D00005528000030B583B00F48104B97
S11344B0984740250F4B1D7000220F4B1A600F4B7D
S11344C098470F4C0095A5230E4A4FF4807120465F
S11344D00D4DA84781B20D4B198020460C4B9847CF
S11344E04FF4FA700B4B984703B030BD20D3000053
S11344F0858F0000340A0020300A00203144000077
S1134500300D0020DCD30000519100002C0A002063
S1134510ED3D00005528000030B583B00E480F4B28
S1134520984720250E4B1D7000230E4A13600E4A37
S113453013600E4B98470E4C0095A5230D4A4FF47B
S1134540807120460C4DA84781B20C4B198020463F
S11345500B4B984703B030BD3CD30000858F00005F
S1134560340A0020300A00203C0A002031440000B4
S1134570300D0020DCD30000519100002C0A0020F3
S1134580ED3D000030B587B08DF80F0000238DF8A5
S1134590173080F022008DF8160082251A4A157013
S11345A01A4A13601A4A13601A4A13601A4B98473E
S11345B01A4C052301930095A523194A4FF48071E1
S11345C02046184DA84781B2174B19802046174C36
S11345D0A04701210DF10F00A04701210DF11700A3
S11345E0A04701210DF11700A04701210DF117008B
S11345F0A04701210DF11700A04701210DF116007C
S1134600A04707B030BD00BF340A0020380A00209C
S11346103C0A0020300A002031440000300D002004
S1134620E4D30000519100002C0A0020ED3D00006D
S113463030B583B00E480F4B984721250E4B1D70A3
S113464000230E4A13600E4A13600E4B98470E4C1B
S11346500095A5230D4A4FF4807120460C4DA847C0
S113466081B20C4B198020460B4B984703B030BDE8
S113467050D20000858F0000340A0020300A002048
S11346803C0A002031440000300D0020DCD300003F
S1134690519100002C0A0020ED3D000030B583B09C
S11346A00D480E4B984750250D4B1D7000220D4BA5
S11346B01A600D4B98470D4C0095A5230C4A4FF4F6
S11346C0807120460B4DA84781B20B4B19802046C0
S11346D00A4B984703B030BDECD30000858F00002F
S11346E0340A0020300A002031440000300D00203C
S11346F0DCD30000519100002C0A0020ED3D0000A5
S113470030B583B00D480E4B984752250D4B1D70A4
S113471000220D4B1A600D4B98470D4C0095A523B4
S11347200C4A4FF4807120460B4DA84781B20B4BC5
S1134730198020460A4B984703B030BD08D40000C6
S1134740858F0000340A0020300A00203144000024
S1134750300D0020DCD30000519100002C0A002011
S1134760ED3D000030B583B00D480E4B98475925F8
S11347700D4B1D7000220D4B1A600D4B98470D4CCC
S11347800095A5230C4A4FF4807120460B4DA84791
S113479081B20B4B198020460A4B984703B030BDB9
S11347A024D40000858F0000340A0020300A002041
S11347B031440000300D0020DCD300005191000092
S11347C02C0A0020ED3D000070B586B005460C466D
S11347D03848394B98470023ADF81030E3B28DF8D0
S11347E0143022028DF8152022048DF8162022069A
S11347F08DF81720703C0F2C55D8DFE804F00838EA
S113480054543F465454545454540854544D04245A
S11348109DF810209DF811104A4082F02102534067
S113482063408DF80F308426244B1E700022244BE5
S11348301A60244B9847244D01940096A523234ADB
S11348404FF480712846224EB04781B2214B198023
S11348502846214DA847042105A8A847042C24D89C
S113486001210DF10F001C4B984706B070BD8DF867
S113487010502D0A8DF811500624C9E78DF81050F8
S11348802D0A8DF811500624C2E78DF810502D0A18
S11348908DF811500624BBE78DF810502D0A8DF8C1
S11348A011500624B4E70024B2E7022104A8A84763
S11348B0D6E700BF44D40000858F0000340A0020EE
S11348C0300A002031440000300D0020E4D3000001
S11348D0519100002C0A0020ED3D0000F0B5544B2E
S11348E05A781E7806F00F0646EA0216F6B29C784D
S11348F05FFA84FEDF78FFB2DD78EDB24D494E4BAE
S11349001B790A68D21A0A609BB2022B12D9033BA4
S113491098B2033002230022454CE15C4A40013343
S11349208342FAD1964207D0444A13680133136094
S11349300020F0BD0022F5E73C0204F4FE4444EA02
S11349400E04ED093C4B1B7A842B35D0852B5AD0B1
S1134950822B01D00120F0BD394B03F1A0050421C5
S1134960334A1C81565C481C105CC00140EA560066
S113497098808F1CD65DC81C105CC00140EA5600AC
S1134980D880505C01F1040E12F80E60000100F0B2
S1134990100006F00F0630435870D05D12F80E6018
S11349A0000100F0100040EA161098700A33053137
S11349B0AB42D6D10120F0BD214E06F1A00306F58D
S11349C0F07604201A491D705C8011F800E0471C41
S11349D0CA5D920942EA8E02DA80CA5D871C11F828
S11349E007E0120102F47C7242EA1E129A80CF5D43
S11349F0C21C8A5C42EA07221A810A330430B34299
S1134A00E1D10120F0BD0E4F07F5F07307F53477BF
S1134A10042207481D70865C511C415C41EA062152
S1134A2099805C8006330232BB42F3D10120F0BD91
S1134A30A4090020300A0020240D0020380A002098
S1134A40300E00202DE9F04FADF5057D274B93F88E
S1134A5000B05FFA8BFB93F801A05FFA8AFA93F82F
S1134A6002905FFA89F993F803805FFA88F80021CD
S1134A70809181918291839100914FF4FE7201A8FB
S1134A801B4B98470424194F1A4E1B4D3A5D84ABB7
S1134A90181931461438A8470134132CF6D15A4654
S1134AA016496846144DA847154C69462046154BCF
S1134AB0984753464A4614496846A84769462046DB
S1134AC0124EB047424612496846A84769462046F6
S1134AD0B04780AA0F496846A84769462046B047B0
S1134AE020460DF5057DBDE8F08F00BFA409002028
S1134AF0358D00006CD40000B991000074D400001E
S1134B0000110020B992000090D4000087920000A8
S1134B10B4D40000D0D4000010B5104B1B78DBB225
S1134B20012B12D09BB10E4A0E49022B18BF11461D
S1134B300A4B1C785B7804EB0324A4B24CB12246E4
S1134B4009480A4B9847204610BD0949F0E709492E
S1134B50EEE70948054B9847F5E700BFA409002094
S1134B6000D50000F8D4000024D500009D8E00007C
S1134B70F0D40000E8D4000008D5000038B5074C94
S1134B802378617803EB01210548064DA847A378F3
S1134B90E17803EB01210448A84738BDA4090020AB
S1134BA050D500009D8E000074D500002DE9F04121
S1134BB082B04D490B7848788A78C978120442EA61
S1134BC00022134343EA0163703B0F2B3ED8DFE816
S1134BD003F033403D3D52643D3D3D3D3D3D7F3D11
S1134BE03D08424B5B6833F0404320D0404D0024E5
S1134BF0DFF8F4803F4F3D4E231D18F80330DBB23D
S1134C008DF80730B8479DF807301844437803F00F
S1134C100303022B9DF807300CBF203BDBB205F8E1
S1134C20013F0134736823F04043A342E4D832497E
S1134C303248334B984709E02B4B19795B7941EAA9
S1134C4003212D4B19802F482D4B984702B0BDE806
S1134C50F081254A117950799379D2791B0443EA7A
S1134C600023194341EA0261090A234B19602648CB
S1134C70234B9847EAE71C4A117950799379D27902
S1134C801B0443EA0023194341EA0261090A1A4B4F
S1134C9019601E481A4B9847D8E7134B1979C9B2C3
S1134CA0154B197082290BD083290DD0812903D08B
S1134CB01748134B9847C9E71648174B9847C5E759
S1134CC01648154B9847C1E71548134B9847BDE75D
S1134CD0054B19795B7941EA0321074B1980114887
S1134CE0074B9847B2E700BFA4090020240D002019
S1134CF0430A0020F58C0000440A002060D700001D
S1134D009D8E000098D50000B8D50000ECD50000B9
S1134D10ECD600002CD60000858F000074D600006D
S1134D20ACD6000034D7000080B582B0274B98473A
S1134D300020274B98474022264B9A610020264B9F
S1134D4098472648264B9847264F274E274D04E080
S1134D50274B1B685868274B984702AC002344F83C
S1134D60043D39463046A84721462348234B9847FB
S1134D700028EDD001992248A847019B013B052B4F
S1134D8020D8DFE803F003101316191CBFF34F8F6C
S1134D901C49CA6802F4E0621B4B1343CB60BFF3A7
S1134DA04F8F00BFFDE7194B9847D6E7184B98473C
S1134DB0D3E7184B9847D0E7174B9847CDE7174BE5
S1134DC09847CAE71648064B9847C6E7B9680000F3
S1134DD041280000008000412967000084D70000BA
S1134DE0858F0000E0030020A4C700009D8E000012
S1134DF0AC040020B58A000050C70000B58F000045
S1134E00A8C7000000ED00E00400FA052D0B000027
S1134E10FD67000069420000913A000069530000F8
S1134E20C0D7000080B504463F48404B9847404BEC
S1134E309847082C73D8DFE804F005101E2A364280
S1134E404E5A66003B48394B98473B4F40266425F1
S1134E503A4CFE612846A047FBE73948334B984754
S1134E60384B5A6822F040420732374B19683748AA
S1134E70374B9847E9E737482C4B9847364B187817
S1134E80364B984701463648314B9847DDE735485D
S1134E90264B9847304B5878334B98470146304857
S1134EA02B4B9847D1E73148204B98472A4B5878E9
S1134EB02D4B984701462A48254B9847C5E72C486F
S1134EC01A4B9847244B5878274B98470146244857
S1134ED01F4B9847B9E72748144B98471E4B5878FF
S1134EE0214B984701461E48194B9847ADE7224885
S1134EF00E4B9847184B58781B4B98470146184857
S1134F00134B9847A1E71D48084B9847124B587814
S1134F10154B9847014612480D4B984795E7214693
S1134F2017480B4B984790E7D4D70000858F0000B3
S1134F30F53C0000E4D70000008000415528000043
S1134F40F8D70000240D0020300A002010D80000FB
S1134F509D8E000058D8000000130020290E000088
S1134F6078D8000084D80000690D00009CD80000A7
S1134F70B4D80000CCD80000E4D8000008D9000060
S1134F802CD9000070B505460D4C231D024604F1D2
S1134F90080104F584700B4EB047607010B9636863
S1134FA09D4209D1064AD31D02F20712002103F8DB
S1134FB0011F9342FBD170BD0520034B984700BFEE
S1134FC000130020B9210000254E00002DE9F04F08
S1134FD0ADF5077D4FF40072002106A8784B984781
S1134FE000210591774C04F58470774B98476070E5
S1134FF018BB744C05AB4FF4007206A904F5847019
S1135000724DA8476070D8B906A97148714B98478A
S11350106C4C002104F584706B4B9847607090B918
S1135020059C002C00F0AF800DF1170386AA10191F
S1135030A0F20120002202920FE00820664B98475C
S11350400820654B9847644B98470299914238BFB2
S1135050114602910022834205D013F8011F0A2948
S1135060F3D00132F7E721465C485A4CA047029D31
S113507029465B48A0475B485B4B9847AB1C0393AE
S113508000F08F800024594D594F5A4B1E882846F2
S1135090B8472E520134039B9C42F8D3534C20460C
S11350A0534B98472218544B19889B78215293707C
S11350B0059B002B43D00DF117064FF0000BDA4689
S11350C04A4DDFF82C8123E0029BA3EB0B07013F41
S11350D00AD00024494BB3F800902846C04725F86D
S11350E000900134BC42F8D12846C0472A18444BEA
S11350F019889B78295293700AF1010A01220199B7
S11351002846404B98470BF1010B059B534516D09D
S11351100136019633780D2BD6D0232BECD12846BB
S1135120C047344B1B882B5229463748294B984794
S11351302846C047354B98474FF0000BDCE7039BEC
S11351405BB10024294D2A4F2A4B1E882846B847B4
S11351502E520134039B9C42F8D1244C2046244D0A
S1135160A8472218244B19889B7821529370214612
S11351702548184B98472046A847244B98470DF5D7
S1135180077DBDE8F08F00211448124DA847002187
S11351901348A8471348144B9847029402230393D7
S11351A070E7124C2046124B98472218124B19886C
S11351B09B7821529370059B002B7FF47CAFCCE746
S11351C0358D000000130020552400004D20000000
S11351D040D900009D8E0000254E000060D90000DB
S11351E074D900008CD90000858F000008130020BA
S11351F0C9920000A4D90000D8CF0000BCDB000095
S1135200A8D90000D9920000A4C70000854F00006F
S113521010B54D484D4B9847002800F090804C4BFA
S11352201C68062C5CD8DFE804F00412202A3744FA
S11352305100484B9847484B1870A52801D00020CE
S113524010BD434A136801331360002010BD414B65
S11352509847414B58705A283D4A136814BF03F1CC
S1135260FF3301331360002010BD3A4B98473A4B8B
S11352705860374A136801331360002010BD354B62
S11352809847354A536843EA00205060304A13680F
S113529001331360002010BD2E4B98472E4A5368EB
S11352A043EA004050602A4A136801331360002027
S11352B010BD284B9847284A536843EA0060506061
S11352C0234A136801331360002010BD214B984713
S11352D0214B18721E4A136801331360002010BD5D
S11352E0073C1C4B98471D4B18551D4B1B78822BB4
S11352F00DD0174B1A6801321A60174B5B6823F004
S1135300404307339A421CD016D8002010BD34B94C
S1135310124B1B781B090A2BEBD0002010BD012C6B
S1135320E7D10E4B5B781B09052BE2D0084A1368C2
S1135330013B1360002010BD01200A4B9847002058
S113534010BD012010BD00BF2C170020DD2C000073
S1135350300A0020193E0000240D0020A40900207A
S1135360340A0020254E00002DE9F04F93B040226E
S11353708F4BDA6100208F4B98478F4B187078BBA6
S11353808D4C00228D4904F596708D4B98476070C2
S113539048BB8A490AA88B4B9847874B587028BB4F
S11353A00025854C04F55877874E39460AA8B0473E
S11353B06070F0B994F86933DBB194F86D338DF80B
S11353C0243094F86E338DF8253094F86F338DF8CB
S11353D0263009A87D4B98478542B8BF0546E4E7C7
S11353E002207B4B98470320794B98470720784B42
S11353F09847714C04F55E766A1C76493046764BC4
S1135400984731467548764B98470722314604F54C
S11354108470744B98476070002860D17248734B55
S11354209847734B98474FF4FA70724B9847402251
S11354305F4BDA61704B9847704CA0470028FCD052
S11354406F4B9847044600284CD16E4B98476B4DE0
S1135450A8470028FCD06C4B98470546604B9847FA
S11354602A466A496A485C4B98476A4B98477F21A9
S11354700120694B9847614DA8470028FCD0674B31
S11354809847674A67496248534B9847614B984726
S113549070210120604B9847584DA8470028FCD044
S11354A05E4B98475E4BB3F80080594D5E4E0FCE6D
S11354B00FC596E8030045F8040B25F8021B090CF8
S11354C029701620534B98474746B8F1000F27D050
S11354D00026DFF84491494DDFF8348107E00420C9
S11354E03B4B98473A4B98470136B74218D07F2137
S11354F0B0B2C847A8470028FCD0484B9847484A50
S11355004A494046344B9847424B98477B1EB34226
S1135510EADD2C23A8F8003001203E4B9847E3E74E
S1135520434A254B9A6003203A4B98477121012046
S1135530394B9847314DA8470028FCD0374B984742
S1135540374B1A683B493248234B9847314B9847AD
S113555074210120304B9847284DA8470028FCD0DF
S11355602E4B9847144F07F108052D4B1A68324902
S11355702846194B9847DFF89C80C0472F4E0FCE22
S11355800FC50FCE0FC50FCE0FC596E8030085E8F3
S113559003003720C0472A4B98474022044BDA6166
S11355A0284B98470023A7F88433204674E100BFB2
S11355B000800041B10300000013002020D500004A
S11355C0351E00008D2500001926000049890000C1
S11355D0254E0000ACD90000B9910000BCD90000F0
S11355E09D8E0000A11E0000D0D90000858F000010
S11355F0A944000055280000014700001152000092
S1135600194B00009D460000454A0000A4C7000055
S113561008130020854F0000C9470000AD4B00006F
S1135620440A0020E4D90000FCD9000014DA000088
S11356305D0D0A001CDA00003CDA000060DA0000AC
S1135640CD4F0000893C00005F4A06EBC60112F80A
S11356503130013302F8313007965C4C04F1A00775
S113566000220023CDE90223594DDFF89891DFF899
S11356708C8102E00A34BC4239D0A2466078B4F886
S113568004B0BBF1000F17D000F00F00A8470022B0
S11356904FF07F534F4EB0474F4B9847CDE904012D
S11356A05846A847DDE90423C84702460B46DDE90E
S11356B00201C047CDE902019AF80200BAF806A037
S11356C0BAF1000FD6D0C0F3C000A847424B9847A8
S11356D0CDE904015046A847DDE90423C847024642
S11356E00B46DDE90201C047CDE90201C2E7002211
S11356F03A4BDDE90201374CA04704460D46079BAF
S113570003EBC303304A12F833300BBB344FB847B2
S113571086B230462E4B984702460B462046294611
S1135720304CA04726A3D3E900232A4CA047B8470E
S11357302D4D2C6804EBC40483B232462B492C480B
S113574000EBC4002B4CA0472B6801332B60B1E065
S1135750254B1B6803EBC303D80007301646002112
S11357601044254B984702460B4620462946234CB5
S1135770A047184F0022224BB84780468946184D4F
S1135780A84784B22046124B984702460B4640462F
S11357904946DFF85080C04709A3D3E90023B8473E
S11357A0A847079B03EBC30306EBC30683B2224659
S11357B00E49F01D0F4CA0477CE000BFAFF3008002
S11357C000000000D0126341540A0020300E002073
S11357D0A97F000075800000B56900000000A03FAB
S11357E0F98500000D7D00003C0A0020ACDA0000C1
S11357F05B0A0020B9910000319F0000117D000078
S11358000000E03FC98200007148724B9847724C17
S113581004F53479DFF83482704F714E04F12005B9
S113582014F8011C14F8073C00932B46224640460A
S1135830B84714F8012C009523466A4930466A4D4E
S1135840A8476A4B984748344C45E7D1684800F567
S11358503474002200F8262C20F8242C20F8222C62
S1135860034603F8202D014603F8012F01F8012F08
S11358708342F9D14830A042ECD100225D4B1A603A
S113588040225D4BDA615D4BB3F88403023080B291
S1135890A3F88403B4287AD8594B98476420594B09
S11358A09847564BB3F8841357484C4B98470020FD
S11358B0564B98474F4D564C564E2B68092BA3D840
S11358C0A0470028FCD0B0470028F6D0494B1E68FA
S11358D00796514B1B7A822BECD1504CF500AB1937
S11358E004EBC303454AB2F884239A71DFF860A13C
S11358F04B4B1889D047DFF85C910022494BC847CD
S1135900CDE90201DFF85081C04787B23846D0475D
S113591002460B46DDE90201DFF840A1D0472AA385
S1135920D3E90023C847C0471FFA80F8A81904EB3D
S1135930C00043463A463C4927302B4DA8472D4BDF
S11359401B6803EBC30204EBC2046780A4F8048061
S1135950002B3FF482AE314C0026DFF8CC90A846F1
S1135960244FA388628849460AA8C0473D6805EBCE
S1135970C5012E4B03EBC1010AA82D4B9847002803
S11359803FF462AE01364834B542EAD865E6294BA5
S11359909847294B984732201A4B9847174C04F5DF
S11359A08470264B9847607050B9002224491046F1
S11359B0244B98474022104B9A6113B0BDE8F08FF6
S11359C00620214B984700BF00000000D01263411D
S11359D0B4DA0000858F00005B0A00209D8E000071
S11359E008130020F0DA0000B9910000854F000090
S11359F07A0A00203C0A00200080004100130020A5
S1135A00296700005528000098DA00008545000049
S1135A1011520000DD480000240D0020540A00202B
S1135A20300E00200000903FACDA00007B0A00201A
S1135A30A5920000F53C0000494400002924000020
S1135A4020D50000351E0000254E0000CCDA0000F1
S1135A50A97F000075800000F98500000D7D00001D
S1135A6010B582B007480468637B226801798068B6
S1135A70A47F003418BF01240094034CA04702B053
S1135A8010BD00BF881600200529000008B10420BD
S1135A90704730B583B03A4BDB68002B41D0B3F983
S1135AA00030B3F1FF3F3CD0DDB201A8354B98473D
S1135AB06B093549DB01CA18C958136A14695C407B
S1135AC00C405C4001A8314B984705F01F030122AC
S1135AD002FA03F3234208BF0022294BDB685B88E8
S1135AE09A4204D00422264B9A76022039E0244BB1
S1135AF09B7E042B05D0012B08D0032B17D1032048
S1135B002FE001221E4B9A7602202AE01C4B02222F
S1135B109A761F4A1A6101225A77002283F82E20AE
S1135B2005E0174B9B7E033BDBB2012B1BD9144BC7
S1135B301B791BB3124B188EB0FA80F0400940F267
S1135B402C421449144B98470D4C0023237104F143
S1135B5010032360114B9847A07E022814BF002035
S1135B60012003B030BD064B02229A76084A1A611E
S1135B7001225A77002283F82E20D8E70120DEE79D
S1135B808816002089260000008000419726000026
S1135B90801A060098DB0000052D0000615A000001
S1135BA02DE9F04106460F4614469846069D40F2FC
S1135BB076321049281C18BF01200F4B9847600209
S1135BC040EAC86040EA077040EAC6702A78024397
S1135BD041F23431094B9868094B9847044610B98F
S1135BE02046BDE8F081054B9868064B984728701D
S1135BF0F6E700BF98DB0000052D000088160020A2
S1135C00E9290000192A000008B5054B1B7903B1E6
S1135C1008BD0021024B9868024B9847F8E700BF83
S1135C20881600204129000010B4054B04249C76FA
S1135C30FF241C719860D9605A6310BC704700BF80
S1135C40881600202DE9F04395B0AA4B98470446E6
S1135C50012805D0A84B9847204615B0BDE8F0832D
S1135C6014AF082307F8453DA44E33684FF00108EC
S1135C7083F80B8000251D731D81B068A04B9847E5
S1135C8000972B460622294640469E4FB8472A468F
S1135C904FF48041B0689C4B984730B9974B1B68D0
S1135CA003249C72944B9847D6E74FF4D57245F27F
S1135CB00851B068944B9847002840F0A4804FF0F6
S1135CC00008002244F205518C4B98688E4B98478B
S1135CD0002840F0A680894B1B68DB7A13F0010F83
S1135CE040F0C980002245F20311844B9868864B2A
