S01900006C616D732D78706C61696E65642D70726F2E737265635E
S113000018100120D5020000D1020000FD320000CA
S1130010D1020000D1020000D10200000000000063
S1130020000000000000000000000000D1020000F9
S1130030D102000000000000D1020000853400005D
S1130040D1020000D1020000D1020000D102000060
S1130050D1020000D1020000D1020000D102000050
S1130060D1020000D1020000D10200002D290000BD
S1130070D1020000D1020000D1020000D102000030
S1130080D1020000D1020000D1020000D102000020
S1130090D1020000D1020000D1020000D102000010
S11300A0D1020000D1020000D1020000D102000000
S11300B0D1020000D1020000D1020000D1020000F0
S11300C0D1020000D1020000D1020000D1020000E0
S11300D0D1020000D1020000D1020000D1020000D0
S11300E0D1020000D1020000000000000000000066
S11300F00000000021280000D1020000D10200000D
S1130100D1020000D1020000D1020000D10200009F
S1130110D1020000D1020000D1020000D10200008F
S1130120D1020000D1020000D1020000D10200007F
S1130130D1020000D1020000D1020000D10200006F
S1130140D1020000D1020000D1020000D10200005F
S1130150D1020000D1020000D1020000D10200004F
S1130160D1020000D1020000D1020000D10200003F
S1130170D1020000D1020000D1020000D10200002F
S1130180D1020000D1020000D1020000D10200001F
S1130190D1020000D1020000D1020000D10200000F
S11301A0D1020000D1020000D1020000D1020000FF
S11301B0D1020000D1020000D1020000D1020000EF
S11301C0D1020000D1020000D1020000D1020000DF
S11301D0D1020000D1020000D1020000D1020000CF
S11301E0D1020000D1020000D1020000D1020000BF
S11301F0D1020000D1020000D1020000D1020000AF
S1130200D1020000D1020000D1020000D10200009E
S1130210D1020000D1020000D1020000D10200008E
S1130220D1020000D1020000D1020000D10200007E
S1130230D1020000D1020000D1020000D10200006E
S1130240D1020000D1020000D1020000D10200005E
S1130250D1020000D1020000D1020000D10200004E
S1130260D102000010B5054C237833B9044B13B107
S11302700448AFF300800123237010BDB0040020B4
S1130280000000003C9300000C4B43B10C480D49A6
S113029010B5AFF300800C48036823B910BD0A48B9
S11302A0036833B97047094B002BF7D0BDE8104001
S11302B01847064B002BF5D0184700BF000000007C
S11302C03C930000B40400203C93000000000000B4
S11302D0FEE7000008B5174B174A9A4210D0174B97
S11302E0144A9A420CD2013B9B1A23F003030433B1
S11302F01344114951F8040B42F8040B9A42F9D102
S11303000F4B104A9A420AD2013B9B1A23F0030373
S113031004331344002142F8041B9342FBD10A4ADC
S11303200A4B23F07F039360094B9847094B984786
S1130330FEE700BF000000203C930000AC04002056
S113034018100020B004002000ED00E000000000C0
S1130350CD650000D943000010B504460A4B984708
S113036001280FD020B102280CBF0220012010BDAB
S11303702046064B984700F00300002814BF0020D5
S1130380022010BD032010BD294A00007150000056
S113039038B504460D46044B9847400001382860A0
S11303A02046024B984738BD955000005903000081
S11303B010B504460A4B9847032806D12046084B3B
S11303C09847032801D1012010BD38B92046054BB8
S11303D09847002814BF0420002010BD012010BD40
S11303E059030000B950000008B5054B984720B1E7
S11303F002280CBF0320012008BD002008BD00BF57
S1130400590300002DE9F04F83B083468846144613
S11304101D4601A9174B98472E19019B01339E4293
S113042001D9F3201FE00DB3134FDFF85090DFF82C
S113043050A00FE001214046C84798B9D04700308A
S113044018BF012000E0022090B9013408F50078BB
S1130450A64208D0012221465846B8470028E9D0D0
S11304600228F0D0FF2003B0BDE8F08F0020FAE7A7
S1130470FF20F8E791030000315100000952000009
S1130480555200002DE9F04F83B083468846144648
S11304901D4601A9174B98472E19019B01339E4213
S11304A001D9F3201FE00DB3134FDFF85090DFF8AC
S11304B050A00FE001214046C84798B9D04700300A
S11304C018BF012000E0022090B9013408F500783B
S11304D0A64208D0012221465846B8470028E9D050
S11304E00228F0D0FF2003B0BDE8F08F0020FAE727
S11304F0FF20F8E791030000C55200006553000097
S1130500B153000010B582B0144603291AD8DFE8AD
S113051001F012070F0201231360002002B010BD86
S113052001A9094B9847019B013323600020F5E79B
S113053000201070F2E7054B984700280CBF0020FC
S1130540E320EBE7F320E9E79103000059030000FF
S1130550104B93F8D92002F0FE0242F0010283F816
S1130560D92093F8BC2002F00F0242F0300283F845
S1130570BC2093F8D82002F0FE0242F0010283F876
S1130580D82093F8BC2002F0F00242F0030283F872
S1130590BC20704700800041064B4022C3F8DC2099
S11305A04322C3F88C20044A936943F40073936193
S11305B0704700BF001C00400008004008B5054B10
S11305C09847002204490548054B9847054B98472E
S11305D008BD00BF9905000000200141480B002020
S11305E05126000051050000F0B4724B4FF4001185
S11305F099604FF080429A626F4D9D62596193F801
S1130600550000F0FB0083F8550093F8550000F006
S1130610FE0040F0010083F8550093F83A0000F022
S11306200F0040F0800083F83A004FF48010986087
S11306309A62624E9E62586193F8544004F0FB043F
S113064083F8544093F8544004F0FE0444F0010449
S113065083F8544093F83A4004F0F00444F008045A
S113066083F83A404FF48024C3F88840C3F8A820A4
S1130670534FC3F8A870C3F8944093F8D24004F0E1
S1130680FB0483F8D24093F8D24004F0FE0444F013
S1130690010483F8D24093F8B94004F0F00444F024
S11306A0080483F8B9404FF40024C3F88840C3F821
S11306B0A8200437C3F8A870C3F8944093F8D34033
S11306C004F0FB0483F8D34093F8D34004F0FE0411
S11306D044F0010483F8D34093F8B94004F00F04C4
S11306E044F0800483F8B940C3F88800C3F8A82014
S11306F0C3F8A860C3F8940093F8D44004F0FB0452
S113070083F8D44093F8D44004F0FE0444F0010488
S113071083F8D44093F8BA4004F0F00444F0080499
S113072083F8BA40C3F88810C3F8A820C3F8A850C7
S1130730C3F8941093F8D52002F0FB0283F8D52077
S113074093F8D52002F0FE0242F0010283F8D5208E
S113075093F8BA2002F00F0242F0800283F8BA2024
S1130760C3F884011748C3F8A801174AC3F8A8219D
S113077093F8D42102F0FB0283F8D42193F8D42116
S113078002F0FE0283F8D421C3F88411C3F8A8014F
S11307900E4AC3F8A82193F8D52102F0FB0283F88E
S11307A0D52193F8D52102F0FE0283F8D521F0BCBF
S11307B0704700BF00800041200000C0100000C04E
S11307C0040000C000000240100002C0200002C06B
S11307D0054A136943F480331361044B4022C3F880
S11307E03821C3F88C20704700080040001C0040EA
S11307F008B5054B98474FF08C410448044B984783
S1130800044B984708BD00BFD1070000580B0020D7
S1130810E5220000E9050000184B4FF48022C3F8DC
S11308201421C3F808214FF08042C3F82821144A48
S1130830C3F8282193F8522102F0FE0283F85221D2
S11308404FF000625A615A600E4A9A620E4A9A62E6
S113085093F85B2002F0FE0283F85B2040225A6189
S11308609A6002F180429A624FF040429A6293F891
S1130870462002F0FE0283F84620704700800041C3
S1130880040000C000000240000802C008B5084B84
S11308909847084B9847084B9847084B9847084B8C
S11308A09847084B9847084B9847084B984708BD0A
S11308B08127000019080000F10B0000E137000057
S11308C0BD050000F10700001954000005360000C2
S11308D070B504460B4AD36A13F0040FFBD10A4ED9
S11308E033681A5D094D2A7021460948094B984717
S11308F032682B78B3FA83F35B0913550648074B28
S1130900984770BD0040004100000020700B00209B
S1130910648300007D670000888300006568000030
S113092008B50B4AD36A13F0040FFBD1084BDB6AFA
S113093013F4706F08D0074B5B681868B0F15A3035
S113094018BF4FF0FF3008BD0348044B9847FEE73B
S11309500040004100000020BC83000065680000E6
S11309602DE9F843C9B10E46451E0024DFF8408046
S11309700C4FDFF8389003E00134A4B2A6420CD047
S113098015F8011F4046B84714F0070FF4D1002CA6
S1130990F2D04846044B9847EEE70448024B984788
S11309A0BDE8F8837D670000656800005885000095
S11309B0F883000008B5194B9847D0B91848194B6B
S11309C09847194BD96ADA6AC2F30242C1F3032188
S11309D01648174B98472020164B9847164B1B6810
S11309E093F820309BB94FF48022144BC3F81421A0
S11309F008BD13480B4B98470B4AD36A13F0040FF6
S1130A00FBD10D4B5B684FF05A321A60D9E74FF4B3
S1130A1080220A4BC3F8182108BD00BF2109000039
S1130A20008400006568000000400041608400000C
S1130A307D670000D1080000000000200080004114
S1130A402484000008B50A4B1A68013A0948431E79
S1130A50633012F8011F03F8011F8342F9D16421A6
S1130A600548064B984764210248054B984708BD42
S1130A7000000020CC040020F48400007D67000006
S1130A806109000030B583B00023019302AC44F83F
S1130A90083D1A481A4B984721461A481A4B98475A
S1130AA0009BB3F5805F24D21848154DA84701A9CF
S1130AB01448154B9847164C22680199009BD15451
S1130AC0009A01991348A8472268013A1248431E24
S1130AD0633012F8011F03F8011F8342F9D1642126
S1130AE00E48074B984764210B480D4B984703B0B9
S1130AF030BD0C480C4B9847F9E700BF1C8500003B
S1130B007D67000030850000956800005C8500006A
S1130B100000002070850000CC040020F484000054
S1130B2061090000348500006568000070B582B07A
S1130B30002301931B4E1C4D1C4C31462846A047F4
S1130B4001A91B481B4B984750B101991A48A0476B
S1130B50019B013B032B21D8DFE803F008151A1D84
S1130B60164B1B685868164B9847EEE7BFF34F8F38
S1130B701449CA6802F4E062134B1343CB60BFF319
S1130B804F8F00BFFDE71148114B984702B070BD6D
S1130B90104B9847D1E7104B9847CEE70F480C4BC2
S1130BA09847CAE708000020848500007D6700009C
S1130BB0308500009568000088850000DC02002074
S1130BC0DD63000000ED00E00400FA05A4850000E8
S1130BD065680000450A0000850A0000C085000021
S1130BE0024A536943F4007353617047000800409C
S1130BF008B5034B984703490348044B984708BD7D
S1130C00E10B000000240040980D0020E5210000C5
S1130C1070B582B004460E461546002210491148AC
S1130C20114B98470A2221461048114B984788B91E
S1130C300E4C01AB2A46314620460E4EB0472046A4
S1130C400D4B984750B9019B9D4207D10B480C4B63
S1130C50984703E001460B480B4B984702B070BD20
S1130C60D4850000B80D0020CD1B0000740B0020BB
S1130C703D1C0000E91D000081200000D885000013
S1130C8065680000E48500007D67000000B583B05E
S1130C9069460F480F4B98479DF805009DF80430AE
S1130CA01B0443EA40539DF8000003439DF80200EF
S1130CB043EAC0239DF8010043EA4013BDF806004F
S1130CC0A0F2BC7043EA406003B05DF804FB00BFCF
S1130CD0980D0020292200003AB101388A1811F831
S1130CE0013B00F8013F9142F9D1704722B18218CB
S1130CF000F8011B8242FBD17047CA7E8B7E43EA17
S1130D0002230278032A01D018467047487D0A7DE1
S1130D1042EA002243EA0243F6E7000010B4046802
S1130D20ECB12178202911D93A2921D0224612F890
S1130D30013F202B0CD93A2BF9D13039631C9A424C
S1130D4010D1042911D80234046005E00B46224670
S1130D503A2BF2D0074B1978084610BC70474FF075
S1130D60FF31F9E74FF0FF31F6E74FF0FF31F3E7DA
S1130D702246E2E7300500202DE9F843037913B950
S1130D800020BDE8F8830446056B00F13407012315
S1130D902A4639464078134EB047D0B90023237110
S1130DA0636AEB1AE269934216D2E678012E16D9E9
S1130DB04FF00109DFF82C80E3691D444B462A46B5
S1130DC039466078C047013E012EF5D10020BDE8C8
S1130DD0F8830120BDE8F8830020BDE8F8830020F3
S1130DE0BDE8F88385040000F8B5036B8B4215D089
S1130DF004460D460A4B9847064608B13046F8BDEE
S1130E0001232A4604F134016078064FB8470028CC
S1130E101CBF01264FF0FF352563EFE70026EDE701
S1130E20790D00000504000010B504460023037189
S1130E304FF0FF3303631D4B984708B1032010BDE7
S1130E4094F8332294F8323243EA02231BB2184A4C
S1130E50934201D0022010BD94F86D2094F86C30B8
S1130E601B0443EA026394F86A20134394F86B204A
S1130E7043EA022323F07F430E4A934213D094F8AB
S1130E80893094F88800000440EA036094F88630BE
S1130E90184394F8873040EA032020F07F40801AFA
S1130EA018BF012010BD002010BD00BFE90D0000D7
S1130EB055AAFFFF46415400B0B108B50368ABB171
S1130EC0197809B9092008BDD9888288914201D0CE
S1130ED0092008BD5878064B984700F00100002807
S1130EE00CBF0020092008BD09207047092008BD57
S1130EF0E90300002DE9F04385B0064617460023B8
S1130F00036008469C4B9847051EC0F2A4819B4B86
S1130F1003EB85035C68002C00F0A1813460237826
S1130F207BB16078964B984710F0010F09D1002FE0
S1130F3000F0978100F0040000280CBF00200A2074
S1130F408AE100232370E8B260708E4B984710F05A
S1130F50010F01D003207FE127B110F0040F01D06D
S1130F600A2079E100212046874B9847034601284F
S1130F7006D00026032B00F07681A3B30D206BE18D
S1130F8023466D4604F140006946002705E03A46D1
S1130F9041F8042B1033834212D093F8F621002A2F
S1130FA0F5D093F8FD6193F8FC21120442EA06623D
S1130FB093F8FA61324393F8FB6142EA0622E7E7C9
S1130FC004AF4FF00208DFF8C09106E03146204636
S1130FD0C847034638B1AF42CCD055F8046B002E55
S1130FE0F4D14346F7E794F8402094F83F3043EABD
S1130FF002231BB2B3F5007F01D00D202CE194F83D
S11310004B3094F84A2052EA03220DD194F85B3015
S113101094F85A20120442EA036294F858301A43AE
S113102094F8593042EA0322E26194F84410E170E2
S11310304B1EDBB2012B01D90D200DE194F8417058
S1131040A7700FB90D2007E17B1E3B4201D00D2094
S113105002E194F8463094F8450040EA03202081E8
S113106010F00F0F40F0018194F8485094F8473085
S113107053EA05230DD194F8575094F856301B04C5
S113108043EA056394F854502B4394F8555043EACB
S1131090052394F843E094F8425055EA0E2500F0F5
S11310A0E68002FB01FC05EB101101EB0C0E73450D
S11310B0C0F0DF80A3EB0E03B3FBF7F3002B00F0CB
S11310C0DA8040F6F5718B4294BF012102214FF67C
S11310D0F577BB4200F2D9800233A361266235441E
S11310E065620EEB0607E762032929D1002840F068
S11310F0C48094F8630094F86210090441EA006122
S113110094F86000014394F8610041EA0021A1626F
S11311109B0003F2FF13B2EB532FC0F0B0804FF0EB
S1131120FF332361E3608023637194F8652094F8AE
S1131130643043EA02231BB2012B27D0032178E059
S1131140002800F09E806544A56202290FBF5B0061
S113115003EB430003F0010303EB500303F2FF131B
S1131160B2EB532FC0F08F804FF0FF332361E36065
S1131170802363715DE000BF1D0D00003005002079
S1131180E9030000B1030000290E0000711C204691
S1131190424B9847002856D10023637194F83322B8
S11311A094F8323243EA02231BB23D4A93424CD1B3
S11311B094F8372094F836301B0443EA026394F819
S11311C03420134394F8352043EA0223354A9342EA
S11311D03DD194F81B2294F81A321B0443EA0263AB
S11311E094F81822134394F8192243EA02232E4A4E
S11311F093422ED194F81F2294F81E321B0443EA22
S1131200026394F81C22134394F81D2243EA022338
S1131210236194F8232294F822321B0443EA0263E4
S113122094F82022134394F8212243EA0223E36032
S1131230032121701D4A138B01339BB21383E38076
S11312400020606108E00321F3E70321F1E70321B3
S1131250EFE70321EDE70B2005B0BDE8F0830C2098
S1131260FAE70020F8E70120F6E70D20F4E70D2067
S1131270F2E70D20F0E70D20EEE70D20ECE70D205E
S1131280EAE70D20E8E70D20E6E70233A3612662D2
S1131290354465620EEB0601E16227E7E90D0000C3
S11312A055AAFFFF5252614172724161300500201C
S11312B038B504462D4B9847034650B92378032B81
S11312C009D0002211466078294B9847031C18BFA7
S11312D00123184638BD6379012BF2D104F134059A
S11312E04FF4007200212846224B9847552384F876
S11312F03232AA2384F83332522384F8343084F807
S11313003530612384F83630412284F83720722145
S113131084F8181284F8191284F81A2284F81B32FB
S1131320236984F81C32C3F3072284F81D221A0CA3
S113133084F81E221B0E84F81F32E36884F82032DE
S1131340C3F3072284F821221A0C84F822221B0EEC
S113135084F82332226A0132226301232946607809
S1131360054DA84700236371ABE700BF790D00006A
S113137005050000ED0C00008504000002398369B6
S1131380023B99423DBF8378C06A01FB0300002001
S113139070470000012969D9F8B58369994267D279
S11313A00C4606460378022B2ED0032B40D0012B8B
S11313B001D00120F8BD01EB5105416A01EB552133
S11313C02C4B984710B14FF0FF30F8BD6F1CC5F39C
S11313D00805354495F83450716A01EB57213046BD
S11313E0244B984710B14FF0FF30F8BDC7F3080005
S11313F0304490F8340045EA002014F0010F14BF83
S11314000009C0F30B00F8BD416A01EB1421194B2C
S1131410984710B14FF0FF30F8BD600000F4FF7042
S1131420304490F8353090F8340040EA0320F8BD99
S1131430416A01EBD4110F4B984710B14FF0FF30C4
S1131440F8BDA00000F4FE7000F134023244D178FB
S113145093781B0443EA0163304490F83400184342
S1131460537840EA032020F07040F8BD0120704713
S11314700120F8BDE90D00002DE9F0410546C180C9
S11314808468012C46D00E4603689A69944202D3BC
S11314900220BDE8F08164B91A78032A05D01A89BC
S11314A096420ED30220BDE8F0819A6A002AF6D053
S11314B014469F783F01BE421AD3F61BDFF87080B2
S11314C006E0986AEC60C0B90220BDE8F0811E46CF
S11314D021462868C0470446B0F1FF3F1DD00128CB
S11314E01ED92B689B6998421DD2F31BBE42EED2D3
S11314F0214628680D4B9847E4E700EB1610286155
S11315002B68343306F00F0603EB46166E61002099
S1131510BDE8F0810220BDE8F0810120BDE8F08142
S11315200220BDE8F0810220BDE8F0817D130000B7
S1131530951300002DE9F843012940F28B8083695B
S1131540994201D3022786E016460C4605460378E5
S1131550022B4CD0032B5ED0012B01D002277AE062
S113156001EB5108416A01EB58213E4B984707466D
S1131570002870D108F10109C8F3080814F0010F1C
S11315801CD0A84498F8343003F00F0343EA061340
S113159088F8343001232B71696A01EB59212846FC
S11315A0304B9847002859D1C9F30809C6F30712EC
S11315B0A94489F8342001232B714CE0A84488F80D
S11315C0346001232B71696A01EB59212846254BAC
S11315D09847002844D1C9F3080905EB090393F897
S11315E0343023F00F03C6F303221A43E0E7416AC1
S11315F001EB14211B4B9847074660BB630003F4BF
S1131600FF732B4483F83460C6F3072283F8352034
S113161001232B711FE0416A01EBD411114B984750
S11316200746C0B9A10001F4FE7101F134032B4453
S1131630DA781206294402F07042324381F83420E9
S1131640C2F307215970110C9970120EDA7001233C
S11316502B7100E002273846BDE8F8830746FAE715
S11316600746F8E7E90D00002DE9F04105468846F4
S113167041B9C6689EB183699E4228BF012634469B
S11316802A4F1AE0294B98470346012843D9B0F161
S1131690FF3F45D0AA69904242D34646EFE7012670
S11316A0EDE721462846B847034670B1B0F1FF3F45
S11316B036D0012834D0B44231D00134AB699C42D5
S11316C0EFD3012E29D90224EBE76FF070422146B3
S11316D02846174B98470346B8B9B8F1000F0CD108
S11316E0EC602B69B3F1FF3F1DD0013B2B616B799B
S11316F043F001036B71234612E02246414628461B
S11317000B4B984703460028EAD0012B0CBF4FF03F
S1131710FF33012304E0012302E0002300E000235F
S11317201846BDE8F0812346FAE700BF9513000090
S1131730351500002DE9F047C4880134A3B213B96C
S11317400420BDE8F087036913B90420BDE8F087DD
S11317500E46054614F00F0710D101330361C1682A
S113176031B903681B899C4208D30420BDE8F08783
S113177000688378013B13EA141808D0EC802B68C6
S1131780343303EB47136B610020BDE8F087304B23
S113179098478146012848D9B0F1FF3F48D02868CE
S11317A08369994539D316B90420BDE8F087E968FF
S11317B0284B9847814610B90720BDE8F0870128D7
S11317C039D0B0F1FF3F39D02868234B984700281F
S11317D037D128684FF40072002134301F4B9847EA
S11317E02E68494630461E4B984730634FF0010A35
S11317F0194E2B689A7890450BD283F804A0286878
S1131800B04708BB2A68136B0133136308F101085E
S1131810EFE71A6BA2EB08021A63C5F80C9049466D
S113182028680F4B98472861A8E70220BDE8F08795
S11318300120BDE8F0870220BDE8F0870120BDE863
S1131840F0870120BDE8F0870120BDE8F08700BFE4
S11318509513000069160000790D0000ED0C0000DE
S11318607D1300002DE9F84F05460C460B782F2B0D
S11318700AD05C2B08D003685B69836023781F2B34
S113188006D9DFF8388285E001340023AB60F5E740
S113189000212846834B9847814600236B61E0E092
S11318A02E233B7073782E2B13D17B70B3782E2BA1
S11318B002D14FF00609D4E003242F2B00F0BA80A4
S11318C05C2B00F0B780202B00F2C9803444242321
S11318D0B2E00224F1E74CF0030C803B724AD35C83
S11318E085E0002B40F0BB80A3F16102D2B2192A3B
S11318F000F291804CF0010C203BDBB28BE03A7893
S1131900E52A04BF05223A70B9F1080F04BF4FEA73
S11319108C0C5FFA8CFC0CF00302012A08BF43F024
S113192010030CF00C0CBCF1040F08BF43F00803C7
S1131930FB7282E059462846C0478146002840F0A1
S1131940938029692868B0478146002840F08C803C
S113195069690B78002B00F0978091F80BA01AF0BE
S1131960080FE7D1AF6901F10B0C3A460B4613F8A7
S113197001EB12F8010B8645DCD19C45F7D1FB7ACB
S113198013F0040F6DD11AF0100F50D02868474B94
S11319909847A860264614F8013B2F2BFAD05C2BFD
S11319A0F8D0AF690B2220213846414B9847337851
S11319B02E2B3FF475AF06F1FF3E002004464FF096
S11319C0080984464FF00B0B4FF02A0A01341EF825
S11319D0013F202B3BD92F2B3CD05C2B3AD02E2B14
S11319E055D081453BD913F0800F7FF474AF222B7F
S11319F03FF45FAF52462F4993423FF472AF11F860
S1131A00012F002AF8D1A3F14102D2B2192A3FF6DC
S1131A106BAF4CF0020C3B540130D7E703F00403E6
S1131A20002B14BF4FF004094FF0050919E04FF0E3
S1131A30050916E034442023FB7200212846194B83
S1131A409847814680B91C4E4FF0000B79E7344427
S1131A50042301E03444002300287FF450AF4FF006
S1131A6006094846BDE8F88FAB69DB7AB9F1040F83
S1131A70F7D113F0200FD1D00022AA606A6113F0CD
S1131A80040F87D09146ECE7AB69DB7AF1E7B9F153
S1131A90080FE4D14FEA8C0C5FFA8CFC4846D94617
S1131AA094E700BF791400000C860000FB0C0000D2
S1131AB0ED0C0000BD860000E90D000035170000A4
S1131AC02DE9F041044600211B4B984700282BD1F7
S1131AD01A4E4FF001081A4F04E041462046B84719
S1131AE0054630BB21692068B047054608BB6369D9
S1131AF01B78E52B01D0002BEFD1216920680F4B17
S1131B009847054610B12846BDE8F08120220021FF
S1131B1060690C4B98470B22A16960690A4B98478E
S1131B20236801221A71EEE705460428EBD1072544
S1131B30E9E7042DFBD0E6E779140000E90D000085
S1131B4035170000ED0C0000D90C0000012930D934
S1131B502DE9F84304460E468369994203D30222D1
S1131B601046BDE8F883174F4FF00009DFF858809E
S1131B7003E02E46A369AB42F2D931462046B8476A
S1131B800546C8B1012819D0B0F1FF3F18D04A4624
S1131B9031462046C04702460028E1D12369B3F10B
S1131BA0FF3FE6D001332361637943F0010363719E
S1131BB0DFE70222104670470022D1E70222CFE776
S1131BC00122CDE7951300003515000010B584B04F
S1131BD001900091144604A840F8041D144B984742
S1131BE000281ADB134B03EB80035B680BB1002264
S1131BF01A70019BB3B100221A70019A0D4B03EBCA
S1131C008000426062B1012C01D0002006E0002275
S1131C10694601A8084B984700E00B2004B010BDAA
S1131C200020FBE7034B03EB800300205860F5E73B
S1131C301D0D000030050020F50E00002DE9F047D1
S1131C408CB00191002800F0AC80044615460023B6
S1131C50036002F01E0201A905A85C4B98470646E2
S1131C60002840F09F8005F01F0802AB0B930199F8
S1131C7005A8574B98470A9F0346002839D1002FDF
S1131C8000F0948015F01C0F48D1FB7A13F0100F6C
S1131C9040F0998015F0020F03D013F0010F40F0CB
S1131CA0908015F0080F01D048F02008059B1B6BAD
S1131CB0E361276284F806804FF0000884F8078007
S1131CC0059D39462846434B98472061FA7FBB7FE0
S1131CD01B0443EA02633A7F13437A7F43EA0223F5
S1131CE0E360C4F80880C4F818802560EB88A380FA
S1131CF058E015F01C0F04D0042806D048F008085A
S1131D000A9F002BD6D01E464CE005A8324B9847BC
S1131D1048F008080A9F40B1064643E0FB7A13F0F6
S1131D20110F4AD115F0040F49D118F0080FBDD096
S1131D302A4B9847C1B2B973C0F30722FA73C0F3B0
S1131D4007433B74000E7874B975FA753B76787660
S1131D500025FD723D777D77BD77FD77DDF8149022
S1131D60394648461B4B9847BD76FD763D757D75D3
S1131D70012389F804300546002895D0D9F830A00D
S1131D8001464846164B984708B106460AE00598AE
S1131D90013DC5605146134B9847002884D0064640
S1131DA000E0092630460CB0BDE8F08715F01C0FA2
S1131DB001D10623A5E70623A0E70726F2E70826B4
S1131DC0F0E70726EEE70426ECE700BFF50E000077
S1131DD065180000FB0C0000C11A00008D0C000007
S1131DE04D1B0000E90D00002DE9F04F83B00446BF
S1131DF08846164699460023C9F800306A4B98472E
S1131E00019048B9E379002B40F0CC80A37913F01A
S1131E10020F05D107230193019803B0BDE8F08FA9
S1131E20A368F3420DD2002E69D10AE000215F4B72
S1131E309847034603E061695C4B98470346002BCF
S1131E406FD1A368E268934288BFE360A37943F04B
S1131E502003A371E0E70223E3710193DCE701238C
S1131E60E3710193D8E720680123A26904F12401F6
S1131E7040784F4DA84720B9A37923F04003A371BC
S1131E805CE00123E3710193C6E70223E37101934C
S1131E90C2E70123E3710193BEE74FF4007208EB3C
S1131EA0412104F12400434B9847A37923F04003D4
S1131EB0A37166E0A3699D4203D0A268E3689A42D5
S1131EC062D3A561A068C0F30800C0F50075B542EF
S1131ED028BF354624302A4641462044354B98478E
S1131EE0A37943F04003A371A844A3682B44A360DF
S1131EF0D9F800302B44C9F80030761BA1D0A26871
S1131F00C2F30803002BDDD120688378013B03EA88
S1131F10522313F0FF070DD1002A8CD12369002B23
S1131F2084D0012B97D0B3F1FF3F98D0636122692D
S1131F3002B92361A37913F0400F94D1D4F800A01F
S1131F40616950461C4B9847054600289DD03D4486
S1131F505FEA562BAED09AF8023007EB0B029A4296
S1131F6088BFA3EB070B5FFA8BF32A4641469AF826
S1131F7001000F4FB84700288BD1A169491B8B453D
S1131F808BD84FEA4B25AFE701232A4604F12401FD
S1131F909AF80100094FB847002892D00123E37151
S1131FA0019339E7019337E7B90E00006916000081
S1131FB085040000D90C00007D1300000504000016
S1131FC038B50446294B98470346D0B9A27912F094
S1131FD0200F16D012F0400F0DD020680123A26903
S1131FE004F124014078224DA84700283BD1A3796D
S1131FF023F04003A371E16920681E4B9847034610
S113200008B1184638BD256AEB7A43F02003EB7219
S1132010E3682B77A3891B0A6B77E389AB77E37BB0
S1132020EB772369AB76C3F30722EA761B0C2B7597
S11320301B0A6B75104B9847A875C0F30723EB7503
S1132040030C2B76000E68760023AB74EB74A37933
S113205023F02003A371236801221A712068074B1F
S113206098470346CDE70123CBE700BFB90E000034
S113207085040000E90D00008D0C0000B112000081
S113208010B50446074B9847034608B1184610BDDF
S11320902046054B984703460028F7D100222260CA
S11320A0F4E700BFC11F0000B90E0000EFF3108376
S11320B0036072B6BFF35F8F7047BFF35F8F03682F
S11320C083F310887047000010F0030F10D101391A
S11320D00B291ED8DFE801F00608060A060A0606E0
S11320E00A060A060D4870470D4870470D487047A8
S11320F001390B290FD8DFE801F00608060A060AA1
S113210006060A060A060548704707487047054848
S11321107047002070470020704700BF80DE280011
S1132120803B2600008D270000EA24002DE9F843B7
S11321300C46904686692749274AB7B207F003033D
S1132140002B0CBF0B4613469C4202D3E41A013603
S1132150F3E70125DFF8889029463046C8478442D2
S113216003D3241A0135EDB2F6E71C4B9C4298BF09
S1132170012109D90121194BA4F5A834A4F5C0748F
S11321800131C9B29C42F7D8B4F5616F38BF00225F
S113219007D30022A4F561640132D2B2B4F5616FB1
S11321A0F8D23B2C98BF002305D900233C3C0133D3
S11321B0DBB23B2CFAD8A8F8067088F8055088F8EA
S11321C0041088F8022088F8013088F800400020C4
S11321D0BDE8F8830085E2018033E1017F5101000D
S11321E0C920000038B50D4604464FF4E0720B498F
S11321F0003018BF01200A4B98472368AB4208D02F
S11322004BB925602046074B984740F2B273A3614F
S113221038BD002038BD6FF0110038BD00870000C4
S1132220152700006528000038B50D46044640F225
S11322303B220849003018BF0120074B984720462D
S1132240064B98472A4601462046054B98470020EE
S113225038BD00BF0087000015270000FD280000DE
S11322602D21000010B5044B1C68044B984701460F
S11322702046034B984710BD4C0500205927000009
S11322807927000070B50D461646044660B1081C57
S113229018BF012034220549054B9847236832466C
S11322A029462046984770BD0020F3E71C870000AC
S11322B01527000070B50D461646044660B1081C8B
S11322C018BF01203D220549054B984763683246F3
S11322D029462046984770BD0020F3E71C8700007C
S11322E01527000038B50C46054658B1081C18BF20
S11322F0012031220449054B984721462846044BC6
S1132300984738BD0020F4E7308700001527000007
S1132310AD2A0000F0B583B00D4616461F460446AC
S113232044220849003018BF0120074B98479DF804
S1132330203000933B46324629462046034CA047B2
S113234003B0F0BD3087000015270000152B0000F6
S113235038B50D4604464D220549003018BF01200A
S1132360044B984729462046034B984738BD00BF85
S11323703087000015270000292C000038B50D46D1
S1132380044656220549003018BF0120044B9847E3
S113239029462046034B984738BD00BF30870000CC
S11323A0152700002D2C000010B5044660220549B5
S11323B0003018BF0120044B98472046034B984730
S11323C010BD00BF3087000015270000372C000027
S11323D010B5044669220549003018BF0120044B9A
S11323E098472046034B984710BD00BF3087000034
S11323F015270000412C000070B50D461646044612
S113240072220649003018BF0120054B9847324616
S113241029462046034B984770BD00BF3087000013
S113242015270000812C000010B504467B220549C5
S1132430003018BF0120044B98472046034B9847AF
S113244010BD00BF3087000015270000D52C000008
S113245038B50C46054658B1081C18BF0120842223
S11324600449054B984721462846044B984738BDF4
S11324700020F4E73087000015270000012D00003C
S1132480F0B583B00D4616461F46044690220A490D
S1132490003018BF0120094B98479DF82430019360
S11324A0BDF8203000933B46324629462046044C72
S11324B0A04703B0F0BD00BF30870000152700001F
S11324C0652D000070B50C461646054660B1081C23
S11324D018BF0120B5220549054B984732462146CD
S11324E02846044B984770BD0020F3E7308700006E
S11324F015270000D92F000070B50C461646054676
S113250060B1081C18BF0120BE220549054B98473D
S1132510324621462846044B984770BD0020F3E715
S113252030870000152700005D30000010B5044618
S1132530C7220549003018BF0120044B98472046A4
S1132540034B984710BD00BF3087000015270000DB
S1132550E130000010B50446D0220549003018BF10
S11325600120044B98472046034B984710BD00BFF9
S11325703087000015270000093100002DE9F843D9
S11325800F469046044628B331B3101C18BF0120EF
S1132590F1221249124B98470834124D2046A8479D
S11325A00028FBD0013F0026DFF840900D4D17F8BE
S11325B0011F2046C8472046A8470028FBD0013603
S11325C04645F4D3084D2046A8470028FBD03046A2
S11325D0BDE8F8830020DBE70020D9E74C87000042
S11325E015270000DF320000E9320000D13200007C
S11325F02DE9F8430F4690460446E0B1E9B1101CBA
S113260018BF01204FF486720D490E4B9847013FC5
S1132610002608340C4DDFF834902046A8470028E3
S1132620FBD02046C84707F8010F01364645F4D3CE
S11326303046BDE8F8830020E4E70020E2E700BF6D
S11326404C87000015270000F3320000D732000049
S113265038B50D46044698B1081C18BF0120342231
S11326600849094B9847294604F10800074B984745
S1132670034618B9064A6260064A2260184638BD05
S11326800020ECE74C870000152700009132000081
S1132690F12500007D25000010B5044653220649AB
S11326A0003018BF0120054B984704F10800044B83
S11326B09847002010BD00BF4C870000152700007C
S11326C0BD32000038B50C46054648B1081C18BF99
S11326D0012069220349044B98472560002038BD36
S11326E00020F6E74C8700001527000010B50446CB
S11326F0D7220549003018BF0120044B984704F144
S11327000800034B984710BD4C87000015270000B4
S1132710F332000000B900BE704700000346064AC9
S1132720126822B1044A10680344136070470349D5
S1132730014A1160F6E700BF50050020181001207F
S11327404FF0FF3070474FF400534B600020704748
S11327500120704700207047C0EB0010C300023313
S11327600348A0FB03235B08642000FB03F07047CD
S1132770ABAAAAAA000000000139FDD8704700BF27
S113278008B5084A13889BB21380074B9847074B38
S11327909847074B9847074B984740F6FF70064BFE
S11327A0984708BD00400041ED27000001280000C3
S11327B0E12700001D280000BD27000010F0010FD4
S11327C008D0054A054B1A62194643F6FD724B6858
S11327D01342FCD1704700BF01010100001C0040FE
S11327E00122014B5A71704700080040034BDA691B
S11327F002F47C52DA6101221A747047001400401A
S1132800044A054B9A611A46136913F0020FFBD070
S1132810704700BF06260003001000407047000008
S113282000B583B00D4B9B78DBB20193019B13F091
S1132830020F06D00A4B1B681BB1084A5068984720
S113284009E0019B13F0010F05D0054B5B6813B140
S1132850024A5068984703B05DF804FB0000024147
S1132860EC0F002010B5044600283ED0006800306C
S113287018BF01202F221E491E4B98471E4B1C6077
S1132880226848F2030113690B42FCD1138813F048
S1132890020F0FD0138823F002031B041B0C1380B8
S11328A048F2030113690B42FCD12268136913F047
S11328B0020FFBD1226813889BB243F001031380FB
S11328C0136913F0010FFBD123681A6912F0010F89
S11328D0FBD14FF401421A8048F203011A690A42FB
S11328E0FCD123680020186610BD0020C2E700BF99
S11328F068870000152700005405002010B5044621
S113290070B10068003018BF012099220549064BB8
S113291098472268136913F0080FFBD1906910BD22
S11329200020F2E7688700001527000010B50F4B60
S11329301C682268918953899BB20B4013F4807FF1
S113294003D113F4804F08D110BD63682046984723
S113295023684FF480729A8110BDA368204698477B
S113296023684FF480429A81EEE700BF54050020AB
S113297010B5044634220649003018BF0120054B27
S1132980984794F82F3043F0020384F82F3010BD99
S113299080870000152700002DE9F0418846154680
S11329A01F460446061C18BF012699223C4930469E
S11329B03C4B9847290201F47C5141EA080115F483
S11329C0807F04D015F4006F16D041F0010115F496
S11329D0804F94F8043214BF43F0100303F0EF0364
S11329E084F80432A7608BB2E38105F4805240F28C
S11329F07F2740F25D200DE015F4005F14BF41F025
S1132A00030141F00201E2E73B4216D1238E13F0A9
S1132A10010F1FD1638E9BB2002AF5D00342F5D07B
S1132A202046214B9847638E9BB26FEA93236FEA4B
S1132A30832363860020BDE8F08120461A4B984723
S1132A40638E9BB26FEA93236FEA8323638600202D
S1132A50BDE8F08111F0200F04D1238E9BB243F026
S1132A600103238615F4005F02D10120BDE8F08143
S1132A707F220B4930460B4B9847626A4FF0FF3375
S1132A8012F4801F08D1626A013BF9D12046064B3B
S1132A9098470020BDE8F0810120BDE8F08100BF27
S1132AA080870000152700007129000038B50C4606
S1132AB0054640B3081C18BF0120D8221349144B03
S1132AC098472C6094F82F3043F0010384F82F309A
S1132AD094F82F3013F0010FFAD10E2384F82E301E
S1132AE00F2384F82930A38E9BB26FEA53236FEA35
S1132AF04323A386E38E9BB26FEA93236FEA832377
S1132B00E386002038BD0020D7E700BF808700009F
S1132B1015270000F8B515461C469DF818700646A2
S1132B20D8B10068003018BF01204FF480723A49D0
S1132B303A4B9847336897B193F8282042F004023F
S1132B4083F82820DA8F12F4004F0FD0012C53D0D1
S1132B50042C59D06FF00C00F8BD0020E5E793F881
S1132B60282002F0FB0283F82820EBE79A8D12F06C
S1132B70040F09D05A6A12F0030FFBD19A8D22F088
S1132B8004021204120C9A85596CC1F307412448BB
S1132B90244A002918BF0246998D21F02001090416
S1132BA0090C9985B2FBF5F2520893F8281011F03C
S1132BB0040F02D0002A08BF0122998DC9B241EA4C
S1132BC0022189B29985998D21F0C0010904090C6B
S1132BD0920802F0C0020A439A859A8D92B242F09A
S1132BE001029A859A8D12F0020FFBD09A8D92B24F
S1132BF042F004029A85A9E793F8282002F0FD0226
S1132C0083F828200020F8BD93F8282042F002021F
S1132C1083F828200020F8BD8087000015270000D5
S1132C20808D5B00001BB7000020704700290CBF9B
S1132C300420002070470368186CC0F340507047AC
S1132C4000B583B040F249120B49003018BF01208F
S1132C500A4B984700230193019A41F287339A4221
S1132C6006D81A46019B01330193019B9342F9D97B
S1132C7003B05DF804FB00BF808700001527000047
S1132C8070B50D461646044678B10068003018BF8A
S1132C9001204FF4AB720C490C4B98472068436AEF
S1132CA013F0010F03D0002070BD0020F1E78389E9
S1132CB023F001031B041B0C83810021C1803346D4
S1132CC02A46034CA04770BD8087000015270000EA
S1132CD09929000010B5044658B10068003018BFA7
S1132CE001204FF4B5720449044B984723681869CE
S1132CF010BD0020F5E700BF808700001527000005
S1132D0038B50C46054660B10068003018BF012094
S1132D1040F277121149124B98472D680221032380
S1132D200BE00020F4E7100C2070100A6070A27011
S1132D300334013BDBB20139C9B21A1D55F8222014
S1132D40032BF0D0100E2070100C6070100AA070CD
S1132D50E270043411F0800FEBD038BD808700009E
S1132D60152700002DE9F0410D4690461F46BDF899
S1132D7018600446002832D00068003018BF0120D3
S1132D8040F293122049214B98472068436A13F07C
S1132D90010F2FD1436A13F0020F2ED105F4004323
S1132DA0002B14BF0023102315F4803F04D115F425
S1132DB0003F16D043F022039BB28381C7F309037B
S1132DC08380C68000220023C4E90223278266820E
S1132DD043462A4620210E4CA047BDE8F08100203E
S1132DE0CEE715F4002FE7D115F4801F08D043F087
S1132DF02203E1E70020BDE8F0810020BDE8F08176
S1132E000020BDE8F08100BF808700001527000086
S1132E10992900002DE9F8430F46054600284DD0B6
S1132E200068003018BF01204FF4E87239493A4B6A
S1132E3098472C682A8AD5E90201B5F8128002FB6A
S1132E4008F84FEAE879B8EB000869EB0109B9F131
S1132E50000F08BFB8F1040F45D202F0030692B286
S1132E600023DFF8BC80C047134343D0042E2DD089
S1132E70236A721E022A9CBFDBB23B60F6B20027B3
S1132E80D5E90223B6185F41C5E902672A8A688A30
S1132E90A2FB00239F4208BF964221D3638E03F016
S1132EA07003BBB9238E13F0020FF7D0238E9BB2AD
S1132EB043F0020323860120BDE8F8830020B3E732
S1132EC02046164B98470020BDE8F883236A3B60F0
S1132ED00426D3E72046114B98470020BDE8F88329
S1132EE00120BDE8F88392B200230D4EB04713438E
S1132EF0ECD10426638E03F07003002BE0D1238E03
S1132F0013F0200FF6D0238E9BB243F020032386C8
S1132F10ACE700BF8087000015270000712900007E
S1132F20695F0000F8B50E46054600283DD00068EC
S1132F30003018BF012040F20F222349234B984749
S1132F402C682A8A0023D5E90201214FB84713438C
S1132F500CD1638E03F070034BBB238E13F0100F60
S1132F60F7D0238E9BB243F0100323862662D5E963
S1132F700223043243F10003C5E90223288A6E8A3E
S1132F80A0FB06018B4208BF82421AD3638E03F072
S1132F9070038BB9238E13F0020FF7D0238E9BB2EC
S1132FA043F0020323860120F8BD0020C3E7204636
S1132FB0084B98470020F8BD2046064B9847002050
S1132FC0F8BD0120F8BD00BF808700001527000070
S1132FD0695F0000712900002DE9F0410E4690461A
S1132FE0074600B30068003018BF0120184D40F2B6
S1132FF03E222946174CA04740F23F22294618F1A9
S1133000000018BF0120A0474FF410722946301C5D
S113301018BF0120A0473D8A08FB05F5A5B104248B
S1133020DFF8348004E00020E0E726442D1B0BD0B9
S113303031463846C047AC42F7D93B8A93FBF4F299
S113304004FB1234E4B2F0E70120BDE8F08100BFD4
S11330508087000015270000152E00002DE9F0419F
S11330600E469046074600B30068003018BF0120A2
S1133070184D40F25A222946174CA04740F25B22D1
S1133080294618F1000018BF0120A0474FF4177219
S11330902946301C18BF0120A0473D8A08FB05F5CE
S11330A0A5B10424DFF8348004E00020E0E72644DE
S11330B02D1B0BD031683846C047AC42F7D93B8A48
S11330C093FBF4F204FB1234E4B2F0E70120BDE810
S11330D0F08100BF8087000015270000252F000025
S11330E008B550B10068003018BF012040F27122C9
S11330F00349044B9847012008BD0020F6E700BFB0
S1133100808700001527000008B550B10068003022
S113311018BF01204FF41F720349044B9847012044
S113312008BD0020F6E700BF8087000015270000D7
S113313070B489B006466C460D4D0FCD0FC495E8AA
S11331400F0084E80F00009BB3420DD0314601AB61
S1133150012053F8042B8A4207D001300828F8D103
S1133160002009B070BC70470020C0B2F9E700BF6E
S11331709887000010B50446414B984700285CD05E
S113318002285CD040F247223E4900203E4B98473B
S11331900021E36913F0010F22D14B005A183B4B75
S11331A003EBC2035A6A02F01C02E36913F0030F33
S11331B0FBD1236813F0020F0BD0236823F0020322
S11331C02360E36913F0030FFBD1E36913F0020FEB
S11331D0FBD142F001022260E36913F0030FFBD13B
S11331E0E36913F0010FFBD10A464B000B44274956
S11331F001EBC301486A2060E36913F0030FFBD1BC
S113320053009918214B03EBC1039B6A6360E36984
S113321013F01F0FFBD1530099181C4B03EBC10390
S1133220DB6AA36010F4C04F0BD153009918174BFD
S113323003EBC1031B8EA38111E00021A9E7012147
S1133240A7E7124B03EBC103188EA18960F30C01AD
S1133250A18193F83210A38961F34F33A3810B4BFF
S11332605100881803EBC00090F83300A0730A449F
S113327003EBC20393F8343084F83030002010BDDF
S113328031310000008800001527000098870000F5
S113329038B50C460546BB220549003018BF01204D
S11332A0044B98472C602046034B984738BD00BF19
S11332B000880000152700007531000002681368BB
S11332C043F002031360D36913F0030FFBD170477B
S11332D00368996270470368986AC0B270470368CC
S11332E0187E00F0010070470368187EC0F34000A8
S11332F070470368187EC0F3800070471EF0040F07
S11333000CBFEFF30880EFF30980714600F000B8BA
S11333102DE9F04F87B00591384EB36B0093726B73
S11333200192B76A0468D0F804B0D0F808A0D0F8C5
S11333300C90D0F810804569029583690393C069A5
S113334004902F482F4DA8472F48A84721462F48BF
S11333502F4CA04759462F48A04751462E48A04716
S113336049462E48A04741462D48A04702992D487A
S1133370A04703992C48A04704992C48A0472C48FF
S1133380A8472C48A84739462B48A0472B48A847AC
S1133390F9B22B48A0472B48A847C7F307212A486E
S11333A0A0472A48A847C7F307412948A047C7F3BD
S11333B0C0112848A04701992748A047C7F3C03146
S11333C02648A04700992648A0472648A847F16AFE
S11333D02548A047316B2548A047F16B2448A047F6
S11333E02448A84705992448A047244F402664252B
S11333F0234CFE612846A047FBE700BF00ED00E038
S11334001C880000656800002C88000040880000CB
S11334107D670000588800007088000088880000DC
S1133420A0880000B8880000D0880000E888000068
S113343000890000108900003C89000054890000C4
S11334407889000094890000B8890000D4890000BC
S1133450FC890000188A00004C8A0000648A00007D
S1133460988A0000B08A0000D48A0000EC8A000028
S1133470048B00001C8B0000288B0000008000419E
S1133480652200001B4A1368013313601A4B1B8822
S11334909BB223B1184A1388013B9BB21380174B8C
S11334A01B78DBB2012B07D013B1022B13D070476A
S11334B04022134B9A6170470E4B1A68114BA3FBC1
S11334C002135B094FF4FA7101FB132383B9402201
S11334D00B4BDA617047074B1A680B4BA3FB0213C3
S11334E05B09642101FB132313B94022044BDA6105
S11334F0704700BF5805002008100020111000205C
S113350000800041D34D62101F85EB5108B503497B
S11335100A4604310248034B984708BD8400002042
S1133520580B00200D4A00002DE9F041ADF5C16DA6
S11335300024ADF806464FF48062214681A8224D4E
S1133540A8474FF40072214601A8A8471F4E204DFA
S1133550204C04E0204B1B685868204B98473146A8
S11335602846A0470DF206611D481E4B98470028C7
S1133570F0D0BDF806161C48A047BDF80636012B4E
S11335801BD0022BEBD11948A04781A92846DFF8AC
S11335905480C047164F81A93846A0471548A04714
S11335A001A92846C04701A93846A0474FF4007234
S11335B001A981A8104B9847D1E71048104B9847B0
S11335C00DF5C16DBDE8F081156600008C0000208A
S11335D0848500007D670000DC020020DD630000BC
S11335E0488B000095680000888500004C8B000023
S11335F0588E0000648B0000110C0000A4850000AC
S1133600656800003B4AD36943F02003D36140223C
S1133610394BC3F8F820394B93F8C92002F0FE0265
S113362042F0010283F8C92093F8B42002F00F029B
S113363042F0400283F8B4204FF40071C3F88410C0
S113364093F8C92042F0040283F8C920C3F8941007
S11336502B4B1B6913F0010F1FD1294A136913F077
S1133660030FFBD1264B1B6813F0020F0DD0244A25
S1133670136823F002031360136913F0030FFBD1E3
S11336801F4A136913F0020FFBD101221C4B1A606D
S11336901A46136913F0030FFBD1194A136913F087
S11336A0010FFBD1174A164B1A601A46136913F01F
S11336B0030FFBD1124B00225A71FF221A7103220D
S11336C01A733C229A831A46136913F0C00FFBD174
S11336D000220B4BDA831A46136913F0C00FFBD197
S11336E0074A136843F002031360136913F0030FCE
S11336F0FBD1704700080040001C004000800041DE
S11337000014004210030012194B1B6913F0010F3F
S113371017D1174A136913F0030FFBD1144B1B681D
S113372013F0020F0DD0124A136823F00203136042
S1133730136913F0030FFBD10D4A136913F0020F41
S1133740FBD10B4A136913F0010FFBD12422084B60
S1133750DA831A46136913F0C00FFBD1044A1368C5
S113376043F002031360136913F0030FFBD1704796
S113377000140042194B1B6913F0010F17D1174AAB
S1133780136913F0030FFBD1144B1B6813F0020FE2
S11337900DD0124A136823F002031360136913F067
S11337A0030FFBD10D4A136913F0020FFBD10B4A2F
S11337B0136913F0010FFBD10022084BDA831A4678
S11337C0136913F0C00FFBD1044A136843F00203DA
S11337D01360136913F0030FFBD170470014004208
S11337E010B51B4B4022C3F89C204322C3F88C2005
S11337F0184A536943F480535361174C0022174904
S11338002046174B98472046164B9847164B93F87B
S1133810442002F0FE0242F0010283F8442093F8AF
S1133820322002F0F00242F0030283F8322093F8CF
S1133830452002F0FE0242F0010283F8452093F88D
S1133840322002F00F0242F0300283F8322010BD21
S1133850001C004000080040FC0F00200030004025
S113386051260000992600000080004130B583B045
S113387004460D4601A90548054B98472A462146AA
S11338800198044B984703B030BD00BFFC0F0020E3
S1133890C52600008522000000B583B069460748AC
S11338A0074B984701220DF107010098054B9847F3
S11338B09DF8070003B05DF804FB00BFFC0F002077
S11338C0C5260000B52200002DE9F04786B000238C
S11338D0ADF816308E4EDFF8A8828E4FF5E08E4B91
S11338E01B7863B18D4B1B78252B05D0402B40F002
S11338F0EC808B4B9847E8E08A4B9847E5E08A4D8B
S11339008A4C2846A0470028FBD0894B1C68062C0B
S11339104DD8DFE804F0040D161F2B374300854B08
S11339209847854B1870824A136801331360CCE0C2
S1133930804B9847804B58707D4A1368013313605D
S1133940C3E07C4B98477C4B5860794A1368013339
S11339501360BAE0774B9847774A536843EA0023E9
S11339605360734A136801331360AEE0714B984798
S1133970714A536843EA004353606D4A1368013344
S11339801360A2E06B4B98476B4A536843EA0063A9
S11339905360674A13680133136096E0654B984798
S11339A0654B1872624A1368013313608DE0073C5B
S11339B0604B9847614B1855584B1978822916D09B
S11339C05B4B1A6801321A605B4B5B6823F040431F
S11339D007339A4279D1502968D048D959296CD0F3
S11339E0822918D0522970D1554B984760E02CB9E0
S11339F0524B1B781B090A2B67D101E0012C2CD0F8
S1133A004B4B1A6801321A604B4B5B6823F04043FE
S1133A100733934259D14B4B98474B4B1B683F2B71
S1133A2053D94A4B98474A4B98474A4C0025DFF8EC
S1133A3054A1DFF83C9123892278E1880391A1887D
S1133A400291A17801916178009129465046C847B6
S1133A5001350A34402DEED12AE0384B5B781B093E
S1133A60052BCDD0324A1368013B13602DE0203979
S1133A7001292AD8384B9847334B1B683F2B24D94C
S1133A80324B9847324B9847344C0025DFF8F8A066
S1133A90DFF8DC9063882278A1880091294650469B
S1133AA0C84701350634402DF4D101E02C4B98472A
S1133AB000231F4A1360337007E02A4B9847F7E747
S1133AC0294B1B685868294B98473378002B7FF49F
S1133AD006AF41463846264B98470DF11601254856
S1133AE0254B98470028EBD0BDF816102348204BEF
S1133AF09847BDF81630013B0A2B00F29980DFE8A5
S1133B0003F0454B51575F676F777F878F0000BF86
S1133B10DC0500208485000010100020E40500204E
S1133B20ED400000BD400000FC0F0020ED26000029
S1133B30E005002099380000F00900205C05002011
S1133B4045430000C1410000EC050020753700002A
S1133B50AD3C0000700700201D410000F00500206E
S1133B60B5420000A9430000DC020020DD63000030
S1133B707D670000488B0000956800008885000080
S1133B80D8000020988B0000748B00002A482B4B2F
S1133B90984706B0BDE8F0872948284B9847294B39
S1133BA0984792E72848254B9847284B98478CE735
S1133BB02748224B9847274B98470123337084E7C3
S1133BC025481E4B9847254B9847012333707CE7C3
S1133BD023481A4B9847234B98470123337074E7C3
S1133BE02148164B9847214B9847012333706CE7C3
S1133BF01F48124B98471F4B98470123337064E7C3
S1133C001D480E4B98471D4B9847012333705CE7C2
S1133C101B480A4B98471B4B98470123337054E7C2
S1133C201948064B9847194B9847012333704CE7C2
S1133C301748024B984748E7A485000065680000D0
S1133C40D88B000009370000F08B000075370000A6
S1133C50088C0000AD3C0000248C0000253D0000D1
S1133C60408C0000A13D0000608C00001D3E00005F
S1133C70888C0000E53E0000B08C0000613F00002D
S1133C80CC8C0000D53F0000E88C000049400000C7
S1133C90C0850000044A531EFF32002103F8011FAF
S1133CA09342FBD1704700BFFC09002030B583B0BC
S1133CB01048114B98472525104B1D700022104BBE
S1133CC01A60104B9847104C0095A5230F4A4FF4E7
S1133CD0807120460E4DA84781B20E4B19802046B4
S1133CE00D4B984701230D4A13800D4A137003B0FE
S1133CF030BD00BF088C000065680000E4050020AA
S1133D00E0050020953C0000FC090020088D00001F
S1133D10316A0000DE0500206D3800000810002024
S1133D201010002030B583B01148124B984740253D
S1133D30114B1D700022114B1A60114B9847114C06
S1133D400095A523104A4FF4807120460F4DA847D3
S1133D5081B20F4B198020460E4B98474FF47A726C
S1133D600D4B1A8001220D4B1A7003B030BD00BFF9
S1133D70248C000065680000E4050020E0050020B4
S1133D80953C0000FC090020088D0000316A000009
S1133D90DE0500206D3800000810002010100020FF
S1133DA030B583B01048114B9847114B1A68114B2A
S1133DB01A602025104B1D700023104A1360104A0E
S1133DC01360104B9847104C0095A5230F4A4FF4ED
S1133DD0807120460E4DA84781B20E4B19802046B3
S1133DE00D4B984703B030BD408C0000656800005F
S1133DF0580500200C100020E4050020E0050020F8
S1133E00EC050020953C0000FC090020088D000012
S1133E10316A0000DE0500206D38000030B585B041
S1133E202248234B9847234B1A68234B1A600023DC
S1133E308DF80F308DF80E3022228DF80D2082255A
S1133E401E4A15701E4A13601E4A13601E4A1360F0
S1133E501E4B98471E4C052301930095A5231D4A2C
S1133E604FF4807120461C4DA84781B21B4B19802A
S1133E7020461B4CA04701210DF10F00A047012152
S1133E800DF10E00A04701210DF10E00A047012104
S1133E900DF10E00A04701210DF10E00A0470121F4
S1133EA00DF10D00A04705B030BD00BF608C0000CF
S1133EB065680000580500200C100020E40500206F
S1133EC0E8050020EC050020E0050020953C0000FA
S1133ED0FC090020108D0000316A0000DE0500207E
S1133EE06D38000030B583B01048114B9847114B22
S1133EF01A68114B1A602125104B1D700023104ABB
S1133F001360104A1360104B9847104C0095A5237A
S1133F100F4A4FF4807120460E4DA84781B20E4BD4
S1133F20198020460D4B984703B030BD888C0000A3
S1133F3065680000580500200C100020E4050020EE
S1133F40E0050020EC050020953C0000FC09002061
S1133F50088D0000316A0000DE0500206D38000085
S1133F6030B583B00F48104B9847104B1A68104B6C
S1133F701A6050250F4B1D7000220F4B1A600F4B17
S1133F8098470F4C0095A5230E4A4FF480712046A4
S1133F900D4DA84781B20D4B198020460C4B984714
S1133FA003B030BD188D000065680000580500207E
S1133FB00C100020E4050020E0050020953C0000E2
S1133FC0FC090020088D0000316A0000DE05002095
S1133FD06D38000030B583B00F48104B9847104B34
S1133FE01A68104B1A6052250F4B1D7000220F4B9C
S1133FF01A600F4B98470F4C0095A5230E4A4FF4B7
S1134000807120460D4DA84781B20D4B1980204682
S11340100C4B984703B030BD348D00006568000038
S1134020580500200C100020E4050020E0050020C5
S1134030953C0000FC090020088D0000316A000056
S1134040DE0500206D38000030B583B00F48104BFA
S11340509847104B1A68104B1A6059250F4B1D7066
S113406000220F4B1A600F4B98470F4C0095A52365
S11340700E4A4FF4807120460D4DA84781B20D4B76
S1134080198020460C4B984703B030BD508D00007A
S113409065680000580500200C100020E40500208D
S11340A0E0050020953C0000FC090020088D00007C
S11340B0316A0000DE0500206D38000008B5064BAB
S11340C01B889BB203B108BD044A1370044A1370E1
S11340D00448054B9847F6E708100020101000200C
S11340E0DC050020708D00006568000008B5064BF3
S11340F01B889BB203B108BD044A1370044A1370B1
S11341000448054B9847F6E70810002010100020DB
S1134110DC050020808D0000656800002DE9F04179
S1134120214A1378507855789178D47816791F4FAE
S11341303A68053A3A605B0003F0060300F00102B6
S11341401343053BDBB2012B06D9194B196811F057
S11341500F0F23D0BDE8F081EDB2C9B2E4B2F6B2DC
S1134160DFF84CC0DCF800000F4B93F800E0114B73
S1134170420017187F0003EB07084FEA9E0E03F86E
S113418007E0C90101EB5505A8F80250411CCCF821
S1134190001004EB0624A8F80440D6E740220648A1
S11341A0064B9847D6E700BF5C050020E0050020D9
S11341B0EC050020F0050020908D00007D670000D4
S11341C0F8B5354B5A781C7804F00F0444EA02140D
S11341D0E4B293F802E05FFA8EFEDF78FFB2DB7898
S11341E0DDB22E4A1368543B1360022300222A488E
S11341F0C15C4A400133542BFAD1944204D0284A7A
S1134200136801331360F8BDED09264B1E683C02A8
S113421004F4FE4444EA0E0406EB8602224B03EB4C
S1134220420305211C4A1D7001F1FF3E12F80E7075
S1134230505CC00140EA570098804F1C12F807C038
S1134240881C105CC00140EA5C00D88012F80E00A3
S113425001F1030E12F80EC0000100F0100040EA54
S11342601C105870D05D12F80E70000100F01000A0
S113427007F00F07384398701C810A33053155291C
S1134280D1D106F11002074B1A6040230449096892
S11342900648074CA047F8BD5C050020E005002057
S11342A0E8050020EC05002070070020B08D000018
S11342B07D6700002DE9F04F85B01A4B93F800B0EC
S11342C05FFA8BFB93F801A05FFA8AFA93F80290E5
S11342D05FFA89F993F803805FFA88F80023009362
S11342E001930293039313240E4F0F4E0F4D3A5D27
S11342F004AB181B31460330A847013C032CF6D10C
S113430059460B480B4CA047524649460A48A04719
S113431041460A48A04769460948A04705B0BDE898
S1134320F08F00BF5C050020E48D0000996A000056
S1134330EC8D00007D670000088E0000288E0000D0
S1134340448E000010B5104B1B78DBB2012B12D049
S11343509BB10E4A0E49022B18BF11460A4B1C781A
S11343605B7804EB0324A4B24CB1224609480A4BFF
S11343709847204610BD0949F0E70949EEE7094886
S1134380054B9847F5E700BF5C050020788E0000D8
S1134390708E00009C8E00007D670000688E000017
S11343A0608E0000808E000038B5074C2378617859
S11343B003EB01210548064DA847A378E17803EBF8
S11343C001210448A84738BD5C050020C88E0000C0
S11343D07D670000EC8E000080B582B02B4B9847BF
S11343E02B4B42F6DF625A60E0212A4A82F82310FE
S11343F00020986007221A60274B1870274B9847B3
S11344002748284B9847284F284E294D04E0294B2C
S11344101B685868284B984702AC002344F8043DB5
S113442039463046A84721462448254B984700285A
S1134430EDD001992348A847019B013B052B20D8C7
S1134440DFE803F003101316191CBFF34F8F114953
S1134450CA6802F4E0621C4B1343CB60BFF34F8F76
S113446000BFFDE7194B9847D6E7194B9847D3E7A8
S1134470184B9847D0E7184B9847CDE7174B984708
S1134480CAE71748074B9847C6E700BF995600008C
S113449010E000E000ED00E01110002009550000DC
S11344A0108F000065680000100200208485000061
S11344B07D670000DC020020DD6300003085000021
S11344C095680000888500000400FA052D0B0000A3
S11344D0DD550000C938000029350000E146000020
S11344E04C8F000008B504461048114B9847114BF7
S11344F098470222104B1A7034B1012C08D021467F
S11345000E480F4B984702E00E48094B9847FEE7C8
S11345100D48074B98470D4B19680D4B5A6822F00C
S1134520404207320B48064B9847F0E7608F000083
S1134530656800007537000011100020E48F00004A
S11345407D670000708F0000848F0000E00500206C
S1134550F00900209C8F00000122574B1A70574B22
S11345601B78252B12D0402B10D010B55448554B36
S11345709847002800F09C80534B1B68062B62D898
S1134580DFE803F00A1826303D4A57004F4B1878ED
S1134590B0FA80F0400970474D4B98474D4B187066
S11345A0A52801D0002010BD474A136801331360C9
S11345B0002010BD464B9847464B58705A28424A33
S11345C0136814BF03F1FF3301331360002010BDDF
S11345D03F4B98473F4B58603B4A13680133136085
S11345E0002010BD3A4B98473A4A536843EA0020EA
S11345F05060354A136801331360002010BD344BFA
S11346009847344A536843EA004050602E4A13687E
S113461001331360002010BD2D4B98472D4A536879
S113462043EA00605060284A136801331360002095
S113463010BD274B9847274B1872234A1368013340
S11346401360002010BD204B1C68073C204B98478A
S1134650214B1855194B1B78822B11D01A4A136819
S1134660013313601B4B5B6823F04043073312682C
S113467093421FD0144A1268934216D3002010BDEF
S113468034B9154B1B781B090A2BE7D0002010BD49
S1134690012CE3D1104B5B781B09052BDED00A4AB1
S11346A01368013B1360002010BD01200B4B984799
S11346B0002010BD012010BD11100020E4050020D1
S11346C0FC0F0020ED260000E00500201010002063
S11346D099380000F00900205C050020E544000042
S11346E02DE9F04F87B03D483D4B98473D4F3E4D37
S11346F03E4E05A8B8472A682B6A2C695C401440D2
S11347005C4005A8B04714F0006FF2D03848344B31
S11347109847384B9847384D384C00E0A047A84795
S11347200028FBD0364B9847334CA0470028FCD0D8
S1134730344B984798B9344B98472F4CA0470028DE
S1134740FCD0324B9847324B9847324B98474FF046
S1134750000ADFF8E4B0DFF8E490274E1CE02E4BAB
S113476098472E4C0025DFF8D8802D4F23892278D6
S1134770E1880391A1880291A17801916178009167
S113478029464046B84701350A34402DEED10AF196
S1134790010ABAF1B50F0FD05046D847D9F8003006
S11347A03F2BDED81F4CB0470028FCD0A047D9F8D7
S11347B000303F2BF7D9D4E71B4B98471B4B984746
S11347C00D4D1B4C00E0A047A8470028FBD0002259
S11347D0184B1A7007B0BDE8F08F00BFF88F0000C7
S11347E065680000AD20000000800041BB2000008F
S11347F014900000253D000059450000ED400000E4
S1134800D53F000045430000613F0000B542000071
S1134810093700001D3E0000E54400007007002039
S11348207D670000C141000075370000AD3C000009
S1134830BD4000001110002009550000EC050020C7
S1134840988B000010B582B007480468637B226827
S113485001798068A47F003418BF01240094034CBC
S1134860A04702B010BD00BFFC0A002015230000C1
S113487008B10420704730B583B03A4BDB68002B95
S113488041D0B3F90030B3F1FF3F3CD0DDB201A811
S1134890354B98476B093549DB01CA18C958136A67
S11348A014695C400C405C4001A8314B984705F00A
S11348B01F03012202FA03F3234208BF0022294BFB
S11348C0DB685B889A4204D00422264B9A76022045
S11348D039E0244B9B7E042B05D0012B08D0032BFD
S11348E017D103202FE001221E4B9A7602202AE0E2
S11348F01C4B02229A761F4A1A6101225A7700221F
S113490083F82E2005E0174B9B7E033BDBB2012B83
S11349101BD9144B1B791BB3124B188EB0FA80F0C1
S1134920400940F22C421449144B98470D4C002383
S1134930237104F110032360114B9847A07E0228D1
S113494014BF0020012003B030BD064B02229A762A
S1134950084A1A6101225A77002283F82E20D8E7E8
S11349600120DEE7FC0A0020AD20000000800041A9
S1134970BB200000801A0600C49000001527000028
S1134980454800002DE9F04106460F461446984676
S1134990069D40F276321049281C18BF01200F4BA7
S11349A09847600240EAC86040EA077040EAC6706F
S11349B02A78024341F23431094B9868094B9847ED
S11349C0044610B92046BDE8F081054B9868064BB3
S11349D098472870F6E700BFC49000001527000030
S11349E0FC0A0020F92300002924000008B5054B27
S11349F01B7903B108BD0021024B9868024B98470C
S1134A00F8E700BFFC0A00205123000010B4054B56
S1134A1004249C76FF241C719860D9605A6310BCEE
S1134A20704700BFFC0A00202DE9F04395B0AA4B63
S1134A3098470446012805D0A84B9847204615B04E
S1134A40BDE8F08314AF082307F8453DA44E33684E
S1134A504FF0010883F80B8000251D731D81B06899
S1134A60A04B984700972B460622294640469E4F66
S1134A70B8472A464FF48041B0689C4B984730B9F8
S1134A80974B1B6803249C72944B9847D6E74FF4CA
S1134A90D57245F20851B068944B9847002840F00D
S1134AA0A4804FF00008002244F205518C4B986812
S1134AB08E4B9847002840F0A680894B1B68DB7A10
S1134AC013F0010F40F0C980002245F20311844B1A
S1134AD09868864B98470028D2D0814D2E68A868E4
S1134AE0834B9847000C30812B68DA7A12F0010F5F
S1134AF03ED01A89120441F60931A8687B4B9847C5
S1134B000028BDD029680E31A8687A4B98472A68D6
S1134B10517C794B01F0070053F820504FF47A7020
S1134B2000FB05F0C1F3C30103EB8103DB6903FB65
S1134B3000F31360937B9B0940F0E280917D507DEC
S1134B40137D9B0243EA800343EAA113107ED17DC7
S1134B50490041EAE011C3F30B03013301F00701FB
S1134B6002318B40D17C01F00F018B409B0A5360D2
S1134B705B4B1A681289120443F2071198685B4B65
S1134B80984700283FF47CAF554B1B68DA7A12F043
S1134B90010F40F0C280524B1B68DB7A13F0040F04
S1134BA000F05281092500274F4EA5F1090303AAFD
S1134BB0134400933B462A4639463846B0470135EC
S1134BC00D2DF2D19DF80D309DF80C9009EB0329C1
S1134BD09DF80E3009EB03499DF80F3009EB03698A
S1134BE04E464FF00008404FEDE0B068404B984708
S1134BF0B0F1FF3F00F02782C0F30B00B0F5D57F82
S1134C007FF43EAF4FE7364B9868394B984710F026
S1134C10E04F3FF452AF41F28935314E334FDFF864
S1134C20D09000F4FC1244F20551B068B847002853
S1134C303FF426AFB068C847002802DB013DF0D13D
S1134C401EE710F0006F04D1254B1B680422DA72B2
S1134C503AE7234B1B680522DA72B8F1000F274BA1
S1134C6014BF98464FF4FC1840F635061C4D1F4FF0
S1134C70DFF87C90002241F23711A868B84758B198
S1134C80424644F22951A868B84728B1A868C847E1
S1134C90002806DB013EEDD1114B1B680022DA72BD
S1134CA0EEE610F0804F05D00D4B1A68D37A43F02E
S1134CB00803D3720A4B1B68DB7A13F0010F3FF42D
S1134CC003AF002245F60231054B9868074B98471D
S1134CD000287FF4F9AED3E671480000ED490000E6
S1134CE0FC0A0020D123000085490000F9230000BC
S1134CF029240000512400002890000000801F4057
S1134D00D17D907D537D1B0443EA00230B43C3F301
S1134D10150301335B0253602AE71A89120441F236
S1134D2037119A4B98689A4B984700283FF4A8AEDD
S1134D300123019300930823002296499348806835
S1134D40954DA84700283FF49BAE012204A98F4B40
S1134D509868924B984700283FF492AE8B4B986822
S1134D608F4B984700283FF48BAE9DF8103003F02A
S1134D700F03012B0CD033B1022B0ED0834B1B68D5
S1134D8010221A7307E7814B1B6810221A7302E77B
S1134D907E4B1B681A221A73FDE69DF81230DB095C
S1134DA07A4B1B6814BF302220221A73F3E69DF855
S1134DB01130002B3FF464AE02331E4409F58073B6
S1134DC09E423FF65DAE002504AB2B440093434660
S1134DD0AA1941464046B8470135032DF4D19DF840
S1134DE01030FF2B3FF44CAE222BE0D19DF8123053
S1134DF0002BDCD106F1060935464FF00008694F57
S1134E00AB1B04AA1344009343462A46414640463A
S1134E10B8470135A945F3D19DF81530322B28BF89
S1134E2032235A4A1068604A03F0070152F82150AD
S1134E304FF47A7101FB05F1C3F3C30302EB83035F
S1134E40DB6903FB01F30360504B19799868574BF6
S1134E509847032826D94D4B1B68DB7A13F0040FBF
S1134E604ED14A4B1B68DA7A12F0010F18D01A8916
S1134E70120441F23711454B9868454B9847002876
S1134E803FF4FEAD022241F20611404B9868404BBC
S1134E90984700283FF4F4AD3C4B1B6804225A7336
S1134EA0434B9847394B9868424B984780B1374BEE
S1134EB01B68DB7A13F0040F43D1344B1B68DA7A96
S1134EC012F0010F02D01B7B102B77D8384B984778
S1134ED02E4B1B68DB7A13F0010F0AD04FF40072DB
S1134EE041F21011294B9868294B984700283FF448
S1134EF0C7AD264B1B6800229A722F4B98479DE53D
S1134F0004AB00930023082219461846254DA847F0
S1134F1000283FF4B5AD9DF91030002BA1DA14AB95
S1134F20022203F8402D0093012307220021184692
S1134F30A84700283FF4A4AD144B1B6804225A73FD
S1134F408FE704AB00930023132219461846154D2E
S1134F50A84700283FF494AD9DF8103013F0010FDA
S1134F60ABD014AB022203F8402D0093012313228B
S1134F7000211846A84700283FF482AD034B1B6864
S1134F8001229A771A6852001A6096E7FC0A0020F8
S1134F90F92300003311080081240000C524000017
S1134FA02D25000085490000289000007D23000085
S1134FB045480000A9230000ED49000040252A4689
S1134FC0002104A8214B98470123019300932B4609
S1134FD01F4A204920488068204DA84700283FF4F4
S1134FE04FAD012204A91C4B98681D4B984700281B
S1134FF03FF446AD184B98681A4B984700283FF485
S11350003FAD154B9868184B984710F0800F7FF40C
S113501037AD9DF8203003F00F030F2B3FF456AF4C
S11350209DF82D309DF82C2053EA02237FF428ADFF
S1135030094DA8680D4B98472B6801229A771A6886
S113504052001A6042E74FF000082CE51566000094
S113505001FFFF8006110800FC0A002081240000E3
S1135060C52400002D25000029240000D1230000C0
S113507008B5054B984708B1002008BD034B984775
S1135080034B1B68D87A08BD71480000ED49000045
S1135090FC0A002008B5054B984708B1002008BD5C
S11350A0034B9847034B1B68586808BD71480000C0
S11350B0ED490000FC0A0020194B5B6B002B2BD040
S11350C070B582B0850033F92030B3F1FF3F25D0AD
S11350D0DEB201A8134B984773091349DB01CA18C0
S11350E0C958136A14695C400C405C4001A80F4B1A
S11350F0984706F01F03012202FA03F3234214BF68
S113510010460020064B5B6B1D446B88984214BF0D
S11351100020012002B070BD002070470020F9E794
S1135120FC0A0020AD20000000800041BB200000EC
S11351302DE9F04782B08A469146294B984780462C
S113514018B1404602B0BDE8F087264D264C274EE4
S1135150274F23681A89120441F20D11A068B04741
S113516030B1A068B84710F4807F18D1013DF0D168
S1135170204B98474FF00508E3E71B4B98681C4BFE
S113518098471D4B03402BB9174BA3F83090A3F855
S11351903890D6E7174B98474FF00508D1E7174BDF
S11351A01749B9F1010F98BF19460F4B1B68DB7AF9
S11351B013F0080F01D14FEA4A2A0B4B98680123D8
S11351C00193CDF800904FF4007352460D4CA04764
S11351D00028D2D1074B98474FF00508B1E700BF2C
S11351E071480000410D0300FC0A0020F92300006F
S11351F029240000ED490000000058E411110800C2
S1135200121110008124000070B506460C460D4DA5
S1135210288E40F2A7520C49A04234BF002001203E
S11352200A4B984722463146A868094B984718B953
S113523000222A86052070BD024A138E1C1B148688
S1135240002070BDFC0A0020C49000001527000057
S1135250C524000010B50446164B9868164B9847B1
S113526008B9052010BD94B10022124B1A86114BC7
S11352701B8F012B11D0002243F20C110D4B9868A7
S11352800E4B984768B10E4B9847002010BD094B50
S11352901B8E002BEBD0002010BD094B984700203B
S11352A010BD002243F20C11024B9868034B98473F
S11352B0E9E700BFFC0A00202D250000F9230000C7
S11352C0ED490000F0B583B007460E4615461C4B69
S11352D09847044610B1204603B0F0BD3846194B38
S11352E09847D0B9184B1949012D98BF1946184B46
S11352F01B68DB7A13F0080F08BF7602144B98681A
S11353000123019300954FF400733246114EB047C8
S113531038B9114B98470524DDE70F4B984707240C
S1135320D9E70B4B98680D4B98470D4B03401BB9BD
S1135330074B1D861D87CEE7074B98470524CAE710
S113534071480000B950000018910800199110002C
S1135350FC0A002081240000ED49000029240000FB
S1135360000058E470B506460C460D4D288E40F2F8
S1135370FA520C49A04234BF002001200A4B98473E
S113538022463146A868094B984718B900222A8654
S1135390052070BD024A138E1C1B1486002070BDAC
S11353A0FC0A0020C490000015270000F924000026
S11353B010B50446144B9868144B984708B9052057
S11353C010BD94B10022104B1A860F4B1B8F012B7A
S11353D011D0002243F20C110B4B98680C4B9847E8
S11353E068B90C4B9847052010BD074B1B8E002B4A
S11353F0EBD0002010BD074B9847002010BD054B93
S11354009847002010BD00BFFC0A0020552500006D
S1135410F9230000ED490000364A536943F4004380
S113542053614022344BC3F8A420344A92F84730E5
S113543003F0FE0343F0010382F8473092F833305F
S113544003F00F0343F0400382F833302C4B1B6905
S113545013F0010F1FD12A4A136913F0030FFBD174
S1135460274B1B6813F0020F0DD0254A136823F055
S113547002031360136913F0030FFBD1204A13696D
S113548013F0020FFBD101221D4B1A601A46136957
S113549013F0030FFBD11A4A136913F0010FFBD168
S11354A0184A174B1A601A46136913F0030FFBD1FD
S11354B0134B00225A71FF221A7103221A7340F609
S11354C0E1029A831A46136913F0C00FFBD140F22C
S11354D077120B4BDA831A46136913F0C00FFBD112
S11354E0074A136843F002031360136913F0030FB0
S11354F0FBD1704700080040001C004000800041C0
S1135500003C00401004001270B52B4B98472B4C04
S113551000222B4BA0472B4D00222B4BA8470022E7
S11355202A4B2B4EB04720A3D3E90023A84720A33E
S1135530D3E90023A047274B984780B2264B1B6929
S113554013F0010F17D1244A136913F0030FFBD191
S1135550214B1B6813F0020F0DD01F4A136823F070
S113556002031360136913F0030FFBD11A4A136982
S113557013F0020FFBD1184A136913F0010FFBD18A
S1135580154BD8831A46136913F0C00FFBD1124A86
S1135590136843F002031360136913F0030FFBD184
S11355A070BD00BFAFF300800000000000C2A14046
S11355B00000000000ACA740395A0000595D00000B
S11355C000806640055B000000409F4000407F4033
S11355D0A1570000295F0000003C0040F0B583B0F3
S11355E00023019300931D4E1D4D1E4C04E01E4BE1
S11355F01B6858681D4B984731462846A04701A9A7
S11356001B481C4B98470028F1D001991A48A04721
S1135610019B012B05D0022B08D01848184B984742
S1135620EAE71848164B984703B0F0BD1648A04760
S11356300F4F694638460F4B984700993846A047A4
S11356400099B42903D911480D4B9847D4E7104861
S1135650A04700980F4B9847CEE700BF8C0200206C
S1135660848500007D670000DC020020DD6300000B
S1135670308500009568000088850000C085000022
S113568065680000A4850000D8900000EC9000003C
S1135690289100000955000008B5044B9847044BB5
S11356A09847044B9847044B984708BD8D08000061
S11356B0BD5600000D350000B509000010B5044CBE
S11356C02046044B98472046034B984710BD00BF23
S11356D0480B0020992600002157000040B908B566
S11356E00B4611461846044B984740EAE07008BD43
S11356F04FF0FF30704700BF4D57000001380228BB
S113570008D808B50B4611461846044B984740EA9A
S1135710E07008BD4FF0FF30704700BF71570000C4
S113572070B50646064D2B6800219868054CA047C5
S11357302B6800215868A047034B1E6070BD00BF52
S1135740DC020020C5680000380B002008B5064BB9
S11357501B6833B10A46014692B21846034B984778
S113576008BD002008BD00BF380B0020B522000092
S113577008B5064B1B6833B10A46014692B2184677
S1135780034B984708BD002008BD00BF380B00201C
S11357908522000081F0004102E000BF83F0004355
S11357A030B54FEA41044FEA430594EA050F08BFB8
S11357B090EA020F1FBF54EA000C55EA020C7FEA7C
S11357C0645C7FEA655C00F0E2804FEA5454D4EBF9
S11357D05555B8BF6D420CDD2C4480EA020281EAC3
S11357E0030382EA000083EA010180EA020281EAFB
S11357F00303362D88BF30BD11F0004F4FEA01314D
S11358004FF4801C4CEA113102D0404261EB41015B
S113581013F0004F4FEA03334CEA133302D05242E1
S113582063EB430394EA050F00F0A780A4F101049D
S1135830D5F1200E0DDB02FA0EFC22FA05F28018D7
S113584041F1000103FA0EF2801843FA05F35941BD
S11358500EE0A5F120050EF1200E012A03FA0EFC3C
S113586028BF4CF0020C43FA05F3C01851EBE37166
S113587001F0004507D54FF0000EDCF1000C7EEB83
S113588000006EEB0101B1F5801F1BD3B1F5001FC1
S11358900CD349085FEA30004FEA3C0C04F10104E0
S11358A04FEA445212F5800F80F09A80BCF1004F09
S11358B008BF5FEA500C50F1000041EB045141EA8B
S11358C0050130BD5FEA4C0C404141EB010111F48C
S11358D0801FA4F10104E9D191F0000F04BF014637
S11358E00020B1FA81F308BF2033A3F10B03B3F115
S11358F020020CDA0C3208DD02F1140CC2F10C02A5
S113590001FA0CF021FA02F10CE002F11402D8BF02
S1135910C2F1200C01FA02F120FA0CFCDCBF41EACE
S11359200C019040E41AA2BF01EB0451294330BD9D
S11359306FEA04041F3C1CDA0C340EDC04F114047A
S1135940C4F1200220FA04F001FA02F340EA030051
S113595021FA04F345EA030130BDC4F10C04C4F197
S1135960200220FA02F001FA04F340EA0300294677
S113597030BD21FA04F0294630BD94F0000F83F4C1
S1135980801306BF81F480110134013D4EE77FEAA4
S1135990645C18BF7FEA655C29D094EA050F08BFF0
S11359A090EA020F05D054EA000C04BF19461046D1
S11359B030BD91EA030F1EBF0021002030BD5FEA15
S11359C0545C05D14000494128BF41F0004130BD3D
S11359D014F580043CBF01F5801130BD01F0004591
S11359E045F0FE4141F470014FF0000030BD7FEA04
S11359F0645C1ABF194610467FEA655C1CBF0B46FF
S1135A00024650EA013406BF52EA033591EA030F15
S1135A1041F4002130BD00BF90F0000F04BF00210D
S1135A20704730B54FF4806404F132044FF0000540
S1135A304FF0000150E700BF90F0000F04BF0021B9
S1135A40704730B54FF4806404F1320410F000451F
S1135A5048BF40424FF000013EE700BF42004FEA1A
S1135A60E2014FEA31014FEA02701FBF12F07F4397
S1135A7093F07F4F81F06051704792F0000F14BF94
S1135A8093F07F4F704730B54FF4607401F00045D8
S1135A9021F0004120E700BF50EA010208BF70472F
S1135AA030B54FF000050AE050EA010208BF704724
S1135AB030B511F0004502D5404261EB41014FF48D
S1135AC0806404F132045FEA915C3FF4DCAE4FF091
S1135AD003025FEADC0C18BF03325FEADC0C18BF78
S1135AE0033202EBDC02C2F1200300FA03FC20FAC9
S1135AF002F001FA03FE40EA0E0021FA02F1144416
S1135B00C1E600BF70B54FF0FF0C4CF4E06C1CEA2A
S1135B1011541DBF1CEA135594EA0C0F95EA0C0F9F
S1135B2000F0DEF82C4481EA030621EA4C5123EA12
S1135B304C5350EA013518BF52EA033541F4801141
S1135B4043F4801338D0A0FB02CE4FF00005E1FBF4
S1135B5002E506F00042E0FB03E54FF00006E1FB3E
S1135B6003569CF0000F18BF4EF0010EA4F1FF0481
S1135B70B6F5007F64F5407404D25FEA4E0E6D41C1
S1135B8046EB060642EAC62141EA55514FEAC520D2
S1135B9040EA5E504FEACE2EB4F1FD0C88BFBCF54E
S1135BA0E06F1ED8BEF1004F08BF5FEA500E50F1FF
S1135BB0000041EB045170BD06F0004646EA0101C5
S1135BC040EA020081EA0301B4EB5C04C2BFD4EBF7
S1135BD00C0541EA045170BD41F480114FF0000EF0
S1135BE0013C00F3AB8014F1360FDEBF002001F05E
S1135BF0004170BDC4F10004203C35DA0C341BDCD8
S1135C0004F11404C4F1200500FA05F320FA04F0A9
S1135C1001FA05F240EA020001F0004221F00041DD
S1135C2010EBD37021FA04F642EB06015EEA430E50
S1135C3008BF20EAD37070BDC4F10C04C4F1200580
S1135C4000FA04F320FA05F001FA04F240EA020033
S1135C5001F0004110EBD37041F100015EEA430E04
S1135C6008BF20EAD37070BDC4F1200500FA05F224
S1135C704EEA020E20FA04F301FA05F243EA0203A3
S1135C8021FA04F001F0004121FA04F220EA0200B2
S1135C9000EBD3705EEA430E08BF20EAD37070BDF8
S1135CA094F0000F0FD101F00046400041EB0101D8
S1135CB011F4801F08BF013CF7D041EA060195F0BA
S1135CC0000F18BF704703F00046520043EB030374
S1135CD013F4801F08BF013DF7D043EA0603704761
S1135CE094EA0C0F0CEA135518BF95EA0C0F0CD06C
