S01900006C616D732D78706C61696E65642D70726F2E737265635E
S113000050040120F1020000ED020000D9100000AC
S1130010ED020000ED020000ED020000000000000F
S1130020000000000000000000000000ED020000DD
S1130030ED02000000000000ED020000ED020000EF
S1130040ED020000ED020000ED020000ED020000F0
S1130050ED020000ED020000ED020000ED020000E0
S1130060ED020000ED020000ED020000ED020000D0
S1130070ED020000ED020000ED020000ED020000C0
S1130080ED020000ED020000ED020000ED020000B0
S1130090ED020000ED020000ED020000ED020000A0
S11300A0ED020000ED020000ED020000ED02000090
S11300B0ED020000ED020000ED020000ED02000080
S11300C0ED020000ED020000ED020000ED02000070
S11300D0ED020000ED020000ED020000ED02000060
S11300E0ED020000ED02000000000000000000002E
S11300F000000000890B0000ED020000ED0200008A
S1130100ED020000ED020000ED020000ED0200002F
S1130110ED020000ED020000ED020000ED0200001F
S1130120ED020000ED020000ED020000ED0200000F
S1130130ED020000ED020000ED020000ED020000FF
S1130140ED020000ED020000ED020000ED020000EF
S1130150ED020000ED020000ED020000ED020000DF
S1130160ED020000ED020000ED020000ED020000CF
S1130170ED020000ED020000ED020000ED020000BF
S1130180ED020000ED020000ED020000ED020000AF
S1130190ED020000ED020000ED020000ED0200009F
S11301A0ED020000ED020000ED020000ED0200008F
S11301B0ED020000ED020000ED020000ED0200007F
S11301C0ED020000ED020000ED020000ED0200006F
S11301D0ED020000ED020000ED020000ED0200005F
S11301E0ED020000ED020000ED020000DD0F000052
S11301F0ED020000ED020000ED020000ED0200003F
S1130200ED020000ED020000ED020000ED0200002E
S1130210ED020000ED020000ED020000ED0200001E
S1130220ED020000ED020000ED020000ED0200000E
S1130230ED020000ED020000ED020000ED020000FE
S1130240ED020000ED020000ED020000ED020000EE
S1130250ED020000ED020000ED020000ED020000DE
S1130260ED02000010B5054C237833B9044B13B1EB
S11302700448AFF300800123237010BD180300204D
S113028000000000244300000C4B43B10C480D490E
S113029010B5AFF300800C48036823B910BD0A48B9
S11302A0036833B97047094B002BF7D0BDE8104001
S11302B01847064B002BF5D0184700BF000000007C
S11302C0244300001C03002024430000000000001D
S11302D008B5034B9847034B9847034B984708BD11
S11302E0690700004D170000D9110000FEE7000067
S11302F008B51C4B1C4A9A4210D01C4B194A9A420E
S11303000CD2013B9B1A23F0030304331344164914
S113031051F8040B42F8040B9A42F9D1144B154AD4
S11303209A420AD2013B9B1A23F003030433134479
S1130330002142F8041B9342FBD10F4B0F4A22F0D9
S11303407F029A60D3F8882042F47002C3F88820B0
S1130350BFF34F8FBFF36F8F094B9847094B9847F3
S1130360FEE700BF00000020244300001803002023
S11303704C0400201803002000ED00E00000000001
S113038095220000ED100000104B93F8442002F079
S1130390FE0242F0010283F8442093F8322002F076
S11303A0F00242F0030283F8322093F8452002F071
S11303B0FE0242F0010283F8452093F8322002F055
S11303C00F0242F0300283F832207047008000416F
S11303D0064B4022C3F89C204322C3F88C20044AD5
S11303E0536943F480535361704700BF001C0040BD
S11303F00008004008B5054B984700220449054809
S1130400054B9847054B984708BD00BFD103000032
S11304100030004028040020310A00008903000055
S1130420104B93F8D92002F0FE0242F0010283F847
S1130430D92093F8BC2002F00F0242F0300283F876
S1130440BC2093F8D82002F0FE0242F0010283F8A7
S1130450D82093F8BC2002F0F00242F0030283F8A3
S1130460BC20704700800041064B4022C3F8DC20CA
S11304704322C3F88C20044A936943F400739361C4
S1130480704700BF001C00400008004008B5054B41
S11304909847002204490548054B9847054B98475F
S11304A008BD00BF6904000000200141E8030020EA
S11304B0310A000021040000F0B45E4B4FF4001038
S11304C098604FF080429A625B4C9C62586193F84A
S11304D0551001F0FB0183F8551093F8551001F005
S11304E0FE0141F0010183F8551093F83A1001F030
S11304F00F0141F0800183F83A104FF480159D609C
S11305009A624E4E9E625D6193F8541001F0FB01B5
S113051083F8541093F8541001F0FE0141F00101E6
S113052083F8541093F83A1001F0F00141F00801F7
S113053083F83A104FF48021C3F88810C3F8A82038
S11305403F4FC3F8A870C3F8941093F8D21001F089
S1130550FB0183F8D21093F8D21001F0FE0141F0B0
S1130560010183F8D21093F8B91001F0F00141F0C1
S1130570080183F8B9104FF40021C3F88810C3F8B8
S1130580A8200437C3F8A870C3F8941093F8D310C4
S113059001F0FB0183F8D31093F8D31001F0FE01AE
S11305A041F0010183F8D31093F8B91001F00F0161
S11305B041F0800183F8B910C3F88850C3F8A8202B
S11305C0C3F8A860C3F8945093F8D41001F0FB0169
S11305D083F8D41093F8D41001F0FE0141F0010126
S11305E083F8D41093F8BA1001F0F00141F0080137
S11305F083F8BA10C3F88800C3F8A820C3F8A84049
S1130600C3F8940093F8D52002F0FB0283F8D520B8
S113061093F8D52002F0FE0242F0010283F8D520BF
S113062093F8BA2002F00F0242F0800283F8BA2055
S1130630F0BC704700800041200000C0100000C0E2
S1130640040000C0054A136943F480331361044B6A
S11306504022C3F83821C3F88C20704700080040BA
S1130660001C004008B5054B98474FF08C410448E6
S1130670044B9847044B984708BD00BF450600004B
S113068010040020D5080000B9040000084A92F8BC
S1130690DE3003F0FE0343F0010382F8DE3092F80B
S11306A0BF3003F0F00343F0040382F8BF30704717
S11306B000800041044A536943F48043536140225B
S11306C0024BC3F8A420704700080040001C0040FF
S11306D008B5064B9847064B9847064B9847024681
S11306E005490648064B984708BD00BFB5060000FB
S11306F08D060000D90F000000380040F4030020EC
S113070019090000104B93F8462002F0FE0242F053
S1130710010283F8462093F8332002F0F00242F0FD
S1130720040283F8332093F8472002F0FE0242F0DB
S1130730010283F8472093F8332002F00F0242F0BD
S1130740400283F83320704700800041044A536913
S113075043F4004353614022024BC3F8A420704782
S113076000080040001C004008B5354B9847354B45
S11307704FF00041C3F88410334AC3F8A82033482B
S1130780C3F8A800C3F8841093F8DF0040F0040015
S113079083F8DF00C3F8981093F8DF1001F0FE012E
S11307A083F8DF104FF48021C3F81411C3F8081143
S11307B04FF08041C3F828112549C3F8281193F854
S11307C0521101F0FE0183F852114FF48011C3F865
S11307D08411C3F8A8211F49C3F8A81193F8D411B0
S11307E001F0FB0183F8D41193F8D41101F0FE0158
S11307F083F8D4114FF40011C3F88411C3F8A8216D
S113080002F100422032C3F8A82193F8D52102F066
S1130810FB0283F8D52193F8D52102F0FE0283F878
S1130820D5210D4B98470D4B98470D4B98470D4BD1
S113083098470D4B98470D4B98470D4B984708BD6B
S1130840E90A00000080004100000240008002C06C
S1130850040000C0100002C0F50300008D04000075
S113086065060000D10600004D07000005070000E2
S11308701510000070B50D461646044660B1081CFC
S113088018BF012034220549054B98472368324696
S113089029462046984770BD0020F3E7A03C00009D
S11308A0A50A000070B50D461646044660B1081C42
S11308B018BF01203D220549054B9847636832461D
S11308C029462046984770BD0020F3E7A03C00006D
S11308D0A50A000038B50C46054658B1081C18BFD7
S11308E0012031220449054B984721462846044BF0
S11308F0984738BD0020F4E7B43C0000A50A000086
S1130900CD0B000008B5436903B1984708BD08B58D
S1130910836903B1984708BD38B50D46044680B1D4
S1130920081C18BF012033220749084B9847294661
S11309302046074B9847074B2360074B6360002012
S113094038BD0020EFE700BFD03C0000A50A00003E
S1130950690E0000050900000F0900002DE9F843A5
S11309600F469046044628B331B3101C18BF01202B
S1130970F1221249124B98470834124D2046A847D9
S11309800028FBD0013F0026DFF840900D4D17F8FA
S1130990011F2046C8472046A8470028FBD001363F
S11309A04645F4D3084D2046A8470028FBD03046DE
S11309B0BDE8F8830020DBE70020D9E7E83C00002D
S11309C0A50A0000E30D0000ED0D0000D50D0000A8
S11309D02DE9F8430F4690460446E0B1E9B1101CF6
S11309E018BF01204FF486720D490E4B9847013F02
S11309F0002608340C4DDFF834902046A847002820
S1130A00FBD02046C84707F8010F01364645F4D30A
S1130A103046BDE8F8830020E4E70020E2E700BFA9
S1130A20E83C0000A50A0000F70D0000DB0D000003
S1130A3038B50D46044698B1081C18BF012034226D
S1130A400849094B9847294604F10800074B984781
S1130A50034618B9064A6260064A2260184638BD41
S1130A600020ECE7E83C0000A50A0000950D00001A
S1130A70D10900005D09000010B50446532206495F
S1130A80003018BF0120054B984704F10800044BBF
S1130A909847002010BD00BFE83C0000A50A0000F4
S1130AA0C10D000000B900BE704700000346064AAD
S1130AB0126822B1044A1068034413607047034962
S1130AC0014A1160F6E700BF3403002050040120FE
S1130AD04FF0FF3070474FF400534B6000207047D5
S1130AE0012070470020704708B5084A13889BB25C
S1130AF01380074B9847074B9847074B9847074B7A
S1130B00984740F6FF70064B984708BD00400041E7
S1130B10550B0000690B0000490B0000850B000019
S1130B20250B000010F0010F08D0054A054B1A628E
S1130B30194643F6FD724B681342FCD1704700BF5F
S1130B4001010100001C00400122014B5A71704751
S1130B5000080040034BDA6902F47C52DA61012296
S1130B601A74704700140040044A054B9A611A46EF
S1130B70136913F0020FFBD0704700BF0626000371
S1130B80001000407047000000B583B00D4B9B7807
S1130B90DBB20193019B13F0020F06D00A4B1B68D2
S1130BA01BB1084A5068984709E0019B13F0010FF4
S1130BB005D0054B5B6813B1024A5068984703B0EF
S1130BC05DF804FB000002413404002038B50C46F3
S1130BD0054640B3081C18BF0120D8221349144B02
S1130BE098472C6094F82F3043F0010384F82F3099
S1130BF094F82F3013F0010FFAD10E2384F82E301D
S1130C000F2384F82930A38E9BB26FEA53236FEA33
S1130C104323A386E38E9BB26FEA93236FEA832375
S1130C20E386002038BD0020D7E700BF043D000064
S1130C30A50A000070B489B006466C460D4D0FCD70
S1130C400FC495E80F0084E80F00009BB3420DD059
S1130C50314601AB012053F8042B8A4207D00130FE
S1130C600828F8D1002009B070BC70470020C0B239
S1130C70F9E700BF1C3D000010B50446414B9847FE
S1130C8000285CD002285CD040F247223E49002074
S1130C903E4B98470021E36913F0010F22D14B002A
S1130CA05A183B4B03EBC2035A6A02F01C02E36975
S1130CB013F0030FFBD1236813F0020F0BD023684A
S1130CC023F002032360E36913F0030FFBD1E3690C
S1130CD013F0020FFBD142F001022260E36913F02A
S1130CE0030FFBD1E36913F0010FFBD10A464B005C
S1130CF00B44274901EBC301486A2060E36913F000
S1130D00030FFBD153009918214B03EBC1039B6ADA
S1130D106360E36913F01F0FFBD1530099181C4B58
S1130D2003EBC103DB6AA36010F4C04F0BD1530083
S1130D309918174B03EBC1031B8EA38111E000210B
S1130D40A9E70121A7E7124B03EBC103188EA18980
S1130D5060F30C01A18193F83210A38961F34F333E
S1130D60A3810B4B5100881803EBC00090F83300AB
S1130D70A0730A4403EBC20393F8343084F8303090
S1130D80002010BD350C0000843D0000A50A0000C1
S1130D901C3D000038B50C460546BB220549003011
S1130DA018BF0120044B98472C602046034B9847FA
S1130DB038BD00BF843D0000A50A0000790C000086
S1130DC00268136843F002031360D36913F0030F3E
S1130DD0FBD170470368996270470368986AC0B290
S1130DE070470368187E00F0010070470368187E9E
S1130DF0C0F3400070470368187EC0F3800070475A
S1130E0070B588B006466C46134D0FCD0FC495E8F7
S1130E100F0084E80F00009BB3421AD0304601AAA9
S1130E20012352F8041B814214D00133082BF8D15A
S1130E3000230A4A12789A4208BF002007D04FF4D0
S1130E40AA7207490020074B98474FF0FF3008B0BB
S1130E5070BD0023DBB2ECE7A03D000000000020E1
S1130E60C03D0000A50A000038B505460C460846FA
S1130E70544B98472C61236913F0010F19D123694E
S1130E8013F0030FFBD1236813F0020F0BD0236878
S1130E9023F002032360236913F0030FFBD12369BA
S1130EA013F0020FFBD101232360236913F0030F16
S1130EB0FBD1236913F0010FFBD100EB8003424AFD
S1130EC002EB83035A682260236913F0030FFBD1FA
S1130ED000EB80033C4901EB8303997AE1731B899E
S1130EE0E3800323237302F00C02082A4BD0002A68
S1130EF060D100EB8003344A02EB83039B89A38314
S1130F00236913F0C00FFBD100EB80032E4A02EBE0
S1130F1083031B8AE383236913F0C00FFBD12B4B9C
S1130F209C4204BF2A4B1D6000EB8003264A02EB5F
S1130F308303B3F90230002B3FDB5A0903F01F038C
S1130F40012101FA03F32032224941F82230BFF390
S1130F504F8FBFF36F8F00EB80001B4B03EB8000C0
S1130F60B0F90230002B2ADB590903F01F030122D8
S1130F7002FA03F3174A01F1600042F8203042F804
S1130F802130002038BD00EB80030F4A02EB8303BD
S1130F90DB68E361236913F0C00FFBD100EB80032E
S1130FA0094A02EB83031B692362236913F0C00F10
S1130FB0FBD1B4E74FF0FF3038BD002038BD00202E
S1130FC038BD00BF010E00000000002000380040C2
S1130FD03803002000E100E00020704738B50C4BD6
S1130FE01D682C69A37A13F0010F05D00123A372A5
S1130FF02B680BB128469847637A13F0020F05D08B
S11310000223A3726B680BB12846984738BD00BF12
S1131010380300202E4B1B6913F0010F1FD12C4AFB
S1131020136913F0030FFBD1294B1B6813F0020F54
S11310300DD0274A136823F002031360136913F0D9
S1131040030FFBD1224A136913F0020FFBD10122D3
S11310501F4B1A601A46136913F0030FFBD11C4A85
S1131060136913F0010FFBD11A4A194B1A601A467F
S1131070136913F0030FFBD1154B00225A71FF22A1
S11310801A7103221A7340F6E1029A831A4613690D
S113109013F0C00FFBD140F277120D4BDA831A46DE
S11310A0136913F0C00FFBD140F6E102084B9A829A
S11310B01A46136913F0100FFBD1054A136843F065
S11310C002031360136913F0030FFBD10020704770
S11310D0003C00401004001208B50248024B984737
S11310E0FEE700BFD43D00002D25000080B582B08E
S11310F0204B98472048214B9847214B9847002084
S1131100204B9847204F214E214D04E0214B1B6872
S11311105868214B984702AC002344F8043D3946F3
S11311203046A84721461D481D4B98470028EDD05E
S113113001991C48A847019B022B10D0032B11D006
S1131140012B12D1BFF34F8F1749CA6802F4E06232
S1131150164B1343CB60BFF34F8F00BFFDE7144B17
S11311609847D8E7134B9847D5E71348034B98475C
S1131170D1E700BFD1020000003E00002D25000091
S113118069140000F9110000140000203C3E000026
S11311904524000048010020A5200000344100003F
S11311A05D250000403E000000ED00E00400FA056B
S11311B0E1150000DD1200005C3E000010B4054B98
S11311C004249C76FF241C719860D9605A635DF8EE
S11311D0044B70473C03002008B503490A46043118
S11311E00248034B984708BD6C00002010040020FF
S11311F0BD11000000000000F8B504462C4B9847D0
S11312002C4D00222C4BA8472C4E00222C4BB047CF
S113121000222C4B2C4FB84721A3D3E90023B0471D
S113122021A3D3E90023A847284B984782B2284B2F
S11312301B6913F0010F17D125490B6913F0030F34
S1131240FBD1234B1B6813F0020F0DD020490B6810
S113125023F002030B600B6913F0030FFBD11C494D
S11312600B6913F0020FFBD119490B6913F0010F3D
S1131270FBD1174BDA8319460B6913F0C00FFBD16E
S113128013490B6843F002030B600B6913F0030F5F
S1131290FBD121460F48104B9847F8BDAFF30080AF
S11312A00000000000C2A1400000000000ACA74004
S11312B0111A0000311D000000806640DD1A000094
S11312C000409F4000407F4079170000011F00004C
S11312D0003C0040703E00004524000070B582B020
S11312E0002301930093194E194D1A4C04E01A4B34
S11312F01B685868194B984731462846A04701A9EE
S11313001748184B98470028F1D001991648A04770
S1131310019B012B05D0022B08D01448144B98478D
S1131320EAE71448124B984702B070BD1248A04730
S113133069460B480B4B98470099B42902D90F48CA
S1131340A047D9E708460E4B9847D5E7740000201C
S11313503C3E00004524000048010020A520000078
S1131360344100005D250000403E0000083F0000BD
S11313702D2500009C3E0000B83E0000CC3E00003D
S1131380F911000070B504460B4AD36A13F0040F38
S1131390FBD10A4E33681A5D094D2A70214609486B
S11313A0094B984732682B78B3FA83F35B091355DA
S11313B00648074B984770BD00400041C400002018
S11313C0440400201C3F000045240000403F00006E
S11313D02D25000008B50B4AD36A13F0040FFBD186
S11313E0084BDB6A13F4706F08D0074B5B6818680E
S11313F0B0F15A3018BF4FF0FF3008BD0348044B1A
S11314009847FEE700400041C4000020743F0000FC
S11314102D2500002DE9F843C9B10E46451E0024D0
S1131420DFF840800C4FDFF8389003E00134A4B2B9
S1131430A6420CD015F8011F4046B84714F0070F18
S1131440F4D1002CF2D04846044B9847EEE7044808
S1131450024B9847BDE8F883452400002D25000081
S11314600C410000B03F000008B5194B9847D0B9B3
S11314701848194B9847194BD96ADA6AC2F30242E1
S1131480C1F303211648174B98472020164B984761
S1131490164B1B6893F820309BB94FF48022144BF1
S11314A0C3F8142108BD13480B4B98470B4AD36A61
S11314B013F0040FFBD10D4B5B684FF05A321A60E6
S11314C0D9E74FF480220A4BC3F8182108BD00BFA6
S11314D0D5130000B83F00002D2500000040004156
S11314E0184000004524000085130000C4000020BB
S11314F000800041DC3F000008B50A4B1A68013A3D
S11315000948431E633012F8011F03F8011F834288
S1131510F9D164210548064B984764210248054BDC
S1131520984708BDC400002078030020AC400000A8
S1131530452400001514000030B583B00023019346
S113154002AC44F8083D1A481A4B984721461A48F9
S11315501A4B9847009BB3F5805F24D21848154D69
S1131560A84701A91448154B9847164C22680199BD
S1131570009BD154009A01991348A8472268013A64
S11315801248431E633012F8011F03F8011F8342FF
S1131590F9D164210E48074B984764210B480D4B41
S11315A0984703B030BD0C480C4B9847F9E700BF8F
S11315B0D440000045240000344100005D250000B3
S11315C010410000C40000202441000078030020E2
S11315D0AC40000015140000E84000002D25000078
S11315E070B582B0002301931B4E1C4D1C4C314638
S11315F02846A04701A91B481B4B984750B10199A5
S11316001A48A047019B013B032B21D8DFE803F0D4
S113161008151A1D164B1B685868164B9847EEE7B9
S1131620BFF34F8F1449CA6802F4E062134B1343AB
S1131630CB60BFF34F8F00BFFDE71148114B9847B4
S113164002B070BD104B9847D1E7104B9847CEE7D6
S11316500F480C4B9847CAE7CC0000203C3E0000E2
S113166045240000344100005D250000403E000098
S113167048010020A520000000ED00E00400FA0568
S11316809C3E00002D250000F914000039150000CF
S1131690083F000040B908B50B4611461846044BF4
S11316A0984740EAE07008BD4FF0FF30704700BF34
S11316B0051700000138022808D808B50B46114662
S11316C01846044B984740EAE07008BD4FF0FF30DD
S11316D0704700BF2917000070B50646064D2B68F9
S11316E000219868054CA0472B6800215868A04742
S11316F0034B1E6070BD00BF480100208D25000013
S1131700DC03002008B5064B1B6833B10A460146CA
S113171092B21846034B984708BD002008BD00BF8D
S1131720DC030020A508000008B5064B1B6833B194
S11317300A46014692B21846034B984708BD00205A
S113174008BD00BFDC0300207508000010B5044C80
S11317502046044B98472046034B984710BD00BFD2
S1131760E8030020790A0000D916000081F0004146
S113177002E000BF83F0004330B54FEA41044FEA72
S1131780430594EA050F08BF90EA020F1FBF54EA0D
S1131790000C55EA020C7FEA645C7FEA655C00F0A9
S11317A0E2804FEA5454D4EB5555B8BF6D420CDD7A
S11317B02C4480EA020281EA030382EA000083EAFD
S11317C0010180EA020281EA0303362D88BF30BD9D
S11317D011F0004F4FEA01314FF4801C4CEA1131F3
S11317E002D0404261EB410113F0004F4FEA033352
S11317F04CEA133302D0524263EB430394EA050FDD
S113180000F0A780A4F10104D5F1200E0DDB02FA4B
S11318100EFC22FA05F2801841F1000103FA0EF2DF
S1131820801843FA05F359410EE0A5F120050EF1A5
S1131830200E012A03FA0EFC28BF4CF0020C43FAD6
S113184005F3C01851EBE37101F0004507D54FF0E3
S1131850000EDCF1000C7EEB00006EEB0101B1F533
S1131860801F1BD3B1F5001F0CD349085FEA300079
S11318704FEA3C0C04F101044FEA445212F5800F84
S113188080F09A80BCF1004F08BF5FEA500C50F121
S1131890000041EB045141EA050130BD5FEA4C0C04
S11318A0404141EB010111F4801FA4F10104E9D18D
S11318B091F0000F04BF01460020B1FA81F308BF84
S11318C02033A3F10B03B3F120020CDA0C3208DD50
S11318D002F1140CC2F10C0201FA0CF021FA02F12B
S11318E00CE002F11402D8BFC2F1200C01FA02F19B
S11318F020FA0CFCDCBF41EA0C019040E41AA2BFC0
S113190001EB0451294330BD6FEA04041F3C1CDA87
S11319100C340EDC04F11404C4F1200220FA04F0A7
S113192001FA02F340EA030021FA04F345EA030151
S113193030BDC4F10C04C4F1200220FA02F001FA13
S113194004F340EA0300294630BD21FA04F0294695
S113195030BD94F0000F83F4801306BF81F480112E
S11319600134013D4EE77FEA645C18BF7FEA655CA1
S113197029D094EA050F08BF90EA020F05D054EA73
S1131980000C04BF1946104630BD91EA030F1EBF78
S11319900021002030BD5FEA545C05D1400049417C
S11319A028BF41F0004130BD14F580043CBF01F56F
S11319B0801130BD01F0004545F0FE4141F4700155
S11319C04FF0000030BD7FEA645C1ABF1946104630
S11319D07FEA655C1CBF0B46024650EA013406BF31
S11319E052EA033591EA030F41F4002130BD00BFF0
S11319F090F0000F04BF0021704730B54FF48064AD
S1131A0004F132044FF000054FF0000150E700BF2D
S1131A1090F0000F04BF0021704730B54FF480648C
S1131A2004F1320410F0004548BF40424FF0000179
S1131A303EE700BF42004FEAE2014FEA31014FEABC
S1131A4002701FBF12F07F4393F07F4F81F060510B
S1131A50704792F0000F14BF93F07F4F704730B57A
S1131A604FF4607401F0004521F0004120E700BF0D
S1131A7050EA010208BF704730B54FF000050AE094
S1131A8050EA010208BF704730B511F0004502D595
S1131A90404261EB41014FF4806404F132045FEA97
S1131AA0915C3FF4DCAE4FF003025FEADC0C18BF3C
S1131AB003325FEADC0C18BF033202EBDC02C2F132
S1131AC0200300FA03FC20FA02F001FA03FE40EAC4
S1131AD00E0021FA02F11444C1E600BF70B54FF0C4
S1131AE0FF0C4CF4E06C1CEA11541DBF1CEA1355A6
S1131AF094EA0C0F95EA0C0F00F0DEF82C4481EA0E
S1131B00030621EA4C5123EA4C5350EA013518BF2D
S1131B1052EA033541F4801143F4801338D0A0FB1A
S1131B2002CE4FF00005E1FB02E506F00042E0FBC7
S1131B3003E54FF00006E1FB03569CF0000F18BFCD
S1131B404EF0010EA4F1FF04B6F5007F64F5407475
S1131B5004D25FEA4E0E6D4146EB060642EAC62108
S1131B6041EA55514FEAC52040EA5E504FEACE2E75
S1131B70B4F1FD0C88BFBCF5E06F1ED8BEF1004F78
S1131B8008BF5FEA500E50F1000041EB045170BDF4
S1131B9006F0004646EA010140EA020081EA030138
S1131BA0B4EB5C04C2BFD4EB0C0541EA045170BD34
S1131BB041F480114FF0000E013C00F3AB8014F1AE
S1131BC0360FDEBF002001F0004170BDC4F10004F7
S1131BD0203C35DA0C341BDC04F11404C4F1200578
S1131BE000FA05F320FA04F001FA05F240EA0200D3
S1131BF001F0004221F0004110EBD37021FA04F609
S1131C0042EB06015EEA430E08BF20EAD37070BDC2
S1131C10C4F10C04C4F1200500FA04F320FA05F021
S1131C2001FA04F240EA020001F0004110EBD37023
S1131C3041F100015EEA430E08BF20EAD37070BD93
S1131C40C4F1200500FA05F24EEA020E20FA04F36C
S1131C5001FA05F243EA020321FA04F001F000411B
S1131C6021FA04F220EA020000EBD3705EEA430E8C
S1131C7008BF20EAD37070BD94F0000F0FD101F0BB
S1131C800046400041EB010111F4801F08BF013CF4
S1131C90F7D041EA060195F0000F18BF704703F032
S1131CA00046520043EB030313F4801F08BF013DB9
S1131CB0F7D043EA0603704794EA0C0F0CEA135575
S1131CC018BF95EA0C0F0CD050EA410618BF52EA2F
S1131CD04306D1D181EA030101F000414FF0000035
S1131CE070BD50EA410606BF1046194652EA430643
S1131CF019D094EA0C0F02D150EA013613D195EAB7
S1131D000C0F05D152EA03361CBF104619460AD1FE
S1131D1081EA030101F0004141F0FE4141F4700108
S1131D204FF0000070BD41F0FE4141F4780170BDF8
S1131D3070B54FF0FF0C4CF4E06C1CEA11541DBF5D
S1131D401CEA135594EA0C0F95EA0C0F00F0A7F85F
S1131D50A4EB050481EA030E52EA03354FEA01318C
S1131D6000F088804FEA03334FF0805545EA13139F
S1131D7043EA12634FEA022245EA111545EA106567
S1131D804FEA00260EF000419D4208BF964244F1FE
S1131D90FD0404F5407402D25B084FEA3202B61A1D
S1131DA065EB03055B084FEA32024FF480104FF4F1
S1131DB0002CB6EB020E75EB030E22BFB61A754665
S1131DC040EA0C005B084FEA3202B6EB020E75EBF8
S1131DD0030E22BFB61A754640EA5C005B084FEA60
S1131DE03202B6EB020E75EB030E22BFB61A75462D
S1131DF040EA9C005B084FEA3202B6EB020E75EB38
S1131E00030E22BFB61A754640EADC0055EA060EF8
S1131E1018D04FEA051545EA16754FEA06164FEA3B
S1131E20C30343EA52734FEAC2025FEA1C1CC0D1E7
S1131E3011F4801F0BD141EA00014FF000004FF074
S1131E40004CB6E711F4801F04BF01430020B4F135
S1131E50FD0C88BFBCF5E06F3FF6AFAEB5EB030CED
S1131E6004BFB6EB020C5FEA500C50F1000041EBEA
S1131E70045170BD0EF0004E4EEA113114EB5C04B7
S1131E80C2BFD4EB0C0541EA045170BD41F480118A
S1131E904FF0000E013C90E645EA060E8DE60CEA92
S1131EA0135594EA0C0F08BF95EA0C0F3FF43BAFAF
S1131EB094EA0C0F0AD150EA01347FF434AF95EA66
S1131EC00C0F7FF425AF104619462CE795EA0C0F4A
S1131ED006D152EA03353FF4FDAE1046194622E717
S1131EE050EA410618BF52EA43067FF4C5AE50EAF1
S1131EF041047FF40DAF52EA43057FF4EBAE12E7E1
S1131F004A0011D212F5001211D20DD56FF4787374
S1131F10B3EB62520ED44FEAC12343F0004343EAC9
S1131F20505323FA02F070474FF00000704750EA14
S1131F30013002D14FF0FF3070474FF0000070477E
S1131F408A892DE9F041054610070C465AD44B689E
S1131F50002B05DC0B6C002B02DC0020BDE8F081BB
S1131F60E66A002EF9D0002312F480522F682B6009
S1131F7033D0606DA3895A0705D56368C01A636BB3
S1131F800BB1236CC01A00230246E66A216A284674
S1131F90B047431CA38906D129681D294BD82B4A75
S1131FA0CA40D60747D500226260D904226922605C
S1131FB004D5421C01D12B6803B96065616B2F60A5
S1131FC00029CAD004F14403994202D0284600F003
S1131FD08DF900206063BDE8F081216A0123284661
S1131FE0B047411CC6D12B68002BC3D01D2B01D098
S1131FF0162B01D12F60B0E7A38943F04003A381DE
S1132000BDE8F0810F69002FA7D093070E6808BFC1
S11320104B690F6018BF0023A6EB07088B60B8F16B
S1132020000F9ADD43463A46216AA66A2846B0471D
S1132030002807DCA38943F04003A3814FF0FF305D
S1132040BDE8F0810744A8EB0008E8E70100402060
S113205038B50B6905460C46DBB118B183690BB979
S113206000F072F80C4B9C4209D16C68B4F90C3046
S11320707BB121462846BDE83840FFF761BF074BD6
S11320809C4201D1AC68F1E7054B9C4208BFEC6867
S1132090ECE7002038BD00BF584100007841000043
S11320A038410000014620B9044B0549186800F086
S11320B0D3B8044B1868FFF7CBBF00BF98410000AA
S11320C05120000048010020014900F0C5B800BFBC
S11320D051200000002310B5044603604360836070
S11320E081814366C2810361436183611946082289
S11320F05C3000F0F3F8054B6362054BA362054BBB
S1132100E362054B2462236310BD00BFF92600007F
S11321101B270000532700007727000070B54A1ED4
S1132120682555430E4605F1740100F02DF9044667
S113213040B1002180E842000C30A06005F1680243
S113214000F0CCF8204670BD836910B5044633BB5B
S11321508364C3640365124B124A1B68826298420B
S113216004BF0123836100F01FF86060204600F083
S11321701BF8A060204600F017F80022E06004215C
S11321806068FFF7A7FF01220921A068FFF7A2FFFB
S113219002221221E068FFF79DFF0123A36110BD15
S11321A098410000C9200000F8B51C4B1E68B369B3
S11321B0074613B93046FFF7C7FF4836B46873685B
S11321C0013B03D5336833B13668F7E7B4F90C50F3
S11321D06DB16834F4E704213846FFF79FFF30609F
S11321E00028F1D10C233B6004462046F8BD4FF68D
S11321F0FF73E3810123A38165662560A5606560A3
S113220025616561A5610822294604F15C0000F09E
S113221065F86563A563A564E564E6E79841000095
S11322202DE9F041884600F14804002614B93046EF
S1132230BDE8F081A5686768013F01D52468F5E72A
S1132240AB89012B06D9B5F90E30013302D02846EB
S1132250C04706436835EFE72DE9F84380468946D1
S113226000F14804002614B93046BDE8F883A56897
S11322706768013F01D52468F5E7AB89012B07D9CD
S1132280B5F90E30013303D029464046C84706430A
S11322906835EEE770B50D4E0D4CA41BA410002557
S11322A0A54209D10B4E0C4C02F02CF8A41BA4102F
S11322B00025A54205D170BD56F825309847013553
S11322C0EEE756F8253098470135F2E71043000051
S11322D0104300001043000014430000024403466E
S11322E0934200D1704703F8011BF9E738B505465E
S11322F0002945D051F8043C0C1F002BB8BFE4184A
S113230000F09EFB1F4A1368104633B963601460E3
S11323102846BDE8384000F094BBA3420CD921689C
S11323206218934204BF1A685B68636004BF521862
S113233022600460ECE713465A680AB1A242FAD953
S113234019685818A0420BD12068014458188242D9
S11323501960DDD1106852685A6001441960D7E7EA
S113236002D90C232B60D3E7206821188A4204BFCA
S113237011685268626004BF091821605C60C7E795
S113238038BD00BFE003002070B5CD1C25F0030567
S113239008350C2D38BF0C25002D064601DBA9425B
S11323A003D90C233360002070BD00F049FB234A9D
S11323B01468214691B9224C23681BB9304600F0B9
S11323C0BDF820602946304600F0B8F8431C26D1F9
S11323D00C233360304600F034FBE4E70B685B1BEE
S11323E01AD40B2B0FD90B60CD50CC18304600F00B
S11323F028FB04F10B00231D20F00700C31A1BD097
S11324005A42E25070BD8C420DBF63684B686360F2
S1132410136018BF0C46E9E70C464968CAE7C41CB8
S113242024F00304A04205D0211A304600F086F8B7
S11324300130CDD02560D9E770BD00BFE003002096
S1132440E40300200FB40A4B13B51C6824B1A3693C
S113245013B92046FFF778FE05AB049AA1680193EF
S1132460204600F017FB02B0BDE8104004B07047EE
S11324704801002070B50E46054618B183690BB9B2
S1132480FFF762FEAB69AC6813B92846FFF75CFE40
S1132490234B9C4217D16C68A3891B071DD5236964
S11324A0DBB1013EA36816F8011F013BA360E9B943
S11324B0002B2EDA22460A21284600F061F9013069
S11324C011D00A2070BD174B9C4201D1AC68E3E7E0
S11324D0154B9C4208BFEC68DEE72146284600F015
S11324E0B3F90028DDD04FF0FF3070BD002B04DAC3
S11324F0A269934206DB0A2904D023685A1C22608D
S11325001970CFE72246284600F03AF90130C9D1C4
S1132510E9E723680A205A1C2260187070BD00BFC6
S1132520584100007841000038410000024B014648
S11325301868FFF79FBF00BF4801002038B5064C5C
S11325400023054608462360FEF7B0FA431C02D177
S1132550236803B12B6038BD480400200FB40A4B34
S113256013B51C6824B1A36913B92046FFF7ECFD29
S113257005AB049A61680193204600F08BFE02B01B
S1132580BDE8104004B070474801002000294FF412
S113259080630CBF0222002200F000B82DE9F7434B
S11325A01D46514B1E6804460F46904626B1B3693A
S11325B013B93046FFF7C8FD4C4B9C4252D17468A6
S11325C0B8F1020F06D0B8F1010F00F28980002D96
S11325D0C0F2868021463046FFF73AFD616B41B177
S11325E004F14403994202D03046FFF77FFE0023F2
S11325F063630023A3616360A3891B0603D5216978
S11326003046FFF773FEA38923F44A6323F00303E0
S1132610B8F1020FA3815DD001AB6A462146304672
S113262000F0A2F9A3891843A0812DBB009D284680
S113263000F0FEF9074600284ED1DDF80090A945C8
S11326403CD14FF0FF30A38943F00203A381002360
S1132650A36004F14703236023610123636103B092
S1132660BDE8F083224B9C4201D1B468A8E7214B1A
S11326709C4208BFF468A3E7002FD8D0B36913B90C
S11326803046FFF761FDB8F1010F08BFA389276049
S113269004BF43F00103A381A389276113F0080059
S11326A065611BD013F0010018BF6D424FF00003A9
S11326B01DBFA360A5611846A560D0E7484600F099
S11326C0B7F907460028BCD0A38943F08003A3814F
S11326D04D46D3E70020B6E7A946F5E7A060BEE77C
S11326E04FF0FF30BBE700BF480100205841000015
S11326F0784100003841000010B50C46B1F90E10C5
S113270000F048FF0028ABBF636DA3891B1823F4B6
S11327108053ACBF6365A38110BD2DE9F0411F4612
S11327208B89DB0505460C46164605D50223002297
S1132730B1F90E1000F006F9A389B4F90E1023F4D0
S11327408053A38132463B462846BDE8F04100F061
S113275069B810B50C46B1F90E1000F0F3F8431C3B
S1132760A38915BF606523F4805343F48053A38188
S113277018BFA38110BDB1F90E1000F0D3B800004A
S1132780F8B50E461446054618B183690BB9FFF730
S1132790DBFC214B9C422AD16C68A369A360A3890A
S11327A01A072ED5236963B323692068C01A6369A5
S11327B0F6B29842374604DB21462846FFF748FC28
S11327C028BBA368013BA36023685A1C22601E70C7
S11327D063690130984204D0A389DB0719D50A2E16
S11327E017D121462846FFF733FC90B10FE00B4B7D
S11327F09C4201D1AC68D0E7094B9C4208BFEC680D
S1132800CBE72146284600F01FF80028CCD04FF033
S1132810FF373846F8BD00BF58410000784100003A
S11328203841000038B5074C0546084611460022D9
S113283022601A46FEF73EFF431C02D1236803B10F
S11328402B6038BD48040020324B70B51D68064625
S11328500C4625B1AB6913B92846FFF775FC2E4B1E
S11328609C420FD16C68B4F90C309AB215072CD481
S1132870D00611D40922326043F04003A3814FF003
S1132880FF3070BD254B9C4201D1AC68EBE7244B73
S11328909C4208BFEC68E6E7510712D5616B41B171
S11328A004F14403994202D03046FFF71FFD002390
S11328B06363A38923F02403A38100236360236952
S11328C02360A38943F00803A38123694BB9A38937
S11328D003F42073B3F5007F03D02146304600F0A3
S11328E067F8A28912F001030CD00023A360636986
S11328F05B42A361236953B9B4F90C3013F080002F
S1132900BAD170BD920758BF6369A360F2E7002093
S1132910F7E700BF4801002058410000784100005B
S11329203841000038B5064C0023054608462360AC
S1132930FEF7CEF8431C02D1236803B12B6038BDE7
S11329404804002038B5074C0546084611460022C5
S113295022601A46FEF7C6F8431C02D1236803B16D
S11329602B6038BD4804002070B50E46B1F90E1036
S1132970002990B014461D4607DA00232B60B38962
S11329801A0610D44FF480630EE001AA01F0A8F8EF
S11329900028F2DB029A02F47042A2F500535A4274
S11329A05A412A60EEE740230020236010B070BD36
S11329B08B8973B59D0706460C4607D504F147037A
S11329C0236023610123636102B070BD01AB6A46D9
S11329D0FFF7CAFF009905463046FFF7D5FC48B912
S11329E0B4F90C309A05EFD423F0030343F0020347
S11329F0A381E3E70D4BB362A389206043F0800316
S1132A00A381009B6361019B20615BB1B4F90E104B
S1132A10304601F077F828B1A38923F0030343F08B
S1132A200103A381A3891D43A581CDE7C92000002B
S1132A30024B01461868FFF7A7BC00BF48010020FD
S1132A40704770479368013B002B10B4936008DA19
S1132A509469A34202DBCBB20A2B02D110BCFFF76C
S1132A608FBE1368581C10601970C8B210BC704730
S1132A70F8B506460F461446D518AC4201D10020DD
S1132A8007E03A4614F8011B3046FFF7DBFF431C0E
S1132A90F3D1F8BD2DE9F04F9DB00C4617460393D2
S1132AA0064618B183690BB9FFF74EFB7C4B9C4279
S1132AB057D17468A38918075DD52369002B5AD0B0
S1132AC00023099320238DF8293030238DF82A30F0
S1132AD04FF0010BB846454615F8013B002B55D184
S1132AE0B8EB070A0BD053463A4621463046FFF767
S1132AF0BFFF013000F0C480099B5344099398F848
S1132B000030002B00F0BC8000234FF0FF32049310
S1132B100793059206938DF853301A93052229786A
S1132B20604801F025F805F10108049B002831D123
S1132B30D90644BF20228DF853201A0744BF2B2204
S1132B408DF853202A782A2A2CD0079A00210A20AB
S1132B50A846013598F80030303B092B6DD971B384
S1132B6026E0514B9C4201D1B468A3E74F4B9C42F1
S1132B7008BFF4689EE721463046FFF765FE00284B
S1132B809ED04FF0FF301DB0BDE8F08F252BA7D0AD
S1132B90A846A0E7434A801A0BFA00F018430490B1
S1132BA04546BBE7039A111D12680391002A01DB15
S1132BB0079204E0524243F002030792049398F808
S1132BC000302E2B10D198F801302A2B08F1010186
S1132BD037D1039B1A1D1B680392002BB8BF4FF01B
S1132BE0FF3308F102080593314D98F800100322D1
S1132BF0284600F0BDFF40B14023401B03FA00F01B
S1132C00049B0343049308F1010898F80010294831
S1132C108DF82810062208F1010700F0A9FF00280A
S1132C2034D0254B03BB039B073323F0070308333E
S1132C300393099B4B4409934CE700FB02320121A7
S1132C4086E70023059318460A258846013198F83B
S1132C500020303A092A03D9002BC5D00590C3E7D8
S1132C6005FB00200123F0E703AB00932246134B3E
S1132C7004A93046AFF30080B0F1FF3F8146D8D1BC
S1132C80A3895B063FF57DAF09987CE703AB00930E
S1132C9022460A4B04A9304600F088F8ECE700BF4E
S1132CA0584100009C410000784100003841000078
S1132CB0A2410000A641000000000000712A0000AB
S1132CC02DE9F04791461F468A680B69DDF820809C
S1132CD09342B8BF1346C9F8003091F84320064622
S1132CE00C4612B10133C9F800302368990642BF7B
S1132CF0D9F800300233C9F80030256815F006050C
S1132D0007D104F1190AE368D9F800209B1A9D42FF
S1132D1029DB94F843302268003318BF012392065C
S1132D202ED404F1430239463046C047013021D045
S1132D302368E568D9F8002003F00603042B08BFD4
S1132D40AD1AA36822690CBF25EAE57500259342F4
S1132D50C4BF9B1AED184FF000091A344D451BD11E
S1132D600020BDE8F0870123524639463046C0476B
S1132D70013003D14FF0FF30BDE8F0870135C2E7E1
S1132D80E1185A1C302081F84300224494F845107D
S1132D9082F843100233C4E7012322463946304601
S1132DA0C0470130E6D009F10109D7E72DE9F04326
S1132DB017460A7E85B06E2A984606460C460C9B3A
S1132DC001F1430E00F0BC801AD8632A2ED00AD831
S1132DD0002A00F0C880582A00F08A8004F14205D5
S1132DE084F842202AE0642A01D0692AF6D12168B5
S1132DF01A6811F0800F23D0111D1960136827E0A1
S1132E00732A00F0B48008D86F2A2AD0702AE5D13A
S1132E100A6842F020020A6003E0752A21D0782A69
S1132E20DCD1782284F845206E4964E01A6801F107
S1132E304205111D1960136884F842300123A3E090
S1132E4011F0400F02F104011960D7D0B2F900303B
S1132E50002B03DA2D225B4284F8432062490A22C4
S1132E6017E02068196810F0800F03D0081D18605F
S1132E700B6806E010F0400F01F104001860F7D071
S1132E800B8859496F2A14BF0A220822002084F8AB
S1132E9043006568A560002DC0F29C80206820F086
S1132EA004002060002B3FD1002D40F09580754632
S1132EB0082A0BD12368DA0708D5236962689A4285
S1132EC0DEBF302305F8013C05F1FF35AEEB050309
S1132ED02361CDF800803B4603AA21463046FFF724
S1132EE0EFFE013055D14FF0FF3005B0BDE8F0835F
S1132EF081F845203C492268186812F0800F00F1DF
S1132F0004051D6001D0036802E05506FBD5038863
S1132F10D00744BF42F0200222601BB9226822F08D
S1132F20200222601022B1E77546B3FBF2F002FBE7
S1132F301033CB5C05F8013D03460028F5D1B7E713
S1132F4008681A68496910F0800F04D0101D1860D1
S1132F501368196007E010F0400F02F104001860D4
S1132F601368F6D01980002323617546B1E71A6807
S1132F70111D1960156862680021284600F0F8FDEB
S1132F8008B1401B606063682361002384F8433008
S1132F909FE723692A4639463046C0470130A2D00C
S1132FA023689B0707D5002504F11909E368039AF0
S1132FB09B1A9D4205DBE068039B9842B8BF184604
S1132FC093E701234A4639463046C04701308AD048
S1132FD00135EBE7002BA7D10B7884F8423004F1DC
S1132FE0420565E7BE410000AD4100002DE9F04F08
S1132FF0ADF5257D0DF10C0801930023469347930D
S1133000A04BA293DFF884929F4BCDF82081064613
S11330100C46A39392460A279AF80030002B00F03E
S11330202F8100F083FD9AF800B05844437813F0E0
S1133030080343D1BBF1250F0AF1010540F0998043
S1133040459343939AF801302A2B03D110234393D9
S11330500AF102052978A1F13002092AAA4605F1EC
S1133060010541D90322894800F082FD38B1A0EB63
S1133070090301209840439B18434390AA469AF8B9
S11330800030672B0AF101054AD8652B80F0B78020
S1133090472B2FD8452B80F0B280002B00F0828084
S11330A0252B66D003234993449745E04799013182
S11330B04791616801330139616023606368002BC3
S11330C00BDD00F033FD23681978084441780D07BF
S11330D0ECD40AF10105AA469EE7A39B214630469B
S11330E098470028EDD0F4E7459B07FB0313303BDA
S11330F04593AFE75B2B61D00CD8582BD2D1439AC0
S113310042F400724392102244926F2BB4BF032303
S1133110042310E0632B5CD0642BC3D14497F4E701
S1133120702B42D01DD86E2B59D043D8692BB9D1FE
S113313000234493032349936368002B61DD439B7D
S113314059066FD5499B022B7CDC01AB224643A96F
S1133150304600F0C7F8012800F092800228BAD166
S11331601DE0752BDAD0782BC9D0732B9AD10223AA
S1133170E1E76368002B0CDD23681A7893457FD15F
S1133180013362682360479B013A013362604793CD
S1133190A1E7A39B2146304698470028ECD04698E7
S11331A0002863D14FF0FF3066E0439A42F02002DA
S11331B04392A4E7082344930423BCE729464046EA
S11331C000F08EFA439B43F04003439305460123EA
S11331D0B1E7439B43F0400343930023ABE7439A97
S11331E0D0063FF578AF12F0010F019A479B02F128
S11331F004010191126814BF138013606BE7052367
S113320099E7A39B214630469847002897D0C6E704
S1133210479A013247926268013A002A62600ADDE5
S11332200133236000F082FC23681A78104442784A
S11332301207EDD486E7A39B214630469847002821
S1133240F0D0ACE7042B06DC01AB224643A93046A0
S113325000F0ACF87FE70E4B002B3FF43CAF01AB22
S1133260224643A93046AFF3008074E7A38913F0E4
S1133270400F18BF4FF0FF300DF5257DBDE8F08FEE
S11332804698F9E7FD390000CD350000A241000061
S1133290000000002DE9F0410C4616461F46054685
S11332A018B183690BB9FEF74FFF0B4B9C4208D151
S11332B06C683B46324621462846BDE8F041FFF79C
S11332C095BE064B9C4201D1AC68F2E7044B9C428C
S11332D008BFEC68EDE700BF5841000078410000EA
S11332E0384100002DE9F04115468A6880460C46B5
S11332F032B98A69002A0CBF01224FF0FF328A607A
S11333002268D1065FBF1A68111D1960176800266C
S1133310A369DBB1012B07D12B6862691B78D35CED
S1133320A3B9002E32D106E0022B07D0002E2DD1F6
S1133330A369012B2AD10120BDE8F08100F0F6FB3E
S11333402B681B78184443781B07EFD42368DA06EC
S11333505EBF2B681B783B702A686B6802F1010220
S11333602A60A26803F1FF3302F1FF326B6006F1B9
S1133370010658BF0137A26042B1002BC8DCD4F863
S113338080312946404698470028C1D0236813F06D
S1133390100305D1E2680132E260A26902B13B7018
S11333A023691E4426610020BDE8F0812DE9F04F19
S11333B09A46744B0C468346164693E8070087B03A
S11333C003ABA76883E807006F4BA1696F4A032921
S11333D018BF1A467B1EB3F5AE7F84BF40F25D135F
S11333E0A3602368009243F4506388BF6FF4AE7502
S11333F004F11C0923608CBF7F1900274B464FF052
S113340000080193316803AB022253F828000978BD
S113341000F0AEFB019B28B3B8F1010F56D16268EE
S11334202AB908226260226842F40072226022688B
S113343022F4A0622260A268511EA16092B1326897
S1133440511C316012781A705D1C7368013B002BAB
S1133450736006DCD4F8803131465846984700281A
S113346076D12B4608F10108B8F1030FC9D162687F
S11334700AB90A2262606268454960690193891A3F
S113348000F02EF9019B4FF000081D46A368002BA5
S113349038D0316860690A78805C002832D0302ADC
S11334A0226821D110051FD508F1010817B1013395
S11334B0013FA3607368013B002B73601BDD33681D
S11334C001333360A368013BA360DFE7B8F1020F67
S11334D0B1D1226802F4C061B1F5007FC2D11021DC
S11334E0616042F48072A5E722F4106222600B78D6
S11334F02B700135DEE7D4F88031314658469847C1
S11335000028DFD02368D9050CD54D4508D915F816
S1133510011CD4F87C313246584698476F1E3D460C
S11335204D452CD0226812F010021ED12A70636817
S1133530009E49465846B0472268DAF8003012F037
S1133540200F08D01A1DCAF800201B68186009E073
S11335504FF00008D6E7D207F4D51A1DCAF80020A8
S11335601B681880E3680133E360A5EB0905A844F0
S1133570256945442561002007B0BDE8F08F01208E
S1133580FAE700BFD0410000613900004138000073
S1133590EC41000038B5074C0546084611460022A8
S11335A022601A46FEF776F8431C02D1236803B161
S11335B02B6038BD48040020838903F00903092BDC
S11335C001D1FEF76FBD002070470000F8B50C462E
S11335D0054618B183690BB9FEF7B6FD3B4B9C4217
S11335E00AD16C68B4F90C200023636093B29E0680
S11335F00CD54FF0FF30F8BD354B9C4201D1AC687F
S1133600F0E7344B9C4208BFEC68EBE7580748D41A
S1133610D90605D4092342F040022B60A281E8E7D1
S11336201A070BD521462846FEF712FD0028E0D1E3
S1133630A389A06023F00803A381A061A38943F0B8
S11336400403A38123691BB921462846FFF7B0F977
S1133650B4F90C70BEB2B3070FD00123A3811E4B83
S11336601E49186806F00906FEF7DAFD092EA7813F
S113367003D121462846FEF763FC22692260666A6C
S11336806369216A2846B047002860601CDCA3896E
S113369017BF002243F0200343F040036260A3817C
S11336A0A7E7616B0029CDD004F14403994202D00D
S11336B02846FEF71BFE236C636000206063002B2A
S11336C0C0D0E36B2360F8BD0020F8BD5841000072
S11336D0784100003841000098410000B9350000ED
S11336E070B50B785E2B13BF4A1C8A1C4B780021E3
S11336F008BF0121441E00F1FF0504F8011FA54283
S1133700FBD113B9013A104670BD81F00104C454D1
S113371011460D782D2D01F1010206D05D2DF2D058
S11337200DB90A46EFE72B46F1E74E785D2EFAD045
S1133730B342F8DC023101339E42C454FBDCE8E7B7
S11337402DE9F84F8046894692461F468B465D46D2
S11337500A9815F8014B00F0E5F92044467816F074
S113376008060BD12D2C0BD12C7801260BF1020568
S113377067B1102F14D1302C0AD011E0AB46E6E724
S11337802B2C04BF2C780BF10205F1E7302C27D148
S11337902B7803F0DF03582B4BD16C7810270235BC
S11337A0002E0CBF6FF000414FF000410022B1FB2E
S11337B0F7FE104607FB1E1CA4F13003092B11D899
S11337C01C46A7421DDD531C07D0864516D301D1E4
S11337D0A44513DB00FB0740012215F8014BEBE77E
S11337E00A27DDE7A4F14103192B01D8373CE8E7A8
S11337F0A4F16103192B04D8573CE2E74FF0FF32E0
S1133800EBE7531C08D12223C8F800300846BAF16C
S1133810000F07D1BDE8F88F06B14042BAF1000F9E
S11338200CD022B1013DCAF80050BDE8F88F4D46D6
S1133830F9E73024002FB3D10827B1E7BDE8F88FAA
S113384037B5064C064D2468246A002C08BF2C4664
S11338500094FFF775FF03B030BD00BF480100209E
S1133860AC0100202DE9F0478046894692461E4669
S11338700F463D46089815F8014B00F053F92044D3
S1133880437813F008030AD12D2C0AD12C78012394
S1133890BD1C5EB1102E13D1302C09D010E02F4680
S11338A0E7E72B2C04BF2C78BD1CF2E7302C25D184
S11338B02A7802F0DF02582A4AD16C7810260235A1
S11338C04FF0FF310027B1FBF6F106FB01FE6FEA72
S11338D00E0E3846A4F13002092A11D81446A64225
S11338E01DDD002F18DB814216D301D1A64513DB61
S11338F000FB0640012715F8014BEBE70A26DFE73A
S1133900A4F14102192A01D8373CE8E7A4F1610285
S1133910192A04D8573CE2E74FF0FF37EBE7002FB2
S113392009DA2223C8F800304FF0FF30BAF1000F53
S113393007D1BDE8F08703B14042BAF1000F0CD0C3
S113394027B1013DCAF80050BDE8F0874D46F9E7BC
S11339503024002EB4D10826B2E7BDE8F087000079
S113396037B5064C064D2468246A002C08BF2C4643
S11339700094FFF777FF03B030BD00BF480100207B
S1133980AC0100202DE9F0410C46496B04F14403DD
S113399099421ED14FF48061FEF7F6FC18B94FF03E
S11339A0FF30BDE8F0814FF48063A36394F84630A0
S11339B0606380F8FF3394F8453080F8FE3394F860
S11339C0443080F8FD3300F2FD3020600020BDE873
S11339D0F081A66B77003A4600F025F905460028E9
S11339E0DDD000EB060801463246404600F010F9EF
S11339F0C4F800806563A763E8E700004B1C70B55A
S1133A0006460D46144603D14FF0FF35284670BDD7
S1133A1018B183690BB9FEF797FB2E4B9C422CD14E
S1133A207468B4F90C3023F02003A3819BB25907C6
S1133A3013D4DA06E8D51B070BD521463046FEF72A
S1133A4007FB0028E0D1A389A06023F00803A38129
S1133A50A061A38943F00403A381636B6268EDB2A0
S1133A60E3B1A36B9A4212DA23685A1E226003F868
S1133A70015C636801336360C8E7174B9C4201D162
S1133A80B468CEE7154B9C4208BFF468C9E72146E9
S1133A903046FFF777FF0028E6D0B5E721692368B1
S1133AA051B1994208D213F8011C8D4204D1013B53
S1133AB0013223606260A9E7E36304F144036363B2
S1133AC00323A3632346226403F8465F2360012390
S1133AD0D1E700BF584100007841000038410000A0
S1133AE038B5074C00230546084611462360FCF709
S1133AF0F2FF431C02D1236803B12B6038BD00BF21
S1133B004804002038B5064C0023054608462360C7
S1133B10FCF7E6FF431C02D1236803B12B6038BDD8
S1133B2048040020D0F8EC0070470000044B054A1C
S1133B301B681B6A002B08BF1346D3F8EC007047C0
S1133B4048010020AC01002082B001B901A942B1B2
S1133B504BB113780B601278101C18BF012002B00F
S1133B6070471046FBE76FF00100F8E70000000023
S1133B7001F0FF01102A2BDB10F0070F08D010F81A
S1133B80013B013A8B422DD010F0070F42B3F6D11E
S1133B90F0B441EA012141EA014122F007047FF037
S1133BA000070023F0E80256083C85EA010586EA8E
S1133BB0010685FA47F5A3FA87F586FA47F6A5FACA
S1133BC087F68EB9EED1F0BC01F0FF0102F00702D6
S1133BD032B110F8013B013A83EA010313B1F8D181
S1133BE00020704701387047002D06BF3546033862
S1133BF0073815F0010F07D1013015F4807F02BF9B
S1133C00013015F4C03F0130F0BC0138704700BFEB
S1133C1010B5431E0A44914200D110BD11F8014B66
S1133C2003F8014FF7E7F8B5074614460E4621B9E5
S1133C301146BDE8F840FEF7A7BB22B9FEF756FBD4
S1133C4025462846F8BD00F021F884420FD92146C4
S1133C503846FEF799FB05460028F2D03146224645
S1133C60FFF7D6FF31463846FEF740FBE9E7354615
S1133C70E7E749B1FF2A85BF8A2303600A704FF042
S1133C80FF3098BF012070470846704751F8040C74
S1133C900028A0F10400BCBF0B58C01870470000F6
S1133CA02E2E2F68616C2F7372632F68616C5F69AD
S1133CB06F2E63002E2E2F68616C2F7372632F6832
S1133CC0616C5F6D63695F73796E632E63000000DE
S1133CD02E2E2F68616C2F7372632F68616C5F7076
S1133CE0776D2E63000000002E2E2F68616C2F73F9
S1133CF072632F68616C5F75736172745F73796E40
S1133D00632E63002E2E2F68706C2F736468632FEC
S1133D1068706C5F736468632E6300000030004059
S1133D2000340040002001410040014100000043F4
S1133D300004004300080043000C0043000000009E
S1133D40040010400000030002007000ADD8000021
S1133D500000000002000000040010400000030006
S1133D6002007000ADD80000000000000000000058
S1133D70000000000000000000000000000000003F
S1133D80000000002E2E2F68706C2F736572636F15
S1133D906D2F68706C5F736572636F6D2E630000C6
S1133DA000380040003C004000A0014100C0014137
S1133DB0001400420018004200140043001800439D
S1133DC02E2E2F68706C2F74632F68706C5F746371
S1133DD02E6300000D0A21212121212121212049C6
S1133DE06E20486172644661756C745F48616E64EC
S1133DF06C65722021212121212121210D00000047
S1133E000D0A0D0A3D3D3D3D3D3D3D3D4C6944415E
S1133E1052204175746F6D61746564204D617070DA
S1133E20696E672053797374656D20284C414D5336
S1133E30293D3D3D3D3D3D3D3D0D000025730000C8
S1133E400D0A53656C6563746564206F7074696FE3
S1133E506E2069732025640D0A0000000D0A496E66
S1133E6076616C6964206F7074696F6E200D000058
S1133E700D0A53657474696E6720736572766F20DA
S1133E80616E676C6520746F2025306420282530AE
S1133E90642F32323733290D0A0000000D0A5265AF
S1133EA07475726E696E6720746F206D61696E201F
S1133EB06D656E750D0000000D0A456E7465722007
S1133EC0616E676C65203E3E2000000025640D0A8B
S1133ED04552524F523A20496E76616C69642061B2
S1133EE06E676C652E20416E676C65206D7573740A
S1133EF0206265206265747765656E203020616E8E
S1133F0064203138300D0A000D0A496E76616C69FF
S1133F1064206F7074696F6E0D0000000D0A4461B7
S1133F2074612061742074657374206164647265C3
S1133F307373202564206973203D2025640D0A00D5
S1133F400D0A496E76657274656420746865206430
S1133F506174612061742074657374206164647297
S1133F6065737320616E64207772697474656E0D75
S1133F70000000000D0A506C6561736520636F6E6C
S1133F806669677572652053424C4B20667573658C
S1133F9020746F20616C6C6F6361746520536D6174
S1133FA07274454550524F4D20617265610D000099
S1133FB025303264200000000D0A536D617274458F
S1133FC04550524F4D20636F6E7461696E73207655
S1133FD0616C69642064617461200D000D0A53747E
S1133FE06F72696E67207369676E6174757265209C
S1133FF0746F20536D617274454550524F4D20616A
S1134000646472657373203078303020746F2030AC
S11340107830330D000000000D0A46757365207674
S1134020616C75657320666F722053424C4B203D62
S11340302025642C2050535A203D2025642E2053E3
S1134040656520746865207461626C652027536D12
S1134050617274454550524F4D20566972747561B2
S11340606C20090953697A6520696E204279746568
S1134070732720696E2074686520446174617368D5
S113408065657420746F2063616C63756C6174651D
S113409020746F74616C20617661696C61626C6517
S11340A0206279746573200D0A0000000D0A4545ED
S11340B050524F4D204461746120617420666972CE
S11340C07374202564206C6F636174696F6E733A36
S11340D0200D0A000D0A456E7465722061646472D5
S11340E0657373203E3E20000D0A4552524F523AEA
S11340F0204164647265737320696E76616C6964CF
S11341002E2054727920616761696E200D000000D1
S11341100D0A456E7465722064617461203E3E2010
S1134120000000000D0A5772697474656E202564DE
S113413020617420256400000000000000000000DD
S1134140000000000000000000000000000000006B
S1134150000000000000000000000000000000005B
S1134160000000000000000000000000000000004B
S1134170000000000000000000000000000000003B
S1134180000000000000000000000000000000002B
S113419000000000000000004C010020232D302B03
S11341A02000686C4C006566674546470030313234
S11341B0333435363738394142434445460030318B
S11341C032333435363738396162636465660000EA
S11341D0EE410000F1410000F4410000412D466130
S11341E02D66383930313233343536375D002B2D76
S11341F0003030007858004300504F534958002E87
S113420000002020202020202020202828282828C2
S1134210202020202020202020202020202020209A
S113422020208810101010101010101010101010F2
S113423010100404040404040404040410101010F2
S113424010101041414141414101010101010101AD
S1134250010101010101010101010101011010101D
S11342601010104242424242420202020202020280
S113427002020202020202020202020202101010F0
S113428010200000000000000000000000000000FA
S1134290000000000000000000000000000000001A
S11342A0000000000000000000000000000000000A
S11342B000000000000000000000000000000000FA
S11342C000000000000000000000000000000000EA
S11342D000000000000000000000000000000000DA
S11342E000000000000000000000000000000000CA
S11342F000000000000000000000000000000000BA
S113430000000000F8B500BFF8BC08BC9E4670472A
S113431089020000F8B500BFF8BC08BC9E4670478F
S1074320650200002E
S113432400006B0000030000000000327B920000D8
S1134334E35700000D0A2A2A2A2A2A2A2A2A20456F
S11343446E7465722063686F696365202A2A2A2A59
S11343542A2A2A2A200D0A20312E205265736574D4
S1134364206465766963650D0A20322E2045455024
S1134374524F4D0D0A20332E20536572766F0D0A69
S113438420342E204C694441520D0A00FFFF0100E1
S1134394FFFF00000D0A2A2A2A2A2A2A2A2A20454B
S11343A46E7465722063686F696365202A2A2A2AF9
S11343B42A2A2A2A200D0A20312E204261636B20E6
S11343C4746F206D61696E206D656E750D0A2032FF
S11343D42E2053657420736572766F20616E676C4A
S11343E4650D0A0000000044000000440D0A2A2A56
S11343F42A2A2A2A2A2A20456E7465722063686F41
S1134404696365202A2A2A2A2A2A2A2A200D0A20AC
S1134414312E205265736574206465766963650D75
S11344240A20322E204261636B20746F206D61690F
S11344346E206D656E750D0A20322E2052656164FE
S113444420536D617274454550524F4D0D0A20330B
S11344542E20577269746520536D617274454550FA
S1134464524F4D0D0A0000004C01002000000000D2
S11344745841000078410000384100000000000069
S11344840000000000000000000000000000000024
S11344940000000000000000000000000000000014
S11344A40000000000000000000000000000000004
S11344B400000000000000000000000000000000F4
S11344C400000000000000000000000043000000A1
S11344D400000000000000000000000000000000D4
S11344E40000000000000000000000004300000081
S11344F400000000000000000000000000000000B4
S11345040000000000000000000000004300000060
S11345140000000000000000000000000000000093
S11345240000000000000000000000004300000040
S11345340000000000000000000000000000000073
S11345440000000000000000000000004300000020
S11345540000000000000000000000000000000053
S11345640000000000000000000000004300000000
S11345740000000000000000000000000000000033
S113458400000000000000000000000043000000E0
S11345940000000000000000000000000000000013
S11345A4000000000000000000000000733C000054
S11345B4493B00000000000001420000FF410000EC
S11345C4A1410000A1410000A1410000A14100005B
S11345D4A1410000A1410000A1410000A14100004B
S11345E4A1410000FFFFFFFFFFFFFFFFFFFFFFFFED
S11345F4FFFF00000100415343494900000000004B
S113460400000000000000000000000000000000A2
S11346140000000000004153434949000000000029
S11346240000000000000000000000000000000082
S10B463400000000000000007A
S9030000FC
